:20000000004B0020815A0100FDC90110FDC90110FDC90110FDC90110FDC90110FDC901108F
:1C002000FDC90110FDC90110FDC90110FDC90110FDC90110FDC901103BCA0110A4
:20003C00FFFFFFFFFFFFFFFF9A100000000000000000000000000000000000000000000002
:20005C000000000000000000000000000000FAFA1400000000000000000000010000010179
:20007C00000000000000000000000000000000000000000000000000000000000000000064
:20009C00000000000000000000000000000000000000000000000000000000000000000044
:2000BC000000007800080230000800000000000000000804FA000000FFFFFF000C1100004A
:2000DC000000000000001D1100000000000000002E010F000000FA0000002F010F0000005F
:2000FC00FA000000300100000000FF000000310100000000FF000000320100000000030053
:20011C0000003301000000000300000034010000000001000000350200000000FFFF000021
:20013C00370200000000FF000000390200000000FF0000003B0200000000FFFF00003D01B8
:20015C0000000000FF0000003E0100000000010000003F01000000000100000040010000C2
:20017C0000000700000041200000000000000000610200000000FFFF00006308000000002F
:20019C00000000006B080000000000000000730800000000000000007B08000000000000D2
:2001BC000000830205000000580200008501000000001000000086010000000032000000F0
:2001DC0087010000000032000000000038C40D00C8000000810000320F01000000C50D00E3
:2001FC00900100004000009605010000952B0D00C8000000220000320F0200003600010045
:20021C000600000000000000000F000000000000000000000000000000000300FFFF0000AC
:20023C000403FFFF0000FFFF0F00F4010005401F0320000100000000FF3F0F0008000E00B0
:20025C0000000000000000000300010F000009010000000000000000000000000000000065
:20027C0000000000000000000000000000000000000000000000000000000000AD000000B5
:20029C000001363601010001020100010301000104010606080400000C0100340D01000F4E
:2002BC0010040101140100FF1608000020020000220100FF23010001240100FE2501000820
:2002DC002602000028010001290100012A0200002C01000F2E020000300100013101000881
:2002FC00320200FF3401000735010240360100003701000138010001390100FF3A01000FCE
:20031C003C0200FF3E01010F3F0100014001041F41010001420100FF4301008044080000FB
:20033C004E0100084F01000F50010001510100FF5201090A53010185540100015804000056
:20035C005C0400006004000064040000680400006C04000070040000740400007804000011
:20037C007C040000800100FF81010001000120181A18182C34041E000C0E020B040B0A0792
:20039C000800110F00000500B900B300AD00B8001C00300038000800340102000304710404
:2003BC0002046004110470040204020401040204000410046104000414046304730472042A
:2003DC0062044304000413040604000400040404120400040004000400045104640000043C
:2003FC0000040004440400040004000400046504000435048104640005040004830400045A
:20041C006604000400040804010171010101010111010101310101010101800100011001ED
:20043C0061013B001400630173017201620143010001130106013D01350004011201000155
:20045C0000010001000104010401330133013C014401320136000001000165010001350082
:20047C008101000105018201830100016601000100010801030271023001600211027002CD
:20049C0001020202020280020002100261023A0041006302730272026202430200021302B3
:2004BC0038000002000204021202000200020002000204020402370037003C0244020002C2
:2004DC00390000020002650200023502810200020502820283020002660200020002080216
:2004FC0000ED4D01000009480100027339000000C5920100017339000000C5920100030540
:20051C00F4000000C5920100045792010000C5920100014B920100014592010001C592011C
:20053C000001C592010001C5920100009561010001C592010001C592010001C592010001EA
:20055C00C5920100024B920100024592010002C5920100009561010002C592010002C59269
:20057C000100029D4D010002C5920100049F70000000C5920100034B9201000345920100F0
:20059C000373390000037339000003C59201000305F4000003C5920100009561010003C570
:2005BC0092010003C5920100044B9201000445920100047339000004733900000473390063
:2005DC0000049F70000004C592010004C5920100045192010000956101000000E9FA010071
:2005FC000300000000040000EDF701008BF90100DFF90100F9F301005DF40100D5F8010088
:20061C0061FA0100C7F90100B1FA0100F9F2010019F501006DF9010001F901006DF5010035
:20063C00BDFA0100D5FA01009DFA010089FA010043FA010035FA0100D5F601006FFA010056
:20065C00ADF9010015FA01009DF60100DFFA0100F12B01007970010001F00100C1F50100A9
:20067C0029F10100FDF901000D6201002D88010015880100BDF40100B98F0100AB8F010052
:20069C0059F60100000000000000000057910100BD8E010015F701000000000000000000AC
:2006BC00000000000000000002040201010101090200A2A6A8A0A5A59F95AD96B8B2A43177
:2006DC003117191A21241B1D1F31313331313118191A22311C1E2031313431000000000000
:2006FC0002000000020000000A0000000200000002000100000000000000000000000000CB
:20071C00000000000000000000000000000000000E00000003007100300160001100700029
:20073C003102200350048000070010006100000014006300730072006200430000001300E7
:20075C0006000000000004001200000000000000000004000400370037003C024400000069
:20077C0000000000000065000000350081000000050000008300000066000000000008004C
:20079C00010371030103010301030103010322030203010300031003000300030003000361
:2007BC000003000300034203000324030603000300030403120325032303250323030403D7
:2007DC00040300030003000344030003000323030003650321003503810300030503000324
:2007FC000003000300032503230308038F0000008F0001008F0002008F00030090000001A8
:20081C008F00010190000002900000038F0001048F0000058F0008048F0000048A00000620
:20083C00510000007F0001003F0004003F0002003F0001007F0002007B756E6B6E6F776EFB
:20085C002D696E7374616E63652D6E616D657D007B656D7074792D696E7374616E63652D56
:20087C006E616D657D00C0467B7374617469632D696E7374616E63652D6E616D657D00C0A8
:20089C0000000000080000000000000020000000400000006000000000000000060000006E
:2008BC000200000086000000820000000000000008000000100000001800000020000000C2
:2008DC00C003000080070000000F0000001E0000003C00000078000000F0000000E0010000
:2008FC0000C003000080070000000F0000001E0000003C00000078000000F0000000F000D1
:20091C0006088080070880800D2007C00E2007C01400C080024000800300C0800108C08013
:20093C001E08C08009400080084000800A400080FE000000000100020101003202010002A0
:20095C00000000000301000704010003050800000D0101FF0E0800001608000020020000F7
:20097C00E91A0100113E0100ED88010081AB000075C900006F9201003D340100D1D2000010
:20099C0075920100751B010000000000FFFFFFFFFFFFFFFF000000000000000001010101A6
:2009BC0000C2010003000000000000007BC80110C5BC0110D9B2011033C20110BDAD011052
:2009DC00C1B101106DBA011065BB01101DC00110001000400600000015000000FF000000B7
:2009FC00000000000302FFFF0836002040000000FFFFFFFFC4090000000000000000000071
:200A1C0001003A0100000000000000007C090000A82E0020EC09000000000000000000000E
:200A3C0000000000C33B3D3A5D3A713AA10A8F3A0F3BB309495E850A2F3B853B00161016CD
:200A5C000E18151C0212032418580302100258000100000000000000000000000000010007
:200A7C0000000000BC330020A00A000000000000000000000000000099E900006941010074
:200A9C0001010100004002400B00000027000000FF00000003010200010006000100000076
:200ABC0000010509000408100004081041B5011095A6011015B8011000BE040A00BE02080E
:200ADC00FFFFFFFFFFFFFFFFFFFFFFFFFFFFFFFFFFFFFFFFFFFFFFFFFFFFFFFFFFFFFFFF1A
:200AFC003545251502030504FF0000000000000001020101FFFF00000F00000085920000F0
:140B1C00D1C0011061AD01100A000000081B0020BD88010071
:201000003C000000000000000000000034100000000000000000000001000000000000004F
:1C10200000000000000000000000000001000000000000000800000000000000AB
:20103C003400000000000000000000006810000000000000000000000100000000000000E7
:14105C00010000000000000000000000080000000000000077
:2010700030000000000000000000000098100000040000000000000001000000FFFFFFFF87
:10109000FF00000001000000080000000000000048
:2010A0002C0000000000000000000000C4100000040000000000000001000000FFFFFFFF2F
:0C10C000FFFFFFFF080000000000000020
:2010CC0038140000E410000095A1011091A70110A1C2011009B2011041B8011000000000EA
:0810EC00000000002D000000CF
:2010F400280000000000000000000000141100000000000000000000FFFFFFFF0000000093
:081114000800000000000000CB
:20111C00341400003011000065C2011069C101101BC2011091BA011000000000000000006D
:04113C002F00000080
:20114000341400005411000071C20110A5B6011099BF011045B601100000000000000000BD
:04116000300000005B
:201164002400000000000000000000008011000000000000000000000000000008000000AE
:041184000000000067
:20118800240000000000000000000000A41100000000000000000000000000000800000066
:0411A8000000000043
:2011AC00240000000000000000000000C8110000000000000100000000000000080000001D
:0411CC00000000001F
:2011D00000000000081C0020040000000000000000000000200000007010000030000000E7
:2011F0001C110000101C00200400000000000000000000000C0000003013000018000000FB
:2012100040110000181C00200400000000000000000000002400000048130000180000007E
:2012300000000000201C002004000000000000000000000010000000A01000002C00000052
:20125000CC100000281C002004000000000000000000000020000000641100002400000081
:20127000FFFFFFFF301C00200400000000000000000000002800000088110000240000000D
:20129000FFFFFFFF381C0020040000000000000000000000580000003C10000034000000F2
:2012B000FFFFFFFF401C002004000000000000000000000010000000601300001800000007
:2012D000FFFFFFFF481C00200400000000000000000000001C000000AC110000240000007D
:2012F000FFFFFFFF501C002004000000000000000000000038000000F410000028000000EE
:20131000FFFFFFFF581C002004000000000000000000000054000000001000003C00000089
:1813300018000000000000000000000040130000080000000000000032
:1813480018000000000000000000000058130000080000000000000002
:18136000180000000000000000000000701300000800000000000000D2
:08137800010000002C0B000035
:041384000100000064
:0413880000000E0053
:04138C0000000F004E
:041390003200000027
:041394000100000054
:04139800601B0020B6
:04139C00000200004B
:0413A0005D92010059
:0413A400FDC901106E
:0413A8000000000041
:0413AC00000000003D
:0413B0000800000031
:0413B4000000220013
:0413B800DC1800201D
:0413BC00010000002C
:0413C000781B002076
:0413C400080000001D
:0413C8000000000021
:0413CC00000000001D
:0413D0000000000019
:0413D400080000000D
:0413D8000000000011
:0413DC00000000000D
:0413E0000100000008
:0413E400381A002093
:0413E80006000000FB
:0413EC0001000000FC
:0413F000C017002002
:0413F40000000000F5
:0413F80000000000F1
:0413FC0000020000EB
:0414000000000000E8
:021406002900BB
:021408000100E1
:02140A002500BB
:02140C002F00AF
:02140E003000AC
:021410002D00AD
:021412000100D7
:0114140001D6
:0814180003000000C80A0000F7
:081420000000000000000000C4
:0414280000000100BF
:04142C0000000300B9
:0414300083C4011060
:041434003C14000064
:041438003C14000060
:04143C0000000000AC
:041440008000000028
:041444008000000024
:0414480000000000A0
:04144C00781B0020E9
:04145000798E010090
:041454002000000074
:041458006C0A00001A
:04145C00C8090000BB
:0414600009C30110AB
:04146400DF6A01003A
:041468006B7701009D
:04146C0095C801100E
:0414700097C8011008
:041474000000000074
:04147800F605000075
:04147C006C080000F8
:0414800084080000DC
:041484005408000008
:0214880008005A
:02148A00090057
:02148C0001005D
:02148E0000005C
:01149000015A
:041494000000000054
:041498000000000050
:04149C00000000004C
:0414A0000000000048
:0414A4003993010077
:0414A800CD69010009
:0414AC00417E01007C
:0414B000896E010040
:0414B400876F01003D
:0414B8009D60010032
:0414BC001D2F0100DF
:0414C000E38F0100B5
:0414C40035430100AB
:0414C8000DC801103A
:0414CC001DC8011026
:0414D0000800000010
:0414D40024000000F0
:0414D80018000000F8
:0414DC0028000000E4
:0414E00020000000E8
:0414E4003C000000C8
:0414E8000C000000F4
:0414EC0034000000C8
:2014F0007E482DE9F04F0C4601210170DFF8F491DFF8F481DFF8F4B1DFF8F4A178494FF04C
:20151000000C2027ADF1440D65461F4081F800C0CE490E9391F83C600D9205EA020008BF02
:2015300000287AD10D984FF0E047194662460F4002EA000008BF002843D10E9E0D9B4FF441
:201550008601B9F8B200DFF828C3CDF8289012EA060701EA030108BF002919D1C34912EA78
:20157000060701EA030108BF00296FD0374641460D9E0C8101F130034881002F83E8C000AC
:2015900004BF331CB3F1806F60D102285ED111E0374641460D9E0C8101F130034881002FC2
:2015B00083E8C00004BF331CB3F5803F4ED1B0F5505F4BD1086A6746436938682146984737
:2015D00042E046465946B6F9087091F90000BC42A0F10100087017D1728906F1300003C820
:2015F000002904BFB0F5803FB2F5505F08D0002904BFB0F1806F022A02D012F077FA03E08D
:2016100013F0FCFE17F006FA524692F90000401E10706FF00101318114E041466FF00100C7
:2016300001F1080210806EB1BC480078832802D0BB48812202704646316919B16046884779
:201650002146E8E7CDF82890B9F8B2000D9A0E9E02212F461140374008BF002900F09483BA
:20167000B04A43F201418142109200F06783C91C814200F06383594691F900105A464746C6
:20169000491E1170B7F908108C4205D043F60401814240F062835EE36C4890F83CC007F160
:2016B000300090E800034FF482062F4617EA090706EA080008BF00281CD10B48303003C8CC
:2016D0004FF400322F4602400F4008BF002A02D112F00CFA41E313F091FE3EE3941C00200C
:2016F000BC1B00209811002078160020C31B0020C21B00200020BCF1010F4FF08105884CFB
:201710000F9003D0207808B117F0C0FB2570BD4C0020677860810646E7702069DDF84090E5
:20173000417A027A89F8006001F0070302EB0322490996B238BF361F09D304F110010A683A
:20175000167A517A01F0070106EB0126B61E457ADFF8B482B6B235F07F0540F0D782B6F528
:20177000006F80F2D3820A30314610F0EBFCE16904F114000522083117F0A0F9F61EB6B2BC
:201790000520E37DA57D314A6081217ECDF83090C3F3011B92F83C00617105EB0325002868
:2017B00008BFBBF1020F00F0B182BBF1020F00F3AD8260B115F0070F00F0A8825748007836
:2017D000862804D105F00700022840F09F82281300F00209B9F1020F4CDAA37805F00700D1
:2017F000022835D1D8F804A093BBE16909A801220D3117F063F906206081D0478146834E72
:201810004648D8F8082037680078CDF82C80862816D127B917F03AFB4046376882689DF954
:20183000240017F077FD9DF9246078770020B8774846FE77904705F0100011F049FC01E09B
:201850004846904716F068FF64E2C04624130020324800780022862808BF0122CDF82C80E6
:201870005AB1002013F016FEE77805E000000C8C84190020CDF82C80A37887B17BB9012F55
:2018900000F03F82022F03D115F0070F40F03982032F04D105F00700032840F03282280939
:2018B00008D315F4405F00F02C82C7480778002F00F02782B9F1020F02DAA80A80F0218245
:2018D000C4480078C0F3810A4FEAA018BAF1010F00F01782B8F1010F00F01382BB48BBF114
:2018F000020F0CD010F80A1010F80800B8F1000F0844C7B21CD0E8091AD3BF1E0CE000EBBE
:201910000A014044097900794018C7B2E8090BD25AEA08030CD0BF1CFFB209E00437002093
:2019300000370020023700205AEA080308BF0227C5F30029A7EB09008642C0F2E281F61B3E
:2019500009EB0600290980B2208124BF25210F910F994018743080B217F008F8A678E06074
:20197000002800F0CE810021742210F0ACFE002020711EB90C9905F0200008700C980378B6
:201990000026002B65D0B9F1000F62D19048008805F0070103291BD18108324609D31B490F
:2019B00091F82E3093B90B681BB15B7E33F07F030CD15AB9800807D3D3498B68887813B102
:2019D00018468047267908B9002301D004262671D94890F83C3013B1BBF1020F39DA60793B
:2019F0000DF125010C90E92013F032FEB3469DF82560D04966B901F10800072202700822D1
:201A10000BE0C0467036002078120020200C002001F108000522027018224A72861C0221BB
:201A300000233170BBF1000FC37003D0317841F0100131700C990A9A01710521A2F8781082
:201A5000C2F8840016F052F93046032110F07AFB2679E16801F174004860886523890B81BD
:201A70002089A1F85C0028090ED3C9F1030082B2A1F85C20886DD84917F020F8E1688A6D2B
:201A9000B1F85C00801888655248D34B0078C0F3011218788D81B9F1000F00F0780040EACD
:201AB000020046EA00060E744FF0FF038B730CBF6079002081F8308081F83AA081F849001B
:201AD0006089002FA0EB090085B2658100F01181E069E78029183A460831684616F0EEFF60
:201AF0003C48EE19B5B26581E16800780A7C6E46C0F38103C0F3011AC0F38108002B02F0A5
:201B1000400946D0C0F301100023022801D1D0090BD29DF801209DF8000000EB0220A1F8CC
:201B300044000DF10206A1F84200AE4AB1F84400B2F85220824203D04FF6FF72824222D16B
:201B5000B8F1030F12D072783078A64B00EB022082B24A86B3F85010B61C0120914211D092
:201B70004FF6FF71914218BF00200BE0E0683146323017F089FBE0689A493230473116F034
:201B9000D9FD08360346002B00F0B6802046E168C07D831126D0BAF1020F03D0087CC00935
:201BB00003D309E059EA080206D172783078B61C00EB0220A1F84200032B0DD07078327849
:201BD00002EB00220A850DE01C0E0020D40A00003C14002087360020E0683146283017F0D7
:201BF00053FBE16888890009C0F08380886D3A46694616F063FFE068816D79188165E669E9
:201C1000B0F85C1001227F18A919A0F85C7008310DF1260016F052FF6F1CBDB26581E168E3
:201C30009DF82600896D0870E2689DF826609DF82630906D401C9065B2F85C00401CA2F8D1
:201C50005C0006F0070082F82400C3F3C10182F82510208992F824708046002F4CD05F4FD0
:201C70007F183E78361D8642E68045DCE06929183246083105A816F021FF3A789DF817C039
:201C9000111D481980B29DF81450608105EB0C60E3689DF8165000EB05409DF815500429A0
:201CB00000EB052098610BDDE06806A9521E1C3016F004FF3878E3686844C07D83F82600E2
:201CD000986D05A9324616F0F9FEE068816D71188165B0F85C10A8EB06077118A0F85C10E6
:201CF000791E89B22181B0F85C2001818918A0F85C1000F057FC0DE017F0DEF911F0F6FE12
:201D100008E017F02DF805E0C81B002017F028F8CDF82C80DDF82C80D8F804008047E169B9
:201D30000A68002313710968E161D8F80810884713E0C046A8190020241300204046807861
:201D500041465F46401C887097F900005946401E087011F0CBFE16F07FFA23480A99214F27
:201D700000226FF0010690F83C00A1F8B2203E8110B11098007808B916F04CFE1B481B4924
:201D900090F90000401E0870194890F9000010B9134800210170154890F9000088B10D9A6E
:201DB0000E9F02214FF0E0401140384008BF00290BD00E4890F90000002806DC17F066F802
:201DD00003E00020014605F079FB0A49002011B00870BDE8F08FC04686360020BC0A0000C8
:201DF000BA1B00207816002024130020C21B0020C31B0020941C00202DE9F047044660789F
:201E10004FF0000AADF1200D42280DDC422800F09783401E0E2813D92F38082821D910387E
:201E300044D0401E37D07CE3433825D0401E00F083830C3800F07C83401E00F0758370E32A
:201E5000DFE810F05F035703A20338039E039A039203D302C6026F036F038E038A03B802E3
:201E7000B002DFE810F0A7017C006C0075035F00540046002C007103A088022838BF2724A4
:201E900007D3A068024617F0EDF8911C16F0FEFD044643208CE2A08828B9C54918201DF0F7
:201EB00097F9C4B200E02724412081E2A08818B916F084FE044600E02724402078E2A08845
:201ED000CDF800A0012818BF27240CD1A068CA4902786B4618201DF07BF90099C4B20DF159
:201EF000110014F0E2FB8DF810403720052104AADAE2A088012818BF272406D1A068C749C2
:201F1000027818201DF064F9C4B2362050E2A08828B9C34918201DF05BF9C4B200E0272448
:201F3000352045E2A088082818BF272405D1BD49A26818201DF04CF9C4B2342038E2A0881F
:201F5000022818BF272408D1A06817F08BF8B649024618201DF03CF95446322028E2A188DA
:201F70000329C0F02281A06890F800804046713800F00881401E012840F215815E3800F045
:201F9000E480401E00F0C380401E00F0AB80401E00F09080401E5DD0401E3ED0404681382F
:201FB000022810D9001F01280DD9801E09D0401E09D0401E012804D9801E14BFFF2002200C
:201FD00002E0082000E00120C91E814240F0ED8015F000FC071C00F0BF80A0684146813903
:201FF000022900F1030015D9091F012912D9891E0AD0491E0ED0491E012905D9891E6FD16B
:2020100017F030F838806BE001683A4611604068506065E00078387062E0072940F0C58080
:20203000052015F0D7FB071C00F09680A068401C10F8021B397010F8011B797010F8011B08
:20205000B97010F8011BF9700678524606B10122384677E0182940F0A8801C2015F0BAFB66
:20207000071C79D0A3685B1C13F8020B3870184616F0F8FF9E1CB880304616F0F3FFB51C16
:20209000F880294607F1080016F0F8FF05F1080313F8010B514600B1012107F11005022695
:2020B0003976184616F074FD1B1D761E45F8040BF7D115E0172978D1182015F08BFB071C48
:2020D0004AD0A5686D1C15F8020B102229463870781C0EF02FFF05F1100016F059FD7861E2
:2020F000384630E0052960D1042015F073FB071C32D0A068401C10F8011B397010F8011BD2
:20211000797010F8011BB9700078F870E8E706294BD1052015F05EFBF0B1A168491C11F8E4
:20213000012B027011F8012B427011F8012B827011F8017B524607B10122C2700F7852469A
:2021500007B10122027107461AE00D292DD10C2015F040FB071C01D11A2427E0A068401C9C
:2021700010F8011B397010F8011B79700268BE1C326045687560037A337210F8091FF97260
:20219000384602E0032910D15046A060A368C849424618201F461DF01BF8C4B237B13846EF
:2021B00015F0BAFE02E0F42400E027243120FFE0C9800100A088032840F0F180A068067839
:2021D000451C1A2430467138022840F2E6805F3816D0401E09D0401E10D0401E09D0401EE8
:2021F00005D0401E18BF08200BD1052009E01C2007E0182005E0C046D5150100042000E07E
:202210000C2015F0E7FA071C00F0C5803046D03802280BD9C01E02280AD90BE0D1D1000040
:20223000F9E20000CDD00000FD4B01006878787028783870CE49182032461CF0C9FFCD490C
:2022500085B232463B4618201CF0C2FFC4B2002C40F09E80681C80B215F0BCFA5FEA000887
:2022700000F095808146304609F8014BD03870D0401E5FD0401E51D0401E40D0401E23D0AC
:20229000401E57D0E8B24E46012818D0E8B202280FD0E8B2042807D0EAB2304639460EF09B
:2022B00049FEE8B286190DE03968484614F0FDF903E03988484616F0CFFE064602E0387895
:2022D00006F8010B304656E03978484600F8011BB98816F0C1FEF98816F0BEFE07F108019B
:2022F00016F0CCFE397E022607F1100500F8011B55F8041B14F0D9F9761EF9D13BE0387893
:202310004D46791C102205F8010B28460EF012FE796905F1100014F0C8F92CE039784846D6
:2023300000F8011B797800F8011BB97800F8011BF9781EE03978484600F8011B797800F884
:20235000011BB97800F8011BF97800F8011B39790FE03978484600F8011B7978BE1C00F8D0
:20237000011B3268026075684560337A0372F97A093000F8011BA0EB0900C1B242463020F2
:20239000491C16F0A5FE404615F0C6FD00E01A24384615F0C1FD1CB9F9E0F42400E0272481
:2023B000302005E0A088012814BF272426240F2021469BE0A088012818BF272106D1A068BF
:2023D0007549027818201CF003FFC1B20E208DE0A088002808BF272105D0A1680878491C3F
:2023F00016F0F8F90146092080E00A202727ADF80C00A6888DF81870012E0CD1A068047812
:20241000452C05D165491820462203AB1CF0E0FEBDF80C0038B99DF8180000283DD1BDF835
:202430000C00401C3AE0BDF80C00401C80B215F0D1F9071C2ED0452C07D0791C204603AADB
:2024500014F0B2FD8DF818000DE0452001A90DF10E0214F0A9FD0199BDF80C208DF8180050
:20247000781C0EF067FD9DF8180038709DF81800002806BFBDF80C00401C0120ADF80C0078
:20249000BDF80C103A46082016F022FE384615F043FD7CE01A208DF818000120ADF80C00C5
:2024B000BDF80C1006AA082016F012FE6FE0C04695820000A088042818BF272115D1A06880
:2024D00001788DF80810401C10F8011B8DF8091010F8011B8DF80B103149007802AA8DF8D1
:2024F0000A0018201CF074FEC1B2042016F04CFC4DE0A08800280CBF544627240220214671
:202510000DE0A088012818BF272107D1A1680978504601B1012016F05BFB014601200C466D
:2025300046E74FF0260A32E0204612F089F82EE0204612F089FA2AE0204612F0AFFA26E0DA
:20255000204612F00FFF22E0204610F06BFC1EE020460EF079FA1AE0204612F057FD16E0A5
:2025700020460DF0CBF812E0204611F02FF80EE0A95601009DAF0000204610F019F906E00D
:2025900020460AF095FC02E020460BF0E7F9504608B0BDE8F087C046CD8E01006156010093
:2025B000E79101002DE9F04FB94C0C3CE0686189E2692589806DADF13C0D0E4689180831C3
:2025D0002A4616F07BFAA81986B2E068816D6D188565E0690122311808310EA816F06EFA50
:2025F000E069761CB5B2042265812918083104A816F064FA9DF813109DF8100000EB01604A
:20261000E3689DF812102D1D00EB01409DF81110658100EB0120049016F048FBD8630498D6
:2026300015F0FCFFA3F84000EA2016F0C6F80221B648E2680170117C2079084310749DF97A
:20265000380016F067FE82F846009DF93800118982F84800002082F8470002F174009065A0
:20267000B2F85C00401A5168091851609089830A18D2030957D310F0070F07D000F00700B5
:20269000032812BF081C5068401C48E05068C17801F00703491001F0380101EB43014018D7
:2026B000001D3CE0171C02D116F0F0FBE268B889800A2ED379684878C6112AD13E897966AB
:2026D00000204D780B7805F07F056D0005EBE3157E2D0DD07F2D09D003F07F031818801C66
:2026F0005B1880B2991C8642EBDC08E0002100E00121801C87F8601080B2864201DA002056
:2027100005E07968411879603989091A3981A7F86800506E10B1B2F86800B0B150685061B0
:202730009089000916D292F86000002800F0FC80104612F085FAE268D06C002800F0F48018
:20275000B2F85000002840F0EF8016F0A3FC0020E06024E24FF0000B1546104605A9CDF82F
:2027700014B007ABCDF818B095F82470CDF81CB006AA04F09BFD002840F0CB80059A6E693F
:2027900068682B89311A581A1FFA80F80AB916F07DFBB5F85C0000900196CDF808800698FB
:2027B000001D03900598A969AB6D3A4615300AF073FF002840F0AD80AD4895F860302E8913
:2027D000C15D701A288113B1284612F039FAAE8906F00706032E02D168680078E87395F8C3
:2027F0000F90732009A915F01DF883200DF13A0108F0CCFBDFF8D082DA4651460AE0C2782C
:20281000012A03D1002F08BFDC2027D0001D491C0990C9B29DF83A00884279DD09988278A0
:20283000032E07D00378B3420DD098F800300BB1022E08D0032EE9D10378032BE6D103461B
:202850005B784B45E2D1BB10B3EBA20F05DA02F0030207F003039A42D1DD504681460598E1
:2028700095F80FC090F814E0514601E0491CC9B28E4549DD07694B00032E03EB070209D162
:20289000FB5C032BF2D152786245EFD10BE0C0467C3600201278B24205D098F80020002ABF
:2028B000E4D0022EE2D10698077D002F08BFB9F1DC0F2DD0A869B0F1FF3F23D0712008A9A2
:2028D00014F0B0FF5346089AA9690598824206D106989A4600EB8A00C068884210D85B1C6C
:2028F0002C32022BF1DB0698491CB1F1FF3F00EB8A00C16002D1079801218170584608E0ED
:20291000DB2007E0DB2004E0DC2002E000370020DD206870E26850709069577850651FB185
:20293000F22015F04AFFE2689F4DDFF8849295F83C10002900F0AD8090899C4EDFF874B2E5
:2029500000F00700022858D1A078002855D15078002852D1E1684FF000080CA88DF8398022
:20297000283116F091FC06F11001E76808882B6E401C0880786E0DF139020421984704F1DF
:202990000C0A30B94846006818B19DF8391080F8681015F0DFFF90B1E76897F8300002283F
:2029B0000ED1DAF80000594602222031283015F009FA28B90BF116010CA816F065FCE76884
:2029D0000DF12E000090AD6E786E0CA942460BABA84779480078862808D1708AE768401CE3
:2029F0007082B88900F0100010F072FB16F052FB4046E06015F090FED3E0704B1A78002754
:202A100002B101277248026827B12F7817B115F0A1FF28B91878002831D015F09BFF70BB57
:202A300053782779002B40F0BA809DF83800B18A02F12803002F207002F11C0201F101009D
:202A5000B08214BF082600265D490020086015F099FF0146009658460192263006881A46F0
:202A70000D20334604F0F4F820B915F03FF903E0C00A000015F0EEFD1348E268017841B1FD
:202A9000D5F884702FB13946104688470E48E26801780A9251B1907BFF287AD01046C17B1C
:202AB000042976DC40680078072872D0938913F0070040D0401E56D0801E6AD1C3F301307C
:202AD000022808D102E0C046601300205068007807282ED0FFE7108900285AD0104641683B
:202AF0004A1C42600F788446C7739CF824607EB9002F4ED00A2F4CDA0189324EF01910F81D
:202B1000010C884209D0082F43D1082905D040E0C07B00283DD00A283BDA60460189491E36
:202B30000181C17B0B3101700A99C87B401CC8731BE0322018E0244E96F8A1000F280CD0A4
:202B500016F0DCF848B9181300F00200022804DA0A984D4608352968884796F8D7000A9A8A
:202B70001074152000E0162010700A994D4605F1280014F067F9154E7068804795F830106F
:202B9000491C85F83010B1688847202016F0D6F902E00AA813F03AFA4FF0000828E710F0E5
:202BB000A5FF0FB0BDE8F08F24130020C41A0020200C0020E40D0020043700200237002018
:202BD000AC190020C4060000500D0020781200207C3600202DE9FE4FE54980460122A1F131
:202BF00030000260DF480768002FFCD0DE4ADF4EC027E048E04B17603268920808D2324616
:202C100052F8042C03F14104120C42F0F00222704FF0000A8346C1F800A0DFF864C3DBF8E1
:202C30000810D64D0191880E43D2480E41D3802018744FF6D802A3F8512018702868C0F380
:202C50000464162CA8BF203C1F460F3F387800F01F001628A8BF2038844223D0624602F134
:202C7000980EDA4ACEF800A0261A022E05DC16F1020FB8BF6FF0010600E002263018166800
:202C900000F01F06844246F4F856A7F866604FF001061660E8D11068374617601068CEF83D
:202CB0000060106828460068C0F30420162808DB06E0A5F1D0000068C0F30460162800DB7A
:202CD000203800EB2170401C162805DA10F10A0FB8BF6FF0090000E01520DE4F00F01F004D
:202CF00040F4F850A3F85900386880083ABFEA48C0F800A041F04061019E6246A5F13804BE
:202D1000C80E8F0E80F0010000F00100106087F0010000F0010090602068C0F38367C0F32D
:202D30008F21B00C23D2304640F3072000280BD542425046490805D17F0806BF0127391C40
:202D50004FF6FF71521EF5D1002810DD4FF6FF72490041F001018A4207D27F0047F00107CE
:202D70000F2F92BF01210F27111C401EF0D141EA0741182013F014FF2068D24E2768C94C03
:202D9000A6F10409C0F3870107F0030041EA0021D9F8040040F2FF3253468FB22C214668F1
:202DB00000972746A7F14000B0470C3D2868C0F30D011C2013F0F4FEB84955F8080C0140C2
:202DD00000F07C400143142013F0EAFE55F80C1C01F47C000904090C0143102013F0E0FE77
:202DF000624955F8042C0968C2F30350C2F30345490813D2DBF800100B0510EB237003D497
:202E10001028A8BF0F2000E05046090415EB217503D4102DA8BF0F2500E0554645EA00154D
:202E300002F47F4002F0FF01B8F1220F40EA054041EA000124BF02F0804211430C2013F04C
:202E5000AFFE974DB8F1220F32BF01202868C0F30070B8F1220F4FEA400040F0200084F813
:202E7000090126BF2868C0F3407001208E4EB8F1200F40F0100084F8090138BF514606D35E
:202E90003168C80C00F44070C1F384510143282013F086FEB8F1200F26BF3068C0F301501C
:202EB0005046B8F1220F4FEA400040F0600084F80C0126BF2868C0F3C0605046B8F1220F48
:202ED0004FEAC00040F0800084F8010126BF2868C0F345505046B8F1200F4FEA800040F4A3
:202EF0007C40A4F89C0138BF70490AD3306801038A15920501F47C1100F00F00114341EA6E
:202F10000031082013F04CFE4FF48000A5F1D0012060674A886D40F21E236FF31F408342B2
:202F300016D90868030E13F00F0F03F00F01C0F3034018BF491E072805D006280EBF072093
:202F5000801C00F00F0041EA0011A2F108000170DDF804C0CCF381477F1E13D07F1E3BD036
:202F700036E0C0469402224300600C40B03F005040100940AC3F00501562084088130050C1
:202F90000000204328460068810C21D24FF480412160D2F80210430AC0F3033703F0800357
:202FB00021F08F010B4347EA0301C2F80210D2F80130060A66F30303C2F80130116800F053
:202FD000E70721F0E70147EA010004E02C2009404FF00040224610603B480068C0F3C00793
:202FF0000FB94020A0624FF40070206428684027C0F3C14040F0300084F8C800CCF3815081
:2030100050B3401E03D0401E1FD002211EE0012014F030FA06460420314610F0C1FE0420E5
:2030300014F028FA8642FAD12248066826F07F4014F07AF8D9F81400036807214FF060226B
:20305000300E98474FF4806020600321042010F0A7FE08E0000009400420012110F0A0FE9E
:20307000154814F061F8203D2868144947F6180600F03F0084F8CB0F144B0E80D9F800207E
:203090001868D1680220884711480D4D076001212960BDE8FE8FC04694042A43FCFCFC0080
:2030B0008C13005040A00C409813005000803F400A600840A83F0050BD37860070B00C401C
:2030D00094046042A4010010B03F00502C20094000600C402DE9F843CC4C0F460646F80B64
:2030F00080F0E881A07AB90F80F07581B80880F06281F80A80F03B81E07910B1380980F093
:203110003381206C002840F09D803809C0F09D80002501262570BE48667115F067FF284645
:2031300014F0DAFFBB4904F170002A4616F0CEF804F1580090E8000315F086FDE378B0EBB7
:2031500008004FEA103071EB09010905012B40EA010006D194F86810B0EBC12F01D8A378B9
:20317000C3B3E670D24EA6F115010968A570090A30D3606640F60900A08294F8210000F046
:20319000F00040F0010084F8210094F8200000F0F00084F82000A56116F092F806F6FF7236
:2031B00011686FF0020321F00201116004F11401C6F8FB3FCE4AC6F8EB1F11688908FCD3E2
:2031D000C6F8FB3FD6F8FF1F41F00201C6F8FF1F16F072F92E4604F1580080E86000666625
:2031F00013F0A2F8607818B9E068403016F07EF8C7480660022013F055FD11200CF05CFCD4
:20321000E068007C10B90E200CF056FC607A18B16572052013F046FDBE4965710878A5713D
:2032300028B10D7004F1EC00042116F067F8B4F95000B4F95210884214BF022007200DF0CE
:2032500041FD8EE0380980F08C80B80B77D2780B29D2380CC0F0538104F13C0016F042F832
:20327000F0B1C16849680978022919D190F82700400915D2206C90F82700400910D3206C5B
:20329000806840880028FAD0206C806840880128F5D0206C0026A0641920266416F014F8C7
:2032B00027F400472BE113F0C5FA38B1B56930466FF4807100224FF00073A847964904F166
:2032D0007000002216F002F8B16800254FF0010840F602022572088884F8008082420AD0CB
:2032F000B0F5C15F07D00A8B4FF61F60104040F43470088306E00A8A4FF61F60104040F454
:2033100034700882757415F09FFCD4F85421E36804F5AA719A4208BFA846266E46B1864262
:2033300026BF301A401E801B01EB8801000B88602566192015F0C8FF27F48057DFE004F1B7
:20335000400015F0CFFF061C08D0706830B17568F068B6F9241000222023A84727F40057B9
:20337000CDE027F00807CAE00020E071F9E715F0A7FF054604F13C0015F0B4FF061C15D089
:20339000E06810B1783015F091FFF068E060284616F092F815F058FC2066604815F026FE91
:2033B0004FF4006104F1EC0015F0A8FF002027F48067E071A3E004F14C05284615F092FF8C
:2033D00007F0E8FF284615F08DFF27F0020708B147F0020793E020B1042013F063FC0020FD
:2033F000A07215F06DFFB1688046088840F60202824211D0B0F5C15F0ED00A8B4FF61F60F0
:20341000104040F4347008830DE0C046D8290020B1CC0000710D01000A8A4FF61F60104031
:2034300040F43470088204F1580090E80C00002B08BF002A18D0042014F01CF8A0B1A56DA6
:2034500015F002FC854226BF401B401E401B000BF060F168708A401840F6C411F060814275
:203470002CBFB0F5FA7FF160404616F025F813F0E1F998B1B56930466FF4807100224FF0CA
:203490000073A84704F13C0015F02CFF002808BF47F0020702D0192015F016FF7569002106
:2034B00030464FF080630A46A84727F0005726E01500044015F004FF014604F1440015F0CB
:2034D00011FF0646B569A80814D29EB125EA0500B061084615F0F0FF706870B16DB12A468F
:2034F000F068B6F9241075680023A84705E0C04610100440084615F0DFFF27F4804727B158
:2035100004F1EC00394615F0F9FEBDE8F883C04600000460FB360020B9CD000095B7000092
:203530002DE9F04FADF18C0D1C911E93CC491D920A6806460DF15600026049684160304691
:20355000694613F08EFA00281F9004BF0020229000F0F78102200027B61CDFF84CB32090AC
:20357000D34D2297304602A911F0E7FB5FEA000900F0E48122990EA816220FF0A4F89DF8DE
:2035900009707F1E00F082807F1E40F0CF81B9F10A0F40F3D681B61C316804A80160361DDE
:2035B000318805AF42F20B0039800DF1160111F067FEBDF81600BDF81410884200F3C18178
:2035D000B61C16F8010B16F8017B16F8014B8DF8380016F8011B8DF839700EAA8DF83A403F
:2035F000304605F06DFDBF4909780028064400F0A8811F9C012904F1020400F091814FF4AD
:2036100000500DF14E0111F03BFE0DF14E000DF15601082214F0D6FB40B11C990DF14E0031
:20363000082214F0CFFB002840F07A8142F2010004A906F097F842F20B0005A906F092F85B
:2036500042F205000EA906F08DF80DF1390142F2060006F087F80DF13A0142F2070006F09E
:2036700081F80DF13B0142F2090006F07BF89DF83B0028B1022840F0538142F2030001E0F2
:2036900042F20D000FA906F06DF849E1B9F1040F40F35781B61C16F8010B16F8017B16F850
:2036B000014B8DF8380016F8011B8DF839700EAA8DF83A40304605F003FD0028064400F015
:2036D00040811C9806A905F0A9FE9DF83600002840F00A819DF83B0000287AD195F83170FB
:2036F000002F00F0FD8095F83300874207D095F88C000A2801D10AF047FCA86B1EE0AF6B39
:203710004FF400500DF15E0111F0BAFD14F094FC4FF0FF08229C2190A24695F83100A04220
:2037300040DCA86BB8F1FF0F08D008EB88040019007913F069FCA86B071923D195F831302D
:203750000746002B08BF229C19D05846229C40681946D8467F1F7F1DFA782AB1491E04F10F
:203770000104F8D17F1D0AE0804795F83310491C85F83310D8F80810884795F83130A3429F
:2037900000F094801C980CF083FE38710120F870FC788DF8364038798DF83700229B8DF894
:2037B0002330A1E0387912F0DBF8014608220DF15E0014F007FB40B138880104219815F058
:2037D0007BFD82453CBF8246A046641C7F1DA4B2A3E795F83070002F00F0828095F83200E8
:2037F000874207D095F88C000A2801D10AF0CCFB686B1EE06F6B4FF400500DF1660111F097
:203810003FFD14F019FC4FF0FF08229C2190A24695F83000A0424DDC686BB8F1FF0F08D07C
:203830004FEA48140019C07F13F0EEFB686B071925D195F830300746002B08BF229C1CD0E0
:20385000DBF80400229C1946D846203F2037BA7F42B1491E04F10104F8D120370DE0C046F0
:20387000E40A0000804795F83210491C85F83210D8F80810884795F83030A34216D0229966
:20389000384620220EF01FFF1C980CF001FEF8770123FF2039462022BB770446787206A806
:2038B000FC720DF047FB1FE078120020612055E090100020F87F12F053F8014608220DF1F9
:2038D000660014F07FFA38B17968219815F0F4FC82453CBF8246A046641C2037A4B297E762
:2038F00064203BE0241300209DF836000EA9162240F004008DF8360008A80DF01BFB1F9C9B
:203910009DF83B00A41C40B19DF84D700FA8394610F036FD3F1A8DF8357006A80FF0F2FE3B
:2039300020984844801C80B2209003E01F9C4E44B61CA41C209884423FF714AE209802289B
:2039500003DC229A6720114604E01F9A911C121A2298921C1D9B19801E990A8023B0BDE8F6
:20397000F08F70472DE9F04FDFF8E0C292F808B009AF88460646ADF1240D049338F07F050D
:20399000039206BF604600884FF6FF700590F08A800934BF002008203076F08AC00834BF2D
:2039B000102080207076F08A400903D260460E30007800E00020B076F08A41082CBF202435
:2039D0000024000928BF44F010047568002108F07F08307D06916D1E02280EDB0C2808DC04
:2039F0000C2803D1022044F40854069044F0030404E00D280CBF02200120044396F88800A4
:203A100008B144F00804210900D328B1DFF8C89299F8CC3013B908B1DF2051E121096DD3E9
:203A300096F88950DFF8B4A206F1240133891AF8052007910AEB0001097908908918491D24
:203A5000C9B2C918B1F5006F80F23C8100284CD0049A039906F180000BF038FB07990028CB
:203A700008603FD0806AB0F1FF3F39D070680023401E8DB196F88A10524600F80119515DD6
:203A9000491EC9B241B1721892F87F20491EC9B2002900F80129F6D1079970660968896AC1
:203AB000B162090E00F8011996F82A1000F8011996F82910089A00F8011996F8281005F0AA
:203AD000030500F8011902F0070141EAC501017071683289091AC9B270608918318105E026
:203AF000DB2700E0F3277770EDE00023F08A7370C00828BF44F0100475686D1E336DA3B92B
:203B1000B36D93B999F8E510012903D13089B0F5EE7F06DA200904D202290AD144F4005469
:203B300001E044F48054012002E044F4085402200690DFF8ACA19AF8000001280FD014F077
:203B500009FF60B19AF83C0048B196F86B00042805D1022024F48054069044F4005444EA1C
:203B70008834B8F1020FA4B20AD0B8F1030F10D1ED1F09F1D801284615F086FB6D1E08E0AD
:203B9000B9F8BE00001205F8010999F8BE0005F80109069802280CD0B8F1000F15D0BBF14A
:203BB000000F0CD004990598814208D144F040040BE0BBF1000F08D1B8F1000F05D0059912
:203BD000081205F8010905F8011944EA8B24BBF1020FA4B209D0BBF1030F0ED10399ED1F8F
:203BF000284615F051FB6D1E07E003990888001205F80109087805F80109BBF1000F05D028
:203C10000498011205F8011905F801093878F8B934480178307D0D2814D068B9306D28B90C
:203C300099F8A800411C89F8A8100AE099F8CD00411C89F8CD1004E099F8B600411C89F899
:203C5000B610014605F8011904E0C0460A0E002044F48074201205F801092C70706831897B
:203C7000401B7560C0B240183081200927D3B06D00B130629AF83C0010B1307D0D281ED1A6
:203C9000726A12F1150002D115F000F9726A916A481C9062306A3289B162471B0092D21BD9
:203CB000019090B20290706A96F888202B46153008F0E4FE00281CBF7070071C07D10020F1
:203CD000707005E0E5277770F32014F076FDF8B209B0BDE8F08FC046500D0020BC0A0000C2
:203CF00024130020753600202DE9F04FC44E4FF00008ADF1140DCB4DF068CDF80880002840
:203D10008DF80C8042D1BF4CBF492068814213D0BE49814210D0BE4981420DD0BD49814214
:203D30000AD0BD49814207D0BC49814204D0BC49814201D015F0AAF814F0C8FB21684FF08E
:203D5000FF32012805D1C1F30330083806D0C01F01D0012A02D10120F07001E086F8038015
:203D700013F022FC286A00F1200120B915F08EF82846016A2031096806F1140088474FF452
:203D9000FA70F084A84FB7620624F462EA6992F82670DFB9A54892F8257001788F4215D05F
:203DB0004046342404FB002C9CF8267037B99CF82530401C9942C0B2F4D103E09CF82500DD
:203DD000884203D1604612F0EFFFEA699849686A99C881E89900F078012814BF4046052027
:203DF000DFF850B2944C08709BF8157127B990690068C4F8A40005E0D0690068C4F8A400E2
:203E100014F01AFC632004A911F022FC9BF8E720104613F0E9F9B4F896C082462CF0070C5B
:203E30004CF0010CA4F896C0D4F8980004F18807812A40F00F00C4F8980001DB842A06DBA6
:203E50009AF80C10052914BF2421292100E0212184F89C10797D812A01F03F01797501DB2E
:203E7000842A19DB9AF80A306BB99DF810203F3262F305017975FA8A4FF6C07303EA020135
:203E900041F0180113E09DF8102001F0C00102F03F020A43114603E021F03F0141F002011F
:203EB0007975FA8A4FF6E071114041F02001F9829AF80B209AF80C100A230CF0010C491DC5
:203ED000514391FBF3F1C9044CEA1141F9819AF80B101923890391FBF3F161F31C20EB6936
:203EF0003861388B93F8242062F30200388393F824104FF6F77909EA000001F008010143D0
:203F10009BF9D600398310F00BF809F10801814218BFA4F8A200DAF80410DAF80030BAF8F3
:203F30000800EA69401E414303EB51004FF47A71B0FBF1F0A4F8A800106A0078A4F88A805F
:203F500084F8AC00C4F88C80787B00F0F00040F00100787315F0A4F8B0B99AF80B00374A4A
:203F70009BF8E740B1FBF0F010709AF80B00022CB1FBF0F0C0B2B1FBF0F0707004D13048E9
:203F900002214170A8240470F0682C6ADFF8B89018B3404611F058FC30799BF8E71088424D
:203FB00011D171799BF815212C6AF06891420CD1022142468DE80600E46C4346394602AA94
:203FD000A047EF6013E02C6AF0686168884701202B6A1C491C68087000E02468144906F14B
:203FF000140348463A46A047F060686AA8629BF8E7009BF81571307105B07771BDE8F08F84
:20401000781900209412005000F0022000F0012000F00020008002200080012000F0820001
:204030000080002078160020B57C0100370E0020C4360020500D002098110020481B0020A8
:20405000C41A0020951C0020E8300020B0B50446C8480768ADF1480D002F00F08981207867
:20407000401E112800F28481DFE810F067015301390124011D010701F100E300C300B20051
:204090008D005D005300420082012A001C001200F86B002800F06C81684621460DF0A8FD97
:2040B000F96B63E1386C002800F062816846002101220EF008FB60788DF80000396C55E17E
:2040D000F86A002800F05481684600210E220EF0FAFAA11C684614F025FCA57BA189002294
:2040F000ADF80A1005B101228DF80C20F96A3EE1B86B002800F03C816846002102220EF0FC
:20411000E2FAA5788DF8015060788DF80000B96B2CE1786B002800F02B81684621460DF079
:2041300067FD796B22E1386B08B36846002114220EF0C9FAA5788DF80150A3680193A28943
:20415000ADF80820A17B8DF80A1060788DF80000E57B8DF80B50237C8DF80C3094F911200C
:204170008DF80D2061690491396B684688476068002800F0FD800146F220087000204870F7
:2041900012F078F8F4E0B86A002800F0F1806846002124220EF097FA6078A11C8DF8000060
:2041B0000DF1020014F0BEFB04F10C0103A814F0B9FB257EE08A04F119018DF818500B2297
:2041D000ADF816000DF119000CF0B4FEB96ACDE0786A002800F0CC806846002102220EF048
:2041F00072FAA5788DF8015060788DF80000796ABCE0386A002800F0BB806846002112227C
:204210000EF061FA658862796078ADF8025023798DF80520E11D8DF80000A5798DF80430FE
:204230000B220DF107008DF806500CF083FE396A9CE0F869002800F09B806846002101223F
:204250000EF041FA60788DF80000F9698EE0B86910B1204610F01EFDA07D002800F0888048
:20427000A07820B9A069002800F0828002E0A06900287DD013F030FE7AE07869002877D0DF
:204290006846002113220EF01EFA6D46A01C0168406829600B22686004F10A0102A80CF050
:2042B00049FE796962E03869002861D020460CF043F85DE0F86800285AD0684600210E22FE
:2042D0000EF001FA6078A11C8DF800000DF1020014F028FBA089ADF80C00F96846E0B86813
:2042F000002845D06846002114220EF0ECF9A01C01686D46296040686860A07A0B2204F17C
:204310000B018DF808000DF109000CF013FEB9682CE0786860B36846002110220EF0D3F9F5
:2043300060786588211D8DF800000B22ADF8025001A80CF0FFFD796818E03868C0B1684688
:20435000002119220EF0BFF9A01C01686D46296040686860A07A02A912F0C4F90B220DF1BB
:204370000E0004F10B010CF0E5FD39686846884712B0B0BD981B00202DE9F04FBD4DDFF8EA
:20439000FC92BF4C4FF000084FF0010AADF11C0DE0694FF0FF3115F08BF8D9F80400804740
:2043B00027896689A288A4F80880E188A4F80A80114347EA010246EA0201A180D9F80810AC
:2043D000A4F806808847A088010A24BF20F08000A0800927D9F80010ADF802700820ADF821
:2043F000000068468847DDF808B00028CDF80CB039D120789DF80620616A904233D139B112
:20441000A078401E02D0401E02D126E05846884758460DF0B3F9071C25D00C2013F0EEF92B
:20443000061C1DD0D9F804008047B7603B7883465BB92069314615F037F8A08840F010007E
:20445000A080E06915F02CF805E0304613F084FD384613F081FDD9F808105846884702E0A4
:20447000384613F079FDA38858092ED3206915F013F8E8B9D9F8041014F0D6FDC0B988476A
:204490000646206915F004F8071C0DD0B8684068A061B968486849880DF0B8F9B86813F0FA
:2044B0005BFD384613F058FDD9F8081030468847206914F0F1FF20B9E06914F0F1FFA388D2
:2044D00003E0A38823F01003A3809808C0F0948080E004A8514612F097FB287800286DD0D5
:2044F000401E71D0401E5ED0401E47D0401E1ED0401E6FD19DF810006978A8706F68A8689D
:20451000C91CCEB20590314614F0CCFA9DF81010814205D147B1059930464246B84703E08C
:204530005548006813F028FD85F8008052E0AB68E8789DF810701918CF70E878401CC7B2E2
:20455000EF7013F0D9FD6978C6B2C91BB1420CDBD8193146C01C12F057FBE87869783618D5
:20457000F0B2E870814224D034E0DB1989B2DB1C184612F049FB6878E8701AE09DF81000C5
:2045900085F803809DF810706870F81C13F0FAF80028A86008BF85F8008020D069780170DF
:2045B00085F800A016E09DF81000A9688870687810B9052028700DE00420FBE79DF810002C
:2045D000FE2807D10320F5E79DF81000A968487002272F7013F090FD00287FF47AAFA38819
:2045F00013F08AFD002804BF23F00203A38003D0E06914F055FFA388180927D3606914F074
:2046100047FF071C15D0216A69B1607858B1401E02D0401E0AD103E0B86811F017FC216AAB
:20463000B868884702E0B86811F010FC384613F093FC606914F030FF20B9E06914F030FF0B
:20465000A38803E0A38823F00803A380D808FFF49FAE23F004032069A38014F01DFF0028A2
:204670007FF496AEA08840F01000A080E06914F017FF8DE6D41B0020DC1B00207812002045
:2046900010070020BA482DE9F84F0025B94CB749056094F8E200002800F06381012800F062
:2046B0002F81B54E02283CD0032840F05A8151F8250CD4F8B8100029A0F5C060C4F8D4004F
:2046D000B8BF49420028B8BF4042814226DA4FF08057D7F8A4014568B4F8BC0030214FF4B1
:2046F0007F42082300903046A847D7F8A4014568B4F8C00004214FF4F8021223009030469F
:20471000A847D7F8A401B4F8D070456820214FF440620A2330460097A847012584F8D85074
:204730001AE151F8258C14F06DFC2F4600B901273946924F38680028FCD0B146012609F1A5
:204750000409D9F82CA03E6009B114F061FCCAF30720C4F8BC0014F055FCAA4600B9B24694
:204770003B68002BFCD0D9F800B0BAF1000F3E6001D014F04DFCCBF38440C4F8C00014F096
:2047900041FCAA4600B9B2463B68002BFCD0D9F81C90BAF1000F3E6001D014F039FCC9F3F6
:2047B0008120C4F8D000B8F5C061C4F8B81000F09C8094F8D80068B9C4F8D410D4F8C000AD
:2047D000C4F8C800D4F8BC70C4F8C470D4F8D030C4F8CC30D4F8D410D4F8BC30002954BF35
:2047F00002206FF0010004F1C802176801EB41014018411000EB917107EBA1001060D4F856
:20481000C810C4F8C43000291CDD1E293CDDD4F8CC0030B93429B4BF15391E21C4F8C8100C
:2048300025E02A29BABFD4F8C8000B381E20C4F8C800D4F8C4003F28B4BF401C3F20C4F81D
:20485000C4001FE0D4F8CC00032812D011F10B0FC6BFD4F8C8000B30301CC4F8C800D4F8D4
:20487000C4000028C4BF401E051CC4F8C450032508E011F1150FC6BFD4F8C8001530301C8A
:20489000C4F8C800C4F8CC504FF08057D7F8A401B4F8C43030214FF47F424568364800936F
:2048B0000823A847D7F8A40104214FF400321123456831480096A847B4F8C860D7F8A40199
:2048D00004214FF4F802122345682B480096A847D7F8A40120214FF440620A23B4F8CC60ED
:2048F000456825480096A84701E084F8D85040F2FF50404502D8801C40452DD208202EE04E
:2049100051F8251C1E4F4BF2F5204843060A3868C0F3814001280AD112F0ACFF11F0E6FCFB
:2049300014F07CFB3111C010484306EBE03694F8E50030B91348006820F07F408019460875
:2049500001E084F8E5501048310C0660012741600E4D8760287808B90B2000E0052084F8A2
:20497000E40005F0FDFABDE8F88FC0462D400C402C500C407C0F002000A00C4000800C4041
:20499000B43F0050102009403C600C409E0A00002DE9F04FA64D2F688346ADF12C0D17B96C
:2049B00014F074FA2F68A348DFF8A0920678002E3ED00026388979689F4B0796C40009789C
:2049D00018781034890906D340F6485191FBF0F1091901F5AF743B7D60438400352B0CBF07
:2049F000371C4FF4FA570DF12601E82010F030FE9DF82600032808BF44F620672868007DEA
:204A10003C19352807D113F04DF8014628686C300FF0B6FC444302204F468DF8200007F1B5
:204A30000C000068069406A909F07EF88348067083490120834F08703978012902D00021F4
:204A500002F03CFD28680489466813F0D5FBDFF800823088000946D3296840463C3890F837
:204A70003C70002F3FD082464B6A4F6E986AB0F1FF3F26D02FB3421C9A628862030E07F8F5
:204A90000139286890F82A0007F80109286890F8290007F80109286890F8280038702A68BD
:204AB000106A00940190801B201A80B20290916A506A92F888203346153007F0DFFF0546E9
:204AD00000E0DB25DAF880706DB11FB9E4200DF0B3FA05E05C4900200870E420394688470C
:204AF000002D40F0A280214630460DF02BFB642009A910F0ADFD454649462F78DFF85491CA
:204B1000087837B9484600780AF058FE012805D088E00AF053FE012840F084804E4DA01C5A
:204B300087B20DF1250105F178000780E92010F08FFD9DF825104FF000084FF0020A40469C
:204B5000012905D13C46C4F3022141F0180105E0241DA4B2C4F3022141F0080106F8011DF3
:204B700006F8014DA5F86A009DF82470C5F88460002F0CBF39493A496886CDF81080394C41
:204B90008DF814A095F83D00C5F8C01000F0F00040F0030085F83D006068C5F880108047CC
:204BB00005F13006304B254C0A90BBF1010F1CD0BBF1040F19D0BBF1000F13D0BBF1050F85
:204BD00032460DD0BBF1030F07D148461030007812F00AFB407B022808D005F1680205E08B
:204BF000224B03E005F14C0200E03246206A1749C66C57468DE88001C868114604AAB047DE
:204C10001B49184F0880B968002809D4194A92F900006835401C10700A98E560884704E00A
:204C30000A9888471A200DF007FA0BB0BDE8F08F200C0020C71A0020481B0020781600205E
:204C5000BB1B0020941C0020043700207819002060130020270E0020981100204E90555539
:204C70000E7A55557812002041AE000021E20000A8190020C21B0020B2492DE9F04F0978A7
:204C90001346ADF1240D814240F0598158781F789E780690FA2F079600F3398100F01E007B
:204CB0004FF001090A2880F22E810698A64900F01F0051F82060002E089600F02481069AE2
:204CD000DD1CADF80C70079E8DF8082028468DF8096032F07F04049000F01181002F4FF0D3
:204CF000040A00F0F68001781B798DF80B1021F007048DF80A30083C00F0E480DFF84C826B
:204D1000083C4ED0083C07D0083C40F0D880032F08BF4FF0000ADCE0032F40F0DA80841CE0
:204D300004944446257DADF80C900027012D30D1257F95422AD1627FB24227D1E27F5140D3
:204D500011F0070F22D1A17F99421DD18078A8B1401E12D0401E032818D9001F02D0401EF6
:204D700014D008E0607D1B1AB3F1FF3F06D007200FF0ECFDA1E008270EE0B94602A84946A8
:204D90000CF026F9074604E0032705E007200FF0DDFD002F00F091803A4602A820210027E6
:204DB00089E0042FC0F295808346A81C14F05AF94446054620783F1FFEB2002701282BD1D5
:204DD0009DF80810227A914223D19DF80910627A91421ED19DF80A10A27A914219DB9DF840
:204DF0000BC0E37A9C4512D1A3899D420DD1914206D0A1788E420DD0A1888E4205D109E0A7
:204E100002202070A1788E4204D0574602E0022700E00327216927B99DF80A30042808D024
:204E300020E0084613F068F8504620709DF80A30A372ABB902A90EC904F1080080E80E004E
:204E5000284612F0B3FC2061002804BF2078062708D000206070A670A580A581207005E054
:204E700007B90327042822D002281CD02069A2789DF80A108046514389B2324640180BF151
:204E900004010CF057F89DF80A00A072A088801B86B2A68036B9CDF81080ADF80C5006276E
:204EB000D14602E02078042801D04E46267004F1080018213A4612F0FBFBBA4609E04FF054
:204ED000050A06E07F1E401CADF80C704FF0060A0490D146B9F1060F15D1089902A88847FA
:204EF0008146049878B10190194808210527ADF800100168ADF802706846884703E0089999
:204F100002A888478146B9F1000F02D10FE04FF004090698079F8DF81490002103228DF842
:204F3000150005AB8DF81670602004F051FF09490888401C0880002002210EF001FF09B00D
:204F5000BDE8F08F100700209C1A00204836002078120020741700202DE9F04FAB4D05F1DA
:204F700028000068ADF1240D10F0F0FE08B113F059FAA248DFF898A2DFF888B20068A54C60
:204F9000089012F07BFD13F017F8EE69AF69B6F57A7F13D0C01B4FF47A720023A6FB000118
:204FB00002F090FE80464FF47A72002313F09EFD3246002302F086FEC01901E0A0EB070846
:204FD000A8618D488C49006820F00200086060688047DBF80010DBF8043046467118B1F5F8
:204FF0007A7F0DD34FF47A72B1FBF2F2D2184FF47A73CBF804201F46B1FBF7F25A43891ACE
:20501000CBF80010A168884760688047DAF8041002467018A168CAF8040010468847DAF8CA
:20503000000000285FD007464FF00009606880474FF000081FFAA6F3079083B95FFA96F337
:205050006BB93979F0B2884204DD79683046884209D20AE03879F1B2401A387108E0796817
:205070003046884201D3414601E07968091A7960B88878B9FB8853B9FB6843B13B8933B1C8
:20509000B87A19460BF04EFBF8687860B88808B9FB880BB13B896BB9B9F1000F04BF3868AF
:2050B000CAF8000003D03868C9F800003868B846074601E0B9463F68A16807988847B8F158
:2050D000000F0ED0B8F8043043B9B8F806302BB998F80A00B8F808100BF024FB404612F025
:2050F0002BFF002FA2D144484349006840F002000860E86828B3804723E016F8060C296913
:20511000A6F10C07032819D0E96A9DF816000978884210D116F8080C12F0C6F8B979012959
:2051300003D0022908BFB07000E03070002031460EF086FF05E013F075F902E009B1304678
:20515000884708200727ADF810002168ADF8127004A88847069E0028CFD02948006800886E
:20517000C8B1606880472649096800220E880A80A1688847089A0020314628709047064629
:20519000FF202870606880471D4909680A8816430E80A168884712F071FC0746B7F1FF3FEF
:2051B0001CD0606807B9184F296AB94238BF0F1C80471C2306466A6AADF802300820ADF88A
:2051D00000002168019268468847A96A3846491CA96211F06DF8A1683046884708200A2718
:2051F000ADF808004FF0FF36ADF80A702168039602A88847C5E6C04610E000E0180B000020
:20521000F4360020E81B00208EC2F52848190020DC360020781200202DE9F04FA54C0646B5
:2052300000200F46ADF13C0DDFF89092ADF80C002068A44D017D252900F010816C3005A948
:2052500004F0ECF8002818BFC0B240F0308120460068C18AC9080DD3007D03280AD09DF833
:205270001F0038B99DF820004C463870B534207000201CE101A804A90BF0F6FAA5F12F0182
:205290008B4691F82F30019A3468DBF808104FF47A7A504641F208155843891A0AFB1200B1
:2052B0000AFB01F1001B091B8D42C8BF002965DC854205DD002803DD346804F59154346029
:2052D0009DF81F00002857D042F204000DF135010FF0D6FF12F0C0FE044606980DA9241ADF
:2052F00042F206000FF0CCFF9DF834109DF81D00FF2904BF0A218DF83410FF2808BF0A2018
:205310009DF834206C499DF81C30D046B4FBF1F1801880B24843991008FB01F1814298BF4A
:20533000081C2D1805A812F0D0FB9DF81C203468B0FBF2F15143411A8BB251464B4308FB2B
:2053500002F1CA1AC91A121B091B8D4201D9002908D56942914216D2002A14D5B5FBF8F171
:2053700009B203E06900B1FBF8F189B232684FF4916303FB012405E0002004E0306841F69A
:2053900030342418346005460DF1120102A80BF06BFA0298DBF80810B4FBFAF21018029089
:2053B000814203D99BF82F30834204D94B4603F15804267836BB9DF81C0055190004A8422D
:2053D00098BF2D1A9DF81F00002808BF9DF8200016D09DF81C00B5FBF0F084B29DF83300A2
:2053F00010F0BEFA9DF831200146204610F050FA044612F057FB024608A9204610F096F87D
:205410004C460DE0814204D8BDF81200401CADF812004C46BDF8120094F85B100DF0B0FD8A
:205430003870244E84F8B5003068007D05287FF41FAF2348007820B113F08CFA00283FF4F6
:2054500017AF387803A9ADF80C0042F20C0004F089F9BDF80C00A4F8B00009E768460DF10A
:205470000E010BF001FA3068009A2B7841F208144FF47A7101FB0202009259438A1A94421D
:2054900010DCA1F5FA619142BCBF00F5FA6030604C4694F85B10208F0DF072FD01460020E7
:2054B000397002E039784C46652084F8B5100FB0BDE8F08F200C0020A08601007832002028
:2054D0000D0E0020633300202DE9F04F002898461446ADF12C0D00F0EC8011F47C1F40F013
:2054F000E58011F00F0F00F0E48007460591002006900A904FF0000A0990554608954FF038
:20551000010BCDF810B0054650460790059805990BEA000021EA0B014FEA4B0B401E0591A8
:2055300000F0A480401E69D0801E56D0001F40F0B7801CB1276694F86B000690072015261D
:2055500007F8010B022301A907F8016B42F2010007F8013B0FF094FE684603A90BF084F923
:2055700006980FF01BFE0099019A3E4640180090824206D8801ABDF80C300090581CADF8EF
:205590000C00009B50085146814609041804030C19430004534610EB090041EB0A0102F040
:2055B00091FBBF1D0090BDF80C309DF80C009DF8002006F8010B181206F8010B9DF80110B8
:2055D00006F8012B9DF8023006F8011B9DF8032006F8013B0935327061E00220152607F841
:2055F000010B042307F8016BB8F1000F07F8013B0CBF099898F800002D1D4EE01CB1E7657D
:2056100094F86B00069005201526049B07F8010B0DF10E0107F8016B42F2040007F8013BF8
:205630000FF02EFE02A810F0CBFD06980FF0B6FD02999DF80E209DF80E60069B0918080240
:2056500000EB6200B0FBF6F002903E469DF808109DF8092006F8013B3F1D06F8011B9DF896
:205670000A3006F8012BED1D337018E00320152607F8010BB8F1000F07F8016B034607F83D
:20569000013B04BF0A9807F8010B05D098F8000007F8010B98F801006D1D07F8010BADB259
:2056B000059800287FF432AF2E4661E011F00F0F01D000205DE080468A4602264FF4803905
:2056D00008F1020509EA0A002AEA090A4FEA4909B0F580301AD0B0F5803014D0B0F50030BE
:2056F0000ED0B0F5802009D0B0F5002004D0B0F580102AD1072404E0062402E0052400E0B1
:205710000424002704E00224012701E001242746A81C214600F030F847B104F00F04C0F390
:205730000A0141EAC42141F4004105E004F07F0400F0FF0141EA042105F8011B36180912AA
:20575000B61C2970B6B245196D1CBAF1000FB9D1022ED8BF00260BDDB01E4FF6FE7708F8DE
:20577000010BB819C0F3022040F0A00088F8000030460BB0BDE8F08FF0B504460846ADF1E7
:205790006C0D401E6BD0401E0DD0801E00F00381401E00F0E980401E00F0DB80401E00F0EC
:2057B000A88000203CE142F2010007A90FF068FD42F20B0008A90FF063FD42F206000DF1A4
:2057D00065010FF05DFD42F207000DF166010FF057FD42F2050019A90FF052FD04A80AF018
:2057F000ABFE05460DF1670142F209000FF048FD9DF86700002808BF002303D0022011F0BA
:20581000E1FD034607A8006808A920600988271D3C46B81C218005F007079DF865609DF84B
:2058300064109DF8662000F8011B9DF8674000F8016B03F0030600F8012B620747EA926168
:2058500004AC41EA8611012700F8011B9DF8672000942946019707F0B1FD0A3099E042F247
:2058700006000DF165010FF00BFD42F207000DF166010FF005FD42F2040019A90FF000FD10
:2058900004A80AF059FE05460DF1670142F208000FF0F6FC9DF86700002808BF002303D03C
:2058B000012011F08FFD03469DF864009DF8657004F8010B9DF8666004F8017B9DF8672087
:2058D0009DF86770790704F8016B03F0030705F0070646EA916004AE40EA8710294604F866
:2058F000010B002700962046019707F067FD001D4FE042F2150011A90FF0C2FC13AD42F276
:20591000160029460FF0BCFC15AE42F2170031460FF0B6FC17AF42F2180039460FF0B0FCC9
:2059300011A801682160406860606A6804F108035A6028681860306803F1080108607468DF
:205950004C60386801F1080528607A686A60202066E042F214000DF122010FF091FCBDF888
:20597000221002200A1258E009A8002120220CF0AAFE42F2130009A90FF082FC09A813F08D
:20599000E5F9024609A920460BF0D4FA09A813F0DDF980B244E042F20E0002A90FF070FCB8
:2059B0000DF10A0142F20F000FF06AFC0DF10B0142F20A000FF064FC03A942F210000FF090
:2059D0005FFC0DF10D0142F211000FF059FC0DF10E0142F212000FF053FCBDF808009DF8C4
:2059F0000B209DF80C709DF80D609DF80E509DF80A1004F8010B02F00102001204F8010BA0
:205A100007F0010042EA400206F0010042EA800205F0070042EA4012042004F8011B227023
:205A30001BB0F0BD2DE9F04F06469E48001D0068ADF1340D80470B900AA9822005F0A6FAA7
:205A50009DF8280018BB00248DF828404FF6FF75ADF804509DF82800ADF80650FF210822E1
:205A70008DF8000002A813F059FC8DF81840D420694602F007FC9DF82800401CC0B28DF80A
:205A900028003228E4DB82200AA902F0FBFB0020DFF808A2DFF808828DF8280081469DF86D
:205AB00028008DF8019069468DF80000D02005F06DFA01274D46E8B99DF80B30012B07D1E8
:205AD0009DF80A0020B90DF1020012F0D3FF88B9747B002C0CBF052209224F469C4209D1A4
:205AF0000DF1020006F10E0112F0C6FB002818BF012507D1002F40F0BF801DB9707F002845
:205B100000F0BA804C469DF828008DF8214008A98DF82000D12005F039FA002832D19DF8E7
:205B30002200FF282ED08DF800006946D42005F02DFA002833D102A8311D082212F09CFBE3
:205B500000B330887788ADF80400ADF8067045B1307B9DF82810B7698DF818000DEB810162
:205B70000F61D420694602F08DFB75B1307F9DF82310884209D08DF8230008A9D12002F00C
:205B900081FB02E0641C322CBDDB322C74D14F468DF80070D420694605F0F8F928B1DAF8C0
:205BB00008100B988847192074E002AB184612F061FF4C4600B101242046341D30B91846EB
:205BD0002146082212F058FB00284AD030887388327BADF804009DF82810ADF80630002DAF
:205BF0008DF818200DEB810000F110000CBF4946B1690822016002A8214612F05FFF98F85E
:205C10003C0030B1D8F88C201AB19DF80010204690474C469DF828008DF8214008A98DF8C3
:205C30002000D12005F0B2F9E82807D09DF82200FF2803D0641C322CECDB10E09DF80000E1
:205C50008DF82490337F8DF8220069468DF82330D42002F017FB08A9D12002F013FB322C23
:205C700002DB7F1C322F93DB322F05D1DAF808100B9888471A200DE09DF82800401CC0B288
:205C900002288DF82800FFF60AAFDAF808100B98884748460DB0BDE8F08FC04678120020F4
:205CB00024130020781200202DE9F04F0546954C6F780026ADF1540D3846312810DC31282A
:205CD00000F0D680002800F01681401E00F00C81401E00F00581B0F12E0700F0E180FDE00C
:205CF000323800F0AE80401E4ED0401E012816D9801E40F0F380A88802280DD120680028F1
:205D100008BF182109D0A86813F0ACF92168884713F098F8014600E027213620DBE0103433
:205D30002068B84668B3A86802A912F04FFBB8F1340F034618BF301C02D113F093F99B1C3A
:205D500013F8017BB8F1350F024603D1A988B81D884213D0B8F1340F0ED1A98807F10800F4
:205D7000884209D1009364683B4602A803C8A04713F068F8014605E0272103E024683A466D
:205D9000F3E718214046A6E0A88808284BD10C342068002845D0A86804A912F017FB02463A
:205DB00013F060F995788346F82DC8BFF825DFF858814FF0080A0420AF1CADF83A00D8F839
:205DD0000010ADF838A05FFA87F90EA8CDF83C90884720BB1098074608B3801C00902468F4
:205DF00004AB93E803005A462B46A047041C07D13C70494633203A467D7013F06FF902E02E
:205E100013F020F804460520ADF81A004546ADF818A02968079706A888472CB96EE01A2424
:205E300002E0182400E0272411A8314602220CF04AFC8DF84440332011AA022113F04EF9EF
:205E50005CE0A888314605280BD11834206840B1A86808A912F0BAFA226808A803C890472E
:205E7000014612A810F021FC3220042112AAE5E7A888052811D108342068002808BF1821CA
:205E90000CD0A8680AA912F0A1FA22680AA803C8904712F0D7FF014600E0272131201AE046
:205EB000A888092815D1241D2068002808BF182110D0A8680CA912F089FA12F069FE24687B
:205ED00002460CA803C83346A04712F0BBFF014600E02721302012F061FF0FE026260DE086
:205EF0000A4A02200521A9E713A8432113F0B4F813AA0120A1E7012010F038FE304615B0A0
:205F1000BDE8F08F6402002078120020B00A00002DE9FE4F9B4692468946054613F0D0F961
:205F300002908C48353801680CAFA94208BF416801A84A4653460090284604F061FA834C11
:205F5000061C13D194F8880140F0040084F888010298C4F87C5113F0AFFA9DF8040002284B
:205F70000CBF6FF002086FF00108ECE005F1780013F09CF9B08CA4F85000B6F92480C6F86A
:205F900008909AF80400C6F804B086F82600A6F824806F48F56097E80C00202106F1100785
:205FB0001940104087E80300002786F82770F06840680078022809D19AF80500012805D168
:205FD00096F8270040F0100086F82700029813F073FA94F88901042807D1D4F88001B4F9F9
:205FF000841194F8862113F002F913F069F9814694F8890130F004033ED104F13C000368B7
:20601000D3B9314610F068FE38B3A5F8C08096F8270040F0800086F8270085F8C270A0796D
:2060300020B1207810B10120E071A771484613F043FA484800781FE004F13C00314610F01F
:206050004BFE50B1A5F8C08096F8270040F0800086F8270085F8C27048E0B4F9500000F635
:20607000FF706FF31F30A4F85000484613F024FA6FF00100BDE8FE8F02280ED196F8270005
:2060900040F0800086F8270085F8C270484613F013FAB6F92400BDE8FE8F012811D104F149
:2060B000C80013F003F996F8270040F0800086F8270085F8C270206C0028E7D1484613F053
:2060D000FBF9206C00282AD12078A76400BB2079012838D013F0F4F881466079A0B9B068E5
:2060F0000DF0A6FB58B9207A012803D1484613F0E3F928E0484613F0DFF904211FE004F153
:20611000C80013F0D1F8F1E7134901200870EDE7012012F03DFA192013F0D6F813E0206C57
:20613000C0684068007802280DD1F06840680078022808D19AF8050028B94FF4004104F193
:20615000EC0013F0DBF84046BDE8FE8FD8290020FDEFFF9F612B0020FB3600202DE9FE4FAA
:206170000646307D01280AD196F917000DF0D8FE4FF6FF71814208BFE82000F00681F07B70
:20619000834A20B91146491C0978022908DB012803D110460078022802DBF120BDE8FE8FE9
:2061B000346AB6F8289096F8347096F835B0B58B4FF000085FEA040A17D0764890F83C30AF
:2061D000002B2ED0416D00292BD004F0FF0088477049496D04B20AF47F008847001900B2B6
:2061F000001D00B2C43084B200E0C4240DB12D1DADB269480078012809D147B16748C119BA
:2062100091F8048010F80B002418641DA4B205EB090020184044801C80B211F0C1FD071CD6
:2062300002D11A20BDE8FE8F08EB09002B193881002D07EB030078600EBF0020E019801C9A
:2062500000217422C7F8A00007F10C0013F066F84C442D1907F13C00FF211022A7F84C501C
:2062700013F05CF807F12C000F21102213F056F800243C707C707868716A328D0AF05AFE58
:2062900007F1800006F12C010B220AF053FE07F18C00314612F084FA7089A7F89600307B86
:2062B00087F89800707B06F10E0587F899002A6869460A60686848609DF800102046012952
:2062D00008BF01209DF80110012908BF40F004009DF80210012908BF40F008009DF8031083
:2062F000012908BF40F010009DF80410012908BF40F020009DF80510012908BF40F0400068
:206310009DF80610012908BF40F080009DF80710012908BF40F48070A7F89A00B07D87F87B
:206330009C00F07D87F89D00B28BA7F8A42022B1D7F8A000B1690AF0FDFDB07F87F8A600E4
:20635000306AC7F8A800B7F8A400C0B1D7F8A000A8B17868401E7860F82101707868401EC2
:2063700078600470B7F8A410B7F8A4607868401A786039897018801C38817868B8650848AD
:20639000007839460DF05CFE2046BDE8FE8FC0464E0C0020241300201C0E0020BC0A000020
:2063B000301400202DE9FE4FDFF82882074608F1040000688047DFF8C89100248346002FC0
:2063D00009F1020004703ED011F0EEF86B4D214640F27C62284612F0A1FFFF210822681D3A
:2063F00012F09CFFFF21082205F10E00697312F095FF02272E4603214FF6FF720120A97778
:2064100004232A8405F5DC7505F8040F6B70A9707F1EEB70F8D106F5CE654FF0050C0227E0
:2064300005F8040F6B7085F802C07F1EE870F7D186F8781606F5E37032277F1E20F8182BBA
:20645000FBD10220B0704D4695F83C0010B1286C00B180470DF07CFBDFF8309109F1D60019
:2064700090F9000012F036FC11F0B4F812F028FC12F0B8FA12F0AAFADFF808A107270AF179
:20649000240656F8040B00B180477F1EF9D13E480460446004614FF470018160C1600AF1E2
:2064B000040007680FB10FF0B1FD4B4800688AF80E404E46C0B112E0484610F047FA0290C9
:2064D00002A80FF0A3FD21E0484610F03FFA019001A80FF09BFD14E068460FF097FD0BF09A
:2064F00067FD00280090F7D129480078012803D02046014600F0E2FF2648274F047007F1F5
:206510002409786A0028DFD109F10409B86A0028D2D17C62BC622148A86187F82E40204BCA
:20653000EB6187F82F401F4A2A621F49696287F830401E4BAB621E4AEA62214A1D496A6035
:206550001D4F29631D4B2C701E496F63204AA9601D4FAB631D4BEF6058462B61D8F8081040
:206570006A61884706F1BD01522001F0ABF896F8D7000EF073FD2046BDE8FE8F58230020B0
:206590002413002030140020A41B0020500D0020941C0020FF360020200C002077EE0000FE
:2065B000819201006D7C01003986000049E10000C98101002D8F01003DC700008DA80000A3
:2065D0007FC1000025BA0000554B0100F90A0100993A010078120020F43600202DE9F04FCA
:2065F000794C02204FF0080AADF1540DADF81A002168ADF818A01020079006A88847002843
:206610000CBF089F00270126A14609A8ADF824A0D9F80010ADF8266088479DF828106B4C4A
:206630000B982170606067B1D020387000257D70B970FD703D710220BD603946FD600FF036
:2066500019FE304612F0C4FAA046E22008F10C0112F0C0F8182019F0A7F888F801005C4830
:20667000C8F808000EF00AFC5C4D5A480227382245625B4C47705849628003780162594D64
:20669000867004276422237058492F70564C2F7504F10C000FF048F84FF0000B544DA060FF
:2066B0006F68544C8DF840B06FB110A8A11D009012AB0A6889881A6012AA998092E80300AC
:2066D00033465A46B8472A684AB1A11D12A80B688988036012AF818097E803009047216802
:2066F0000DF1410001602779077143480068400805D341208021062210AB03F069FB3F4CF8
:2067100004F1140004F108010AF096FD6060584612F0AEFC5E46A51E074605F802BF022037
:206730006870304612F03CFD014660683A46C9B210F048F8761C022EEFDB314904F120005B
:2067500032220EF0F1FF4FF0FF3707260324ADF808A00A20ADF80A00D9F80010039702A8D3
:2067700088470028F3D1ADF830A0D9F80010ADF832600CA888470E9D00289DF836209DF8EB
:2067900034000F95E3D198F8001091420ED198F80110814207D0D8F808104B6C33B15946AE
:2067B0002A46984702E02846FDF750FC0F980028CDD0ADF810A0ADF81240D9F800100595B7
:2067D00004A88847C3E7C04678120020901B00207817002010070020B1470100358D010067
:2067F000981A002048360020D8190020713E01006C020020B00A0000F01B00205818002055
:20681000A11D01002DE9F047DFF80CA20746AAF13500DFF8F8810068800880F0E78011F0A2
:2068300029F8814908310B6800261C17641C990D0AD2C0F13E0110F10A0F4FEAE101D8BF9A
:2068500008218C42B8BF0C1CDFF8C4C1990E0FD2590E0DD36246143A1168C1F304211629E0
:20687000A8BF20391268C2F30462162A0EDB0CE0634AD2F87C11C1F304611629A8BF203982
:206890001268C2F30442162A00DB203A61189146162905DA11F10A0FB8BF6FF0090100E0B5
:2068B0001521584C584D01F01F0242F4F85222802A6812F0030F18BF0126D20828BF46F07A
:2068D00002060FB146F00406424692F90740041B052C04DA9479B44208BF918866D00F28C8
:2068F000A0F10F0827DB08EB0014A4F1F0084FEA282EBEF1070F88BF4FF0070E7546062D6D
:2069100088BF06255CF82570042404EB850465462C59E41B04F0FF05F70824BFC4F307277E
:206930003D44B70824BFC4F307473D44770828BF05EB146501E00025AE465CF82EC0F70894
:206950000CF0FF0424BFCCF307273C44B70824BFCCF307473C44770828BF04EB1C64ADB275
:20697000A9EB0101A8EB0E277D43002905F1800504EB1524D8BF012103F0FF0334254D4386
:20699000A9B259434FF6FF73B1FBF4F18B4238BF191C802889B2918005DA10F1800FB8BFD5
:2069B0006FF07F0000E07F20D0719671194800681F2910604FF0000008D340F2FF128A4278
:2069D00006D24908401C8A42FBD301E01F219180124F0F39090940EAC10047EA0001CAF8BC
:2069F000FB1F0026CAF8FF6FBDE8F0870C490D4F424608200F60921D1070BDE8F087C046DA
:206A10003C1100506E62084024220840EC3600209C130050082009403500094000E7A480E8
:206A300030100940FDFDA400AC3F0050804A2DE9F04F13680546ADF13C0D0DF12A0003608D
:206A5000526842607B4C94F8B30005F1280105F12807002800F0E8806878002840F0E48064
:206A700011F078FFDFF8D091DFF8D48100B3042046466A68A873301D12780068042A00F07D
:206A9000958095F83000022812D14846007801280ED06A4905F1280002220E46203111F05F
:206AB00091F928B906F1160105A812F0EDFB05AF686E002800F0B880012102AA0AF07EFF97
:206AD000002840F0B1809DF80800A873E86C40B139460DF11E0208ABFCF722FD002840F066
:206AF000A38008A80090686E39460DF11E0306F0A9FF002840F0988048460078012851D051
:206B10004FF400500DF122010EF0BAFB0DF122000DF12A01082211F055F938B10DF1220033
:206B30003946082211F04EF900283BD194F85900002837D0A66CB4F8445042F2010004A9D8
:206B50000EF09EFB049A4FF000410020E2FB0610061C206D12F040F986190498B04202D86C
:206B70006D1C361AADB24746786880475FFA80F8206CB04204D1208FA84208BF002608D017
:206B900026642587002084F8350011F065FA0126E064B968404688470EB10BF0ADFF012016
:206BB00084F85800002084F859003DE08B468047264C0D9095F8307022480A264FF0000929
:206BD000804610F807A0207AB84206D152462046594611F051FB012804D0761E04F10C0445
:206BF000F1D100E0A1465FEA09070FD198F80601164F461C810088F8066101EBC001F0B2AE
:206C10007F180A2804BF002088F80601384659460A2211F053FF0C48094900788968B8725C
