:20000000004B00203D3F0100FDC90110FDC90110FDC90110FDC90110FDC90110FDC90110EE
:1C002000FDC90110FDC90110FDC90110FDC90110FDC90110FDC901103BCA0110A4
:20003C00FFFFFFFFFFFFFFFF9A100000000000000000000000000000000000000000000002
:20005C000000000000000000000000000000FAFA1400000000000000000000010000010179
:20007C00000000000000000000000000000000000000000000000000000000000000000064
:20009C00000000000000000000000000000000000000000000000000000000000000000044
:2000BC000000007800080230000800000000000000000804FA000000FFFFFF000C1100004A
:2000DC000000000000001D1100000000000000002E010F000000FA0000002F010F0000005F
:2000FC00FA000000300100000000FF000000310100000000FF000000320100000000030053
:20011C0000003301000000000300000034010000000001000000350200000000FFFF000021
:20013C00370200000000FF000000390200000000FF0000003B0200000000FFFF00003D01B8
:20015C0000000000FF0000003E0100000000010000003F01000000000100000040010000C2
:20017C0000000700000041200000000000000000610200000000FFFF00006308000000002F
:20019C00000000006B080000000000000000730800000000000000007B08000000000000D2
:2001BC000000830205000000580200008501000000001000000086010000000032000000F0
:2001DC0087010000000032000000000038C40D00C8000000810000320F01000000C50D00E3
:2001FC00900100004000009605010000952B0D00C8000000220000320F0200003600010045
:20021C000600000000000000000F000000000000000000000000000000000300FFFF0000AC
:20023C000403FFFF0000FFFF0F00F4010005401F0320000100000000FF3F0F0008000E00B0
:20025C0000000000000000000300010F000009010000000000000000000000000000000065
:20027C0000000000000000000000000000000000000000000000000000000000AD000000B5
:20029C000001363601010001020100010301000104010606080400000C0100340D01000F4E
:2002BC0010040101140100FF1608000020020000220100FF23010001240100FE2501000820
:2002DC002602000028010001290100012A0200002C01000F2E020000300100013101000881
:2002FC00320200FF3401000735010240360100003701000138010001390100FF3A01000FCE
:20031C003C0200FF3E01010F3F0100014001041F41010001420100FF4301008044080000FB
:20033C004E0100084F01000F50010001510100FF5201090A53010185540100015804000056
:20035C005C0400006004000064040000680400006C04000070040000740400007804000011
:20037C007C040000800100FF81010001000120181A18182C34041E000C0E020B040B0A0792
:20039C000800110F00000500B900B300AD00B8001C00300038000800340102000304710404
:2003BC0002046004110470040204020401040204000410046104000414046304730472042A
:2003DC0062044304000413040604000400040404120400040004000400045104640000043C
:2003FC0000040004440400040004000400046504000435048104640005040004830400045A
:20041C006604000400040804010171010101010111010101310101010101800100011001ED
:20043C0061013B001400630173017201620143010001130106013D01350004011201000155
:20045C0000010001000104010401330133013C014401320136000001000165010001350082
:20047C008101000105018201830100016601000100010801030271023001600211027002CD
:20049C0001020202020280020002100261023A0041006302730272026202430200021302B3
:2004BC0038000002000204021202000200020002000204020402370037003C0244020002C2
:2004DC00390000020002650200023502810200020502820283020002660200020002080216
:2004FC00008934010000A12F010002C731000000F573010001C731000000F573010003E9A0
:20051C00E1000000F5730100048173010000F57301000175730100016F73010001F57301DB
:20053C000001F573010001F5730100002146010001F573010001F573010001F57301000124
:20055C00F57301000275730100026F73010002F5730100002146010002F573010002F5739E
:20057C000100023934010002F5730100049740000000F57301000375730100036F7301006D
:20059C0003C731000003C731000003F573010003E9E1000003F5730100002146010003F544
:2005BC0073010003F57301000475730100046F73010004C731000004C731000004C7310077
:2005DC0000049740000004F573010004F5730100047B73010000214601000104E9FA010006
:2005FC000300000000040000EDF701008BF90100DFF90100F9F301005DF40100D5F8010088
:20061C0061FA0100C7F90100B1FA0100F9F2010019F501006DF9010001F901006DF5010035
:20063C00BDFA0100D5FA01009DFA010089FA010043FA010035FA0100D5F601006FFA010056
:20065C00ADF9010015FA01009DF60100DFFA0100791601003154010001F00100C1F501009A
:20067C0029F10100FDF9010099460100E1690100C9690100BDF40100497101003B710100D4
:20069C0059F601000000000000000000BB7201002D70010015F70100000000000000000015
:2006BC00000000000000000000010400003333333333333333333333333333333303010FD6
:2006DC0000000000000000000000000000000000FFFFFFFFFFFFFFFFFFFFFFFFFFFFFFFF0E
:2006FC00FF46485465737400000000000000000000000000000000000000000000000000B1
:20071C0000000000D106000001000000C80A000008000000F605000001123456789ABCDEC7
:20073C00F000000000000000000000000000000002040201010101090200A2A6A8A0A5A5BC
:20075C009F95AD96B8B2A4313117191A21241B1D1F31313331313118191A22311C1E20315F
:20077C00313431000000000002000000020000000A000000020000000200010000000000B4
:20079C000000000000000000000000000000000000000000000000000E00000003007100BB
:2007BC0030016000110070003102200350048000070010006100000014006300730072000D
:2007DC006200430000001300060000000000040012000000000000000000040004003700EA
:2007FC0037003C024400000000000000000065000000350081000000050000008300000081
:20081C0066000000000008000103710301030103010301030103220302030103000310037E
:20083C000003000300030003000300030003420300032403060300030003040312032503C5
:20085C002303250323030403040300030003000344030003000323030003650321003503BA
:20087C0081030003050300030003000300032503230308038F0000008F0001008F000200B8
:20089C008F000300900000018F00010190000002900000038F0001048F0000058F000804A0
:2008BC008F0000048A000006510000007F0001003F0004003F0002003F0001007F000200E3
:2008DC007B756E6B6E6F776E2D696E7374616E63652D6E616D657D007B656D7074792D6964
:2008FC006E7374616E63652D6E616D657D00C0467B7374617469632D696E7374616E63651A
:20091C002D6E616D657D00C0000000000800000000000000200000004000000060000000E8
:20093C00000000000600000002000000860000008200000000000000080000001000000073
:20095C001800000020000000C003000080070000000F0000001E0000003C00000078000018
:20097C0000F0000000E0010000C003000080070000000F0000001E0000003C00000078005F
:20099C000000F0000000F00006088080070880800D2007C00E2007C01400C080024000803F
:2009BC000300C0800108C0801E08C08009400080084000800A400080FE00000000010002CD
:2009DC000101000302010002000000000301000704010003050800000D0101FF0E080000AD
:2009FC001608000020020000CD05010069270100716A0100A1A4000059BC000099730100F4
:200A1C00BD1E0100B1C300009F7301005906010000000000FFFFFFFFFFFFFFFF00000000FF
:200A3C00000000000101010100C2010003000000000000007BC80110C5BC0110D9B201104E
:200A5C0033C20110BDAD0110C1B101106DBA011065BB01101DC001100010004006000000C9
:200A7C0015000000FF000000000000000302FFFFC42C002040000000FFFFFFFFC40900002A
:200A9C00000000000000000001003A010000000000000000040A000010250020740A00001D
:200ABC0000000000000000000000000000000000000000000000000000000000000000001A
:200ADC0000000000C33B3D3A5D3A713AA10A8F3A0F3BB309495E850A2F3B853B001610162D
:200AFC000E18151C0212032418580302100258000100000000000000000000000000010067
:200B1C000000FF7F1C2B0020400B0000000000000000000000000000B5DA0000BD2A010012
:200B3C0001010100004002400B00000027000000FF0000000001050900040810000408109C
:200B5C0041B5011095A6011015B8011000BE040A00BE0208FFFFFFFFFFFFFFFFFFFFFFFFC0
:200B7C00FFFFFFFFFFFFFFFFFFFFFFFFFFFFFFFFFFFFFFFF3545251502030504FF000000AC
:200B9C0000000000596A0100F530010006000500000001020101FFFF000000400F000000F2
:200BBC00BD8E0000D1C0011061AD01100A00000010180020255901006D740100A1C60000F3
:040BDC004973010058
:201000003C000000000000000000000034100000000000000000000001000000000000004F
:1C10200000000000000000000000000001000000000000000800000000000000AB
:20103C003400000000000000000000006810000000000000000000000100000000000000E7
:14105C00010000000000000000000000080000000000000077
:2010700030000000000000000000000098100000040000000000000001000000FFFFFFFF87
:10109000FF00000001000000080000000000000048
:2010A0002C0000000000000000000000C4100000040000000000000001000000FFFFFFFF2F
:0C10C000FFFFFFFF080000000000000020
:2010CC0038140000E410000095A1011091A70110A1C2011009B2011041B8011000000000EA
:0810EC00000000002D000000CF
:2010F400280000000000000000000000141100000000000000000000FFFFFFFF0000000093
:081114000800000000000000CB
:20111C00341400003011000065C2011069C101101BC2011091BA011000000000000000006D
:04113C002F00000080
:20114000341400005411000071C20110A5B6011099BF011045B601100000000000000000BD
:04116000300000005B
:201164002400000000000000000000008011000000000000000000000000000008000000AE
:041184000000000067
:20118800240000000000000000000000A41100000000000000000000000000000800000066
:0411A8000000000043
:2011AC00240000000000000000000000C8110000000000000100000000000000080000001D
:0411CC00000000001F
:2011D00000000000FC180020040000000000000000000000200000007010000030000000F7
:2011F0001C110000041900200400000000000000000000000C00000030130000180000000A
:20121000401100000C1900200400000000000000000000002400000048130000180000008D
:20123000000000001419002004000000000000000000000010000000A01000002C00000061
:20125000CC1000001C19002004000000000000000000000020000000641100002400000090
:20127000FFFFFFFF241900200400000000000000000000002800000088110000240000001C
:20129000FFFFFFFF2C190020040000000000000000000000580000003C1000003400000001
:2012B000FFFFFFFF3419002004000000000000000000000010000000601300001800000016
:2012D000FFFFFFFF3C1900200400000000000000000000001C000000AC110000240000008C
:2012F000FFFFFFFF4419002004000000000000000000000038000000F410000028000000FD
:20131000FFFFFFFF4C19002004000000000000000000000054000000001000003C00000098
:1813300018000000000000000000000040130000080000000000000032
:1813480018000000000000000000000058130000080000000000000002
:18136000180000000000000000000000701300000800000000000000D2
:0813780002000000A00B0000C0
:041384000100000064
:0413880000000E0053
:04138C0000000F004E
:041390003200000027
:041394000100000054
:0413980068180020B1
:04139C00000200004B
:0413A000877301004E
:0413A400FDC901106E
:0413A8000000000041
:0413AC00000000003D
:0413B0000800000031
:0413B4000000220013
:0413B8009416002067
:0413BC00010000002C
:0413C0008018002071
:0413C400080000001D
:0413C8000000000021
:0413CC00000000001D
:0413D0000000000019
:0413D400080000000D
:0413D8000000000011
:0413DC00000000000D
:0413E0000100000008
:0413E4008C17002042
:0413E80006000000FB
:0413EC0001000000FC
:0413F0003415002090
:0413F40000000000F5
:0413F80000000000F1
:0413FC0000020000EB
:0414000000000000E8
:021406002900BB
:021408000100E1
:02140A002500BB
:02140C002F00AF
:02140E003000AC
:021410002D00AD
:021412000100D7
:0114140001D6
:08141800030000005C0B000062
:081420000000000000000000C4
:0414280000000100BF
:04142C0000000300B9
:0414300083C4011060
:041434003C14000064
:041438003C14000060
:04143C0000000000AC
:041440008000000028
:041444008000000024
:0414480000000000A0
:04144C0080180020E4
:041450009B6F01008D
:041454002000000074
:041458000C0B000079
:04145C00500A000032
:0414600009C30110AB
:041464004B30010008
:041468009F4101009F
:04146C0095C801100E
:0414700097C8011008
:041474000000000074
:041478000B0B00005A
:04147C00F408000070
:041480000C09000053
:04148400DC08000080
:0214880008005A
:02148A00090057
:02148C0001005D
:02148E0000005C
:01149000015A
:041494000000000054
:041498000000000050
:04149C00000000004C
:0414A0000000000048
:0414A400657401006A
:0414A800554E01009C
:0414AC00B960010022
:0414B0003D520100A8
:0414B4006F53010071
:0414B800A145010049
:0414BC0031190100E1
:0414C0008F71010027
:0414C400D12B010027
:0414C8000DC801103A
:0414CC001DC8011026
:0414D0000800000010
:0414D40024000000F0
:0414D80018000000F8
:0414DC0028000000E4
:0414E00020000000E8
:0414E4003C000000C8
:0414E8000C000000F4
:0414EC0034000000C8
:2014F0007E482DE9F04F0C4601210170DFF8F491DFF8F481DFF8F4B1DFF8F4A178494FF04C
:20151000000C2027ADF1440D65461F4081F800C0CE490E9391F83C600D9205EA020008BF02
:2015300000287AD10D984FF0E047194662460F4002EA000008BF002843D10E9E0D9B4FF441
:201550008601B9F8B200DFF828C3CDF8289012EA060701EA030108BF002919D1C34912EA78
:20157000060701EA030108BF00296FD0374641460D9E0C8101F130034881002F83E8C000AC
:2015900004BF331CB3F1806F60D102285ED111E0374641460D9E0C8101F130034881002FC2
:2015B00083E8C00004BF331CB3F5803F4ED1B0F5505F4BD1086A6746436938682146984737
:2015D00042E046465946B6F9087091F90000BC42A0F10100087017D1728906F1300003C820
:2015F000002904BFB0F5803FB2F5505F08D0002904BFB0F1806F022A02D010F085FF03E07C
:2016100012F038F915F0D4FA524692F90000401E10706FF00101318114E041466FF00100C5
:2016300001F1080210806EB1BC480078832802D0BB48812202704646316919B16046884779
:201650002146E8E7CDF82890B9F8B2000D9A0E9E02212F461140374008BF002900F09483BA
:20167000B04A43F201418142109200F06783C91C814200F06383594691F900105A464746C6
:20169000491E1170B7F908108C4205D043F60401814240F062835EE36C4890F83CC007F160
:2016B000300090E800034FF482062F4617EA090706EA080008BF00281CD10B48303003C8CC
:2016D0004FF400322F4602400F4008BF002A02D110F01AFF41E312F0CDF83EE37C190020E1
:2016F000C41800200810002038140020CB180020CA1800200020BCF1010F4FF08105884CBF
:201710000F9003D0207808B115F078FC2570BD4C0020677860810646E7702069DDF840902E
:20173000417A027A89F8006001F0070302EB0322490996B238BF361F09D304F110010A683A
:20175000167A517A01F0070106EB0126B61E457ADFF8B482B6B235F07F0540F0D782B6F528
:20177000006F80F2D3820A3031460FF0A7FAE16904F114000522083115F056FAF61EB6B24E
:201790000520E37DA57D314A6081217ECDF83090C3F3011B92F83C00617105EB0325002868
:2017B00008BFBBF1020F00F0B182BBF1020F00F3AD8260B115F0070F00F0A8825748007836
:2017D000862804D105F00700022840F09F82281300F00209B9F1020F4CDAA37805F00700D1
:2017F000022835D1D8F804A093BBE16909A801220D3115F019FA06206081D0478146834EBD
:201810004648D8F8082037680078CDF82C80862816D127B915F0F2FB4046376882689DF99E
:20183000240015F00FFE9DF9246078770020B8774846FE77904705F0100010F053F901E0FE
:201850004846904715F036F864E2C04650120020324800780022862808BF0122CDF82C80F5
:201870005AB1002012F052F8E77805E000000C8C08170020CDF82C80A37887B17BB9012F9E
:2018900000F03F82022F03D115F0070F40F03982032F04D105F00700032840F03282280939
:2018B00008D315F4405F00F02C82C7480778002F00F02782B9F1020F02DAA80A80F0218245
:2018D000C4480078C0F3810A4FEAA018BAF1010F00F01782B8F1010F00F01382BB48BBF114
:2018F000020F0CD010F80A1010F80800B8F1000F0844C7B21CD0E8091AD3BF1E0CE000EBBE
:201910000A014044097900794018C7B2E8090BD25AEA08030CD0BF1CFFB209E0C82D0020D9
:20193000C42D0020C62D00205AEA080308BF0227C5F30029A7EB09008642C0F2E281F61BCA
:2019500009EB0600290980B2208124BF25210F910F994018743080B215F042FAA678E0603A
:20197000002800F0CE81002174220FF068FC002020711EB90C9905F0200008700C980378FD
:201990000026002B65D0B9F1000F62D19048008805F0070103291BD18108324609D31B490F
:2019B00091F82E3093B90B681BB15B7E33F07F030CD15AB9800807D3D3498B68887813B102
:2019D00018468047267908B9002301D004262671D94890F83C3013B1BBF1020F39DA60793B
:2019F0000DF125010C90E92012F092F8B3469DF82560D04966B901F1080007220270082278
:201A10000BE0C0462C2D0020F01200209C0A002001F108000522027018224A72861C022116
:201A300000233170BBF1000FC37003D0317841F0100131700C990A9A01710521A2F8781082
:201A5000C2F8840014F0C4FA304603210FF036F92679E16801F174004860886523890B8193
:201A70002089A1F85C0028090ED3C9F1030082B2A1F85C20886DD84915F0D6F8E1688A6D77
:201A9000B1F85C00801888655248D34B0078C0F3011218788D81B9F1000F00F0780040EACD
:201AB000020046EA00060E744FF0FF038B730CBF6079002081F8308081F83AA081F849001B
:201AD0006089002FA0EB090085B2658100F01181E069E78029183A460831684615F0A4F8B2
:201AF0003C48EE19B5B26581E16800780A7C6E46C0F38103C0F3011AC0F38108002B02F0A5
:201B1000400946D0C0F301100023022801D1D0090BD29DF801209DF8000000EB0220A1F8CC
:201B300044000DF10206A1F84200AE4AB1F84400B2F85220824203D04FF6FF72824222D16B
:201B5000B8F1030F12D072783078A64B00EB022082B24A86B3F85010B61C0120914211D092
:201B70004FF6FF71914218BF00200BE0E0683146323015F021FCE0689A493230473114F09F
:201B9000A7FE08360346002B00F0B6802046E168C07D831126D0BAF1020F03D0087CC00966
:201BB00003D309E059EA080206D172783078B61C00EB0220A1F84200032B0DD07078327849
:201BD00002EB00220A850DE0980C0020680B000084130020432D0020E0683146283015F0D0
:201BF000EBFBE16888890009C0F08380886D3A46694615F019F8E068816D79188165E669A3
:201C1000B0F85C1001227F18A919A0F85C7008310DF1260015F008F86F1CBDB26581E16835
:201C30009DF82600896D0870E2689DF826609DF82630906D401C9065B2F85C00401CA2F8D1
:201C50005C0006F0070082F82400C3F3C10182F82510208992F824708046002F4CD05F4FD0
:201C70007F183E78361D8642E68045DCE06929183246083105A814F0D7FF3A789DF817C085
:201C9000111D481980B29DF81450608105EB0C60E3689DF8165000EB05409DF815500429A0
:201CB00000EB052098610BDDE06806A9521E1C3014F0BAFF3878E3686844C07D83F826002E
:201CD000986D05A9324614F0AFFFE068816D71188165B0F85C10A8EB06077118A0F85C1031
:201CF000791E89B22181B0F85C2001818918A0F85C1000F081F80DE015F0A8FA10F004FC18
:201D100008E015F0C7F805E0D018002015F0C2F8CDF82C80DDF82C80D8F804008047E16984
:201D30000A68002313710968E161D8F80810884713E0C0462C1700205012002040468078B4
:201D500041465F46401C887097F900005946401E087010F0D9FB14F03DFB23480A99214F60
:201D700000226FF0010690F83C00A1F8B2203E8110B11098007808B914F01AFF1B481B4957
:201D900090F90000401E0870194890F9000010B9134800210170154890F9000088B10D9A6E
:201DB0000E9F02214FF0E0401140384008BF00290BD00E4890F90000002806DC15F01EF94B
:201DD00003E00020014605F055FA0A49002011B00870BDE8F08FC046422D0020500B0000A5
:201DF000C21800203814002050120020CA180020CB1800207C1900202DE9F04FB94C0C3C8F
:201E1000E0686189E2692589806DADF13C0D0E46891808312A4614F007FFA81986B2E068CA
:201E3000816D6D188565E0690122311808310EA814F0FAFEE069761CB5B204226581291806
:201E5000083104A814F0F0FE9DF813109DF8100000EB0160E3689DF812102D1D00EB01407A
:201E70009DF81110658100EB0120049014F0CCFFD863049814F0A0FCA3F84000EA2014F0E7
:201E900050FD0221B648E2680170117C2079084310749DF9380015F0D5FA82F846009DF91C
:201EB0003800118982F84800002082F8470002F174009065B2F85C00401A51680918516056
:201ED0009089830A18D2030957D310F0070F07D000F00700032812BF081C5068401C48E0EC
:201EF0005068C17801F00703491001F0380101EB43014018001D3CE0171C02D115F07EF821
:201F1000E268B889800A2ED379684878C6112AD13E89796600204D780B7805F07F056D0034
:201F300005EBE3157E2D0DD07F2D09D003F07F031818801C5B1880B2991C8642EBDC08E08A
:201F5000002100E00121801C87F8601080B2864201DA002005E07968411879603989091AF1
:201F70003981A7F86800506E10B1B2F86800B0B1506850619089000916D292F86000002819
:201F900000F0FC80104611F0A9F9E268D06C002800F0F480B2F85000002840F0EF8015F0F4
:201FB00043F90020E06024E24FF0000B1546104605A9CDF814B007ABCDF818B095F82470DD
:201FD000CDF81CB006AA05F04DF8002840F0CB80059A6E6968682B89311A581A1FFA80F88B
:201FF0000AB915F00BF8B5F85C0000900196CDF808800698001D03900598A969AB6D3A46F4
:2020100015300AF039FC002840F0AD80AD4895F860302E89C15D701A288113B1284611F06A
:202030005DF9AE8906F00706032E02D168680078E87395F80F90732009A913F0C1FD832084
:202050000DF13A0108F0DEFCDFF8D082DA4651460AE0C278012A03D1002F08BFDC2027D079
:20207000001D491C0990C9B29DF83A00884279DD09988278032E07D00378B3420DD098F84B
:2020900000300BB1022E08D0032EE9D10378032BE6D103465B784B45E2D1BB10B3EBA20F78
:2020B00005DA02F0030207F003039A42D1DD50468146059895F80FC090F814E0514601E069
:2020D000491CC9B28E4549DD07694B00032E03EB070209D1FB5C032BF2D152786245EFD1E1
:2020F0000BE0C046382D00201278B24205D098F80020002AE4D0022EE2D10698077D002F45
:2021100008BFB9F1DC0F2DD0A869B0F1FF3F23D0712008A913F054FD5346089AA9690598F3
:20213000824206D106989A4600EB8A00C068884210D85B1C2C32022BF1DB0698491CB1F1B4
:20215000FF3F00EB8A00C16002D1079801218170584608E0DB2007E0DB2004E0DC2002E0F1
:20217000C42D0020DD206870E26850709069577850651FB1F22014F0D4FBE2689F4DDFF820
:20219000849295F83C10002900F0AD8090899C4EDFF874B200F00700022858D1A078002870
:2021B00055D15078002852D1E1684FF000080CA88DF83980283115F0FFF806F11001E768A8
:2021D00008882B6E401C0880786E0DF139020421984704F10C0A30B94846006818B19DF877
:2021F000391080F8681014F083FC90B1E76897F8300002280ED1DAF80000594602222031D5
:20221000283013F01BFF28B90BF116010CA815F0D3F8E7680DF12E000090AD6E786E0CA900
:2022300042460BABA84779480078862808D1708AE768401C7082B88900F010000FF052FC7C
:2022500014F0F2FF4046E06014F034FBD3E0704B1A78002702B101277248026827B16F789B
:2022700017B114F045FC28B91878002831D014F03FFC70BB53782779002B40F0BA809DF8A8
:202290003800B18A02F12803002F207002F11C0201F10100B08214BF082600265D490020BB
:2022B000086014F03DFC0146009658460192263006881A460D20334604F09EFA20B913F009
:2022D00087FE03E0540B000014F092FA1348E268017841B1D5F884702FB139461046884742
:2022F0000E48E26801780A9251B1907BFF287AD01046C17B042976DC40680078072872D0F9
:20231000938913F0070040D0401E56D0801E6AD1C3F30130022808D102E0C0468C1200208A
:202330005068007807282ED0FFE7108900285AD0104641684A1C42600F788446C7739CF839
:2023500024607EB9002F4ED00A2F4CDA0189324EF01910F8010C884209D0082F43D10829BF
:2023700005D040E0C07B00283DD00A283BDA60460189491E0181C17B0B3101700A99C87BB9
:20239000401CC8731BE0322018E0244E96F8A1000F280CD014F056FD48B9181300F0020028
:2023B000022804DA0A984D462D1D2968884796F8D7000A9A1074152000E0162010700A992B
:2023D0004D4605F1280012F017FF154E7068804795F83010491C85F83010B168884720200B
:2023F00014F05CFE02E00AA812F072F84FF0000828E710F089F80FB0BDE8F08F5012002033
:20241000EC1700209C0A0020600C0020C82D0020C62D0020301700204C070000CC0B00205E
:20243000F0120020382D00202DE9FE4FE54980460122A1F130000260DF480768002FFCD0B6
:20245000DE4ADF4EC027E048E04B17603268920808D2324652F8042C03F14104120C42F0DD
:20247000F00222704FF0000A8346C1F800A0DFF864C3DBF80810D64D0191880E43D2480EBE
:2024900041D3802018744FF6D802A3F8512018702868C0F30464162CA8BF203C1F460F3FD6
:2024B000387800F01F001628A8BF2038844223D0624602F1980EDA4ACEF800A0261A022E5C
:2024D00005DC16F1020FB8BF6FF0010600E002263018166800F01F06844246F4F856A7F846
:2024F00066604FF001061660E8D11068374617601068CEF80060106828460068C0F3042062
:20251000162808DB06E0A5F1D0000068C0F30460162800DB203800EB2170401C162805DA59
:2025300010F10A0FB8BF6FF0090000E01520DE4F00F01F0040F4F850A3F8590038688008A9
:202550003ABFEA48C0F800A041F04061019E6246A5F13804C80E8F0E80F0010000F0010028
:20257000106087F0010000F0010090602068C0F38367C0F38F21B00C23D2304640F3072079
:2025900000280BD542425046490805D17F0806BF0127391C4FF6FF71521EF5D1002810DD19
:2025B0004FF6FF72490041F001018A4207D27F0047F001070F2F92BF01210F27111C401E04
:2025D000F0D141EA0741182012F0DEFC2068D24E2768C94CA6F10409C0F3870107F003007E
:2025F00041EA0021D9F8040040F2FF3253468FB22C21466800972746A7F14000B0470C3D56
:202610002868C0F30D011C2012F0BEFCB84955F8080C014000F07C400143142012F0B4FCE8
:2026300055F80C1C01F47C000904090C0143102012F0AAFC624955F8042C0968C2F30350C5
:20265000C2F30345490813D2DBF800100B0510EB237003D41028A8BF0F2000E0504609048E
:2026700015EB217503D4102DA8BF0F2500E0554645EA001502F47F4002F0FF01B8F1220FC5
:2026900040EA054041EA000124BF02F0804211430C2012F079FC974DB8F1220F32BF012031
:2026B0002868C0F30070B8F1220F4FEA400040F0200084F8090126BF2868C0F34070012035
:2026D0008E4EB8F1200F40F0100084F8090138BF514606D33168C80C00F44070C1F384516F
:2026F0000143282012F050FCB8F1200F26BF3068C0F301505046B8F1220F4FEA400040F07E
:20271000600084F80C0126BF2868C0F3C0605046B8F1220F4FEAC00040F0800084F80101E1
:2027300026BF2868C0F345505046B8F1200F4FEA800040F47C40A4F89C0138BF70490AD3EF
:20275000306801038A15920501F47C1100F00F00114341EA0031082012F016FC4FF4800067
:20277000A5F1D0012060674A886D40F21E236FF31F40834216D90868030E13F00F0F03F03F
:202790000F01C0F3034018BF491E072805D006280EBF0720801C00F00F0041EA0011A2F155
:2027B00008000170DDF804C0CCF381477F1E13D07F1E3BD036E0C0469402224300600C4085
:2027D000B03F005040100940AC3F005015620840881300500000204328460068810C21D273
:2027F0004FF480412160D2F80210430AC0F3033703F0800321F08F010B4347EA0301C2F8DA
:202810000210D2F80130060A66F30303C2F80130116800F0E70721F0E70147EA010004E0DB
:202830002C2009404FF00040224610603B480068C0F3C0070FB94020A0624FF400702064D6
:2028500028684027C0F3C14040F0300084F8C800CCF3815050B3401E03D0401E1FD00221E5
:202870001EE0012012F0FEFF0646042031460FF043FF042012F0F6FF8642FAD1224806687C
:2028900026F07F4012F02CFED9F81400036807214FF06022300E98474FF48060206003210A
:2028B00004200FF029FF08E000000940042001210FF022FF154812F013FE203D286814496C
:2028D00047F6180600F03F0084F8CB0F144B0E80D9F800201868D1680220884711480D4DCD
:2028F000076001212960BDE8FE8FC04694042A43FCFCFC008C13005040A00C40981300506F
:2029100000803F400A600840A83F0050BD37860070B00C4094046042A4010010B03F0050AB
:202930002C20094000600C402DE9F843CC4C0F460646F80B80F0E881A07AB90F80F0758118
:20295000B80880F06281F80A80F03B81E07910B1380980F03381206C002840F09D80380965
:20297000C0F09D80002501262570BE48667114F013FC284613F0AEFCBB4904F170002A46B5
:2029900014F03CFD04F1580090E8000314F000FAE378B0EB08004FEA103071EB0901090539
:2029B000012B40EA010006D194F86810B0EBC12F01D8A378C3B3E670D24EA6F1150109684C
:2029D000A570090A30D3606640F60900A08294F8210000F0F00040F0010084F8210094F8AE
:2029F000200000F0F00084F82000A56114F000FD06F6FF7211686FF0020321F00201116055
:202A100004F11401C6F8FB3FCE4AC6F8EB1F11688908FCD3C6F8FB3FD6F8FF1F41F00201D3
:202A3000C6F8FF1F14F0D2FD2E4604F1580080E86000666611F0A0FE607818B9E068403082
:202A500014F0EAFCC7480660022012F0EBFA11200BF062FEE068007C10B90E200BF05CFE62
:202A7000607A18B16572052012F0DCFABE4965710878A57128B10D7004F1EC00042114F0FC
:202A9000D3FCB4F95000B4F95210884214BF022007200CF0F9FF8EE0380980F08C80B80B83
:202AB00077D2780B29D2380CC0F0538104F13C0014F0AEFCF0B1C16849680978022919D187
:202AD00090F82700400915D2206C90F82700400910D3206C806840880028FAD0206C8068FE
:202AF00040880128F5D0206C0026A0641920266414F082FC27F400472BE112F0C3F838B101
:202B1000B56930466FF4807100224FF00073A847964904F17000002214F070FCB1680025E6
:202B30004FF0010840F602022572088884F8008082420AD0B0F5C15F07D00A8B4FF61F604D
:202B5000104040F43470088306E00A8A4FF61F60104040F434700882757414F019F9D4F8F7
:202B70005421E36804F5AA719A4208BFA846266E46B1864226BF301A401E801B01EB8801F0
:202B9000000B88602566192014F036FC27F48057DFE004F1400014F03BFC061C08D0706845
:202BB00030B17568F068B6F9241000222023A84727F40057CDE027F00807CAE00020E07158
:202BD000F9E714F015FC054604F13C0014F020FC061C15D0E06810B1783014F0FFFBF06846
:202BF000E060284614F0F2FC14F0D2F82066604814F0D2FA4FF4006104F1EC0014F014FCC0
:202C1000002027F48067E071A3E004F14C05284614F0FEFB07F0A0FF284614F0F9FB27F0EA
:202C3000020708B147F0020793E020B1042012F0F9F90020A07214F0DBFBB16880460888AB
:202C500040F60202824211D0B0F5C15F0ED00A8B4FF61F60104040F4347008830DE0C046E3
:202C7000402000209DC00000D1FB00000A8A4FF61F60104040F43470088204F1580090E8CC
:202C90000C00002B08BF002A18D0042012F0EAFDA0B1A56D14F07CF8854226BF401B401EC7
:202CB000401B000BF060F168708A401840F6C411F06081422CBFB0F5FA7FF160404614F0A1
:202CD00085FC11F0DFFF98B1B56930466FF4807100224FF00073A84704F13C0014F098FBC8
:202CF000002808BF47F0020702D0192014F084FB7569002130464FF080630A46A84727F01A
:202D1000005726E01500044014F072FB014604F1440014F07DFB0646B569A80814D29EB131
:202D300025EA0500B061084614F050FC706870B16DB12A46F068B6F9241075680023A8470F
:202D500005E0C04610100440084614F03FFC27F4804727B104F1EC00394614F065FBBDE864
:202D7000F883C04600000460BF2D0020A5C100000DAE00002DE9F04FADF18C0D1C911E9347
:202D9000CC491D920A6806460DF156000260496841603046694612F08DF800281F9004BF53
:202DB0000020229000F0F78102200027B61CDFF84CB32090D34D2297304602A910F00BFB28
:202DD0005FEA000900F0E48122990EA816220EF036FA9DF809707F1E00F082807F1E40F0FB
:202DF000CF81B9F10A0F40F3D681B61C316804A80160361D318805AF42F20B0039800DF1F8
:202E1000160110F0EBFCBDF81600BDF81410884200F3C181B61C16F8010B16F8017B16F87D
:202E3000014B8DF8380016F8011B8DF839700EAA8DF83A40304605F05FFFBF4909780028F0
:202E5000064400F0A8811F9C012904F1020400F091814FF400500DF14E0110F0BFFC0DF184
:202E70004E000DF15601082213F0E8F840B11C990DF14E00082213F0E1F8002840F07A8147
:202E900042F2010004A906F089FA42F20B0005A906F084FA42F205000EA906F07FFA0DF109
:202EB000390142F2060006F079FA0DF13A0142F2070006F073FA0DF13B0142F2090006F0E1
:202ED0006DFA9DF83B0028B1022840F0538142F2030001E042F20D000FA906F05FFA49E11A
:202EF000B9F1040F40F35781B61C16F8010B16F8017B16F8014B8DF8380016F8011B8DF8BE
:202F100039700EAA8DF83A40304605F0F5FE0028064400F040811C9806A906F09BF89DF83F
:202F30003600002840F00A819DF83B0000287AD195F83170002F00F0FD8095F833008742D2
:202F500007D095F88C000A2801D10AF081F9A86B1EE0AF6B4FF400500DF15E0110F03EFCA4
:202F700013F078F94FF0FF08229C2190A24695F83100A04240DCA86BB8F1FF0F08D008EBDF
:202F900088040019007912F01BFAA86B071923D195F831300746002B08BF229C19D0584653
:202FB000229C40681946D8467F1F7F1DFA782AB1491E04F10104F8D17F1D0AE0804795F893
:202FD0003310491C85F83310D8F80810884795F83130A34200F094801C980CF095F8387105
:202FF0000120F870FC788DF8364038798DF83700229B8DF82330A1E0387910F0EDFE014663
:2030100008220DF15E0013F019F840B138880104219814F0E9F982453CBF8246A046641CC1
:203030007F1DA4B2A3E795F83070002F00F0828095F83200874207D095F88C000A2801D13A
:203050000AF006F9686B1EE06F6B4FF400500DF1660110F0C3FB13F0FDF84FF0FF08229C0A
:203070002190A24695F83000A0424DDC686BB8F1FF0F08D04FEA48140019C07F12F0A0F9F5
:20309000686B071925D195F830300746002B08BF229C1CD0DBF80400229C1946D846203FF0
:2030B0002037BA7F42B1491E04F10104F8D120370DE0C046780B0000804795F83210491C8B
:2030D00085F83210D8F80810884795F83030A34216D02299384620220EF0B1F81C980CF0E0
:2030F00013F8F8770123FF2039462022BB770446787206A8FC720CF0FFFD1FE0F0120020A7
:20311000612055E0000F0020F87F10F065FE014608220DF1660012F091FF38B179682198F6
:2031300014F062F982453CBF8246A046641C2037A4B297E764203BE0511200209DF8360018
:203150000EA9162240F004008DF8360008A80CF0D3FD1F9C9DF83B00A41C40B19DF84D7077
:203170000FA839460FF088FD3F1A8DF8357006A80FF008F820984844801C80B2209003E0B0
:203190001F9C4E44B61CA41C209884423FF714AE2098022803DC229A6720114604E01F9AD2
:2031B000911C121A2298921C1D9B19801E990A8023B0BDE8F08F70472DE9F04F0320ADF168
:2031D000540D12F0A5F9CB4C0025022004F11C0141F80C5F401E8D60FAD104F14000A94690
:2031F000062701467F1E21F80C9BFBD14FF0080AC149A0F800A0C14A8160C149121D22F058
:203210000303CF1A2762A361E361A66904F11C08944618460A46B14200F29781B910E82759
:2032300000EB810121F8049C4FF6FC761F8006EA0C033746D21A00F1E80607EA0201266140
:20325000EC39A0F8E81028461CF00CF86061C349D8F80000DFF8308320610A6808F10C000C
:20327000026049684160BE498346524612F0E6FE28B9BC4801685A46116040685060BA4883
:20329000BA4FC0F8B070C0F8B850C0F8C850B84EC0F8CC50B74BC0F8B460B74AC0F8BC3060
:2032B000B64FD0F8B010C0F8C020C0F8C47009B1284688471CF052F8B14ECDF838902946A5
:2032D0000C2206F128000DF0BAFFAE4F0222ADF820A041F27073F76240F61900ADF82220B0
:2032F000718D3363102708430997616A708508A8884700280CBF0A9F2F1C0120ADF82CA050
:20331000616AADF82E000BA888479DF83000444620700D99616077B1D021397087F8019065
:20333000B87087F8039087F804903946BD600220FD6011F0C7F99549182001221BF048FFC9
:20335000E220594613F042FE18201CF02DFA60706068B046C8F808000BF022F9944F08F1C6
:203370007C00A060D8F80850894C4946A762F520E56013F009FB874D05F1180005F10C01E6
:203390000CF0EEFDA8600D2013F00CFD00B1CA460E2013F007FD08B94AF0100A7E49A86813
:2033B00013F018FF7D49C82205F1240010F01CFC7B48BAF1100F686011D1A06A78B1C2686D
:2033D0006AB1FF204FF6FC778DF81000F81CADF8120004AEADF8140096E803009047714F08
:2033F00007F1140007F108010CF0BAFD7860484613F00EFF4E46BD1E824605F8029F022090
:203410006870304613F06AFF014678685246C9B211F000FC761C022EEFDB634907F120005B
:203430004FF4FA7210F0E0FBA06A002845D00769DFF878A16FB10094514612A80A688988C3
:20345000026012AE818096E8030001234A46B847A06A002831D0C26852B1514612A80B68E1
:203470008988036012AF818097E803009047A06A18B307690FB306208DF80800ADF80A0044
:2034900010AEADF80C9002AD009695E803004A460223ADF84020B847A66ABDF840007769BA
:2034B000A08057B1BDF8400002AE401CADF8400096E80300022210ABB84725A013F01CFDAE
:2034D000A06A062670B3076967B38DF818600425ADF81A500EA8ADF81C9006AB009093E801
:2034F00003004A462B46B84760B90E981930814618E0C046F01200204DF90100C92D00206D
:20351000004B00208DF818604846A76AADF81A5006AE0F907C69ADF81C9096E803002A460B
:203530000FABA047CDF8389048460DF04FFDE0200C2113F029FA13F0CFF808F1020001213C
:2035500013F0F4F800F036F8FCE726F8029B62E654492053656E736F7200C046C8FF010063
:20357000880B0000F01200500802002061430100C547010001480100ED4B01006DE60000A4
:20359000E810002020BF02009818002085610000F80D0020801500209D500100A16A010098
:2035B000516C0100101600209D090100A80B0000B80200202DE9F041B84CB94DDFF8E48235
:2035D0006088ADF1600D4108C0F090800CA808A90EF038FC01287AD1464628363068D8B1C9
:2035F0000769CFB1062002268DF808000022ADF80A600FABADF80C2002AE009396E8030070
:203610000C23B84740B9BDF83C006085109FE7621198206313F0A8FB9DF82D00012806D012
:20363000022084F82400BDF82210A1830BE0032009AF84F824003A6804F11C010A60786849
:203650004860BDF82210BDF8200009AA0FF0A4F9011C02D0B8A013F094FE022011F01AFE90
:20367000BDF830009DF82C7028870DA985F83A7005F1480013F02DFEBDF8320005F13E060B
:2036900009A9A5F84600304613F023FEBDF82200298FA887502013F06BF9B5F846105320E0
:2036B00013F066F94A20314613F090FC95F83A10E12013F069F9A98F4B2013F059F905F1FD
:2036D0000800102113F032F80120207008E012F081FDE060012011F0DDFD002013F0F8FB09
:2036F000A01C012113F014F8204640888008464613D3E06A11F054FF12F076FA00B2A082C1
:20371000F188E0820A22E1808FA010F095F902F0ADF9A01C022112F0FBFF2889410805D32F
:2037300005F10800012112F0F3FF2889810805D305F10800022112F0EBFF288901094CD36C
:2037500095F8540005F1080700283ED0401E3AD0401E02D0401E34D03AE095F850104720D5
:2037700013F012F995F85110542013F00DF9A98F4B2013F0FDF8298F502013F0F9F80923DD
:2037900095F83A008DF8593016AA8DF8580001238DF85A307B498DF85B3018201BF018FD48
:2037B000B4F85600B4F85410884211D195F8520001280DD1A87858B13846202112F0B6FFB6
:2037D00006E0032002E0022000E001200EF0A6FC3846082112F09CFF2889410917D36A494F
:2037F0001820422217AB1BF0F3FC95F8520005F10807032818BF042802D1A86D11F0B8FEB0
:2038100011F022F93846102112F082FF2889810907D30EF04BF805F10800202112F078FF3C
:203830002889C10907D30BF05DFE05F10800402112F06EFF2889400A0DD395F8550013F03F
:2038500047FB41F2883011F0C3FE05F108004FF4807112F05DFF3189707849082CD300EAFD
:2038700060010025090921D2010901D3B778DFB940091BD3F0880A22401C81B2F18039A054
:2038900010F0DAF8B078012810D03BA013F034FBA01C012112F04AFF08E0C046E8100020D9
:2038B000AC110020F80D002010F0B8FA757006F10800012112F02CFF6088002839D10A20CD
:2038D0000825324CADF812004FF0FF37ADF81050616A059704A8884700282AD10720ADF82B
:2038F0004850616AADF84A0012A88847149E1596F8B927499DF84E20087890420ED19DF896
:203910004C004A78824206D089684B6C33B100213246984702E0304600F0FEF9159840B10E
:20393000ADF818500320ADF81A00616A079606A8884718B0BDE8F0814175746820457272EA
:203950006F723A20307800C052656164696E672047656E6572696353656E736F7256616C80
:203970003A2000C047656E6572696353656E736F7256616C3A2000C05374617274696E675D
:203990002E2E2E0011730100213B0100F0120020981800202DE9F04FDFF8E0C292F808B0A9
:2039B00009AF88460646ADF1240D049338F07F05039206BF604600884FF6FF700590F08AC8
:2039D000800934BF002008203076F08AC00834BF102080207076F08A400903D260460E3006
:2039F000007800E00020B076F08A41082CBF20240024000928BF44F010047568002108F0D5
:203A10007F08307D06916D1E02280EDB0C2808DC0C2803D1022044F40854069044F0030486
:203A300004E00D280CBF02200120044396F8880008B144F00804210900D328B1DFF8C892F2
:203A500099F8CC3013B908B1DF2051E121096DD396F88950DFF8B4A206F1240133891AF82B
:203A7000052007910AEB0001097908908918491DC9B2C918B1F5006F80F23C8100284CD07E
:203A9000049A039906F180000AF078FA0799002808603FD0806AB0F1FF3F39D070680023ED
:203AB000401E8DB196F88A10524600F80119515D491EC9B241B1721892F87F20491EC9B271
:203AD000002900F80129F6D1079970660968896AB162090E00F8011996F82A1000F80119D4
:203AF00096F82910089A00F8011996F8281005F0030500F8011902F0070141EAC50101700A
:203B100071683289091AC9B270608918318105E0DB2700E0F3277770EDE00023F08A73702B
:203B3000C00828BF44F0100475686D1E336DA3B9B36D93B999F8E510012903D13089B0F5CC
:203B5000EE7F06DA200904D202290AD144F4005401E044F48054012002E044F408540220D1
:203B70000690DFF8ACA19AF8010001280FD012F0BFFF60B19AF83C0048B196F86B00042823
:203B900005D1022024F48054069044F4005444EA8834B8F1020FA4B20AD0B8F1030F10D19F
:203BB000ED1F09F1D801284613F006FC6D1E08E0B9F8BE00001205F8010999F8BE0005F85C
:203BD0000109069802280CD0B8F1000F15D0BBF1000F0CD004990598814208D144F04004A5
:203BF0000BE0BBF1000F08D1B8F1000F05D00599081205F8010905F8011944EA8B24BBF14A
:203C1000020FA4B209D0BBF1030F0ED10399ED1F284613F0D1FB6D1E07E003990888001222
:203C300005F80109087805F80109BBF1000F05D00498011205F8011905F801093878F8B928
:203C500034480178307D0D2814D068B9306D28B999F8A800411C89F8A8100AE099F8CD00E3
:203C7000411C89F8CD1004E099F8B600411C89F8B610014605F8011904E0C046860C0020B0
:203C900044F48074201205F801092C7070683189401B7560C0B240183081200927D3B06D96
:203CB00000B130629AF83C0010B1307D0D281ED1726A12F1150002D113F0A0F9726A916A17
:203CD000481C9062306A3289B162471B0092D21B019090B20290706A96F888202B4615300A
:203CF00008F03EF800281CBF7070071C07D10020707005E0E5277770F32012F012FEF8B201
:203D100009B0BDE8F08FC046CC0B0020500B000050120020312D0020B0B50446BC4807683C
:203D3000ADF1480D002F00F0AC812078401E112800F2A781DFE810F06E0156013C012701F9
:203D50001F010801F100E300C300B2008D005D0053004200A5012A001C001200F86B0028D9
:203D700000F08F81684621460CF0B4FCF96B86E1386C002800F085816846002101220DF0F6
:203D90005EFA60788DF80000396C78E1F86A002800F07781684600210E220DF050FAA11CEB
:203DB000684612F08DFEA57BA1890022ADF80A1005B101228DF80C20F96A61E1B86B002813
:203DD00000F05F816846002102220DF038FAA5788DF8015060788DF80000B96B4FE1786B5A
:203DF000002800F04E81684621460CF073FC796B45E1386B08B36846002114220DF01FFAC9
:203E1000A5788DF80150A3680193A289ADF80820A17B8DF80A1060788DF80000E57B8DF80B
:203E30000B50237C8DF80C3094F911208DF80D2061690491396B684688476068002800F0E7
:203E500020810146F22008700020487010F03AFC17E1B86A002800F01481684600212422F6
:203E70000DF0EDF96078A11C8DF800000DF1020012F026FE04F10C0103A812F021FE257E9E
:203E9000E08A04F119018DF818500B22ADF816000DF119000BF030FFB96AF0E0786A002886
:203EB00000F0EF806846002102220DF0C8F9A5788DF8015060788DF80000796ADFE0386A4E
:203ED000002800F0DE806846002112220DF0B7F9658862796078ADF8025023798DF80520CF
:203EF000E11D8DF80000A5798DF804300B220DF107008DF806500BF0FFFE396ABFE0F869B0
:203F1000002800F0BE806846002101220DF097F960788DF80000F969B1E0B86910B1204624
:203F30000FF006FAA07D002800F0AB80A07820B9A069002800F0A58003E0A069002800F0D7
:203F5000A08012F027F99CE07869002800F099806846002113220DF072F96D46A01C01683D
:203F7000406829600B22686004F10A0102A80BF0C3FE796983E03869002800F0828020463F
:203F90000BF016F87DE0F86800287AD0684600210E220DF054F96078A11C8DF800000DF178
:203FB000020012F08DFDA089ADF80C00F96866E0B868002865D06846002114220DF03FF92B
:203FD000A01C01686D46296040686860A07A0B2204F10B018DF808000DF109000BF08CFE9F
:203FF000B9684CE0786800284BD06846002110220DF025F960786588211D8DF800000B2270
:20401000ADF8025001A80BF077FE796837E0C046A01800203868A0B36846002119220DF0B0
:204030000EF9A01C01686D46296040686860A07A410824BF01218DF80810810824BF012105
:204050008DF80910C10824BF01218DF80A10010924BF01218DF80B10C10924BF01218DF842
:204070000C1030F07F001CBF01208DF80D000B220DF10E0004F10B010BF03EFE3968684627
:20409000884712B0B0BD70472DE9F04FC54E4FF00008ADF1140DCB4DF068CDF80880002808
:2040B0008DF80C8043D1D14CBF49843C2068814213D0BE49814210D0BD4981420DD0BD4962
:2040D00081420AD0BC49814207D0BC49814204D0BB49814201D012F091FF12F08DFA2168BC
:2040F0004FF0FF32012805D1C1F30330083806D0C01F01D0012A02D10120F07001E086F8B6
:20411000038011F049FC286A00F1200120B912F075FF2846016A2031096806F1140088475E
:204130004FF4FA70F084A84FB7620624F462EA6992F82670DFB9A54892F8257001788F425D
:2041500015D04046342404FB002C9CF8267037B99CF82530401C9942C0B2F4D103E09CF879
:204170002500884203D1604610F0F8FFEA699849686A99C881E89900F078012814BF40467C
:204190000520DFF850B2944C08709BF8157127B990690068C4F8A40005E0D0690068C4F8BD
:2041B000A40012F017FB632004A90FF0B1FC9BF8E720104611F054FAB4F896C082462CF036
:2041D000070C4CF0010CA4F896C0D4F8980004F18807812A40F00F00C4F8980001DB842AD1
:2041F00006DB9AF80C10052914BF2421292100E0212184F89C10797D812A01F03F01797586
:2042100001DB842A19DB9AF80A306BB99DF810203F3262F305017975FA8A4FF6C07303EAB8
:20423000020141F0180113E09DF8102001F0C00102F03F020A43114603E021F03F0141F07B
:2042500002017975FA8A4FF6E071114041F02001F9829AF80B209AF80C100A230CF0010C84
:20427000491D514391FBF3F1C9044CEA1141F9819AF80B101923890391FBF3F161F31C2080
:20429000EB693861388B93F8242062F30200388393F824104FF6F77909EA000001F008011C
:2042B00001439BF9D60039830EF0B6FA09F10801814218BFA4F8A200DAF80410DAF8003013
:2042D000BAF80800EA69401E414303EB51004FF47A71B0FBF1F0A4F8A800106A0078A4F814
:2042F0008A8084F8AC00C4F88C80787B00F0F00040F00100787312F09DFFB0B99AF80B0021
:20431000364A9BF8E740B1FBF0F010709AF80B00022CB1FBF0F0C0B2B1FBF0F0707004D13D
:204330002F4802214170A8240470F0682C6ADFF8B89018B340460FF0C3FC30799BF8E71093
:20435000884211D171799BF815212C6AF06891420CD1022142468DE80600E46C43463946D2
:2043700002AAA047EF6013E02C6AF0686168884701202B6A1B491C68087000E024681449F3
:2043900006F1140348463A46A047F060686AA8629BF8E7009BF81571307105B07771BDE868
:2043B000F08FC046FC16002000F0022000F0012000F00020008002200080012000F082004E
:2043D0000080002038140020995F0100B30C0020802D0020CC0B0020081000205018002065
:2043F000EC1700207D19002048280020181300502DE9F04F09AFADF13C0D08900A923888E1
:2044100009911E46ADF81800101C08BF002000F08481002700F101094FF0FF3A4FF0010BE4
:20443000B8466CE1252940F063811078521C0A922D2818BFADF8068005D15846551CADF84C
:20445000060010780A9530281CBF4246434605D10A9908785A465B46491C0A912A28CDF88A
:204470000080554616D1306804930A99CDF808A0C01C4B1C20F00300001D306050F8044C50
:204490000A93002C0878009418D5ADF806B06442009413E044460AE0610001EBC4014018DC
:2044B0000A99A0F1300408780094491C0A91302801DB3A28F0DBCDF808A004932E282BD1B9
:2044D0000A9908782A2801F101010A9111D13068CDF80880C01C20F00300001D306050F81D
:2044F000045C002D48BF454608782B46491C0A9111E0454643460AE0690001EBC50140183A
:204510000A99A0F1300508782B46491C0A91302801DB3A28F0DB02930AB1224604926C28EE
:2045300004D04C2818BFADF8048005D10A990878ADF804B0491C0A910BA9CDF80C800FAB12
:2045500007916428059300F08B80692800F08880BDF818C0752872D078286ED06F286AD0F0
:20457000702850D063283DD073281ED009980A990128A1F101010A9115D96B490C68B5F1FA
:20459000FF3F03D0A84288BF6D1C00D8099D029508A80AA932466B46A047C7190A9903989A
:2045B00001F1010974E040462AE030680A99C01C20F00300001D306050F8040CBCF1000F20
:2045D00001F10109014608B955A00146079112F057FC0390B5F1FF3F5BD0A842C4BF281C4B
:2045F000039056E03068C01C20F00300001D306010F8040C5D468DF82C000A990395584669
:2046100001F1010945E0082035680490E81C20F00300001D306050F8041C082210230FA8D0
:204630000DF0D0FA401E0790402101700A99079801F1010929E0082302E0102300E00A2348
:204650000A99306801F10109C01C20F00300001D306050F8041CAA42BCBF2A1C049210E0DC
:204670000A99306801F10109C01C20F00300001D306050F8041CAA42BCBF2A1C04926FF04D
:2046900009030FA80DF09EFA0790059D281A0390009C241ABDF8065000945DB906E008A87F
:2046B000202109AA11F027FA009C7F1C641E0094F5D503980546401E039075B9BDF80600FD
:2046D000E8B10098401E009019D408A8202109AA11F011FA00987F1CF4E70798411C07916C
:2046F000017809AA08A811F006FA03987F1CE1E708A809AA11F0FFF97F1C09F101094A4644
:204710000A9812F8011C401C00290A907FF48AAE089808B14146017038460FB0BDE8F08F44
:20473000286E756C6C2900C0D80B0000BA482DE9F84F0025B94CB749056094F8E200002836
:2047500000F06381012800F02F81B54E02283CD0032840F05A8151F8250CD4F8B810002906
:20477000A0F5C060C4F8D400B8BF49420028B8BF4042814226DA4FF08057D7F8A4014568C7
:20479000B4F8BC0030214FF47F42082300903046A847D7F8A4014568B4F8C00004214FF437
:2047B000F802122300903046A847D7F8A401B4F8D070456820214FF440620A233046009758
:2047D000A847012584F8D8501AE151F8258C12F0EFFC2F4600B901273946924F38680028B0
:2047F000FCD0B146012609F10409D9F82CA03E6009B112F0E3FCCAF30720C4F8BC0012F084
:20481000D7FCAA4600B9B2463B68002BFCD0D9F800B0BAF1000F3E6001D012F0CFFCCBF345
:204830008440C4F8C00012F0C3FCAA4600B9B2463B68002BFCD0D9F81C90BAF1000F3E6057
:2048500001D012F0BBFCC9F38120C4F8D000B8F5C061C4F8B81000F09C8094F8D80068B9F2
:20487000C4F8D410D4F8C000C4F8C800D4F8BC70C4F8C470D4F8D030C4F8CC30D4F8D4105C
:20489000D4F8BC30002954BF02206FF0010004F1C802176801EB41014018411000EB917190
:2048B00007EBA1001060D4F8C810C4F8C43000291CDD1E293CDDD4F8CC0030B93429B4BFBE
:2048D00015391E21C4F8C81025E02A29BABFD4F8C8000B381E20C4F8C800D4F8C4003F2846
:2048F000B4BF401C3F20C4F8C4001FE0D4F8CC00032812D011F10B0FC6BFD4F8C8000B30E6
:20491000301CC4F8C800D4F8C4000028C4BF401E051CC4F8C450032508E011F1150FC6BF72
:20493000D4F8C8001530301CC4F8C800C4F8CC504FF08057D7F8A401B4F8C43030214FF428
:204950007F424568364800930823A847D7F8A40104214FF400321123456831480096A847C1
:20497000B4F8C860D7F8A40104214FF4F802122345682B480096A847D7F8A40120214FF4AB
:2049900040620A23B4F8CC60456825480096A84701E084F8D85040F2FF50404502D8801CC0
:2049B00040452DD208202EE051F8251C1E4F4BF2F5204843060A3868C0F3814001280AD131
:2049D00011F012F90FF0BAFE12F0FEFB3111C010484306EBE03694F8E50030B91348006848
:2049F00020F07F408019460801E084F8E5501048310C0660012741600E4D8760287808B9F8
:204A10000B2000E0052084F8E40004F02FFFBDE8F88FC0462D400C402C500C40E40C002011
:204A300000A00C4000800C40B43F0050102009403C600C403E0B00002DE9F04FA54E3768DA
:204A50008346ADF12C0D17B912F0D8FA3768A248DFF89C920578002D3ED0002538897968F5
:204A70009E4B0795C400097818781034890906D340F6485191FBF0F1091901F5AF743B7DEE
:204A900060438400352B0CBF2F1C4FF4FA570DF12601E8200FF03CF89DF82600032808BFC8
:204AB00044F620673068007D3C19352807D111F0B3F9014630686C300EF0DEF844430220E1
:204AD0004F468DF8200007F10C000068069406A908F01EF98248057082490120824F087054
:204AF0003978012902D0002102F0C4FB30680489456811F04FFCDFF8FC812888000943D3E6
:204B1000316840463C3890F83C70002F3CD082464A6A4F6E906AB0F1FF3F23D017B3431C55
:204B300093628862060E07F8016991F82A0007F8010991F8290007F8010991F82800387039
:204B5000086A00940190401B201A80B2029091F88820486A8B6A153019462B4607F000F978
:204B7000064600E0DB26DAF880706EB11FB9E4200BF082FE05E05D4900200870E42039461A
:204B90008847002E40F0A280214628460CF096F8642009A90EF0BCFF464649463778DFF8C7
:204BB0005891087837B94846007809F039FC012805D088E009F034FC012840F084804F4ECF
:204BD000A01C87B20DF1250106F178000780E9200EF09EFF9DF825104FF000084FF0020AB6
:204BF0004046012905D13C46C4F3022141F0180105E0241DA4B2C4F3022141F0080105F8EC
:204C1000011D05F8014DA6F86A009DF82470C6F88450002F0CBF3A493A497086CDF810800D
:204C3000394C8DF814A096F83D00C6F8C01000F0F00040F0030086F83D006068C6F8801069
:204C5000804706F130052746304B254C0A90BBF1010F1CD0BBF1040F19D0BBF1000F13D070
:204C7000BBF1050F2A460DD0BBF1030F07D148461030007810F0F4FC407B022808D006F197
:204C9000680205E0224B03E006F14C0200E02A46206A1749C56CC3468DE8000CC8681146A4
:204CB00004AAA8471B490880B968002809D41A4A92F900006836401C10700A98E660884715
:204CD00004E00A9888471A200BF0D6FD0BB0BDE8F08FC0469C0A0020EF170020501800200E
:204CF00038140020C31800207C190020C82D0020FC1600208C120020A30C0020081000207C
:204D10004E9055550E7A5555F012002061A70000E9D400002C170020CA1800202DE9F04F28
:204D3000AC4C04F128000068ADF1240D0FF090FA08B111F045FCA248DFF89CA2DFF888B283
:204D50000068A24E089011F053F811F033FAE569A769B5F57A7F13D0C01B4FF47A720023C8
:204D7000A5FB000103F08AF880464FF47A72002311F07EFF2A46002303F080F8C01901E0BF
:204D9000A0EB0708A0618D488C49006820F00200086070688047DBF80010DBF804304546C8
:204DB0006918B1F57A7F0DD34FF47A72B1FBF2F2D2184FF47A73CBF804201F46B1FBF7F229
:204DD0005A43891ACBF80010B168884770688047DAF8041002466818B168CAF80400104646
:204DF0008847DAF8000000285FD007464FF00009706880474FF000081FFAA5F3079083B9AC
:204E10005FFA95F36BB93979E8B2884204DD79682846884209D20AE03879E9B2401A387159
:204E300008E079682846884201D3414601E07968091A7960B88878B9FB8853B9FB6843B1F1
:204E50003B8933B1B87A19460AF0FAFAF8687860B88808B9FB880BB13B896BB9B9F1000F02
:204E700004BF3868CAF8000003D03868C9F800003868B846074601E0B9463F68B16807989F
:204E90008847B8F1000F0ED0B8F8043043B9B8F806302BB998F80A00B8F808100AF0D0FACD
:204EB000404611F067F9002FA2D144484349006840F002000860E06828B3804723E015F845
:204ED000060C2169A5F10C07032819D0E16A9DF816000978884210D115F8080C10F0F0FB3B
:204EF000B979012903D0022908BFA87000E02870002029460DF020FD05E011F061FB02E024
:204F100009B12846884708200727ADF81000716AADF8127004A88847069D0028CFD0294827
:204F300000680088C8B1706880472649096800220D880A80B1688847089A0020294620708F
:204F500090470546FF202070706880471D4909680A8815430D80B168884710F049FF074606
:204F7000B7F1FF3F1CD0706807B9194F216AB94238BF0F1C80471C230546626AADF80230B3
:204F90000820ADF80000716A019268468847A16A3846491CA1620FF0B3FBB1682846884755
:204FB00008200A27ADF808004FF0FF35ADF80A70716A039502A88847C5E6C04610E000E0DC
:204FD000BC0B0000B82D0020DC180020F01200208EC2F528CC160020982D00202DE9F04F16
:204FF000A54C064600200F46ADF13C0DDFF89092ADF80C002068A44D017D252900F0108198
:205010006C3005A904F026F8002818BFC0B240F0308120460068C18AC9080DD3007D032860
:205030000AD09DF81F0038B99DF820004C463870B534207000201CE101A804A90AF0F4FA1E
:20505000A5F12F018B4691F82F30019A3468DBF808104FF47A7A504641F208155843891A44
:205070000AFB12000AFB01F1001B091B8D42C8BF002965DC854205DD002803DD346804F5CD
:20509000915434609DF81F00002857D042F204000DF135010EF0A2FB11F0ECF804460698B0
:2050B0000DA9241A42F206000EF098FB9DF834109DF81D00FF2904BF0A218DF83410FF2890
:2050D00008BF0A209DF834206C499DF81C30D046B4FBF1F1801880B24843991008FB01F1B6
:2050F000814298BF081C2D1805A810F0A8FE9DF81C203468B0FBF2F15143411A8BB251460C
:205110004B4308FB02F1CA1AC91A121B091B8D4201D9002908D56942914216D2002A14D5BB
:20513000B5FBF8F109B203E06900B1FBF8F189B232684FF4916303FB012405E0002004E012
:20515000306841F630342418346005460DF1120102A80AF069FA0298DBF80810B4FBFAF2B9
:2051700010180290814203D99BF82F30834204D94B4603F15804267836BB9DF81C005519A3
:205190000004A84298BF2D1A9DF81F00002808BF9DF8200016D09DF81C00B5FBF0F084B2BE
:2051B0009DF833000EF018FE9DF83120014620460EF0AAFD044610F02FFE024608A92046F5
:2051D0000EF0F0FB4C460DE0814204D8BDF81200401CADF812004C46BDF8120094F85B108E
:2051F0000CF0D8FB3870244E84F8B5003068007D05287FF41FAF2348007820B111F078FCD9
:2052100000283FF417AF387803A9ADF80C0042F20C0004F0C3F8BDF80C00A4F8B00009E764
:2052300068460DF10E010AF0FFF93068009A2B7841F208144FF47A7101FB02020092594331
:205250008A1A944210DCA1F5FA619142BCBF00F5FA6030604C4694F85B10208F0CF09AFBF1
:2052700001460020397002E039784C46652084F8B5100FB0BDE8F08F9C0A0020A086010053
:20529000D8290020890C0020C32A00202DE9F04F002898461446ADF12C0D00F0EC8011F42E
:2052B0007C1F40F0E58011F00F0F00F0E48007460591002006900A904FF0000A099055468B
:2052D00008954FF0010BCDF810B0054650460790059805990BEA000021EA0B014FEA4B0B03
:2052F000401E059100F0A480401E69D0801E56D0001F40F0B7801CB1276694F86B000690CE
:205310000720152607F8010B022301A907F8016B42F2010007F8013B0EF060FA684603A9B4
:205330000AF082F906980EF0E7F90099019A3E4640180090824206D8801ABDF80C3000900F
:20535000581CADF80C00009B50085146814609041804030C19430004534610EB090041EB66
:205370000A0102F08BFDBF1D0090BDF80C309DF80C009DF8002006F8010B181206F8010BA7
:205390009DF8011006F8012B9DF8023006F8011B9DF8032006F8013B0935327061E0022017
:2053B000152607F8010B042307F8016BB8F1000F07F8013B0CBF099898F800002D1D4EE09E
:2053D0001CB1E76594F86B00069005201526049B07F8010B0DF10E0107F8016B42F204005D
:2053F00007F8013B0EF0FAF902A80FF02FF906980EF082F902999DF80E209DF80E60069B87
:205410000918080200EB6200B0FBF6F002903E469DF808109DF8092006F8013B3F1D06F85E
:20543000011B9DF80A3006F8012BED1D337018E00320152607F8010BB8F1000F07F8016B16
:20545000034607F8013B04BF0A9807F8010B05D098F8000007F8010B98F801006D1D07F8BE
:20547000010BADB2059800287FF432AF2E4661E011F00F0F01D000205DE080468A460226D8
:205490004FF4803908F1020509EA0A002AEA090A4FEA4909B0F580301AD0B0F5803014D0D9
:2054B000B0F500300ED0B0F5802009D0B0F5002004D0B0F580102AD1072404E0062402E027
:2054D000052400E00424002704E00224012701E001242746A81C214600F030F847B104F090
:2054F0000F04C0F30A0141EAC42141F4004105E004F07F0400F0FF0141EA042105F8011B90
:2055100036180912B61C2970B6B245196D1CBAF1000FB9D1022ED8BF00260BDDB01E4FF62C
:20553000FE7708F8010BB819C0F3022040F0A00088F8000030460BB0BDE8F08FF0B50446A0
:205550000846ADF16C0D401E6BD0401E0DD0801E00F00381401E00F0E980401E00F0DB8090
:20557000401E00F0A88000203CE142F2010007A90EF034F942F20B0008A90EF02FF942F20E
:2055900006000DF165010EF029F942F207000DF166010EF023F942F2050019A90EF01EF9A7
:2055B00004A809F005FE05460DF1670142F209000EF014F99DF86700002808BF002303D059
:2055D000022010F023F9034607A8006808A920600988271D3C46B81C218005F007079DF888
:2055F00065609DF864109DF8662000F8011B9DF8674000F8016B03F0030600F8012B620775
:2056100047EA926104AC41EA8611012700F8011B9DF8672000942946019706F0BDFF0A3005
:2056300099E042F206000DF165010EF0D7F842F207000DF166010EF0D1F842F2040019A915
:205650000EF0CCF804A809F0B3FD05460DF1670142F208000EF0C2F89DF86700002808BF93
:20567000002303D0012010F0D1F803469DF864009DF8657004F8010B9DF8666004F8017BB3
:205690009DF867209DF86770790704F8016B03F0030705F0070646EA916004AE40EA8710F7
:2056B000294604F8010B002700962046019706F073FF001D4FE042F2150011A90EF08EF86D
:2056D00013AD42F2160029460EF088F815AE42F2170031460EF082F817AF42F21800394635
:2056F0000EF07CF811A801682160406860606A6804F108035A6028681860306803F10801F4
:20571000086074684C60386801F1080528607A686A60202066E042F214000DF122010EF0C9
:205730005DF8BDF8221002200A1258E009A8002120220BF084FD42F2130009A90EF04EF8DA
:2057500009A811F09DFB024609A920460AF0D4FA09A811F095FB80B244E042F20E0002A942
:205770000EF03CF80DF10A0142F20F000EF036F80DF10B0142F20A000EF030F803A942F221
:2057900010000EF02BF80DF10D0142F211000EF025F80DF10E0142F212000EF01FF8BDF83F
:2057B00008009DF80B209DF80C709DF80D609DF80E509DF80A1004F8010B02F0010200124D
:2057D00004F8010B07F0010042EA400206F0010042EA800205F0070042EA4012042004F80C
:2057F000011B22701BB0F0BD2DE9F04F06469E48001D0068ADF1340D80470B900AA98220D1
:2058100005F000F99DF8280018BB00248DF828404FF6FF75ADF804509DF82800ADF806507F
:20583000FF2108228DF8000002A811F00FFE8DF81840D420694602F009FD9DF82800401C40
:20585000C0B28DF828000328E4DB82200AA902F0FDFC0020DFF808A2DFF808828DF8280040
:2058700081469DF828008DF8019069468DF80000D02005F0C7F801274D46E8B99DF80B307A
:20589000012B07D19DF80A0020B90DF1020011F0BFF988B9747B002C0CBF052209224F46B5
:2058B0009C4209D10DF1020006F10E0110F0A2FD002818BF012507D1002F40F0BF801DB90A
:2058D000707F002800F0BA804C469DF828008DF8214008A98DF82000D12005F093F8002853
:2058F00032D19DF82200FF282ED08DF800006946D42005F087F8002833D102A8311D0822CF
:2059100010F078FD00B330887788ADF80400ADF8067045B1307B9DF82810B7698DF81800A9
:205930000DEB81010F61D420694602F08FFC75B1307F9DF82310884209D08DF8230008A9B4
:20595000D12002F083FC02E0641C032CBDDB032C74D14F468DF80070D420694605F052F8CC
:2059700028B1DAF808100B988847192074E002AB184611F04DF94C4600B101242046341DE4
:2059900030B918462146082210F034FD00284AD030887388327BADF804009DF82810ADF831
:2059B0000630002D8DF818200DEB810000F110000CBF4946B1690822016002A8214611F02C
:2059D00033F998F83C0030B1D8F88C201AB19DF80010204690474C469DF828008DF8214080
:2059F00008A98DF82000D12005F00CF8E82807D09DF82200FF2803D0641C032CECDB10E059
:205A10009DF800008DF82490337F8DF8220069468DF82330D42002F019FC08A9D12002F039
:205A300015FC032C02DB7F1C032F93DB032F05D1DAF808100B9888471A200DE09DF82800B6
:205A5000401CC0B202288DF82800FFF60AAFDAF808100B98884748460DB0BDE8F08FC04612
:205A7000F012002050120020F0120020F0B500214C22ADF15C0D02A80BF0E1FBF22015A9C4
:205A900011F09CFA924DBDF8540015A9A5F87000F32011F093FABDF854000DF10901A5F85D
:205AB0007200E22011F07AFA688DADF81200410806D305F11401096805A80160BDF81200CE
:205AD000810805D3291D098806A80180BDF81200C10807D305F1180109680DF11A000160EC
:205AF000BDF81200010908D30DF11E0005F1540128220AF001F9BDF81200410905D3286BC9
:205B1000EF6A1390BDF812001297000B03D3A91D098814A801806F48007800280CBF012150
:205B3000002101200CF0F2F8BDF8120041082CBF0F240B24810824BFA41CA4B2C10824BFA2
:205B5000241DA4B2010924BF2834A4B2410924BF0834A4B2000B24BFA41CA4B2204610F0D6
:205B700007F8071C00F0B18005260DF1090100F8016B0A68026049684160BDF81210083006
:205B900011F040FBBDF81210844648080BD3BDF81410604611F036FBBDF8161011F032FB30
:205BB000BDF812108446880807D3BDF81810604611F028FBBDF812108446C8080BD3BDF81F
:205BD0001A10604611F01EFBBDF81C1011F01AFBBDF812108446080B07D3BDF8501060468B
:205BF00011F010FB8446BDF812103B4A9388080951D3BDF81E10604611F004FBBDF82010A5
:205C100011F000FBBDF8221011F0FCFABDF8241011F0F8FABDF8261011F0F4FABDF82810F7
:205C300011F0F0FABDF82A1011F0ECFABDF82C1011F0E8FABDF82E1011F0E4FABDF83010F8
:205C500011F0E0FABDF8321011F0DCFABDF8341011F0D8FABDF8361011F0D4FABDF83810F8
:205C700011F0D0FABDF83A1011F0CCFABDF83C1011F0C8FA194611F0C5FA117811F0C2FA5A
:205C9000BDF8421011F0BEFABDF8441011F0BAFABDF812108446480906D3129960460EF05C
:205CB0002CFF13990EF029FF05F11C01224630463B4605F0F3FC0820ADF80260074D019766
:205CD0002968ADF800006846884717B0F0BDC046E810002012160020F80D002014130020BB
:205CF0002DE9FE4F9B4692468946054611F080FB02908C48353801680CAFA94208BF416890
:205D100001A84A4653460090284604F0C7F8834C061C13D194F8880140F0040084F88801CD
:205D30000298C4F87C5111F051FC9DF8040002280CBF6FF002086FF00108ECE005F1780049
:205D500011F04CFBB08CA4F85000B6F92480C6F808909AF80400C6F804B086F82600A6F8D0
:205D700024806F48F56097E80C00202106F110071940104087E80300002786F82770F068DA
:205D900040680078022809D19AF80500012805D196F8270040F0100086F82700029811F004
:205DB00015FC94F88901042807D1D4F88001B4F9841194F8862111F0A7FA11F019FB814668
:205DD00094F8890130F004033ED104F13C000368D3B931460FF040F938B3A5F8C08096F83A
:205DF000270040F0800086F8270085F8C270A07920B1207810B10120E071A771484611F00C
:205E1000E5FB484800781FE004F13C0031460FF023F950B1A5F8C08096F8270040F0800085
:205E300086F8270085F8C27048E0B4F9500000F6FF706FF31F30A4F85000484611F0C6FB87
:205E50006FF00100BDE8FE8F02280ED196F8270040F0800086F8270085F8C270484611F04F
:205E7000B5FBB6F92400BDE8FE8F012811D104F1C80011F0B3FA96F8270040F0800086F804
:205E9000270085F8C270206C0028E7D1484611F09DFB206C00282AD12078A76400BB2079E3
:205EB000012838D011F0A4FA81466079A0B9B0680CF0FEF958B9207A012803D1484611F0C7
:205ED00085FB28E0484611F081FB04211FE004F1C80011F081FAF1E7134901200870EDE721
:205EF000012010F0EBFB192011F086FA13E0206CC0684068007802280DD1F068406800788A
:205F1000022808D19AF8050028B94FF4004104F1EC0011F089FA4046BDE8FE8F40200020D5
:205F3000FDEFFF9FC9210020BF2D00202DE9FE4F0646307D01280AD196F917000CF06CFC47
:205F50004FF6FF71814208BFE82000F00681F07B834A20B91146491C0978022908DB0128EE
:205F700003D110460078022802DBF120BDE8FE8F346AB6F8289096F8347096F835B0B58B3C
:205F90004FF000085FEA040A17D0764890F83C30002B2ED0416D00292BD004F0FF008847FD
:205FB0007049496D04B20AF47F008847001900B2001D00B2C43084B200E0C4240DB12D1DCC
:205FD000ADB269480078012809D147B16748C11991F8048010F80B002418641DA4B205EB82
:205FF000090020184044801C80B210F015F8071C02D11A20BDE8FE8F08EB09002B19388196
:20601000002D07EB030078600EBF0020E019801C00217422C7F8A00007F10C0011F016FAC9
:206030004C442D1907F13C00FF211022A7F84C5011F00CFA07F12C000F21102211F006FA2B
:2060500000243C707C707868716A328D09F054FE07F1800006F12C010B2209F04DFE07F1AA
:206070008C00314610F050FC7089A7F89600307B87F89800707B06F10E0587F899002A6832
:2060900069460A60686848609DF800102046012908BF01209DF80110012908BF40F0040077
:2060B0009DF80210012908BF40F008009DF80310012908BF40F010009DF80410012908BF8D
:2060D00040F020009DF80510012908BF40F040009DF80610012908BF40F080009DF807105D
:2060F000012908BF40F48070A7F89A00B07D87F89C00F07D87F89D00B28BA7F8A42022B1FE
:20611000D7F8A000B16909F0F7FDB07F87F8A600306AC7F8A800B7F8A400C0B1D7F8A00071
:20613000A8B17868401E7860F82101707868401E78600470B7F8A410B7F8A4607868401A7C
:20615000786039897018801C38817868B8650848007839460CF0F0FB2046BDE8FE8FC046EF
:20617000CA0A002050120020980C0020500B0000781300202DE9FE4FDFF82892074609F194
:20619000040000688047DFF8C8A100248346002F0AF1020004703DD00FF0FEFB6B4D2146CB
:2061B000FC22284611F052F9FF210822681D11F04DF9FF21082205F10E00697311F046F977
:2061D0000227A84603224FF6FF710120AA77042329849E3505F8040F6B70AA707F1EEB70D8
:2061F000F8D145464FF0050C022705F1F00606F8040F737086F802C07F1EF070F7D128466F
:2062100085F8F820AE3020F8181B20F8181B01800227AF70554695F83C0010B1286C00B132
:2062300080470CF0A3F9DFF8348108F1D60090F9000010F0FDFD0FF0C5FB10F0EFFD10F066
:206250009FFC10F091FCDFF80CA107270AF1240656F8040B00B180477F1EF9D13E48046009
:20627000446004614FF470018160C1600AF1040007680FB10EF02CF94B4800688AF80E4033
:206290004646C0B112E040460EF0A4FD029002A80EF01EF921E040460EF09CFD019001A831
:2062B0000EF016F914E068460EF012F90AF07EFC00280090F7D12A480078012803D02046D6
:2062D000014600F0D7FF2748274F047007F12408786A0028DFD108F10408B86A0028D2D178
:2062F0007C62BC622148A86187F82E40204BEB6187F82F401F4A2A621F49696287F8304077
:206310001E4BAB621E4AEA62214A6A601D49296320491D4FA9601D4B6F63214A6C701E4F50
:20633000AB631E4BEF6058462B61D9F808106A61884706F1BD01522001F0A0F896F8D700C5
:206350000DF062F92046BDE8FE8FC0464C2700205012002078130020AC180020CC0B00209C
:206370007C190020C32D00209C0A002093BF0000B1730100515F01003184000011D40000C0
:20639000656301008D7001003DBB0000999B0000C787000055AF0000F1310100B9F80000D4
:2063B000B5240100F0120020B82D00202DE9F047DFF80CA20746AAF13500DFF8F881006825
:2063D000800880F0E7800FF00FFC814908310B6800261C17641C990D0AD2C0F13E0110F182
:2063F0000A0F4FEAE101D8BF08218C42B8BF0C1CDFF8C4C1990E0FD2590E0DD36246143A0B
:206410001168C1F304211629A8BF20391268C2F30462162A0EDB0CE0634AD2F87C11C1F3B9
:2064300004611629A8BF20391268C2F30442162A00DB203A61189146162905DA11F10A0F75
:20645000B8BF6FF0090100E01521584C584D01F01F0242F4F85222802A6812F0030F18BF3C
:206470000126D20828BF46F002060FB146F00406424692F90740041B052C04DA9479B4425B
:2064900008BF918866D00F28A0F10F0827DB08EB0014A4F1F0084FEA282EBEF1070F88BFC6
:2064B0004FF0070E7546062D88BF06255CF82570042404EB850465462C59E41B04F0FF0568
:2064D000F70824BFC4F307273D44B70824BFC4F307473D44770828BF05EB146501E0002567
:2064F000AE465CF82EC0F7080CF0FF0424BFCCF307273C44B70824BFCCF307473C4477085A
:2065100028BF04EB1C64ADB2A9EB0101A8EB0E277D43002905F1800504EB1524D8BF012113
:2065300003F0FF0334254D43A9B259434FF6FF73B1FBF4F18B4238BF191C802889B2918041
:2065500005DA10F1800FB8BF6FF07F0000E07F20D0719671194800681F2910604FF00000E0
:2065700008D340F2FF128A4206D24908401C8A42FBD301E01F219180124F0F39090940EAEB
:20659000C10047EA0001CAF8FB1F0026CAF8FF6FBDE8F0870C490D4F424608200F60921D2B
:2065B0001070BDE8F087C0463C1100506E62084024220840A82D00209C1300500820094081
:2065D0003500094000E7A48030100940FDFDA400AC3F0050804A2DE9F04F13680546ADF13D
:2065F0003C0D0DF12A000360526842607B4C94F8B30005F1280105F12807002800F0E88091
:206610006878002840F0E48010F072FADFF8D091DFF8D48100B3042046466A68A873301D61
:2066300012780068042A00F0958095F83000022812D14846007801280ED06A4905F128007D
:2066500002220E4620310FF0F9FC28B906F1160105A810F0B1FE05AF686E002800F0B88048
:20667000012102AA09F01CFF002840F0B1809DF80800A873E86C40B139460DF11E0208AB52
:20669000FCF778FB002840F0A38008A80090686E39460DF11E0306F0C9FA002840F098802C
:2066B00048460078012851D04FF400500DF122010DF094F80DF122000DF12A0108220FF0CB
:2066D000BDFC38B10DF12200394608220FF0B6FC00283BD194F85900002837D0A66CB4F888
:2066F000445042F2010004A90DF078F8049A4FF000410020E2FB0610061C206D10F006FCC5
:2067100086190498B04202D86D1C361AADB24746786880475FFA80F8206CB04204D1208F23
:20673000A84208BF002608D026642587002084F835000FF09FFD0126E064B9684046884717
:206750000EB10AF01DFF012084F85800002084F859003DE08B468047264C0D9095F8307079
:2067700022480A264FF00009804610F807A0207AB84206D15246204659460FF03BFE012849
:2067900004D0761E04F10C04F1D100E0A1465FEA09070FD198F80601164F461C810088F85B
:2067B000066101EBC001F0B27F180A2804BF002088F80601384659460A2210F035FA0C4814
:2067D000094900788968B8720D9888470420A8730FB0BDE8F08FC046700B0000D82900208C
:2067F00051120020600C0020F0120020000F0020FC1600208E0F00202DE9FE4F0CAF89464D
:206810009A4604467D680292294604F019FE061C00F0EE803888F082DFF8F481347598F814
:206830003C0018B1012C04BF1520307506F1800029460B2210F0F8F9012C04D00D2C1CBF60
:206850007068401C00D170683062002598F83C0035650028B5654CD0052C18BF012C43D187
:206870004FF0040B86F86BB0F08A86F86950C00932BF6148674816300078029986F86A001D
:206890000A6806F16C073A604B687B600889388110F02EF940BB06F16C0010F08DFD574FE5
:2068B00007EB8407386810F47F0F0CD086F82CB0386806F12C01012200F47F003063304680
:2068D00003F028FA386810F0FF0F4FF003090BD02A2086F83C00386806F13C0100F0FF00F8
:2068F0003064304607F0B0FB98F83C0008B10D2C13D00095029A534630464946FDF74AF836
:20691000071C76D1E41F012C03D8707E40F020007076304607F0C2FC6BE010F0E9F8294608
:2069300000B101213548343009B94FF00309052186F86B10016811F0F70F12D02A2186F84C
:206950003C1098F80120006806F13C01012A00F0FF0030641CBF20F008003064304607F0EC
:2069700073FB0095029A534630464946FDF712F85FEA00083AD1224806603489756801A95C
:2069900064200DF0C5F81F4EA01C0DF1050187B206F178000780E9200DF0BAF89DF80500FB
:2069B000012806D13C46C4F30220022140F0180006E0241D0421A4B2C4F3022040F008004E
:2069D00005F8010D671A05F8014DB9B2C6F88450AD1C28460AF072F99DF8040000280CBFAB
:2069F00009480A48C6F8C000C6F88000474600E01A27F8B2BDE8FE8F850C00208007000066
:206A100030170020081000204E9055550E7A555550120020980C00202DE9F043002B08BF8C
:206A3000002A10D10029BCBF00204FF0004106DB50EA01071CBF6FF000006FF0004108F002
:206A500062FBBDE8F0835FEA530898EA610803D50026404266EB01015FF0000913F0004EA6
:206A700003D00026524266EB03031C461546002C08BF8D429CBF2C1C0025070C47EA01474F
:206A90000E0CB44208BFBD429EBF240444EA15442D04070A47EA01670E0AB44208BFBD4255
:206AB0009EBF240244EA15642D02470847EAC1774E08B44208BFBD4200F29280870847EADF
:206AD00081778E08B44208BFBD427BD8C70847EA4177CE08B44208BFBD4265D8070947EA41
:206AF00001770E09B44208BFBD424FD8470947EAC1674E09B44208BFBD4239D8870947EA86
:206B100081678E09B44208BFBD4223D8C70947EA4167CE09B44208BFBD420DD8E60146EAF7
:206B30005566EF01B14208BFB84201D3C01BB14159EB09094EEB0E0EA60146EA9566AF0118
:206B5000B14208BFB84201D3C01BB14159EB09094EEB0E0E660146EAD5666F01B14208BF29
:206B7000B84201D3C01BB14159EB09094EEB0E0E260146EA15762F01B14208BFB84201D325
