:20000000004B002011350100FDC90110FDC90110FDC90110FDC90110FDC90110FDC9011024
:1C002000FDC90110FDC90110FDC90110FDC90110FDC90110FDC901103BCA0110A4
:20003C00AD040021490400217D04002181040021110500219105002141060021F8B51047C2
:20005C00F8B50E4600210125AD0430470A48037800F00FF89B070BD0124C2078FF2807D0DF
:20007C00FF2121700E490F24240220436031C882F8BDF8B5014800476B020021E54C000014
:20009C00094801E00848000C064C05492278FF2A01D1CA7A22706031C8827046801C004737
:2000BC0000620840A4060021070F0808F0B4084770B503461546012906D0002906D0114A73
:2000DC002846FFF7BBFF70BD0F4800E00F480524834203D84008641E002CF9DCE340012053
:2000FC0040031818820B012907D00649002380312846FFF7A5FFE0B270BD0249044B6C31C2
:20011C00F6E70000835C0000A0BC862300830D2374060021F8B51A4E0546716B1948CC0942
:20013C00E401002D11D01849097802290FD0007B044372B60120154F4002B8471148203863
:20015C000088C109C90704D016E0C07AF0E7407BEEE70F497463CC61400AC0070CD001208C
:20017C008003316B002D01D0014300E08143084631630749403948630020B84762B6F8BD1C
:20019C0080020021880000219B0200217B3F00004040044010B5224A00215161214989685C
:2001BC00C90009D42149204BCA0598424B6B01D8134300E093434B631D49FFF777FF10BD17
:2001DC0038B51A4D287F002827D11A480088C009C00722D1124C606900281ED1684600F09F
:2001FC0045F868460078012817D168464078102813D208206061686A4009400120600E4ACF
:20021C000021D1620D4A02211160012108432060032108436862206038BD0948804738BDDB
:20023C0000400440180000210000930880020021CF680000680000210011044080E200E050
:20025C00C33B00000749002800D00420064A72B60978C90701D0105800E0802062B640B28C
:20027C00704700006B0200215860044003B40148019001BDA56F00000000000001000300BA
:20029C000A001F005900EB003902EA04F9099712EB1FA132784A0A66FA828C9E63B617C953
:2002BC0064D6EDDEC1E3E0E5FF000000A36100007F1407134D00F1242E1F133FB00A3F000A
:2002DC0007FF0000304000400140034007400F404F40CF40CF41CF43CF47CF4FCF3FCF2F32
:2002FC00CF1FCF0F000000000F00080000003F00000040003F000000040068000E00DC00EB
:20031C00060043001A00050000000000020000003F00000000000400C00000000400C00090
:20033C000000070050C00091007070C00091007082312100319110B10070018101B100A1BC
:20035C008231329110B101911110418141224F40F106007051C0019130181039833108D0BC
:20037C001831416F3100319110B1831414165B680070251050C00091F4C3C0C02014036F0D
:20039C003110410422C082312100319110B163393110410482C082312100319110B163392B
:2003BC003110A2C082312100319110B1501015310514059200703F6452C0311031066131A2
:2003DC00C102426412C13110213971065131E102426400708A65996588C02082503980391F
:2003FC00001E9F4041C001301814181A89C0308260398039001EA94041C001301914191A6E
:20041C003C64369110B1349110B154B0007154A064B0F0800022AF404012B09032B05382CB
:20043C005339533985643F6411C122C1426470C1C26811C1C2C0426470C1C76850C000914B
:20045C00277298921516141642105310F0C12182313131398139313151B070B272652772E4
:20047C00999270B262107310F0C331822131213981391B107265E2C08231608280318039AF
:20049C00020061B00071329110B151A061B0277230C2F36800008012B09032B0007050C01C
:2004BC0000912772999262107310F0C3318221312139813951B070B27E652772989270B21F
:2004DC0042105310F0C1218231313139813931311A107E6551A061B02772B0C018693F64D3
:2004FC0001C122C1426401C1C2C04264151A3C64359110B153828564C012B09032B0007033
:20051C003F6472C281C0426422C111C1426402C011C1426462C031C3426462C311C1426413
:20053C0002C311C14264538253398564E2C347641122404142C281C8426452C211C1426495
:20055C0072C2E1CE426402C281C8426402C201C84264B0C0546900703F6442C201C842645D
:20057C0052C211C0426472C2E1C0426402C001C1426462C001C3426422C101C1426462C333
:20059C0001C1426402C301C1426453828564007061B000711214231C7A4D339110B10070D9
:2005BC00329110B17269007061B000711318321C8649329110B10070339110B17E690070B6
:2005DC00C2C047641510C2C01216476441311514C0C0803105145410A07804040070E6C0D9
:2005FC00863101CC161467106182F0C3010417140070067305720B720E7250B00071818025
:20061C0060B050A092804122C3458080F1C11004301601110114016CD661D761D861D961BF
:20063C00DA61DB61DC61DE61E061E261E461366339639180F2C0210421318280422A1214DF
:20065C00321601112114016CEE610B62F4613963EE610B62F4613963E661E661E661E6610C
:20067C00E661E6619464E661F964E6612A65E6615665E6614667E6611012B0900E720673C6
:20069C00057210123090A761F0CF3C67D4C103C0C0C354644078509150781092607820925B
:2006BC007078309280784092907860923078909110824039F0060110103110140092426735
:2006DC00E661BCA0E2A054A0F08050221546408000222B470D6240A02D828D318D39108240
:2006FC00F1C0100409101A824A391A041082803910040E10AB10BC10C21063642972E0CFDC
:20071C003C6713B003B0C86653B050B054B064B013B0A5661082E0223846AE660071418035
:20073C0001222B47F08010224B46F022184764B03122384263B0CE661082E0223846706654
:20075C00386264B06F818F318F3DD0DFFF923C670071418001222B4764B0F080502265420C
:20077C0063B01182C1226046CE6605671182D122524670665262618172818131813D8231EE
:20079C00823DC0EFF19202933C670B62B081C091D381978290A2D3187F4EF30B1316E31CA8
:2007BC00A44AC391E3813B149062BA1C8B46231E8B4AE31C8B4E90B207228B4290A21B1A02
:2007DC009662E31CA44AC391E3813B18AB1CA04E9B1CA24ABC1CA442B2101082D0229D42D2
:2007FC00F0801022A4466364A566A462AB1094629B10946200703082F1C0100463B00071BC
:20081C00A86ABC10E0B00070B281C291D281018212185181121841828131813D121CBF4AF2
:20083C00E2B032B0B0DFF2923C67F1C72114C34E12C86291729131B0E1B0007008C006C034
:20085C0000C86091709100700182B081C091D0811018518110180614E18042828231823D29
:20087C00201CE44AE2B02122E84632B00510A0DFF5923C672122E842E2A032B03182413951
:20089C00F0C00104011EF642181610C01030081C04476010103C0610F1C76114FA4E16C85E
:2008BC00669171818131813D161C014B769131B006C008C0007061818131813D4082803992
:2008DC000118F11C174B0114B080C0221747BCB033B090EFF1920F933C67007003A063B033
:2008FC0064B0EFB056650071408000222B4764B02A65EFA00071408000222B4764B003B0EB
:20091C003862018262818231823D80EFF19202933C6703A05665E661A2806364E66150B04A
:20093C000071E661E092D08200223D47C0B20070A080F022594330B002C1623101C0A080B2
:20095C00001E5243F0225343A0F56031603953632010101A136F236E11161216546B0070C0
:20097C00B98E000000000000FD5000000000000000000000FD590000BF7F0100353A0100C2
:20099C0005780100E96E0100CD6E010075F4000000000000000000000DEF0000D90E0100DC
:2009BC00F5390100C52401007F7901000E3FA73FAB0C18B82BBC0BDA50E5900AD338D85879
:2009DC0009CD2CD24008CB24CE3207C920CB2A06C71CC92405C618C82004C518441803C466
:2009FC0014C61C024210C51801C310C416004100C312F6C008C00400C11C0100495C0100EA
:200A1C00018800009F7F0100B5800100CDE50000715C0100038001000F80010009800100BE
:150A3C0000000000FD80010000000000E5E10000C80900000F81
:201000003C000000000000000000000034100000000000000000000001000000000000004F
:1C10200000000000000000000000000001000000000000000800000000000000AB
:20103C003400000000000000000000006810000000000000000000000100000000000000E7
:14105C00010000000000000000000000080000000000000077
:2010700030000000000000000000000098100000040000000000000001000000FFFFFFFF87
:10109000FF00000001000000080000000000000048
:2010A0002C0000000000000000000000C4100000040000000000000001000000FFFFFFFF2F
:0C10C000FFFFFFFF080000000000000020
:2010CC0038140000E410000095A1011091A70110A1C2011009B2011041B8011000000000EA
:0810EC00000000002D000000CF
:2010F400280000000000000000000000141100000000000000000000FFFFFFFF0000000093
:081114000800000000000000CB
:20111C00341400003011000065C2011069C101101BC2011091BA011000000000000000006D
:04113C002F00000080
:20114000341400005411000071C20110A5B6011099BF011045B601100000000000000000BD
:04116000300000005B
:201164002400000000000000000000008011000000000000000000000000000008000000AE
:041184000000000067
:20118800240000000000000000000000A41100000000000000000000000000000800000066
:0411A8000000000043
:2011AC00240000000000000000000000C8110000000000000100000000000000080000001D
:0411CC00000000001F
:2011D00000000000B81500200400000000000000000000002000000070100000300000003E
:2011F0001C110000C01500200400000000000000000000000C000000301300001800000052
:2012100040110000C8150020040000000000000000000000240000004813000018000000D5
:2012300000000000D015002004000000000000000000000010000000A01000002C000000A9
:20125000CC100000D8150020040000000000000000000000200000006411000024000000D8
:20127000FFFFFFFFE015002004000000000000000000000028000000881100002400000064
:20129000FFFFFFFFE8150020040000000000000000000000580000003C1000003400000049
:2012B000FFFFFFFFF01500200400000000000000000000001000000060130000180000005E
:2012D000FFFFFFFFF81500200400000000000000000000001C000000AC11000024000000D4
:2012F000FFFFFFFF0016002004000000000000000000000038000000F41000002800000044
:20131000FFFFFFFF0816002004000000000000000000000054000000001000003C000000DF
:1813300018000000000000000000000040130000080000000000000032
:1813480018000000000000000000000058130000080000000000000002
:18136000180000000000000000000000701300000800000000000000D2
:08137800010000007CA401004B
:041384000100000064
:0413880000000E0053
:04138C0000000F004E
:041390003200000027
:041394000100000054
:0413980044150020D8
:04139C00000200004B
:0413A0003F80010089
:0413A400FDC901106E
:0413A8000000000041
:0413AC00000000003D
:0413B0000800000031
:0413B4000000220013
:0413B8007813002086
:0413BC00010000002C
:0413C0005C15002098
:0413C400080000001D
:0413C8000000000021
:0413CC00000000001D
:0413D0000000000019
:0413D400080000000D
:0413D8000000000011
:0413DC00000000000D
:0413E0000100000008
:0413E4007014002061
:0413E80006000000FB
:0413EC0001000000FC
:0413F00010120020B7
:0413F40000000000F5
:0413F80000000000F1
:0413FC0000020000EB
:0414000000000000E8
:021406002900BB
:021408000100E1
:02140A002500BB
:02140C002F00AF
:02140E003000AC
:021410002D00AD
:021412000100D7
:0114140001D6
:081418000300000000A4010024
:081420000000000000000000C4
:0414280000000100BF
:04142C0000000300B9
:0414300083C4011060
:041434003C14000064
:041438003C14000060
:04143C0000000000AC
:041440008000000028
:041444008000000024
:0414480000000000A0
:04144C005C1500200B
:04145000C779010057
:041454002000000074
:04145800A4A3010048
:04145C00F8A20100F1
:0414600009C30110AB
:04146400936101008F
:0414680027660100F2
:04146C0095C801100E
:0414700097C8011008
:041474000000000074
:04147800A3A3010029
:04147C0088A2010041
:04148000A0A2010025
:0414840070A2010051
:0214880008005A
:02148A00090057
:02148C0001005D
:02148E0000005C
:01149000015A
:041494000000000054
:041498000000000050
:04149C00000000004C
:0414A0000000000048
:0414A40001810100C1
:0414A800AD4701004B
:0414AC00F9600100E2
:0414B000755401006E
:0414B400D34E010012
:0414B800A554010036
:0414BC00D10B01004F
:0414C000457D010065
:0414C400E916010024
:0414C8000DC801103A
:0414CC001DC8011026
:0414D0000800000010
:0414D40024000000F0
:0414D80018000000F8
:0414DC0028000000E4
:0414E00020000000E8
:0414E4003C000000C8
:0414E8000C000000F4
:0414EC0034000000C8
:2014F0002DE9F04F0020ADF1440D0E90BE48BF4C90F8380018B9207808B116F0CDFA812079
:2015100020700E9F0A97BA4C6781BA4E377020696778DFF8E892E770457A017A05F00702F8
:2015300001EB022135F07F05A1F104011FFA81F840F08782B8F5006F80F283820A3041462D
:201550000CF03EFCE16904F114000522083116F035F8217EA8F103061FFA86F804F1160379
:201570000520A57D0C93E27D6171DFF88CC29E49608104F11703C2F3011005EB02250B93CD
:2015900091F838600D905EB160460078862807D10D98022804D105F00700022840F05182FD
:2015B000281300F0020ABAF1020F42DAA67805F00700022832D1D9F800000F9076BBE169DA
:2015D000684601220D3115F0F9FF062060810F9880478046C14E8848D9F8042037680078C9
:2015F000862816D127B916F057FA3768D9F804209DF9000016F072FD78770A989DF90060E9
:20161000B8774046FE77904705F010000EF00AF801E04046904715F069FD14E260460E9BC6
:201630000078862808BF012323B10E9811F086FBE778A67887B17EB9012F00F00282022FCC
:2016500003D115F0070F40F0FC81032F04D105F00700032840F0F581280908D315F4405F56
:2016700000F0EF81A8480778002F00F0EA81BAF1020F02DAA80A80F0E4810B980078C0F314
:20169000810B8611BBF1010F00F0DB81012E00F0D8810D98032800F0D4810D999B480229CE
:2016B00009D010F80B10805D4018C7B2B6B1E80914D3BF1E0CE000EB0B01801909790079DD
:2016D0004018C7B2E80905D25BEA060306D0BF1CFFB203E05BEA060308BF0227C5F3002AAE
:2016F000A7EB0A008045C0F2AC81A8EB07002909504480B2208124BF25210E910E994018A0
:20171000743080B216F08AF894F80280E060002800F097810A9974220CF0CEFF0A98B8F190
:20173000000F207103D1334905F0200008703148DDF828800378B3B1BAF1000F13D105F0B4
:201750000700032807D114F0B3F910B915F06CFC08B104202071244890F8380008B911F02D
:2017700055FA94F80480E16801F174004860886523890B812089A1F85C0028090ED3CAF113
:20179000030082B2A1F85C20886D0C9915F016FFE1688A6DB1F85C00801888650B980C9B25
:2017B0000078C0F3011218788D81BAF1000F00F0780040EA020048EA000008744FF0FF0300
:2017D0008B730CBF60790A9881F8306081F83AB081F849006089002FA0EB0A0085B26581BD
:2017F00000F027810CE0C046340F0020562D0020B02C0020582D00205A2D0020D80F0020FA
:201810003846E6690C903A46E780A9190DF10200083115F0D3FEEE19B5B265810B98E16857
:2018300000780A7C0DF10206C0F3011BC0F3810A02F040030B93C0F38103002B45D00A9B98
:20185000C0F30110022801D1D0090AD29DF803209DF8020000EB0220A1F8440001AEA1F882
:201870004200DFF80082B1F84400B8F84A20824203D04FF6FF72824221D1BAF1030F11D015
:201890007278307800EB022082B24A86B8F84810B61C0120914211D04FF6FF71914218BF87
:2018B000181C0BE0E0683146323016F0F3FBE06808F13F01323015F027FC08360346002B27
:2018D00000F0BA802046E168C07D831126D0BBF1020F05D0087CC00906D30CE0A4090020E7
:2018F0000B9A52EA0A0206D172783078B61C00EB0220A1F84200032B0AD07078327802EB41
:2019100000220A850AE0C046840D00200CA40100E0683146283016F0BDFBE168888900097C
:20193000C0F08780886D3A460DF1020115F046FEE068816D79188165E669B0F85C100122EE
:201950007F18A919A0F85C7008310DF1010015F035FE6F1CBDB26581E1689DF80100896D95
:201970000870E2689DF801609DF80130906D401C9065B2F85C00401CA2F85C0006F0070036
:2019900082F82400C3F3C10182F82510208992F824708046002F4FD0334F7F183A78121D9D
:2019B0001646E280864247DCE069291808310DF1160015F003FE3A789DF819C0111D4819E2
:2019D00080B29DF81650608105EB0C60E3689DF8185000EB05409DF81750042900EB0520DC
:2019F00098610CDDE0680DF11A01521E1C3015F0E5FD3878E3686844407E83F82600986DE6
:201A100032460DF1160115F0D9FDE168886D30188865B1F85C00A8EB06073018A1F85C00F9
:201A3000781E80B22081B1F85C2008818018A1F85C0001F0C9FB06E016F01AFA0EF030FF10
:201A500001E015F063FFD9F800008047E2690A99136819711168E161D9F80410884711B073
:201A7000BDE8F08F70110020E8A301002DE9FE4FCC4C0F460546F80B80F00C82B80880F0B9
:201A90006E81F80A80F04781DFF828A3DFF828B3B80F0FF2283880F0CC80207A002851D1F1
:201AB000380951D3002525700126A671284614F003FFBD4816F052F9BC492A4604F14C0039
:201AD00016F0EBFAE07801281DD12079D8B9B84E306880B115F07AFE6169236A3268401ADB
:201AF000000BA061C018B0EBC21F03D32B46236218460CE0206204F1F8004FF0005115F05C
:201B1000B1FD2B461AE0E67028462B46257104F1380240F60901118094F8451001F0F0010E
:201B300041F0010184F84510658794F8441001F0F00184F84410E063CE4E3260636127F047
:201B50000807C9E1380971D2B80B5DD2780BC0F0C381AE69CEB15046B04216D0A868001D9E
:201B700003681BB105F1200199424BD1407A10F00F0F0AD1688C40F60901814205D198E810
:201B90000C0028466FF48071B04704F14C005946002216F082FAA96800264FF0010840F637
:201BB00002026672088884F80080824207D00A8B4FF61F60104040F43470088306E00A8A8C
:201BD0004FF61F60104040F4347008826E7415F0FDFDD4F8C820E36804F1C8019A4208BF3E
:201BF000B046E269824226BF101A401E801A01EB8801000B88601920E66116F00DF827F4BB
:201C1000805769E1181DABE704F1280016F058FA061C08D0706830B17568F068B6F924108C
:201C3000B3A20CCAA84727F4005755E127F0080792E0A968088840F60209814507D00A8B26
:201C50004FF61F60104040F43470088306E00A8A4FF61F60104040F4347008826069D0B1C3
:201C7000042013F0AFFDB0B115F0B0FD6169814226BF401A401E401A000BE860688AE96854
:201C9000401840F6C411E860814203D340F2EE22824200D9E960AE6996B15046B0420FD003
:201CB00094F8450010F00F0F0AD1698C4846C01D884205D198E80C0028466FF48071B04705
:201CD00004F14C005946002216F0E7F9B4F8A0004FF6FF71814209D10220ADF800006846F9
:201CF00014F0FAFDBDF80800A4F8A0000120207015F000F94FF00008192084F8058015F0AB
:201D10008BFF6E6926B17CA20CCA28464146B04727F00057E0E016F0CDFA054604F124003C
:201D300016F0CEF9061C15D0E06810B1703014F023FFF068E060284616F0B8FA15F046FDEA
:201D5000E061694816F00AF84FF4006104F1F80015F088FC27F4806700202072BCE004F11A
:201D70003009484616F0ACF9061C00F08A8012F082FD4FF00008B269C6F81880706800288C
:201D900035D096F8270042F00202002300F00700401E17D0401E03D0801E16D158A012E044
:201DB00059A010E0C8050020F5010100B1630100482D00200FAA0000396100000000000049
:201DD0000000000252A090E80C0096F82700000908D396F8270010F0070F03D04EA003C88B
:201DF00002430B437568F068B6F92410A84716F061FA0546B4F93600401C6FF31F30E08637
:201E1000206B80F82780484615F065FC284616F04DFAB4F93400B4F93610884231D194F82D
:201E3000F40050B1D4F8F00038B145692DB184F8F4803BA20CCA4146A847F06890F8BA5069
:201E5000D5B90568C5B1E268284912680968B2F1FF3F16D0B5FBF1F2012A8CBFB5FBF1F1F9
:201E70000121703016F01EFAF068703016F016FA07E0C0460010044080F8BA80012011F04F
:201E9000B7FA484616F01CF927F0020708B147F0020721E016F00EFA014604F12C0016F042
:201EB0000FF90646B569A80811D286B125EA0500B061084616F0FAF9706858B155B12A4613
:201ED000F068B6F9241075680023A84702E0084616F0ECF927F4804727B104F1F800394687
:201EF00015F0C0FBBDE8FE8F5969000074A4010000000000200000000000000000000004E1
:201F1000000000000000001000000000000000400000000000000020000000000000000140
:201F30000000000000008000B0B5C34D2F680446ADF1480D002F00F07D812078401E11287C
:201F500000F27881DFE810F05B0147012D0118011101FB00EC00DE00BE00AD0088005D00AD
:201F70005300420076012A001C001200F86B002800F06081684621460BF0E8FAF96B57E103
:201F9000386C002800F056816846002101220CF093FB60788DF80000396C49E1F86A00286C
:201FB00000F04881684600210E220CF085FBA11C684615F043FAA57BA1890022ADF80A1005
:201FD00005B101228DF80C20F96A32E1B86B002800F030816846002102220CF06DFBA57891
:201FF0008DF8015060788DF80000B96B20E1786B002800F01F81684621460BF0A7FA796B49
:2020100016E1386B08B36846002114220CF054FBA5788DF80150A3680193A289ADF8082081
:20203000A17B8DF80A1060788DF80000E57B8DF80B50237C8DF80C3094F911208DF80D2068
:2020500061690491396B684688476068002800F0F18015F095FCEDE0B86A002800F0EA8098
:202070006846002124220CF027FB6078A11C8DF800000DF1020015F0E1F904F10C0103A877
:2020900015F0DCF9257EE08A04F119018DF818500B22ADF816000DF119000AF02FFDB96A05
:2020B000C6E0786A002800F0C5806846002102220CF002FBA5788DF8015060788DF80000EF
:2020D000796AB5E0386A002800F0B4806846002112220CF0F1FA658862796078ADF8025009
:2020F00023798DF80520E11D8DF80000A5798DF804300B220DF107008DF806500AF0FEFC2F
:20211000396A95E0F869002800F094806846002101220CF0D1FA60788DF80000F96987E02B
:20213000B86940B96868002800F0848014F0A4FA002068607EE0204609F05EF97AE07869B0
:20215000002877D06846002113220CF0B5FA6D46A01C0168406829600B22686004F10A0153
:2021700002A80AF0CBFC796962E03869002861D020460AF003F85DE0F86800285AD06846CE
:2021900000210E220CF098FA6078A11C8DF800000DF1020015F052F9A089ADF80C00F968AB
:2021B00046E0B868002845D06846002114220CF083FAA01C01686D46296040686860A07A23
:2021D0000B2204F10B018DF808000DF109000AF095FCB9682CE0786860B368460021102281
:2021F0000CF06AFA60786588211D8DF800000B22ADF8025001A80AF081FC796818E038682A
:20221000C0B16846002119220CF056FAA01C01686D46296040686860A07A02A912F056F801
:202230000B220DF10E0004F10B010AF067FC39686846884712B0B0BD1C1500202DE9F04F04
:20225000A54E81463068ADF1140D08B915F024FCA2490120A24F08703978012902D0002134
:2022700010F068FA30680489456815F00DFFDFF874A22888000938D39AF83800002834D062
:2022900031684A6A4F6E28321068D046B0F1FF3F25D027B3431C13608862030E07F8013988
:2022B000306890F82A0007F80109306890F8290007F80109306890F8280038703268106A65
:2022D00000940190401B201A80B20290916A506A92F888202B46153005F0B6FA00E0DB2053
:2022F000D8F87C10002840F0EA80214628460BF067FD642003A910F023FE7B499AF838702D
:202310000878884637B97948007809F01DFC012805D0D0E009F018FC012840F0CC80DFF8ED
:20233000D0C1A01C241D6D1EA1B2ACF87800C1F3022040F0080005F80109002729709DF89B
:202350000C60CCF88450002EACF86A700CBF49F24E0047F60E206446C4F8C000DFF894B1BC
:20237000C4F88000DBF800008047634D0490B9F1010F57D0B9F1040F54D0B9F1000F51D097
:2023900094F84000B9F1050F04F13006C0F3C00039D0E8200DF10D0110F0D2FD9AF838004F
:2023B00020B39DF80D00032820D1707B337C6FF0520200F0F00040F00300707343F01800EE
:2023D0003074DAF89C0084F841208047A0644B4B68690021D0F808C0678602208DE8030094
:2023F000D8F80C003A463146E04753E068698668A4F86A70002102208DE80300D8F80C00D4
:2024100004F1680143E028B9707B00F0F00040F0010004E0707B00F0F00040F00300394BE8
:202430007073D5E794F83D009AF8383000F0F00040F0030084F83D0094F840006FF05206DB
:2024500004F1300940F0180084F84000002B84F8416008BF4FF4FA5002D0DAF89C00804797
:20247000A06429496E69D8F80C000B7843B9A4F84E70022100228DE8060004F14C0105E063
:202490006786022100228DE806004946B6681B4B3A46B0471A490880DBF80410002808D41F
:2024B0001A4A92F900006834401C107004982C600DE0049888471A200BF02AFA08E00029BB
:2024D00008BFE420F8D0124A00201070E420884705B0BDE8F08FC046A40900201316002095
:2024F00034160020340F0020D01400208F0D002068080020D80F0020781100209D62000000
:20251000E01300200986000012140020151600205A2D0020F0B504460846ADF16C0D401E1F
:202530006BD0401E0DD0801E00F00781401E00F0ED80401E00F0E080401E00F0A880002000
:2025500040E142F2010002A90FF074FE42F20B0003A90FF06FFE42F206000DF10F010FF05B
:2025700069FE42F2070004A90FF064FE42F205000DF10E010FF05EFE05A80FF007F9054603
:202590000DF1110142F209000FF054FE9DF81100002808BF002303D0022013F017FE03467F
:2025B00002A8006803A920600988271D3C46B81C218005F007079DF80F609DF80E109DF8B2
:2025D000102000F8011B9DF8114000F8016B03F0030600F8012B620747EA926141EA8611EE
:2025F00000F8011B05AC0094012701979DF81120294606F079F90A309DE042F206000DF126
:202610000F010FF017FE42F2070004A90FF012FE42F204000DF10E010FF00CFE05A80FF095
:20263000B5F805460DF1110142F208000FF002FE9DF81100002808BF002303D0012013F098
:20265000C5FD03469DF80E009DF811209DF80F709DF8106004F8010B510704F8017B05F010
:20267000070704F8016B47EA916003F0030640EA861004F8010B05AA0092002701979DF859
:2026900011202946204606F02FF9001D53E042F215000DF14A010FF0CDFD0DF1520542F2D2
:2026B000160029460FF0C6FD0DF15A0642F2170031460FF0BFFD0DF1620742F218003946B6
:2026D0000FF0B8FD0DF14A0001682160406860606A6804F108035A6028681860306803F17C
:2026F0000801086074684C60386801F1080528607A686A60202065E042F2140012A90FF077
:2027100099FDBDF8481002200A1258E00AA8002120220BF0D1FF42F213000AA90FF08AFD30
:202730000AA815F0E9F802460AA920460AF0E6F90AA815F0E1F880B244E042F20E0008A9DE
:202750000FF078FD0DF1220142F20F000FF072FD0DF1230142F20A000FF06CFD09A942F275
:2027700010000FF067FD0DF1250142F211000FF061FD0DF1260142F212000FF05BFDBDF899
:2027900020009DF823209DF824709DF825609DF826509DF8221004F8010B02F0010200120D
:2027B00004F8010B07F0010042EA400206F0010042EA800205F0070042EA4012042004F85C
:2027D000011B22701BB0F0BD2DE9F04FDFF880C292F8088009AF8A460646ADF11C0D049311
:2027F0003AF07F05039206BF604600884FF6FF700590F08A800934BF002008203076F08AEC
:20281000C00834BF102080207076F08A400903D260460E30007800E00020B076F08A41085A
:202830002CBF20240024000928BF44F010047568307D4FF0000B0AF07F0A6D1E02280EDB08
:202850000C2808DC0C2804BF4FF0020B44F4085444F0030404E00D280CBF022001200443D0
:2028700096F8881009B144F00804200900D329B1DFF8E09199F89C3013B909B1DF20E2E066
:20289000200915D3049A039906F12403304608F0E3F9051C05D07570F32014F0A0FCE8B24D
:2028B000D2E0F08AC00828BF44F0100475686D1E336DABB9B36D9BB999F8B510012903D1B1
:2028D0003089B0F5EE7F06DA200904D202290BD144F4005401E044F480544FF0010B03E090
:2028F00044F408544FF0020B44EA8A34BAF1020FA4B20AD0BAF1030F10D1ED1F09F1A801C3
:20291000284615F0C7FB6D1E08E0B9F88E00001205F8010999F88E0005F80109BBF1020FC4
:202930000CD0BAF1000F15D0B8F1000F0CD004990598814208D144F040040BE0B8F1000F87
:2029500008D1BAF1000F05D00599081205F8010905F8011944EA8824B8F1020FA4B209D066
:20297000B8F1030F0ED10399ED1F284615F092FB6D1E07E003990888001205F801090878CE
:2029900005F80109B8F1000F05D00498011205F8011905F801093878E0B9307D0D2814D0B7
:2029B00068B9306D28B999F87800411C89F878100DE099F89D00411C89F89D1007E099F8DB
:2029D0008600411C89F8861001E015F057FA05F8010901E044F48074201205F801092C70CD
:2029F00070683189401B7560C0B240183081200928D3B06D00B130621748007810B1307DC1
:202A10000D281FD1726A12F1150002D115F044F8726A916A481C9062306A3289B162471B82
:202A30000092D21B019090B20290706A96F888202B46153004F008FF00281CBF7070051CDD
:202A50007FF42DAF0020707007B0BDE8F08FC046720D0020E80C00206C0F00202DE9F04F93
:202A7000DFF86C920646D9F80000ADF1340D80470C906946822004F00FF89DF8000018BB5E
:202A900000248DF800404FF6FF75ADF80C509DF80000ADF80E50FF2108228DF8080004A868
:202AB00015F022FB8DF82040D42002A901F0CCFE9DF80000401CC0B28DF800003228E4DBA4
:202AD0008220694601F0C0FE0020DFF808A28DF8000080469DF800008DF8098002A98DF827
:202AF0000800D02003F0D8FF01274546E8B99DF81330012B07D19DF8120020B90DF10A004C
:202B100014F038FD88B9747B002C0CBF0522092247469C4209D10DF10A0006F10E0113F09D
:202B3000DBFF002818BF012507D1002F40F0BF801DB9707F002800F0BA8044469DF80000DA
:202B50008DF829400AA98DF82800D12003F0A4FF002832D19DF82A00FF282ED08DF80800F4
:202B700002A9D42003F098FF002833D104A8311D082213F0B1FF00B330887788ADF80C00FE
:202B9000ADF80E7045B1307B9DF80010B7698DF820000DEB81018F61D42002A901F054FEAB
:202BB00075B1307F9DF82B10884209D08DF82B000AA9D12001F048FE02E0641C322CBDDBDA
:202BD000322C74D147468DF80870D42002A903F063FF28B1D9F804100C988847192074E006
:202BF00004AB184614F0C6FC444600B101242046341D30B918462146082213F06DFF00286C
:202C10004AD030887388327BADF80C009DF80010ADF80E30002D8DF820200DEB810000F195
:202C300018000CBF4146B1690822016004A8214614F0C4FC9AF8380030B1DAF888201AB1AE
:202C50009DF808102046904744469DF800008DF829400AA98DF82800D12003F01DFFE828FD
:202C700007D09DF82A00FF2803D0641C322CECDB10E09DF808008DF82C80337F8DF82A00F0
:202C900002A98DF82B30D42001F0DEFD0AA9D12001F0DAFD322C02DB7F1C322F93DB322F67
:202CB00005D1D9F804100C9888471A200DE09DF80000401CC0B202288DF80000FFF60AAFEF
:202CD000D9F804100C98884740460DB0BDE8F08FD80F0020340F002089482DE9F84F0E4639
:202CF00001210170894C8C4D86499046002290A00A7003C8994601EA090700EA0800002F4C
:202D100008BF002877D18CA090E80C0003EA090302EA0802002B08BF002A41D17A48DFF806
:202D3000F0C1008800274FF4860107EA090701EA0801002F08BF00291AD181A191E80C00B3
:202D500003EA090302EA0802002B08BF002A66D02746BE80B9F1000FF88007F1280181E8BC
:202D7000000308BFB8F1806F59D1022857D10FE02746BE80B9F1000FF88007F1280181E810
:202D9000000308BFB8F5803F49D1B0F5505F46D1F8696746436938683146002298473EE078
:202DB00027465C49B7F9043091F900009E42A0F10100087017D1FA8807F1280003C800291B
:202DD00004BFB0F5803FB2F5505F08D0002904BFB0F1806F022A02D00DF062FD03E00FF0D6
:202DF0003BFF14F08BFB6FF0010095F90030B880581E287013E0494B27466FF001003F1DEB
:202E10003880187858B146480078832802D0454981200870B96811B1104688473E80002041
:202E3000022100EA090701EA0801002F08BF002940D035490022374F0A80B4F9042097F931
:202E500000103B469642A1F10101197023D104F1280191E8000C4FF4820600EA0B07002F4F
:202E700006EA0A0108BF002913D104F1280191E8000C4FF4003700EA0B00002807EA0A013D
:202E900008BF002902D10DF00BFD04E00FF0E4FE01E0FEF725FB6FF00100204FA080387800
:202EB00010B12148007808B914F028FB95F90000401E2870174890F9000010B91B480021BF
:202ED000017095F9000088B11FA090E8C00006EA080607EA0900002808BF002E0AD095F936
:202EF0000000002806DC14F0D7FD03E0002001460FF020FC024900200870BDE8F88FC04666
:202F100034160020141600201A09002070110020DC14002016160020151600206C0F0020C7
:202F30005A2D0020562D0020582D00201216002000000000200000000000000000000070BA
:202F500000000C8C0000000002000000000000702DE9F04F8146002000212022ADF1540DB9
:202F7000009003A80BF0A8FBD9F82400B9F822106A4615F038F80024A046002875D100989B
:202F9000002872D006467079042868D100200290F188B06802AA15F029F800285FD1029816
:202FB00000285CD007467879BD68001F3AD0401E04D0401E2FD0401E10D04AE0F888202862
:202FD00047DC03A8002120220BF076FBFA8803A8294609F093FD44F002043AE00BA86B6845
:202FF0002968436005F1080201600DAB11685068196002F10805586029686B680FAA0835B8
:2030100053602846116011AB026841681A6044F0080459601DE029880DF1060044F00404DE
:20303000018016E0298801A80180BDF8041042F20E0014F001FE15F8028F44F0010408F051
:203050000100C8F3800BC8F3401A1390C8F3400314933F68002FA6D1029814F052FB3668E6
:20307000002E90D1009814F04CFB99F82870554D022F18D0A008C0F0A080514903A82022EB
:2030900013F0A8FA002840F09880012F04D1E878401CE87099F82870032F04D12879401CC5
:2030B000287199F82870002F4DD1A86A401CA862600820D3B8F1000F04D105F13E004946CE
:2030D00014F04CFF414642F20F0014F0BCFD139942F20A0014F0B7FD149942F2100014F073
:2030F000B2FD42F21100594614F0ADFD42F21200514614F0A8FD4FF40050494614F0D0FF04
:20311000B9F81A10502014F091F8B9F81A00B9F80010D9F82C304A460FF0DCF8B9F81A00E0
:203130004946288705F13E0014F018FF687801283ED0002001210BF08FFF41F270700321D9
:203150000BF08AFF34E0022F32D1E00805D3BDF8061042F2140014F06FFD200913D342F20D
:2031700015000BA914F09CFF42F216000DA914F097FF42F217000FA914F092FF42F2180059
:2031900011A914F08DFF286B4946401C28634FF4005014F085FF002003210BF05DFF687836
:2031B000012805D0012068700020687110F064F9D5F8981009B14846884715B0BDE8F08F3D
:2031D00031A00100900E00202DE9FF41854C04F1080006884588E269E0686189806D8918C5
:2031F0000831324614F0EAF9701985B2E068816D76188665E0690122291808310DF10A00CA
:2032100014F0DCF96D1CADB20422E06965812918083103A814F0D2F92D1DA8B2608103A864
:2032300014F0C0F90546E368039014F015FBD863284613F0DDFEA3F84000EA2013F0CFFF47
:2032500002206949E76808702079397C084338749DF90A0014F042FF87F846009DF90A0034
:20327000398987F8480007F17400B865B7F85C00401A7968002509187960B88987F8475070
:20329000820A18D2020925D310F0070F07D000F00700032812BF081C7868401C16E078688F
:2032B000C17801F00702491001F0380101EB42014018001D0AE038460CF0ECF9E76807F114
:2032D0006401086808B1888880B178687861B889000911D297F86000D8B138460EF062FED5
:2032F000E768F86CA8B1B7F8500090B914F09CFDE5600DF0D5FA72E0384604F0C7FB78704E
:20331000E7687E78B86978651EB1F22013F067FFE768364E96F8381000295AD0B889344A55
:2033300000F00700022837D1A378002B34D17B78002B31D1114601F11C021088F36DA8469C
:203350000D46401C1080786E8DF80480042101AA984730B92748006818B19DF8041080F8D6
:203370006810E1680DF106000090766E486E424602AB2831B04720480078862808D1E88BEF
:20339000E768401CE883B88900F010000CF04AF914F04AFD45461FE01848037893B17878A3
:2033B0000028A6D111469DF80A000B8C2070581C088407F1280007F11C010FF0E3F9E768E2
:2033D00096F8381029B1D6F8801011B138468847E768384605F080FBE56013F087FE009026
:2033F000BDE8FF81B02C0020562D0020340F002010140020A40900205A2D0020582D002039
:203410002DE9F04FADF16C0D18918549199392460A68074616A802604968416038460AA9D3
:2034300011F00EFA5FEA000800F0F180DFF8F4B1BF1C4FF0020938460CA90EF030FE061C9F
:2034500000F0D98004A8002116220BF035F99DF831506D1E79D06D1E40F0C6800A2E40F38F
:20347000D680BF1C38686C4620603F1D398801AD42F20B0029800DF106010EF0DBFEBDF8F5
:203490000600BDF80410884200F3C180BF1C17F8010B17F8015B17F8013B8DF8100017F8FF
:2034B000011B8DF8115004AA8DF81230384602F029F99BF800100028074400F0A88001299B
:2034D00008F1020500F08A804FF4005002A90EF0B1FE02A816A9082213F07CF830B118995B
:2034F00002A8082213F076F8002877D142F20100694603F081F942F20B0001A903F07CF965
:2035100042F2050004A903F077F90DF1110142F2060003F071F90DF1120142F2070003F06C
:203530006BF90DF1130142F2090003F065F99DF8130020B1022851D142F2030001E042F266
:203550000D0005A903F058F948E0042E5FDDBF1C17F8010B17F8015B17F8014B8DF8100075
:2035700017F8011B8DF8115004AA8DF81240384602F0C8F80028074449D018980EA908F08A
:2035900047FC9DF8560068B99DF8130020B918980EA908F0E5FB03E018980EA908F0C0F911
:2035B00000283AD19DF8560004A9162240F004008DF8560010A809F0A1FA9DF8130008F1FC
:2035D000020540B19DF8254005A821460EF00AF9241A8DF855400EA810F024F909EB0600AF
:2035F000801C1FFA80F903E0F71908F10205BF1C4D453FF720AFB9F1020F08DD08F102008D
:20361000A8EB0901AAF80000891C002003E000216720AAF80010199A11801BB0BDE8F08F26
:203630001CA40100350F00202DE9F047DFF80CA20746AAF13500DFF8F8810068800880F0B6
:20365000E78012F0E9FB814908310B6800261A17990D02F101020AD2C0F13E0110F10A0FBE
:203670004FEAE101D8BF08218A42B8BF0A1CDFF8C4C1990E0FD2590E0DD36446143C216848
:20369000C1F304211629A8BF20392468C4F30464162C0EDB0CE0634CD4F87C11C1F304615F
:2036B0001629A8BF20392468C4F30444162C00DB203C5118A146162905DA11F10A0FB8BFF7
:2036D0006FF0090100E01521574C584D01F01F0242F4F85222802A6812F0030F18BF01263B
:2036F000D20828BF46F002060FB146F00406424692F90740041B052C04DA9479B44208BF69
:20371000918865D00F28A0F10F0827DB08EB0014A4F1F0084FEA282EBEF1070F88BF4FF0FC
:20373000070E7546062D88BF06255CF82570042404EB850465462C59E41B04F0FF05F70855
:2037500024BFC4F307273D44B70824BFC4F307473D44770828BF05EB146501E00025AE461F
:203770005CF82EC0F7080CF0FF0424BFCCF307273C44B70824BFCCF307473C44770828BF14
:2037900004EB1C64ADB2A8EB0E27B9EB010105FB07F505F1800504EB1524D8BF012103F092
:2037B000FF0334254D435D434FF6FF73B5FBF4F18B4238BF191C802889B2918005DA10F155
:2037D000800FB8BF6FF07F0000E07F20D0719671194800681F2910604FF0000008D340F261
:2037F000FF128A4206D24908401C8A42FBD301E01F219180124F0F39090940EAC10047EAB4
:203810000001CAF8FB1F0026CAF8FF6FBDE8F0870C490D4F424608200F60921D1070BDE8A5
:20383000F087C0463C1100506E620840242208403C2D00209C130050082009403500094041
:2038500000E7A48030100940FDFDA400AC3F00502DE9F043002B08BF002A10D10029BCBF01
:2038700000204FF0004106DB50EA01071CBF6FF000006FF000410DF006FABDE8F0835FEA3D
:20389000530898EA610803D50026404266EB01015FF0000913F0004E03D00026524266EB78
:2038B00003031C461546002C08BF8D429CBF2C1C0025070C47EA01470E0CB44208BFBD4249
:2038D0009EBF240444EA15442D04070A47EA01670E0AB44208BFBD429EBF240244EA1564F3
:2038F0002D02470847EAC1774E08B44208BFBD4200F29280870847EA81778E08B44208BFB0
:20391000BD427BD8C70847EA4177CE08B44208BFBD4265D8070947EA01770E09B44208BF31
:20393000BD424FD8470947EAC1674E09B44208BFBD4239D8870947EA81678E09B44208BF87
:20395000BD4223D8C70947EA4167CE09B44208BFBD420DD8E60146EA5566EF01B14208BFC0
:20397000B84201D3C01BB14159EB09094EEB0E0EA60146EA9566AF01B14208BFB84201D3E7
:20399000C01BB14159EB09094EEB0E0E660146EAD5666F01B14208BFB84201D3C01BB14108
:2039B00059EB09094EEB0E0E260146EA15762F01B14208BFB84201D3C01BB14159EB09098F
:2039D0004EEB0E0EE60046EA5576EF00B14208BFB84201D3C01BB14159EB09094EEB0E0EB2
:2039F000A60046EA9576AF00B14208BFB84201D3C01BB14159EB09094EEB0E0E660046EA91
:203A1000D5766F00B14208BFB84201D3C01BB14159EB09094EEB0E0EA14208BFA84201D374
:203A3000401BA14159EB09094EEB0E0EA34208BFAA423EBF2D0A45EA0465240A8AD37346E6
:203A50004A465FEA080803D50026404266EB01015FEA480803D50026524266EB03031E46B4
:203A700017460B46024631463846BDE8F08370472DE9F04F0128ADF1140D40F0E980DFF8CF
:203A90000492D9F8DC00012840F0E0800220C9F8DC0014F0FFFB029001200FF01FFE20B1BD
:203AB00001210646C9F8DC10CCE014F0EFFB03906A484FF00008C0F80080012011F082FEDB
:203AD000012818BFCDF8008004D140460EF06EF90120009062486A4CC0F800801934D4F86F
:203AF000FF0F112014F088F900280CBF46460126102014F081F908B146F002060F2014F074
:203B10007BF908B146F004060B2014F075F928B154480068544F016B388888470A2014F0E2
:203B30006BF9474600B101274FF0805B0BF5DC75381C04D028684D4F016B388888474C485D
:203B5000012707602868816946F0200088474948076014F04BF900F001010191400814D235
:203B7000454814F0A8F88246BAF1040FF8D0BAF1010F05D1DBF8D80142683F48032190474D
:203B90003E49086820F0030008604046FFF74CFD2B68D4F8FF0F986B8047019801280DD008
:203BB000BAF1010F05D1DBF8D80142683248394690473249086840F00300086028480760E1
:203BD00028684169304688470B2014F015F920B12868254BC16A188888470A2014F00CF97B
:203BF00020B12868214BC16A18888847204807600322C9F8DC201F4BC3F800802868416BBC
:203C1000304688470128F9D104200FF067FD13480760D4F8FF0F1A4801688909FCD3009875
:203C3000012802D138460EF0C1F814F0CDF808200FF054FD06460398C9F8DC7014F022FBED
:203C50000DF008FC029814F019FB02E0042600E00126304605B0BDE8F08FC0460C400940A4
:203C700000022243B801001052A201004EA201002820086080010443004003402422084095
:203C900014100940D40A00202DE9F04FADF1440D002708907A48099100F10408081C88F8A9
:203CB00001701ABF006800684FF0FF300D9008981D280CBF1E201D200A900AF0CBF90898AC
:203CD0002422394613F040FF15250E97B9460F9705211097B8F802000B9104460C94A14261
:203CF0007FDA98F80170002F6BD10898641F02AAA4B221460BF00CFBBDF814609DF8117022
:203D1000701D1FFA80FAF80952D237F07F075BD0029A0D98904257D00A9829460BF006F832
:203D3000002851DCB9F1000F10D10898611E324689B212F0F1FD48B90299A01B80B2B1F593
:203D5000805F0C9040D11090042705E02F460AEB0500002F85B237D0F0191FFA80FB0898FE
:203D70002146052206AB13F020FA0A9806AA59460FF070FAB9F1000F04D10F98401C80B2BA
:203D90000F9006E0A01B81B20A983A4653460EF041FB0E989DF818205946401C22F04002E9
:203DB00080B20E900A988DF8182013F0CDFE0BE0B8080CD2544507DA052088F8010088F8CD
:203DD00000004FF0FF3058E0A41BA4B204E0089821460FF0C9FA04460B98A04281DBB8F890
:203DF00002000C9909F101090446B9F1020F0B91FFF675AF0D98B0F1FF3F14D00999A8F8A4
:203E1000025008890090C86801908A88CB8808680A9904F071FAB8F802500E98A8F80240FD
:203E3000401C80B20E901098C0B1089810990C2202AB13F0BAF90E9F02980F9EC5F58054D1
:203E500004210C22ADF80E4002ABADF81070401C02900A98ADF812600AF0A2FF0A980EF058
:203E70003DFE98F801000028ABD10898A8F802500AF0F0F8C5F5805528B211B0BDE8F08F00
:203E9000941500202DE9F0478046D8F800600C46171CADF1180D06F1480014BF00214FF04C
:203EB000FF3114F0E7F9002808BF0B2000F0DF80002565707048F460012F057004D0657021
:203ED0000220F46011F04EF92078012840F28F80801E012856D9801E01282BD9801E01288A
:203EF00000F2B98014F0E6F98146A078009021782846062908BF0120019001200290A068CB
:203F1000228A6368E16806F0B1FA8246484614F0CDF9BAF1000F40F0A08017B113F09AFAA7
:203F300002E0404612F007F9002800F0888011F0A1F821E014F0BEF9012381460093A1680A
:203F5000A27860682478AC46042C08BF9C46634608F0B4FA8246484614F0A8F9BAF1000F04
:203F70007BD117B113F076FA02E0404612F0E3F8002864D011F07EF83E49C1F8B0510D60E4
:203F900082466AE014F096F98146E08A0090E0680190208B0290A0780390207D0490012197
:203FB000059122782846022A08BF081CA368E178626801F0E9FA8246484614F077F9BAF1C5
:203FD000000F4AD117B113F045FA02E0404612F0B2F8002833D011F07DF85FEA000A3CD188
:203FF000E078A168E28A23690AF0B2F9C8E714F061F98146E08A0090E0680190208B0290CF
:20401000A0780390207D2946049001200590257805B9014608466268A368E17801F02CFC58
:204030008246484614F042F9BAF1000F15D117B113F010FA02E0404612F07DF808B9142092
:2040500015E011F02FF85FEA000A06D1E07821690EF090F994E74FF0FF3A012F02D0022089
:2040700011F068F806F1480014F000F9504606B0BDE8F08750450240542D00202DE9FF4757
:20409000754FDFF8D881764DF86808BB0EF098FD08B913F001FD11F07FFB012814BF00204A
:2040B0000120F8700BF0A6F9142804D1414601F1E000C1F8A40011F077FC05F114042168FB
:2040D00011B913F0E9FC2168096A07F110008847632002A90EF034FFDFF8889109F1B7004B
:2040F000007811F04BFC4146064601F1880491F89D20E089D1F8983002F03F0220F0070015
:2041100081F89D2040F0010CA1F896C043F00F00C1F89800B37A4FF0000A7BB99DF8083023
:2041300002F0C0023F3303F03F0313436375E38A4FF6C0721A4042F018020DE09DF80830A2
:2041500002F0C00203F03F0313436375E38A4FF6E0721A4042F02002E282317B052914BF75
:204170002321292188F89C10F27A317B491D51432A690A230CF0010C91FBF3F1C9044CEA27
:204190001141E181F17A1923890391FBF3F161F31C202061208B117D4FF6F77361F3020069
:2041B00003EA00012083107D00F008000843208399F9A6000EF0B8FCA8F8A200716833684B
:2041D0003089401EA8F88AA0414303EB51004FF47A71B0FBF1F0A8F8A800C8F88CA0607B62
:2041F00000F0F00040F00100607313F029FEA0B9F07A1D4A99F8B730B1FBF0F01070F07A89
:20421000022BB1FBF0F0C0B2B1FBF0F0787004D1164802214170A8260670F86848B9686972
:204230000668A969124807F110032246B047F8600EE050460BF0BEF968698668002102209A
:204250008DE80300F868524613462146B0472C600090BDE8FF87C046D01400206808002046
:2042700078110020E80C00202C1500201014002028280020754A2DE9F84F074621F00040A2
:20429000884682420AD9724981422DD955A20CCA4146384600F0AEFCBDE8F88F6D4A0FF2C5
:2042B0004C1982420AD8C0F3130057EA000601D1080815D238460B460246EBE74DA20CCA5F
:2042D000384609F0ACFB98BF0FF2301905D94DA20CCA384609F060FB06D85F49222008606A
:2042F00099E80300BDE8F88F48A696E80C004146384600F07FFC05464FF4002202EB053242
:20431000120D140596E80C0000F06FFC0B4602464146384600F069FC504B803505F0FF0534
:204330006A0003EBC20595E88001561C03EBC6030CCB00F05AFC4A4D89468246A542CCBF6A
:20435000484E494E4B4652464146384604F0D2F930A200900CCA8B464946504604F0CAF94E
:204370002EA20CCA00F046FC4B46524604F0C2F92CA20CCA00F03EFC36194B46524604F043
:20439000B9F92AA20CCA00F035FC4B46524604F0B1F928A20CCA00F02DFC024600980B46E7
:2043B000594604F0A7F90B4602464146384600F021FCA5420BDCB4F1804F05D10B4602465E
:2043D00000F018FC1DA207E03346002205E03346002204F08FF91BA20CCA04F08BF9BDE8DC
:2043F000F88FC046000000000000F03F000000000000000000000000000090400000000021
:204410000000F07F0000000000CC90C0000000000000B842745C870380D8553F0004F7883E
:20443000ABB2833FA6A004D7086BAC3F75C582FFBDBFCE3FEF39FAFE422EE63F00000000D5
:204450000000E07F0000000000007001000090400000903C0000F07F20160020D0820100C8
:20447000000030C00000707E0000F03F2DE9F0411C4615468C4208BF854282BF0023002239
:20449000E5E0002C08BF002D0AD100290EBF00286FF000006FF0000100F0E1F8BDE8F08190
:2044B0005FF000085FF0000E002C08BF8D429CBF2C1C0025070C47EA01470E0CB44208BF4B
:2044D000BD429EBF5FEA044444EA15445FEA0545070A47EA01670E0AB44208BFBD429EBFEA
:2044F0005FEA042444EA15645FEA0525470847EAC1774E08B44208BFBD4200F293808708C3
:2045100047EA81778E08B44208BFBD427CD8C70847EA4177CE08B44208BFBD4266D8070924
:2045300047EA01770E09B44208BFBD4250D8470947EAC1674E09B44208BFBD423AD8870969
:2045500047EA81678E09B44208BFBD4224D8C70947EA4167CE09B44208BFBD420DD8E601DB
:2045700046EA5566EF01B14208BFB84201D3C01BB14158EB08085EEB0E0EA60146EA956671
:204590004FEA8517B14208BFB84201D3C01BB14158EB08084EEB0E0E660146EAD5666F01F7
:2045B000B14208BFB84201D3C01BB14158EB08084EEB0E0E260146EA15762F01B14208BF22
:2045D000B84201D3C01BB14158EB08085EEB0E0EE60046EA5576EF00B14208BFB84201D320
:2045F000C01BB14158EB08084EEB0E0EA60046EA9576AF00B14208BFB84201D3C01BB14151
:2046100058EB08084EEB0E0E660046EAD5766F00B14208BFB84201D3C01BB14158EB0808EA
:204630005EEB0E0EA14208BFA84201D3401BA14158EB08085EEB0E0EA34208BFAA423EBF13
:204650002D0A45EA0465240A89D3734642461E4617460B46024631463846BDE8F081704794
:204670002DE9F843814613F0A9FB002700B90127714E394630680028FCD0724D01242D1D6B
:20469000EF6A346009B113F09FFBDFF8B081C7F3072008F1BC01086013F090FB002700B951
:2046B0002746394630680028FCD02F68346009B113F08AFBC7F38440C8F8C00013F07EFB8B
:2046D000002700B92746394630680028FCD0ED69346009B113F078FBC5F38120C8F8D0006F
:2046F000B9F5C061C8F8B81000F0A08098F8D80068B9C8F8D410D8F8C000C8F8C800D8F82E
:20471000BC70C8F8C470D8F8D060C8F8CC60D8F8D410D8F8BC30002954BF02206FF001004F
:20473000454605F1C802176801EB41014018411000EB917107EBA1001060D5F8C810C5F876
:20475000C43000291CDD1E293DDDD5F8CC0030B93429B4BF15391E21C5F8C81025E02A2906
:20477000BABFD5F8C8000B381E20C5F8C800D5F8C4003F28B4BF401C3F20C5F8C4001FE06F
:20479000D5F8CC00032812D011F10B0FC6BFD5F8C8000B30201CC5F8C800D5F8C400002878
:2047B000CCBF401E0020C5F8C400032009E011F1150FC6BFD5F8C8001530201CC5F8C8000D
:2047D0000020C5F8CC004FF08058D8F8A40146681B4FB5F8C40030214FF47F4208230090FB
:2047F0003846B047D8F8A40104214FF400321123466800943846B047D8F8A401B5F8C860F0
:20481000446804214FF4F802122338460096A047D8F8A401B5F8CC60446820214FF440622A
:204830000A2338460096A047BDE8F883002088F8D800BDE8F883C04600800C40D40A0020B8
:2048500000A00C4000A00C402DE9F041724B734ADFF8C0810C46D128014610DCD12879D0D7
:20487000713800F0B280401E00F0AA80401E00F0A380113810D04C3800F0878007E0D238DF
:2048900053D0401E40D0401E33D0401E28D0084613F07FF80B2802D1F420BDE8F0815B4D20
:2048B00005EB8005A97809B9E87850B1E878884208BFFB2000F0A880227891426ADC904286
:2048D00068DB534E7068804729786A78074640464018214612F072FEB1683846884792E0E6
:2048F0002178022956DA1846641C042200EB810086E0207832284DDA1746C100241D18222C
:2049100001EB001178187BE026783046022841DA2C2505FB0680611C1022393012F04EFE09
:20493000616905FB0680C1646DE021786278022930DA022A2EDA40462C23571C02EB41064D
:2049500003FB0105022285F8387000EB460000F5DE7018E022786178022A1BDA322919DAAC
:204970002C23404603FB020595F830309942A4BF4B1C85F83030322303FB021101EB41014A
:20499000032240189030A41C3AE020786778022800DA17B1E820BDE8F08141462C22C519DC
:2049B0007E1C02FB00136A0083F8286002EBC50288180A227C30E6E72CB3184608221FE071
:2049D0000CB310464FF496621AE0B4B9404600F17C04A0F1080200F1900300F5DE71022094
:2049F00042F82C4F9360401E116104F10A0403F1960301F10401F3D105E0404658222430AB
:204A1000214612F0DBFD0020BDE8F081D0920100D40F0020F01C002064230020B41E0020E4
:204A30002DE9F043894614460546ADF12C0D06A90FF006FF5FEA000800F0C480AD1C0226A9
:204A5000284608A90DF02BFB071C00F0BB809DF82100814509D0F6197D1908F10200B61CEF
:204A7000AD1CB6B2B042EBDCACE0401E05F1020500F08B80401E52D0801E38D0401E2BD0DB
:204A9000401E24D0401E18BF622040F0AB80202F40F0988028686F6805F10801206004F130
:204AB0000806676001F108050A684B68326004F1100773602A6868683A6005F108067860A4
:204AD000306804F11801086073684B6089E0022F78D12888208084E0202F73DC2046002176
:204AF000202209F0E9FD3A462046294677E0042F68D12888AD1C208015F8010BA07028788B
:204B100000F00100E0702878C0F3400020712878C0F38000607128784011A07161E00A2F00
:204B300050DD0DF102000021162209F0C5FD28682D1D20602988271D42F20B00398069462E
:204B50000DF078FBBDF80000A18888423ADCA81C10F8011BA17110F8011BE17110F8011B83
:204B7000217210F8011B0123C1F3C202A2720DF1020200F0C7FD28B39DF81700A0819DF8CB
:204B90000670E78104F1100026E0042F1ADD0DF102000021162209F08FFD15F8010B20706B
:204BB00015F8010B607015F8010BA07015F8011B0DF102020023C1F3C2002071284600F020
:204BD000A1FD08B967200DE09DF81700E0809DF80670278104F10A000DF10601112207F005
:204BF0008DFF00200BB0BDE8F0832DE9FC4F83F0004301E02DE9FC4F1F03FF0847EAD2574A
:204C10004FEA42284FEA43095FEA595906D147EA080A1CBF00210020BDE8FC8F57F000575D
:204C30005FF4E06E1EF1FF0EF14505D14FF00000190D0905BDE8FC8F002B05D55FF0000A9A
:204C5000D8F100086AEB07070C03E40844EAD0544FEA40254FEA4106760D08D144EA050A0C
:204C700019BF00210020191C101CBDE8FC8F44F00054764504D10020090D0905BDE8FC8FEE
:204C9000002904D55FF0000A6D426AEB0404B6EB090E08D5A2463C465746AA464546D04670
:204CB000CEF1000E4E46BEF1360F5CBF4FF0000B23E0BEF1000F04BF4FF0000B1AE0CEF1A3
:204CD000390ABAF120092EBF08FA09FB07FA0AFB4BEA080BDEF1200A07FA0AFA38BFBA4677
:204CF00047FA0EF72DBF28FA0EF8AEF1200E4AFA0EF8D04415EB08057C4154EA050A02BF47
:204D100000210020BDE8FC8F002C58BF4FF0000A06D55FF0010A5FF0000E6D426EEB0404E4
:204D3000A6F101066D006441FAD515F4806E11D005F480794BEA090B15F5806554F1000499
:204D500028BF761C0BD205F400795BEA090B08BF25F4006525F4E0656D0044EB0404B61C09
:204D7000DEBF00210020BDE8FC8F5FF4E06E1EF1FF0E76450AD34FF0000013F00043FF211B
:204D9000C900C91D09051943BDE8FC8F270547EA1530210B41EA065141EACA71BDE8FC8FD4
:204DB0002DE9F04FADF1840D209002F01DFC0EF0EBF80026012804D112F0A4FA022808BF0E
:204DD00001265B490868C0F38150012806D151F80C0C0127010E07FA01F00643554800781C
:204DF00011F0A8FA544D2C46286038B1FF2204F1400107467F1E01F8012BFBD12099096820
:204E10004FF0000901F0FF02FE2A1DD0DDF880C001F0FF074A460123FF2F0ED0B84203D991
:204E300003FA07F73E4201D002207EE001F0FF0147EA0909611881F840205CF8041F521C2B
:204E500001F0FF07FE2FE7D1092006F0B5F92098002124220823606001A813F003FA4FF0A7
:204E7000010804F1240001AA8DF81C80414613F0F5F9236843B3002794354FF0040BBA46FD
:204E900008FA07F0064219D119EA000F04BF07F0FF0141F4C04105D0E019209B90F8401074
:204EB00053F82110254804F0DBFDF8B24FF0FF3111F0DAFF2368C5F800A001E0C5F800B004
:204ED0007F1C2D1D9F42DBD30AA800213022082313F0C0F91A4E3078002510210AAB129085
:204EF000184A009504F1080013F0B0F916A828220823294613F0A6F916AA706812491D9519
:204F10002B461C9004F1600013F098F90F4951F80D0C474620F4F85040F4005041F80D0C02
:204F30000B4EC1F8FF7F2846376021B0BDE8F08FB43F0050532D002070250020007FC76792
:204F500044A40100956E0100BD3301000D300940080009402DE9F843634C5C4D5C4EDFF862
:204F70007881604F94F8E4100846401E0B2864D8DFE800F07E2C430623430623430679677C
:204F9000042907D001220A2945F8212C14BF0220032004E0202045F8210C0120024684F892
:204FB000E200002045F8390C0827C5F8FF7FC5F8F37F45F8392CBDE8F883052914BF0920D8
:204FD0000620002784F8E400376078E094F8E170383D0120002FC5F81B0004BF06200021A1
:204FF00002D00021F160032084F8E400032045F8010C31603068800861D294F8E41035488C
:20501000012703290ED00068456800216022052300914046A84794F8E400062814BF0A20CD
:205030000720CFE700684568002160220523022000904046A8470420C4E713F0FBF8BDE812
:20505000F8832648264F0026012506600E203D6005F0D6FC022010F06DF884F8E45084F8EB
:20507000E360BDE8F883002038600C25786024E04FF08059D9F8A0010168202088472C3D8D
:205090000F2045F8010C41F61D56C5F80360D9F8A401466800214FF4C0720723022540462C
:2050B0000095B047D9F8A401C66800214FF4C07207234046B0470120386084F8E45004F115
:2050D000780013F0EBF8BDE8F883C04639400C4038600C40A401001000A00C402C500C402A
:2050F00004800C4034600C40D40A00202DE9F84F994692468B46064613F0DCF8594C0090B5
:20511000B4F93610B4F934000AAF401A40F6F8710140082980F29280B4F93400401C6FF364
:205130001F30A086B4F9348011F016F9054606F1700011F021FDC5F808B085F826A0C5F833
:205150000490A5F82480EE6097E80C0049A003C800271940104005F1100383E8030004F1A1
:20517000240085F827700368002B5AD129460FF023FD00285BD0A6F8B88095F8270040F08B
:20519000800085F8270086F8BA70E07920B1207810B1E77101202072009813F087F8A06A81
:2051B00000285BD12078002834D16079012855D013F080F80646A07940BBA8680EF0E4F9D9
:2051D0002A49294AE36809681060B0B1DD681068401BB0FBF1F0012898BF012104D9DB68E6
:2051F0001068C01AB0FBF1F1A434204613F05AF8204613F053F830462EE0304613F056F82E
:2052100004F1F800042112F02DFA27E0184901200870F0E7012011F06DFE192012F0FCFCAB
:205230001CE004F1240029460FF0C6FC48B9B4F9340000F6FF706FF31F30A0866FF0010893
:2052500009E0A6F8B88095F8270040F0800085F8270086F8BA70009813F028F84046BDE8E9
:20527000F88FC046C8050020482D002074A40100452D0020F1EFFF9F200000002DE9F04F71
:205290000746880FADF1140DC0F0AE8000200BF00DFA594D4FF000081C35C5F80080544844
:2052B00045F81C0C012011F007FB544812F056FD5348BC6890F8442040F60A06C34600F179
:2052D000380189468246A0F83A8090F845300E8002F0F002C0F83CB003F0F00180F84420C9
:2052F00041F00101A4F802809AF8032080F84510012A01D17B7CABB1B96809883046083813
:20531000884205D0218B4FF60F400840208304E0218A4FF60F4008402082B86887F8118076
:2053300004F0E6FCB868694604F092FE684612F0F3FB241D31463346C91F0A46521C00E0DF
:20535000341D266836B13088834203D0814218BF8242F5D1C4F80090607A00F0F00060722B
:205370000AF1240012F0ACFE8068008881421FD082421DD007F120000688CEB197F82C108F
:2053900097F82D60C7F824B001F0F00187F82C1006F0F00141F0010187F82D10CAF83C00DD
:2053B00099F80D00A7F8228000F0F00089F80D0028680028FCD0C5F80080012010F002FAB2
:2053D000012808D0607A00F0F00040F001006072084812F0C3FCB9680A8A4FF6FF30104075
:2053F0000882B86845F81C0C05B0BDE8F08FC04601010E041D150100001004407D1A00007D
:20541000C80500202DE9FE4F0CAF8A4699460446D7F804B00192594602F04CF806465748A2
:2054300000F138010D78002E00F0A3803988F182804634751DB1012C04BF1520307506F13A
:20545000800059460B2212F0B9F8012C04D00D2C1CBF7068401C00D170683062002598F804
:20547000380035650028B56543D0DFF818B1052C18BF012C38D14FF0040AF18A86F86BA0C6
:205490003F4886F86950C90938BF29380078019986F86A0006F16C0012F0FCFD0BEB84073B
:2054B000386810F47F0F0CD086F82CA0386806F12C01012200F47F003063304602F098FE99
:2054D000386810F0FF0F4FF0030A0BD02A2086F83C00386806F13C0100F0FF003064304616
:2054F00005F056FB98F8380018B1D8F898100D2C13D00095019A4B4630465146FDF764F912
:20551000071C37D1E41F012C03D8707E40F020007076304608F098FF2CE005205C4686F8CB
:205530006B00343409B1FF208847206810F0F70F12D02A2086F83C0098F80120206806F13C
:205550003C01012A00F0FF0030641CBF20F008003064304605F01CFB0095019A4B46304610
:205570000321FDF731F9071C04D130460BF06CFD00E01A27F8B2BDE8FE8FC046340F0020A1
:205590009A0D0020B4A001002DE9F04F8A4609AF4FF08051ADF11C0D90463D69049001F525
:2055B000D8700690D1F8B001D7F808B04169059327208847524C4FF00309143CC4F8849794
:2055D0000126C4F87C67C4F880970220C4F8FC06F868C4F80804304612F02CFDD4F80804A1
:2055F0000008F8D2D4F88C07800F28BFB14655D2681E41460C238DF800000DF1010011F80D
:20561000012B5B1E00F8012BF9D1022D19BF0020011C98F80C1000208DF80D108DF80E00A2
:205630008DF80F000099C4F83C15019BC4F84035029AC4F84425039BC4F848353968BAF16F
:20565000020F4FEAC542A1EB0A08A2F5002106D34FEA4A52A2F580026FF315021143264A8F
:205670000A43C4F84C258246C4F85085BBF1000FC4F854A5214DC4F858B511D02E60786851
:205690002060C4F808B0304612F0D4FCD4F88C078008F8D3D4F88C07000801D3CA4627E0BA
:2056B000C4F88497D4F88C0710F0030FFAD1D4F8800720F00200C4F880073F7D47B1069FC6
:2056D0003868016A272088473868016927208847C4F87C670498C4F8806748B12E60059877
:2056F0002060C4F80880C5F800642062C4F82880504607B0BDE8F08FC801042000004842E7
:20571000184002402DE9F04F154601F00709C1F3C2074FEAA11804468346ADF1140D0C22BF
:20573000002102A808F0C8FF5248B9F1000F36D0B9F1010F5FD1228803A9A6780A80E41C8E
:205750008E7014F8011B01F00F018DF8101022880DF112031A80BDF81230A41C4FF0000C14
:205770006B75039ECDF800C04168B14207D1017A9DF81020914202D14189994208D00099A3
:205790000C30491C06290091EED96046614601E0017840788DF808108DF8090022E014F839
:2057B000016B14F8013B8DF8086000228DF809300C38019210F80C1FB14202D141789942F4
:2057D00007D00199491C06290191F3D91046014603E04168027A4089687503918DF81020C2
:2057F000ADF81200484602A90DF0BAF818B1EF701FB1022F05D0002039E02188281DA41C15
:205810000180B8F1010F27D0B8F1020F2CD1BDF81210281DC91DCA10214607F06FF9BDF839
:205830001200C11D04EBE104F0B1401E811000EB5171C910C9B26D182B798710012600EB31
:20585000577121F00701401AC0B2401C06FA00F0FF301840287107E0291D20460CF0F6FB9F
:20587000207804EB8004641CA4EB0B04A0B205B0BDE8F08F1C1100202DE9F04F8A4609AF9A
:205890004FF08051ADF1240D9346049038683D69069001F5D8700790D1F8B001BE684169B1
:2058B000059327208847504C4FF00309143CC4F884974FF00108C4F87C87C4F88097022020
:2058D000C4F8FC06F868C4F80804404612F0B2FBD4F808040008F8D2D4F88C07800F28BF1E
:2058F000C14651D2681E59460C238DF800000DF1010011F8012B5B1E00F8012BF9D1022DCB
:2059100019BF0020011C9BF80C1000208DF80D10019B8DF80E0000998DF80F00029AC4F83D
:205930003C15BAF1020FC4F84035039BC4F844254FEAC542C4F84835A2F5002106D34FEA13
:205950004A52A2F580026FF315021143244A069D0A43C4F84C258246C4F85055C4F854A54C
:20597000204DC4F858658EB1C5F8008078682060A660404612F05EFBD4F88C078008F8D3BC
:20599000D4F88C07000801D3CA4625E0C4F88497D4F88C0710F0030FFAD1D4F8800720F031
:2059B0000200C4F880073F7D47B1079F3868016A2720884738680169272088470498C4F89F
:2059D000808748B1C5F8008005982060C5F800842062069FA760A762504609B0BDE8F08F72
:2059F000CC01042000004842184002402DE9F84F574C804604F12409484612F061FB164652
:205A10000D46074612F056FC06F0010A8346B5F1FF3F1DD1A06A38B1A06AC068804504BF39
:205A3000A06AB0F9245010D0B4F93600401C05B228460FF077FF10B1C068804505D0B4F946
:205A500034006D1C2DB28542F2DD002084F8A30028460FF067FF8425002873D0A16A814210
:205A700058D0B84216D104F1A40011F085F8606A0068606297F82700394640F0040087F81A
:205A9000270009F10C000FF097F8B00820D3676A012219E00FB9FDB11BE03968884237D1BF
:205AB00004F1A40011F068F839680868386091F8270040F0040081F8270009F10C000FF0AA
:205AD0007BF8B00804D30022404639460AF03AF80025584612F0EAFB6179607A01B188B118
:205AF000A179012931D001282FD02669194812F035F9022104F1F80011F0B4FD304612F0CF
:205B10002DF922E004F1F800022111F0ABFD1CE03F68BFE790F82720012505FA0AF1BAF1B1
:205B3000000F41EA020180F8271014BF0A480B4810F0D2FEB00804D3616A40462A460AF0D7
:205B500001F80025584612F0B1FB2846BDE8F88FC80500207D1A00000100020401000104A0
:205B70002DE9F041504C0746207808B111F094FFA04601204D4988F800000978012902D066
:205B900000210CF0D7FD4A4D4A48504C012F2A680078277034D9BF1E51D07F1E13D07F1E46
:205BB00002D0781E46D042E092F86900A07092F86A0060700020E07007F06AF92A68002AE8
:205BD00040D1BDE8F08100283CD0414ED6F8981021B1032088472A6896F83800002831D010
:205BF000776D002F2ED0D06D20B102210023B8472A68776D106E28B308210023B84720E017
:205C10000020A070D18A2C48C90934BF90F8891090F8B2106170277837B990F867701FB1B6
:205C30000229C4BF0220607007F032F909E011F033FF06E00020A07012F05EFA01E00AF02B
:205C500099FD2A681D48007878B912B911F024FF2A685168087800F02000607188782071D2
:205C70000878800901D212F0FDF82078042819D0134D28688047217802290CD01149097862
:205C900011B91149097831B1022188F8001069688847BDE8F081832188F800106968884730
:205CB00011F04EFABDE8F0815A2D002034160020A40900206C0F0020E80C0020522D002049
:205CD000D80F0020562D0020582D002012140020340F00202DE9F043054695F830400F46D6
:205CF00098469146ADF12C0D8B2001A900F0D4FE8A200DF1060100F0CFFE95F825000028AB
:205D10003BD1D4B9BDF804104FF6FE70884206DCBDF8041088422ED10DF1060113E0B5F87B
:205D300044009DF804608DF8180000128DF81900BDF804008DF81A6019E0022C08D0032CE3
:205D500019D105F1280106A812F0A4F9092612E0287CC00934BFB5F84200B5F844008DF8F7
:205D7000180000128DF81900288D8DF81A00001205268DF81B00002013E002280CBF0526E7
:205D90000926012818BF05F11C0104D1892004A900F082FE04A9324606A811F00FFC95F8AA
:205DB000260006EB0D01C8753A4606A8314608F089FB002841D1D4B9BDF804104FF6FE700D
:205DD000884206DCBDF8041088422ED10DF1060113E0B5F844009DF804608DF824000012D8
:205DF0008DF82500BDF804008DF8266019E0022C08D0032C19D105F1280109A812F04AF9F8
:205E1000082212E0287CC00934BFB5F84200B5F844008DF8240000128DF82500288D8DF877
:205E3000260000128DF827000422CDF80080386809A94B4607F036FE08B1F32000E0002029
:205E50000BB0BDE8F08370472DE9FE43584D594C0E46B0094DD3554800F12809804641E034
:205E70000178D02908DA04F1080738600DF040F938460DF037FF3FE010F0B6FA3CE0884781
:205E900098F83010491E88F8301069688847009801788DF80410A0604778CFB1DC2F0DD08A
:205EB000DD2F0BD0E42F09D0F32F07D0DE2F05D0DF2F03D0E82F18BFDB2F0BD103F084FFF9
:205ED0009DF80400162805D168460DF00BFF01E00DF00EF99DF80400162803D004F10800C4
:205EF0000DF000FF48460EF0E9FB002829680090C5D1F00BC00304D009F004FC0028009004
:205F1000AED1700905D32E208DF8040001A80DF0EFF8700805D325208DF8040001A80DF079
:205F3000E7F8B00805D326208DF8040001A80DF0DFF8F00805D327208DF8040001A80DF050
:205F5000D7F8300905D329208DF8040001A80DF0CFF8F00908D300208DF805002D278DF8BB
:205F7000047001A80DF0C4F8300A08D300208DF8050030278DF8047001A80DF0B9F860680D
:205F9000296878B18847616800270091696867608847009804F1080630600DF0A9F8304641
:205FB0000DF0A0FE0020BDE8FE83C046A4090020D80F00205C1000202DE9F843574D8046CF
:205FD00095F83800002798B12A6F8AB1D5F8900070B142F21A0069469047D5F89000804732
:205FF00030B19DF8000018B1B8F1E10F08BF01274C4A02F1B70000780FF0C0FC407B022872
:206010000CBF05260126464C2068002800F08480B8F1000F914667D0B8F11B0F02D1017D33
:20603000052961D1B8F1E90F15D0A7B9B8F1E10F08D111F0C1FB20B12068C18AC90801D293
:2060500016E02068216AB8F11C0F21D1884700202060BDE8F883F12011F0C1F82768B87E42
:20607000C0B911F0A9FB90B12068C18AC9080FD299F89810817699F886104A1C89F8862048
:20609000406881703046FFF76BFDBDE8F883206847462AE07868398907F092FE78680088B3
:2060B000000905D395F8380010B10EF03FF82768F88AC00811D3387E00F07F003876387DEF
:2060D000032803D1787E40F004007876F02011F086F8E168206888470AE0B87E401EB876BE
:2060F00010F0DAFCBDE8F8830027477009F060FD2068C08A000A0AD395F8380018B999F886
:20611000A7000CF067FB99F9A60011F0B9FB00202060102011F060FDBDE8F883340F0020CC
:20613000A4090020E80C00202DE9F04111F002F9DFF84C81514E0546A80824D33446A16A71
:2061500009B300200F698A69A06205EA0700104340F002008861404600F108030F691A6806
:20617000BA4301F110071A6097E80C0002681B1C9A43026004F130000EF01EFD04F1F800F9
:20619000022111F06FFAB06AA908344616D200F1100292E8C00000212E400F40002F08BF24
:2061B000002E0BD0016987690D40E0623D434FF48041856104F1F80011F054FAA06A002805
:2061D00059D104F12406304611F07AFF071C52D0E068F968884248D1B8680DF0D5F9294D44
:2061F000286010B301200DF003F9002843D1E068703010F0C1FC2448E2682F680168D36858
:20621000F81AB0FBF1F0012898BF012104D9D2682868801AB0FBF1F1A434204612F042F8E6
:20623000204612F03BF8BDE8F081404600F108023969136819431160036807F1100595E83D
:206250000600111C1943016000250561B96840F80C1C414601F1100000680028FAD03046D9
:2062700011F039FAA762BDE8F08104F1F8004FF4806111F0F7F9BDE8F081C046C8050020B0
:206290000C100440482D002074A401002DE9F8438E464D498446012008704C480024047096
:2062B0004B48DFF8308104704B4800F14E052D8800271F408946002F4FF0020101EA0201FF
:2062D00008BF002915D148A090E8C000164007EA0300002808BF002E03D11D2007F018FB36
:2062F00054E0454695F90000401E287011F036F94CE0414691F90020394F43F2084306466A
:20631000AB42A2F101020A7008D0708E1A46921CAA4203D0834218BF824218D138460830CE
:206330000068826C714660469047008843F6030181420BD0204601F0CDFD98F90000002886
:2063500039D098F90000002832DD38E0708EB6F86A2043F60401914218BF814203D11F4828
:20637000007803281AD1B2F5505F05D0100B0BD31D2007F0CDFA07E01A480168384601F53A
:20639000C071016011F080FD11F0B8F898F9000088B198F9000000280ADD10E0204601F07B
:2063B00099FD98F9000030B198F90000002806DC11F072FB03E0204601460CF0BBF989F8FB
:2063D0000040BDE8F883C04634160020141600201316002015160020680800201214002029
:2063F000841100200C01002100000000000000702DE9F041554C2079ADF1400D032818BFCC
:20641000607140F09E8000256571A84601A824220823294684F8048011F024FF032001A9EA
:206430008DF81C002A46012011F000FF1D27A0602E46A5700AAB38464146042210F0B5FEBA
:206450009DF82810E378A52907D19DF82900FE2803DC9DF82B20962A09D0242902D0B72923
:2064700018D11FE03E46EBB99DF8290019E0B5B1984203DAFE2B18BF01280BD1984203DD69
:20649000012B08BFFE2805D0284607F0E3FD9DF8290004E0384607F0DDFDA57802E03D4646
:2064B000A570E0707F1C1E2FC4DD8DB926B91D200CF014FB042015E0A67030464FF48051B8
:2064D0000CF052FFE08041463046FDF7DDFB0AE01EB1304607F0BEFDA57828464FF48051B6
:2064F0000CF042FFE0800AAF174D00970EA82968AE8801600EAB868093E8030042460C2369
:2065100008F08CF9E6880A2809D1384641460C2208F0D2F840F6EF70801BADF82E00BDF8C7
:206530002C000EAF401CADF82C002968AE8839600EABBE8093E803000C220AAB07F01CF971
:20655000607910B0BDE8F0815AA40100941500202DE9FC41534C002706461A3C6776707D2F
:206570000628A4BFE8216176B17D0E2903DD03281CBFE8216176032805D14748008840080F
:206590003CBFE820607696F8280008B1E8206076F07D092801DB0A2801DDE8206076307EAF
:2065B00008B1042801DBE820607604F11805314628460FF02CFB311D112205F12C0006F076
:2065D0009DFA96F8280004F11808002804BF84F86070B07D04D096F8290084F86000708D81
:2065F000A4F85600707E84F85800B07E84F85900F07E2A4D84F85A00307F822784F85B00EA
:2066100095F8A73084F85C7095F8B62084F85D30234B95F8B710E36308F1490084F85E200E
:20663000042784F840700B2284F85F1006F11D0110F0C4FF607E38BB707828BB307EA37E98
:206650008DF800000BB1EA20607606F11701E72000F0B6FC94F8600020B1307E11F0BFFC2A
:206670008DF8000095F8B7009DF80010884203D0E820694600F0A4FC09F01CFE27203070BE
:20669000384610F0E9F901E02A20307030460CF02FFDBDE8FC81C04668100020E80C00204D
:2066B000E97B0100CA2B002070B542F20400ADF1180D0DF101010BF0BDFD42F20500694693
:2066D0000BF0B8FD4B4C46489DF801105B3CA0666420414321664349C4F884109DF8001082
:2066F0004843E0674048C4F8A0004048007880B942F2020001A90BF09DFD01A80FF09CFFE3
:2067100004F15C000BF0FEFA04F134000BF042FD20E042F2030001A90BF08CFD01A80FF0B5
:206730007BFF04F178000BF0EDFA04F134000BF069FA012542F2020001A984F854500BF0D8
:2067500079FD01A80FF078FF04F15C000BF0DAFA84F85850E8200DF102010CF0F1FB9DF8CA
:206770000200032804BF012084F8B40094F8B800002833D10FF088FA42F21B000DF1030186
:206790000BF058FD1A4D9DF803000DF1030185F82C0042F21C000BF04DFD9DF803109DF81D
:2067B000030085F82D1095F82C10012641B1480111F098FC286308B911F076FC95F82D00D3
:2067D00040B100EB800080B211F08CFC686308B911F06AFC0AF088FA84F8B86006B070BDAC
:2067F000BD290100B9C6000015800100350F0020A4290020432900202DE9F84F884605463A
:2068100010F08AFA4FF6FF71814208BF682000F09180494C410001EBC0002418D4F8027020
:2068300017B9D4F8066006B3D4F80610B94208BF69207FD06078401E11D0401E08D0801E26
:2068500013D1D8F8000087426ED881426CD30CE0B8F80000874267D8814265D305E098F84F
:206870000000874260D881425ED3344E30688047DFF8CC9042F2020A8346A5EB0A00012833
:2068900016D911382CD1207862784F460021381807F012FF6378404611F02EF8834298BF8F
:2068B000181C02D9404611F027F80246384619E00FF02EFC0746404639460AF093FF76686F
:2068D0003F1AFFB277B3207862784146484406F015F91C485146A94218BF401C077007E074
:2068F0004846627821784018414606F007F9766850461930A84204BF002089F8870050468A
:206910001A30A84213D199F8870099F886104218322A01DC08430AD1022089F886003027D7
:2069300089F887705846B0476A20BDE8F88F5846B0470020BDE8F88F009A0100D80F002001
:20695000302A0020422900202DE9F0430446080BADF1140DC0F08E804C4D48494FF000088E
:2069700001260C3D424685F8008005F14C006E7211F093FB424811F0F1F9E86841680831BA
:206990000868A94608B9486838B14148414F41461C38C16107F150010160304609F086FE7B
:2069B000384DC5F80080384845F81C0CA168A1F80280A268128840F60200904205D00B8BE3
:2069D0004FF60F421A400A8304E00B8A4FF60F421A400A82083002466674091DD21F13466B
:2069F0005B1C00E0391D0F6837B13E88B04203D0B24218BFB342F5D146460E60487A00F0BE
:206A1000F00040F00100487209F1240011F058FB8068008882421BD0834219D004F1200037
:206A30000788AFB194F82C20A4F8228094F82D70666202F0F00284F82C2007F0F00242F089
:206A5000010284F82D200860487A00F0F0004872A068694603F0FCFA684611F05DF8A068EA
:206A700003F046F928680028FCD0C5F80080A06845F81C0C05B0BDE8F083C046C96F01009A
:206A90007D1A00001C10044001010E04D40500201C100440010007062DE9F0410C46014674
:206AB0007138022840F29080133824D04A4F4C3876D0401E5FD0401E48D0401E36D0401E4A
:206AD00029D0401E1AD0084610F063FF06460B2E11D03F4D686880473E498046B000425C91
:206AF000BF18401842783946204610F067FDA968404688470CE0F420BDE8F0812278022A12
:206B100062DA3649601C01EB8201042210F056FD0020BDE8F0812178322955DA304FCA00A4
:206B3000201D02EB0112B9181822EFE72678022E4ADA2C25601C05FB06711022393110F055
:206B50003DFD05FB0670C06C6061E1E72378022B3ADA62782C2000FB037090F838009042BE
:206B700032DD394602EB430201EB4201022201F5DE71A01CCAE72078022825DA62782C2158
:206B900001FB007191F8301091421DDD3223394603FB002000EB4000032209189031E8E7EF
:206BB0002078022810DA62782C2101FB007191F82810914208DD80183946420002EBC00204
:206BD00089180A227C31D4E7E820BDE8F081C046D40F0020D0920100F01C00206423002013
:206BF000B41E00202DE9F84F6FF05200464D8DF80000286808B910F04FFF494CA4F14C0058
:206C1000DFF80891DFF808B1DFF808A1DFF808810778B7B94D462868804702465846077846
:206C30004FB950466968077837B98323404603701046884750E0696802234046037010462D
:206C500056E0843CD4F8981009B104208847676D2A685FB1D06D20B102210023B8472A68B2
:206C7000676D106E10B108210023B8472D482E4E1C3000680C3E016CF06888474D46074643
:206C90002868804781465846007840BB5046007828BBD4F8841000208847F42069460CF0B6
:206CB0004FF99DF90000214CB84209DC2046C01C007828B96968484688470DF055FA18E08D
:206CD0008321404601700EF055FB6968484688472046801D0078307010F032FA09E002213A
:206CF00040460170696848468847D4F88410042088470A480078012803D0002001460BF0E4
