:20000000004B0020F1610100FDC90110FDC90110FDC90110FDC90110FDC90110FDC9011018
:1C002000FDC90110FDC90110FDC90110FDC90110FDC90110FDC901103BCA0110A4
:20003C00FFFFFFFFFFFFFFFF9A100000000000000000000000000000000000000000000002
:20005C000000000000000000000000000000FAFA1400000000000000000000010000010179
:20007C00000000000000000000000000000000000000000000000000000000000000000064
:20009C00000000000000000000000000000000000000000000000000000000000000000044
:2000BC000000007800080230000800000000000000000804FA000000FFFFFF000C1100004A
:2000DC000000000000001D1100000000000000002E010F000000FA0000002F01000000006E
:2000FC00FA000000300100000000FF000000310100000000FF000000320100000000030053
:20011C0000003301000000000300000034010000000001000000350200000000FFFF000021
:20013C00370200000000FF000000390200000000FF0000003B0200000000FFFF00003D01B8
:20015C0000000000FF0000003E0100000000010000003F01000000000100000040010000C2
:20017C0000000700000041200000000000000000610200000000FFFF00006308000000002F
:20019C00000000006B080000000000000000730800000000000000007B08000000000000D2
:2001BC000000830205000000580200008501000000001000000086010000000032000000F0
:2001DC0087010000000032000000000038C40D00C80000008100000032000F0100C50D00E3
:2001FC00900100004000000096000501952B0D00C80000002200000032000F023600010045
:20021C000600000000000000000F000000000000000000000000000000000300FFFF0000AC
:20023C000403FFFF0000FFFF0F00E8030005401F0310000100000000FF3F0F0008000E00CA
:20025C0000000000000000000300010F000009010000000000000000000000000000000065
:20027C0000000000000000000000000000000000000000000000000000000000AD000000B5
:20029C000001363601010001020100010301000104010606080400000C0100340D01000F4E
:2002BC0010040101140100FF1608000020020000220100FF23010001240100FE2501000820
:2002DC002602000028010001290100012A0200002C01000F2E020000300100013101000881
:2002FC00320200FF3401000735010240360100003701000138010001390100FF3A01000FCE
:20031C003C0200FF3E01010F3F0100014001041F41010001420100FF4301008044080000FB
:20033C004E0100084F01000F50010001510100FF5201090A53010187540100015804000054
:20035C005C0400006004000064040000680400006C04000070040000740400007804000011
:20037C007C040000800100FF81010001000120181A18182C34041E000C0E020B040B0A0792
:20039C000800110F00000500B900B300AD00B8001C00300038000800340102000304710404
:2003BC0002046004110470040204020401040204000410046104000414046304730472042A
:2003DC0062044304000413040604000400040404120400040004000400045104640000043C
:2003FC0000040004440400040004000400046504000435048104640005040004830400045A
:20041C006604000400040804090401017101010101011101010131010101010180010001F1
:20043C00100161013B001400630173017201620143010001130106013D0135000401120145
:20045C00000100010001000104010401330133013C014401320136000001000165010001B6
:20047C00350081010001050182018301000166010001000108010901030271023001600213
:20049C001102700201020202020280020002100261023A0041006302730272026202430245
:2004BC000002130238000002000204021202000200020002000204020402370037003C02F3
:2004DC004402000239000002000265020002350281020002050282028302000266020002DA
:2004FC00000208020902000000CD47010000C518010002273A0000008B9A010001273A00EB
:20051C0000008B9A01000335FA0000008B9A0100041D9A0100008B9A010001119A010001B1
:20053C000B9A0100018B9A0100018B9A0100018B9A01000045690100018B9A0100018B9A88
:20055C000100018B9A0100018B9A010002119A0100020B9A0100028B9A0100004569010003
:20057C00028B9A0100028B9A01000271540100028B9A010004B3590000008B9A01000311D5
:20059C009A0100030B9A010003273A000003273A0000038B9A01000335FA0000038B9A01AF
:2005BC00000045690100038B9A0100038B9A010004119A0100040B9A010004273A0000045B
:2005DC00273A000004273A000004B3590000048B9A0100048B9A010004179A010000456971
:2005FC0001000000713100000300000000040000EDF701008BF90100DFF90100F9F3010005
:20061C005DF40100D5F8010061FA0100C7F90100B1FA0100F9F2010019F501006DF9010073
:20063C0001F901006DF50100BDFA0100D5FA01009DFA010089FA010043FA010035FA01002E
:20065C00D5F601006FFA0100ADF9010015FA01009DF60100DFFA0100513301006D780100B8
:20067C0001F00100C1F5010029F10100FDF90100BD690100998F0100818F0100BDF4010090
:20069C00819701007397010059F6010000000000000000001F9901004596010015F7010028
:2006BC00000000000000000000000000000000000300710030016000110070003102200342
:2006DC00500480000700100061000000140063007300720062004300000013000600000098
:2006FC00000004001200000000000000000004000400370037003C024400000000000000D0
:20071C0000006500000035008100000005000000830000006600000000000800090001039F
:20073C007103010301030103010301032203020301030003100300030003000300030003C2
:20075C00000300034203000324030603000300030403120325032303250323030403040333
:20077C00000300030003440300030003230300036503210035038103000305030003000388
:20079C0000030003250323030803090302040201010101090200A2A6A8A0A5A59F95AD966A
:2007BC00B8B2A4313117191A21241B1D1F31313331313118191A22311C1E203131343100E0
:2007DC000000000002000000020000000A00000002000000020001000000000000000000EA
:2007FC0000000000000000000000000000000000000000000E0000008F0000008F000100B0
:20081C008F0002008F000300900000018F00010190000002900000038F0001048F0000052A
:20083C008F0008048F0000048A000006510000007F0001003F0004003F0002003F00010049
:20085C007F0002007B756E6B6E6F776E2D696E7374616E63652D6E616D657D007B656D70E6
:20087C0074792D696E7374616E63652D6E616D657D00C0467B7374617469632D696E7374AE
:20089C00616E63652D6E616D657D00C0000000000800000000000000200000004000000032
:2008BC006000000000000000060000000200000086000000820000000000000008000000A4
:2008DC00100000001800000020000000C003000080070000000F0000001E0000003C000001
:2008FC000078000000F0000000E0010000C003000080070000000F0000001E0000003C00E0
:20091C00000078000000F0000000F00006088080070880800D2007C00E2007C01400C08009
:20093C00024000800300C0800108C0801E08C08009400080084000800A400080FE0000008E
:20095C00000100020101003202010002000000000301000704010003050800000D0101FF11
:20097C000E08000016080000200200004D2001002D4501008990010089B00000C1C8000048
:20099C00359A01007D3C01005DD500003B9A0100D920010000000000FFFFFFFFFFFFFFFFB7
:2009BC0000000000000000000101010100C2010003000000000000007BC80110C5BC01106B
:2009DC00D9B2011033C20110BDAD0110C1B101106DBA011065BB01101DC0011000100040B4
:2009FC000600000015000000FF000000000000000302FFFF6838002040000000FFFFFFFFC2
:200A1C00C4090000000000000000000001003A01000000000000000000000000BDDE000016
:200A3C00E54801000000000000000001010100008809000018320020F8090000000000006D
:200A5C000000000000000000C33B3D3A5D3A713AA10A8F3A0F3BB309495E850A2F3B853BE9
:200A7C00001610160E18151C021203241858030210025800010000000000000000000000AC
:200A9C0000000100000000001C360020B40A00000000000000000000004002400B0000007C
:200ABC0027000000FF0000000301020001000600010000000001050900040810000408109F
:200ADC0041B5011095A6011015B8011000BE040A00BE0208FFFFFFFFFFFFFFFFFFFFFFFF41
:200AFC00FFFFFFFFFFFFFFFFFFFFFFFFFFFFFFFFFFFFFFFF3545251502030504FF0000002D
:200B1C000000000001020101FFFF00000F000000C5900000D1C0011061AD01100A00000087
:080B3C00341E0020419001006D
:201000003C000000000000000000000034100000000000000000000001000000000000004F
:1C10200000000000000000000000000001000000000000000800000000000000AB
:20103C003400000000000000000000006810000000000000000000000100000000000000E7
:14105C00010000000000000000000000080000000000000077
:2010700030000000000000000000000098100000040000000000000001000000FFFFFFFF87
:10109000FF00000001000000080000000000000048
:2010A0002C0000000000000000000000C4100000040000000000000001000000FFFFFFFF2F
:0C10C000FFFFFFFF080000000000000020
:2010CC0038140000E410000095A1011091A70110A1C2011009B2011041B80110A5BC011078
:0810EC0085BC01102E0000007C
:2010F400280000000000000000000000141100000000000000000000FFFFFFFF0000000093
:081114000800000000000000CB
:20111C00341400003011000065C2011069C101101BC2011091BA011005BC0110E5BB0110EA
:04113C00300000007F
:20114000341400005411000071C20110A5B6011099BF011045B60110B5BA011025BC01104B
:04116000310000005A
:201164002400000000000000000000008011000000000000000000000000000008000000AE
:041184000000000067
:20118800240000000000000000000000A41100000000000000000000000000000800000066
:0411A8000000000043
:2011AC00240000000000000000000000C8110000000000000100000000000000080000001D
:0411CC00000000001F
:2011D00000000000341F0020040000000000000000000000200000007010000030000000B8
:2011F0001C1100003C1F00200400000000000000000000000C0000003013000018000000CC
:2012100040110000441F00200400000000000000000000002400000048130000180000004F
:20123000000000004C1F002004000000000000000000000010000000A01000002C00000023
:20125000CC100000541F002004000000000000000000000020000000641100002400000052
:20127000FFFFFFFF5C1F0020040000000000000000000000280000008811000024000000DE
:20129000FFFFFFFF641F0020040000000000000000000000580000003C10000034000000C3
:2012B000FFFFFFFF6C1F0020040000000000000000000000100000006013000018000000D8
:2012D000FFFFFFFF741F00200400000000000000000000001C000000AC110000240000004E
:2012F000FFFFFFFF7C1F002004000000000000000000000038000000F410000028000000BF
:20131000FFFFFFFF841F002004000000000000000000000054000000001000003C0000005A
:1813300018000000000000000000000040130000080000000000000032
:1813480018000000000000000000000058130000080000000000000002
:18136000180000000000000000000000701300000800000000000000D2
:0813780001000000400B000021
:041384000100000064
:0413880000000E0053
:04138C0000000F004E
:041390003200000027
:041394000100000054
:041398008C1E002087
:04139C00000200004B
:0413A000239A01008B
:0413A400FDC901106E
:0413A8000000000041
:0413AC00000000003D
:0413B0000800000031
:0413B4000000220013
:0413B800081C0020ED
:0413BC00010000002C
:0413C000A41E002047
:0413C400080000001D
:0413C8000000000021
:0413CC00000000001D
:0413D0000000000019
:0413D400080000000D
:0413D8000000000011
:0413DC00000000000D
:0413E0000100000008
:0413E400641D002064
:0413E80006000000FB
:0413EC0001000000FC
:0413F000301B00208E
:0413F40000000000F5
:0413F80000000000F1
:0413FC0000020000EB
:0414000000000000E8
:021406002900BB
:021408000100E1
:02140A002500BB
:02140C003000AE
:02140E003100AB
:021410002E00AC
:021412000100D7
:0114140001D6
:0814180003000000DC0A0000E3
:081420000000000000000000C4
:0414280000000100BF
:04142C0000000300B9
:0414300083C4011060
:041434003C14000064
:041438003C14000060
:04143C0000000000AC
:041440009000000018
:041444009000000014
:0414480000000000A0
:04144C00A41E0020BA
:041450000196010000
:041454002000000074
:04145800900A0000F6
:04145C00D4090000AF
:0414600009C30110AB
:041464002B48010010
:04146800076901000F
:04146C0095C801100E
:0414700097C8011008
:041474000000000074
:04147800FE0500006D
:04147C0078080000EC
:0414800090080000D0
:0414840060080000FC
:0214880008005A
:02148A00090057
:02148C0001005D
:02148E0000005C
:01149000015A
:041494000000000054
:041498000000000050
:04149C00000000004C
:0414A0000000000048
:0414A4000B9B01009D
:0414A800F1710100DD
:0414AC00E5850100D1
:0414B000AD76010014
:0414B400AB77010011
:0414B8000D680100BA
:0414BC00F136010004
:0414C000AB970100E5
:0414C400B14A010028
:0414C8000DC801103A
:0414CC001DC8011026
:0414D0000800000010
:0414D40024000000F0
:0414D80018000000F8
:0414DC0028000000E4
:0414E00020000000E8
:0414E4003C000000C8
:0414E8000C000000F4
:0414EC0034000000C8
:2014F0007E482DE9F04F0C4601210170DFF8F491DFF8F481DFF8F4A1DFF8F4B178494FF04C
:20151000000C2027ADF1440D65461F4081F800C0C1490E9391F840600D9205EA020008BF0B
:2015300000287AD10D984FF0E047194662460F4002EA000008BF002843D10E9E0D9B4FF441
:201550008601B9F8B200DFF82CC3CDF82C9012EA060701EA030108BF002919D1C44912EA6F
:20157000060701EA030108BF00296FD0374643460D9E1C8103F138015881002F81E8C00084
:2015900004BF311CB1F1806F60D102285ED111E0374643460D9E1C8103F138015881002F9C
:2015B00081E8C00004BF311CB1F5803F4ED1B0F5505F4BD1186A674643693868214698472D
:2015D00042E04646B749B6F9087091F90000BC42A0F10100087017D1728906F1380003C8B7
:2015F000002904BFB0F5803FB2F5505F08D0002904BFB0F1806F022A02D012F065FE03E09B
:2016100014F090FA17F0D4FD524692F90000401E10706FF00101318114E043466FF0010063
:2016300003F1080108806EB1BE480078832802D08120594608704646316919B160468847DE
:201650002146E8E7CDF82C90B9F8B2000D9A0E9E02212F461140374008BF002900F0E68364
:20167000B24A43F201418142109200F0B583C91C814200F0B1838B490A4691F90010474643
:20169000491E1170B7F908108C4205D043F60401814240F0B083ACE35F4890F840C007F1CD
:2016B000380090E800034FF482062F4617EA090706EA080008BF00281CD10B48383003C8BC
:2016D0004FF400322F4602400F4008BF002A02D112F0FAFD8FE314F025FA8CE3C51F0020BA
:2016F000E81E0020E413002078180020EE1E00206A3900205D46BCF1010F4FF081044FF09B
:20171000000B03D0287808B117F084FF2C70864C5846109E6778E0815946E770606931709E
:20173000027A417A0F9601F0070302EB0322490995B238BF2D1F09D304F114010A68157AED
:20175000517A01F0070105EB0125AD1E467A36F07F03774EADB240F02B83B5F57A7F00F3D4
:2017700027830A30294610F0E3FF216A04F118000522083117F070FD0520E17EA37E227F72
:20179000E08103EB0120BF4BED1EADB26271224A597892F840300F9AA081C1F3011A002B87
:2017B0000A9208BFBAF1020F00F00283BAF1020F00F3FE8263B110F0070F00F0F98259491F
:2017D0000978862904D100F00701022940F0F082011301F0020102294EDAA378DFF844910D
:2017F00000F00700022835D1D6F80480002B31D1216A09A801220D3117F02EFD0620E081DD
:20181000C04780469E4DB26899F800002F680C9686281AD13FB901E07015002017F0FAFE06
:2018300030462F6882689DF9240018F05CF99DF9246078775846B8774046FE779047A089B9
:2018500000F0100012F02EF801E04046904717F019FBB0E299F800005A46862808BF01229C
:201870000C965AB1584614F0A9F9E77805E0C04600000C8CB01C00200C96A378A7B19BB930
:20189000012F00F09282A189022F03D111F0070F40F08B82032F08D101F00700032804D07F
:2018B00083E2C046EF1E0020A189080908D311F4405F00F07A82C6480778002F00F0758237
:2018D000081300F00200022802DA880A80F06D826C484078C0F381098611B9F1010F00F00A
:2018F0006482012E00F06182BA48BAF1020F09D010F80920805D8018C7B2FEB1C8091DD3CA
:20191000BF1E0CE000EB09028019127900798018C7B2C8090ED259EA06030FD0BF1CFFB2E2
:201930000CE0C0466E390020D03800206C390020C414002059EA060308BF0227C1F30020E9
:201950003A1AA0719542C0F23082ED1B4019090980B2608128BF4FF0250B5844743080B289
:2019700017F0D2FBA5782061002800F01E820021742211F01BFA0020B4F80C8020711DB9A1
:201990000A9908F0200008700A98A57903784FF0000B002B33D0002D31D1AB48008808F0AF
:2019B0000708B8F1030F1CD181085B4609D3344991F82E509DB90D681DB16D7E35F07F05A9
:2019D0000DD163B98008D84606D3A0498D6888780DB12846804710B9B8F1000F01D0042037
:2019F00020719B4890F8400010B1BAF1020F01DA16F04EFDB4F80C80A57994F804B02169D2
:201A100001F174004860886563890B816089A1F85C005FEA18100ED3C5F1030082B2A1F88D
:201A30005C20886D174917F017FC21698A6DB1F85C00801888651348124B4078C0F301126A
:201A50001878A1F80C80002D00F0780040EA02004BEA000008744FF0FF038B730CBF60796C
:201A7000002081F8306081F83A9081F84900E089002FA0EB050085B2E58100F08E8103E081
:201A9000700E0020EA380020206A278129183A460831684617F0E0FBCE48EE19B5B2E581B0
:201AB00026694078C0F301110A91317CBB466F46C0F38103C0F3810A002B01F0400847D01C
:201AD000C0F301100023022801D1C8090BD29DF801109DF8000000EB0120A6F844000DF13E
:201AF0000207A6F84200CC49B6F84400B1F85A10814203D04FF6FF71814223D1BAF1030F14
:201B100013D079783878C44A00EB012081B27186B2F85820BF1C01208A4212D0FFE74FF6F6
:201B3000FF728A4218BF181C0BE020693946323017F08DFF2069B84932304F3117F0B0F949
:201B500008370346002B00F02B8120462669C07EB4F80C9083111ED00A98022803D0307CDE
:201B7000C00903D309E058EA0A0206D179783878BF1C00EB0120A6F84200032B05D078784D
:201B9000397801EB0021318505E020693946283017F05DFF266909F00709B9F1030F33D1C1
:201BB000B64807684FF00008FFB17B7E33F07F0317D096F8300002280ED0032811D107F161
:201BD0006C0006F1280117F06BF950B11CE0C046240E0020E80A0000B7F86C00318D884214
:201BF00012D057F80C7C002FDFD1B8F1000F0BD1784F4046207178783B46C0F30111187805
:201C100000F0780008433074114890F8400010B10A9802283ADA0F98A3790778002F35D025
:201C3000002B33D165792779E9200DF1260114F071FA9DF82660924805235EB900F108011C
:201C500007220A70082209E08C160020F41E00207015002000F108010B7018224272881C1E
:201C7000022200260270CE701FB1027842F0100202700D710B9AA2F87830C2F88410032183
:201C900010F056FD2669B4F808B0E589B0890009C0F08380B06D69465A4617F0DDFA2069B8
:201CB000816D59448165276AB0F85C1001225944A0F85C10E9190DF12500083117F0CCFA0F
:201CD0006E1CB5B2E58121699DF82500896D087022699DF825709DF82530906D401C9065FE
:201CF000B2F85C00401CA2F85C0007F0070082F82400C3F3C10182F82510608992F82470B2
:201D10008046002F4CD05F4F7F183E78361D8642268145DC206A29183246083105A817F094
:201D30009BFA3A789DF817C0111D481980B29DF81450E08105EB0C6023699DF8165000EBF7
:201D500005409DF81550042900EB052098610BDD206906A9521E1C3017F07EFA3878236967
:201D70006844C07D83F82600986D05A9324617F073FA2069816D71188165B0F85C10A8EB9D
:201D900006077118A0F85C10791E89B26181B0F85C2001818918A0F85C1000F055FC0AE06F
:201DB00017F06EFD12F090FA05E017F09DFB02E017F09AFB0C96DDF83080D8F80400804751
:201DD000216A0A680023137109682162D8F80810884710E0EA38002040462C4F80784146F2
:201DF000401C887097F900003946401E087012F06BFA16F003FE26480B99074F00226FF043
:201E1000010690F84000A1F8B2203E8130B11098007828B902E0C0467818002017F0C8F977
:201E30001C481C4990F90000401E0870174890F9000010B9144800210170164890F90000E4
:201E500088B10D9A0E9F02214FF0E0401140384008BF00290BD00F4890F90000002806DCE5
:201E700017F0D8FB03E00020014605F0B1FD0A49002011B00870BDE8F08FC046940E0020F3
:201E9000041D0020D00A0000E61E0020EF1E002070150020EE1E0020C51F00202DE9F047A4
:201EB000044660784FF0000AADF1200D42280DDC422800F09783401E0E2813D92F380828FE
:201ED00021D9103844D0401E37D07CE3433825D0401E00F083830C3800F07C83401E00F093
:201EF000758370E3DFE810F05F035703A20338039E039A039203D302C6026F036F038E033F
:201F10008A03B802B002DFE810F0A7017C006C0075035F00540046002C007103A0880228FE
:201F300038BF272407D3A068024617F07FFC911C17F07AF9044643208CE2A08828B9C5494A
:201F500018201DF045F9C4B200E02724412081E2A08818B917F0F6F9044600E027244020C5
:201F700078E2A088CDF800A0012818BF27240CD1A068CA4902786B4618201DF029F90099FC
:201F9000C4B20DF1110014F086FF8DF810403720052104AADAE2A088012818BF272406D11D
:201FB000A068C749027818201DF012F9C4B2362050E2A08828B9C34918201DF009F9C4B25F
:201FD00000E02724352045E2A088082818BF272405D1BD49A26818201DF0FAF8C4B23420E9
:201FF00038E2A088022818BF272408D1A06817F01DFCB649024618201DF0EAF854463220E8
:2020100028E2A1880329C0F02281A06890F800804046713800F00881401E012840F21581F7
:202030005E3800F0E480401E00F0C380401E00F0AB80401E00F09080401E5DD0401E3ED047
:2020500040468138022810D9001F01280DD9801E09D0401E09D0401E012804D9801E14BF6D
:20207000FF20022002E0082000E00120C91E814240F0ED8015F0A6FF071C00F0BF80A068B9
:2020900041468139022900F1030015D9091F012912D9891E0AD0491E0ED0491E012905D970
:2020B000891E6FD117F0C2FB38806BE001683A4611604068506065E00078387062E00729D9
:2020D00040F0C580052015F07DFF071C00F09680A068401C10F8021B397010F8011B79706D
:2020F00010F8011BB97010F8011BF9700678524606B10122384677E0182940F0A8801C205C
:2021100015F060FF071C79D0A3685B1C13F8020B3870184617F08AFB9E1CB880304617F044
:2021300085FBB51CF880294607F1080017F08AFB05F1080313F8010B514600B1012107F151
:20215000100502263976184617F0E5F81B1D761E45F8040BF7D115E0172978D1182015F0A6
:2021700031FF071C4AD0A5686D1C15F8020B102229463870781C0FF01BFA05F1100017F034
:20219000CAF87861384630E0052960D1042015F019FF071C32D0A068401C10F8011B397010
:2021B00010F8011B797010F8011BB9700078F870E8E706294BD1052015F004FFF0B1A168E4
:2021D000491C11F8012B027011F8012B427011F8012B827011F8017B524607B10122C270AB
:2021F0000F78524607B10122027107461AE00D292DD10C2015F0E6FE071C01D11A2427E098
:20221000A068401C10F8011B397010F8011B79700268BE1C326045687560037A337210F8EE
:20223000091FF972384602E0032910D15046A060A368C849424618201F461CF0C9FFC4B26D
:2022500037B1384616F03AFA02E0F42400E027243120FFE06D880100A088032840F0F1808F
:20227000A0680678451C1A2430467138022840F2E6805F3816D0401E09D0401E10D0401EF8
:2022900009D0401E05D0401E18BF08200BD1052009E01C2007E0182005E0C046E91C01008F
:2022B000042000E00C2015F08DFE071C00F0C5803046D03802280BD9C01E02280AD90BE094
:2022D00061D30000F9E900005DD00000D15201006878787028783870CE49182032461CF0A4
:2022F00077FFCD4985B232463B4618201CF070FFC4B2002C40F09E80681C80B215F062FE54
:202310005FEA000800F095808146304609F8014BD03870D0401E5FD0401E51D0401E40D00B
:20233000401E23D0401E57D0E8B24E46012818D0E8B202280FD0E8B2042807D0EAB2304626
:2023500039460FF035F9E8B286190DE03968484614F0A1FD03E03988484617F061FA0646EA
:2023700002E0387806F8010B304656E03978484600F8011BB98817F053FAF98817F050FA4B
:2023900007F1080117F05EFA397E022607F1100500F8011B55F8041B14F07DFD761EF9D185
:2023B0003BE038784D46791C102205F8010B28460FF0FEF8796905F1100014F06CFD2CE01B
:2023D0003978484600F8011B797800F8011BB97800F8011BF9781EE03978484600F8011B8E
:2023F000797800F8011BB97800F8011BF97800F8011B39790FE03978484600F8011B797819
:20241000BE1C00F8011B3268026075684560337A0372F97A093000F8011BA0EB0900C1B257
:2024300042463020491C17F037FA404616F046F900E01A24384616F041F91CB9F9E0F424AA
:2024500000E02724302005E0A088012814BF272426240F2021469BE0A088012818BF2721D2
:2024700006D1A0687549027818201CF0B1FEC1B20E208DE0A088002808BF272105D0A168F7
:202490000878491C16F05CFD0146092080E00A202727ADF80C00A6888DF81870012E0CD1A8
:2024B000A0680478452C05D165491820462203AB1CF08EFEBDF80C0038B99DF81800002826
:2024D0003DD1BDF80C00401C3AE0BDF80C00401C80B215F077FD071C2ED0452C07D0791CE1
:2024F000204603AA15F072F98DF818000DE0452001A90DF10E0215F069F90199BDF80C20C0
:202510008DF81800781C0FF053F89DF8180038709DF81800002806BFBDF80C00401C012003
:20253000ADF80C00BDF80C103A46082017F0B4F9384616F0C3F87CE01A208DF8180001201A
:20255000ADF80C00BDF80C1006AA082017F0A4F96FE0C046CD870000A088042818BF272151
:2025700015D1A06801788DF80810401C10F8011B8DF8091010F8011B8DF80B103149007873
:2025900002AA8DF80A0018201CF022FEC1B2042016F0BEFF4DE0A08800280CBF5446272405
:2025B000022021460DE0A088012818BF272107D1A1680978504601B1012016F0CDFE014642
:2025D00001200C4646E74FF0260A32E0204612F0F5FB2EE0204612F0A1FD2AE0204612F0EC
:2025F000C7FD26E0204613F051FA22E0204611F003F81EE020460EF0B5FD1AE0204613F072
:20261000BFF816E020460DF053FC12E0204611F0FDFB0EE0895D0100A5B40000204610F066
:20263000B3FC06E020460AF08DFC02E020460BF057FB504608B0BDE8F087C046559601001B
:2026500025610100A59901002DE9F04FB84C2069E189226A6589806DADF1440D0E4689180D
:2026700008312A4616F0F8FDA81986B22069816D6D188565206A0122311808310DF13E005C
:2026900016F0EAFD761CB5B20422206AE5812918083104A816F0E0FD9DF813109DF81000C8
:2026B00000EB016023699DF812102D1D00EB01409DF81110E58100EB0120049016F0BAFE8B
:2026D000D863049816F060FBA3F84000EA2016F02AFC0221B54822690170117C2079084314
:2026F00010749DF93E0017F0FEF982F846009DF93E00118982F84800002082F8470002F1B0
:2027100074009065B2F85C00401A5168091851609089830A18D2030957D310F0070F07D0A2
:2027300000F00700032812BF081C5068401C48E05068C17801F00703491001F0380101EBDB
:2027500043014018001D3CE0171C02D116F062FF2269B889800A2ED379684878C6112AD15D
:202770003E89796600204D780B7805F07F056D0005EBE3157E2D0DD07F2D09D003F07F03EB
:202790001818801C5B1880B2991C8642EBDC08E0002100E00121801C87F8601080B28642E4
:2027B00001DA002005E07968411879603989091A3981A7F86800506E10B1B2F86800B0B17E
:2027D000506850619089000916D292F86000002800F0FA80104612F09DFD2269D06C002819
:2027F00000F0F280B2F85000002840F0ED8017F035F80020206119E24FF0000B15461046DD
:2028100005A9CDF814B007ABCDF818B095F82470CDF81CB006AA04F0D4FF002840F0C98068
:20283000059A6E6968682B89311A581A1FFA80F80AB916F0EFFEB5F85C0000900196CDF895
:2028500008800698001D03900598A969AB6D3A4615300BF059F9002840F0AB80B64895F8AB
:2028700060302E89C15D701A288113B1284612F051FDAE8906F00706032E02D168680078A8
:20289000E87395F80F90732009A915F0C3FB832010A908F0FFFDDFF8A482DA4651460AE0AB
:2028B000C278012A03D1002F08BFDC2027D0001D491C0990C9B29DF84000884278DD0998BB
:2028D0008278032E07D00378B3420DD098F800300BB1022E08D0032EE9D10378032BE6D1CA
:2028F00003465B784B45E2D1BB10B3EBA20F05DA02F0030207F003039A42D1DD5046814695
:20291000059895F80FC090F814E0514601E0491CC9B28E4548DD07694B00032E03EB0702FF
:2029300008D1FB5C032BF2D152786245EFD10AE0D03800201278B24205D098F80020002AF6
:20295000E5D0022EE3D10698077D002F08BFB9F1DC0F2DD0A869B0F1FF3F23D0712008A9FF
:2029700015F058FB5346089AA9690598824206D106989A4600EB8A00C068884210D85B1C26
:202990002C32022BF1DB0698491CB1F1FF3F00EB8A00C16002D1079801218170584608E04C
:2029B000DB2007E0DB2004E0DC2002E06A390020DD206870226950709069577850651FB138
:2029D000F22016F0B0FA22699B4DDFF8749295F84000002800F09F809189984EDFF864B2E4
:2029F00001F00703022B5BD1A778002F58D15778002F55D121694FF000080DF136008DF84E
:202A10003F80283117F023F821690BA80A22283116F022FC06F11001276908886B6E401C29
:202A30000880786E0DF13F020421984704F1100A30B94846006818B19DF83F1080F868104A
:202A5000276997F8300002280FD1DAF80000594602222031283015F087FD30B90BF116014A
:202A70000DF1360016F0F3FF276977480078862807D1708A401C7082B88900F0100010F044
:202A900011FF95F8400020B1D5F8881009B12069884716F0E3FE4046206116F0F3F9C7E07A
:202AB0006A4B1F7877B3C1F3013102292AD15078002840F0BB809DF83E002070B18A2779EB
:202AD00002F128031C32002F01F10100B0820CBF002008205E4E002131605F46009007F188
:202AF000260001920688197A1A460D20334604F047FC10B915F0CCFC01E016F061F90F4881
:202B10002269007838B1D5F8881021B1104688470A482269007897890A9207F0070788B10E
:202B3000907BFF287CD0032F0AD1104640680078042807DD74E0C046D40A0000B015002057
:202B5000012F6DD1381C3CD0401E53D0801E67D19089C0F30130022803D1506800780728E6
:202B70002DD0108900285BD0104641684A1C42600F788446C7739CF824607EB9002F4FD02D
:202B90000A2F4DDA0189334EF01910F8010C884209D0082F44D1082905D041E0C07B002823
:202BB0003ED00A283CDA60460189491E0181C17B0B3101700A99C87B401CC8731CE03220E2
:202BD00019E0254E96F8C1000F280DD016F05AFC50B90A988189091301F00201022903DAED
:202BF0004D4608352968884796F8F7000A9A1074152000E0162010700A994D4605F12800C9
:202C100014F032FD154E7068804795F83010491C85F83010B1688847202016F073FD02E000
:202C30000AA813F0ABFD4FF0000834E711F04CFB11B0BDE8F08FC04670150020F01D0020C0
:202C5000700E0020EC0D00206E3900206C390020081D0020A8070000380D0020C4140020D0
:202C70002DE9FE4FE54980460122A1F130000260DF480768002FFCD0DE4ADF4EC027E048B1
:202C9000E04B17603268920808D2324652F8042C03F14104120C42F0F00222704FF0000A2C
:202CB0008346C1F800A0DFF864C3DBF80810D64D0191880E43D2480E41D3802018744FF6BE
:202CD000D802A3F8512018702868C0F30464162CA8BF203C1F460F3F387800F01F00162816
:202CF000A8BF2038844223D0624602F1980EDA4ACEF800A0261A022E05DC16F1020FB8BFA1
:202D10006FF0010600E002263018166800F01F06844246F4F856A7F866604FF001061660EB
:202D3000E8D11068374617601068CEF80060106828460068C0F30420162808DB06E0A5F1FE
:202D5000D0000068C0F30460162800DB203800EB2170401C162805DA10F10A0FB8BF6FF0BE
:202D7000090000E01520DE4F00F01F0040F4F850A3F85900386880083ABFEA48C0F800A0CE
:202D900041F04061019E6246A5F13804C80E8F0E80F0010000F00100106087F0010000F08B
:202DB000010090602068C0F38367C0F38F21B00C23D2304640F3072000280BD542425046E7
:202DD000490805D17F0806BF0127391C4FF6FF71521EF5D1002810DD4FF6FF72490041F0C3
:202DF00001018A4207D27F0047F001070F2F92BF01210F27111C401EF0D141EA0741182080
:202E100014F0E0FA2068D24E2768C94CA6F10409C0F3870107F0030041EA0021D9F804007E
:202E300040F2FF3253468FB22C21466800972746A7F14000B0470C3D2868C0F30D011C20A1
:202E500014F0C0FAB84955F8080C014000F07C400143142014F0B6FA55F80C1C01F47C0043
:202E70000904090C0143102014F0ACFA624955F8042C0968C2F30350C2F30345490813D22E
:202E9000DBF800100B0510EB237003D41028A8BF0F2000E05046090415EB217503D4102DCF
:202EB000A8BF0F2500E0554645EA001502F47F4002F0FF01B8F1220F40EA054041EA00018C
:202ED00024BF02F0804211430C2014F07BFA974DB8F1220F32BF01202868C0F30070B8F126
:202EF000220F4FEA400040F0200084F8090126BF2868C0F3407001208E4EB8F1200F40F065
:202F1000100084F8090138BF514606D33168C80C00F44070C1F384510143282014F052FA2E
:202F3000B8F1200F26BF3068C0F301505046B8F1220F4FEA400040F0600084F80C0126BF41
:202F50002868C0F3C0605046B8F1220F4FEAC00040F0800084F8010126BF2868C0F34550AA
:202F70005046B8F1200F4FEA800040F47C40A4F89C0138BF70490AD3306801038A15920592
:202F900001F47C1100F00F00114341EA0031082014F018FA4FF48000A5F1D0012060674A57
:202FB000886D40F21E236FF31F40834216D90868030E13F00F0F03F00F01C0F3034018BFB2
:202FD000491E072805D006280EBF0720801C00F00F0041EA0011A2F108000170DDF804C0D8
:202FF000CCF381477F1E13D07F1E3BD036E0C0469402224300600C40B03F00504010094077
:20301000AC3F005015620840881300500000204328460068810C21D24FF480412160D2F8B3
:203030000210430AC0F3033703F0800321F08F010B4347EA0301C2F80210D2F80130060AC3
:2030500066F30303C2F80130116800F0E70721F0E70147EA010004E02C2009404FF000409C
:20307000224610603B480068C0F3C0070FB94020A0624FF40070206428684027C0F3C140F7
:2030900040F0300084F8C800CCF3815050B3401E03D0401E1FD002211EE0012014F0E2FD46
:2030B00006460420314611F009FA042014F0DAFD8642FAD12248066826F07F4014F02EFCA8
:2030D000D9F81400036807214FF06022300E98474FF4806020600321042011F0EFF908E0CE
:2030F000000009400420012111F0E8F9154814F015FC203D2868144947F6180600F03F0009
:2031100084F8CB0F144B0E80D9F800201868D1680220884711480D4D076001212960BDE857
:20313000FE8FC04694042A43FCFCFC008C13005040A00C409813005000803F400A6008402C
:20315000A83F0050BD37860070B00C4094046042A4010010B03F00502C20094000600C40D3
:203170002DE9F04F0C46C34F01683960416880687960ADF14C0DB860204613F0A5FF4FF0BF
:2031900008084FF0010A06A8ADF818803968ADF81AA08847C54E9DF81C10717008997161E3
:2031B00008B115F01FFD20688047786880474FF400558346ADF800801E2001953968ADF88F
:2031D00002006846884713F0BBFEB94C2068406880472068C16810A888472068836810AA43
:2031F000002001469847606008B915F0FBFC15F0B3FEB149B24BB34A4B60B04D8A60AD48CB
:203210000D60B54C3061B14BA164B14A0B61AE4D4A61B04BB14ACD6003F11805226502F1E3
:2032300040012564A5F11400E164AE4A6064AC4D626205F16E016561A5F16E00A161AB4927
:203250002062A94AA162AA4D6265AA49E960AD48206602F11801A165A74A2A611039E16554
:20327000A64A6A61A8490160A54AAA610322A281AC49A960A54A4260A54A8260A54AC2607E
:20329000A54A8261A54A8262A54A826312F028FEA649A54A1160A089626540F01000A081DD
:2032B000A4496960A2485060A348206312F018FEA34A9A64A349D964A34A1A65A3495965FE
:2032D0009E4D5D64A24A9A65A249D965A24AA3491A66A089596640F00800A081002583F8E5
:2032F0004050B5609E4A9A669E49D9669E4A1A679E4959679E4A9A679E49D9679E4AC3F848
:2033100080209E49C3F884109D4AC3F888209D49C3F88C109C4AC3F890209C49C3F89410AB
:203330009B4AC3F898209B49C3F89C109A4AC3F8A0209A490D609A4B83F800A002205D802C
:2033500014F06CFFFF210222F06216F0D0FBF01CFF21022216F0CBFB022014F05FFFDFF810
:203370004492C9F8000008B915F03CFC484600682946022216F0BBFB11A80FA913F0FCFDF6
:20339000F06A9DF84410421C01709DF84400107025709DF84400B07015F0E0F9B061396894
:2033B000ADF808801420ADF80A0002A888471524ADF810800398ADF812403968F06104A8D6
:2033D00088477A4B1D70784C6570A57005982561801E3062764A157040F2F63015F094FE87
:2033F0000646666116B916F015F966699DF8290009964FF47A798DF8285009A9424600F03E
:20341000F0008DF829006069ADF82A9015F024FF266265626748A0F8009012F047FF664C8E
:203430002078012803D02846014604F0D1FA63480570634E35702078012803D028460146B5
:2034500004F0C6FAB9685846884700F0A7FE15F0A3FE5C48007813F06BFC5046294604F060
:20347000B7FA13F04BF9584805702078012807D002E0C046C41400202846014604F0A8FA6C
:2034900010F054FF1820ADF83080504EADF832004F4D0D9639680E950CA8884708B116F002
:2034B000B9F802F07FFA13B0BDE8F08F741C002048390020AF5C010014370020FD9500009F
:2034D000AD460100458B010069E100006DF900000131010070150020801600209C360020E7
:2034F0002604000001FE000080370020550A0100700E0020D53701004157010083990100FB
:20351000C596010024380020D5C20000EDB10000A1560100117101000D470100C9290100CB
:20353000539A0100058F0000E037002041F6000039C50000F1B900004D890100951701005F
:20355000F581000069320100196F0100F57D000001010100ED560000E5350000BD1F010011
:20357000798B0000D9DD000091930100A9AD0000B95901005D830100A5EB00003DBB00008A
:203590000D6400009F8B010045080100C1540100398301009D6001002D860100443900200F
:2035B000741800205C390020D03800206A3900206C390020AC140020C51F00206E3900203F
:2035D000663900202F0E00206B390020BF010100881E00202DE9F04FADF18C0D1C911E938A
:2035F000CC491D920A6806460DF156000260496841603046694613F046FE00281F9004BF2B
:203610000020229000F0F78102200027B61CDFF84CB32090D34D2297304602A911F0F7FECF
:203630005FEA000900F0E48122990EA816220FF0BDFB9DF809707F1E00F082807F1E40F009
:20365000CF81B9F10A0F40F3D681B61C316804A80160361D318805AF42F20B0039800DF18F
:20367000160112F0A1F9BDF81600BDF81410884200F3C181B61C16F8010B16F8017B16F860
:20369000014B8DF8380016F8011B8DF839700EAA8DF83A40304606F087F8BF490978002866
:2036B000064400F0A8811F9C012904F1020400F091814FF400500DF14E0112F075F90DF167
:2036D0004E000DF15601082214F04EFF40B11C990DF14E00082214F047FF002840F07A8103
:2036F00042F2010004A907F057FB42F20B0005A907F052FB42F205000EA907F04DFB0DF131
:20371000390142F2060007F047FB0DF13A0142F2070007F041FB0DF13B0142F2090007F0D7
:203730003BFB9DF83B0028B1022840F0538142F2030001E042F20D000FA907F02DFB49E112
:20375000B9F1040F40F35781B61C16F8010B16F8017B16F8014B8DF8380016F8011B8DF855
:2037700039700EAA8DF83A40304606F01DF80028064400F040811C9806A906F0C1F99DF88D
:203790003600002840F00A819DF83B0000287AD195F83170002F00F0FD8095F8330087426A
:2037B00007D095F88C000A2801D10AF001FFA86B1EE0AF6B4FF400500DF15E0112F0F4F802
:2037D00015F00CF84FF0FF08229C2190A24695F83100A04240DCA86BB8F1FF0F08D008EBE2
:2037F00088040019007914F009F8A86B071923D195F831300746002B08BF229C19D05846FD
:20381000229C40681946D8467F1F7F1DFA782AB1491E04F10104F8D17F1D0AE0804795F82A
:203830003310491C85F83310D8F80810884795F83130A34200F094801C980DF0ABFA387183
:203850000120F870FC788DF8364038798DF83700229B8DF82330A1E0387912F039FC0146AE
:2038700008220DF15E0014F07FFE40B138880104219816F004F982453CBF8246A046641CCF
:203890007F1DA4B2A3E795F83070002F00F0828095F83200874207D095F88C000A2801D1D2
:2038B0000AF086FE686B1EE06F6B4FF400500DF1660112F079F814F091FF4FF0FF08229CCC
:2038D0002190A24695F83000A0424DDC686BB8F1FF0F08D04FEA48140019C07F13F08EFF98
:2038F000686B071925D195F830300746002B08BF229C1CD0DBF80400229C1946D846203F88
:203910002037BA7F42B1491E04F10104F8D120370DE0C046F80A0000804795F83210491CA3
:2039300085F83210D8F80810884795F83030A34216D02299384620220FF038FA1C980DF0EC
:2039500029FAF8770123FF2039462022BB770446787206A8FC720DF02BFE1FE0C414002022
:20397000612055E0DC120020F87F12F0B1FB014608220DF1660014F0F7FD38B179682198FE
:2039900016F07DF882453CBF8246A046641C2037A4B297E764203BE0701500209DF8360072
:2039B0000EA9162240F004008DF8360008A80DF0FFFD1F9C9DF83B00A41C40B19DF84D70E2
:2039D0000FA8394611F09AF83F1A8DF8357006A810F0B8FA20984844801C80B2209003E086
:2039F0001F9C4E44B61CA41C209884423FF714AE2098022803DC229A6720114604E01F9A6A
:203A1000911C121A2298921C1D9B19801E990A8023B0BDE8F08F70472DE9F041B44C0F4679
:203A30000646F80B80F0B481A07AB90F80F04681B80880F03781F80A80F01081E0793909E3
:203A50006DD2B80B59D2780B0FD2380CC0F0C581206C806840880028FAD0206C8068408821
:203A70000128F5D027F4004743E013F061FD38B1B56930466FF4807100224FF00073A847CE
:203A9000D24904F17000002216F003F8B16800254FF0010840F602022572088884F803808D
:203AB00082420AD0B0F5C15F07D00A8B4FF61F60104040F43470088306E00A8A4FF61F6072
:203AD000104040F4347008827574266E15F080FCD4F85411E26804F5AA73914208BFA8460D
:203AF00026B1801B03EB8806010BB160256627F48057192015F0CBFF6FE104F1440015F098
:203B1000D6FF061C08D0706830B17568F068B6F92C1000222023A84727F400575DE10128C0
:203B300000F09780206C002840F0958000254FF00108E570AD4884F8058015F03BFE284611
:203B500014F09CFEAA4904F170002A4615F0A1FFA66D15F03DFCA178801B000B012906D139
:203B7000667826B994F86810B0EBC12F39D9A14E84F80280A6F1150109686570090A30D3E1
:203B9000606640F60900A08294F8210000F0F00040F0010084F8210094F8200000F0F00007
:203BB00084F82000A56115F06EFF06F6FF7211686FF0020321F00201116004F11401C6F84A
:203BD000FB3F8D4AC6F8EB1F11688908FCD3C6F8FB3FD6F8FF1F41F00201C6F8FF1F16F029
:203BF00055F82E4604F1580080E86000666612F073FF207818B9E068403015F060FF7F4853
:203C10000660022013F060FC11200CF0D1FAE068007C10B90E200CF0CBFA607A18B16572BF
:203C3000052013F051FC764965710878A57128B10D7004F1EC00042115F049FFB4F950002E
:203C5000B4F95210884214BF022007200DF078FB01E00020E07127F00807BEE015F013FFC2
:203C7000054604F13C0015F022FF061C15D0E06810B1783015F0FDFEF068E060284616F0CE
:203C900005F815F0A5FB20665E4815F093FD4FF4006104F1EC0015F01AFF002027F48067EC
:203CB000E0719AE007F04CFD04F14C0015F0FFFE27F0020708B147F002078EE020B104202A
:203CD00013F002FC0020A07215F0DDFEB1688046088840F6020282420CD0B0F5C15F09D0DA
:203CF0000A8B4FF61F60104040F43470088308E0082D00200A8A4FF61F60104040F43470EB
:203D1000088204F1580090E80C00002B08BF002A1AD0042013F0A6FFB0B1A56D15F058FB9B
:203D3000F168401B728AF060000BF06080188842F06002D209184808F06040F6C411814203
:203D50002CBFB0F5FA7FF160404615F09FFF13F0EFFB98B1B56930466FF4807100224FF051
:203D70000073A84704F13C0015F0A1FE002808BF47F0020702D0192015F089FE7569002137
:203D900030464FF080630A46A84727F0005724E015F079FE014604F1440015F088FE061C21
:203DB00016D0356AA80813D225EA05003062084615F06CFF706870B16DB12A46F068B6F9E7
:203DD0002C1075680023A84705E0C04699C10000084615F05BFF27F4804727B104F1EC001B
:203DF000394615F074FEBDE8F081C04661D1000049290100150004401010044000000460DB
:203E10006339002085BC00002DE9F04F064692F808B0307D09AF8846ADF1240D04933528BC
:203E3000039208D011464D6806F16C0045600C8904810A680260DFF8C8C238F07F0506BF31
:203E5000604600884FF6FF700590F08A800934BF002008203076F08AC00834BF10208020F2
:203E70007076F08A400903D260460E30007800E00020B076F08A41082CBF20240024000913
:203E900028BF44F010047568002108F07F08307D06916D1E02280EDB0C2808DC0C2803D164
:203EB000022044F40854069044F0030404E00D280CBF02200120044396F8880008B144F0FA
:203ED0000804210900D328B1DFF8C09299F8EC3013B908B1DF204DE121096DD396F8895097
:203EF000DFF8ACA206F1240133891AF8052007910AEB0001097908908918491DC9B2C91873
:203F1000B1F57A7F00F3388100284CD0049A039906F180000BF0F2FB0799002808603FD02A
:203F3000806AB0F1FF3F39D070680023401E8DB196F88A10524600F80119515D491EC9B2A6
:203F500041B1721892F87F20491EC9B2002900F80129F6D1079970660968896AB162090EB4
:203F700000F8011996F82A1000F8011996F82910089A00F8011996F8281005F0030500F80F
:203F9000011902F0070141EAC501017071683289091AC9B270608918318105E0DB2700E07F
:203FB000F3277770E9E00023F08A7370C00828BF44F0100475686D1E336DA3B9B36D93B9E0
:203FD00099F80511012903D13089B0F5EE7F06DA200904D202290AD144F4005401E044F4D7
:203FF0008054012002E044F4085402200690DFF8A4A19AF8000001280CD09AF8400048B110
:2040100096F86B00042805D1022024F48054069044F4005444EA8834B8F1020FA4B20AD091
:20403000B8F1030F10D1ED1F09F1F801284615F00EFD6D1E08E0B9F8DE00001205F801093C
:2040500099F8DE0005F80109069802280CD0B8F1000F15D0BBF1000F0CD004990598814205
:2040700008D144F040040BE0BBF1000F08D1B8F1000F05D00599081205F8010905F80119FD
:2040900044EA8B24BBF1020FA4B209D0BBF1030F0ED10399ED1F284615F0D9FC6D1E07E048
:2040B00003990888001205F80109087805F80109BBF1000F05D00498011205F8011905F8D1
:2040D00001093878F0B934480178307D0D2814D068B9306D28B999F8C800411C89F8C81004
:2040F0000AE099F8ED00411C89F8ED1004E099F8D600411C89F8D610014605F8011903E01D
:20411000120E002044F48074201205F801092C7070683189401B7560C0B2401830812009E8
:2041300027D3B06D00B130629AF8400010B1307D0D281ED1726A12F1150002D115F06AFA81
:20415000726A916A481C9062306A3289B162471B0092D21B019090B20290706A96F8882064
:204170002B46153008F04EFD00281CBF7070071C07D10020707005E0E5277770F32014F069
:20419000D2FEF8B209B0BDE8F08FC046380D0020D00A000070150020D53800202DE9F04F4C
:2041B000C34F4FF00008ADF1140DCA4CF868CDF8088000288DF80C8035D1BE48BE49006860
:2041D000814213D0BD49814210D0BD4981420DD0BC4981420AD0BC49814207D0BB498142D2
:2041F00004D0BB49814201D015F014FA13F024FD012814BF40460120F87013F0CDFD206AAA
:2042100000F1200120B915F005FA2046016A2031096807F1140088474FF4FA70F884AE4E0C
:20423000BE620625FD62E36993F82660DEB9AB4893F825600278964215D041468801A0EBFB
:20425000C100181890F8266036B990F82550491CAA42C9B2F2D103E090F82510914202D18E
:2042700012F032FFE3699E49606A65C881E86500F878012814BF40460520DFF868B29A4D14
:2042900008709BF8356126B998690068C5F8A40005E0D8690068C5F8A40014F083FD6320CE
:2042B00004A911F037FF9BF8070112F0F1FEB5F896C09BF8072105F1880682462CF0070C45
:2042D000812A4CF0010CA5F896C003DB842A0EDB862A0ADB306940F00F0030619AF80E10C4
:2042F000052914BF2421292106E0292100E02121306940F00F00306185F89C10717D812AA1
:2043100001F03F01717501DB842A19DB9AF80A306BB99DF810203F3262F305017175F28A15
:204330004FF6C07303EA020141F0180113E09DF8102001F0C00102F03F020A43114603E097
:2043500021F03F0141F002017175F28A4FF6E071114041F02001F182BAF80C209AF80E102C
:204370000A230CF0010C491D514391FBF3F1C9044CEA1141F181BAF80C101923890391FBA4
:20439000F3F161F31C20E3693061308B93F8242062F30200308393F824104FF6F77909EAC1
:2043B000000001F0080101439BF9F600318310F045F909F10801814218BFA5F8A200DAF885
:2043D0000410DAF80030BAF80800E269401E414303EB51004FF47A71B0FBF1F0A5F8A80092
:2043F000106A0078A5F88A8085F8AC00C5F88C80707B00F0F00040F00100707315F034FA10
:20441000C8B9BAF80C00394AB1FBF0F0C0B21070B1FBF0F078709BF80701022806D0842891
:2044300009DB862807DA05215C2001E00221A8202F4A51701070F868256ADFF8BC9018B3F4
:20445000404611F095FD38799BF80711884211D179799BF83521256AF86891420CD102218E
:2044700042468DE806002D6D4346314602AAA847E66013E0256AF868696888470120236A7E
:204490001C491D68087000E02D68154907F1140348463246A847F860606AA0629BF8070114
:2044B0009BF83561387105B07E71BDE8F08FC046A41C00209412005000F0022000F0012053
:2044D00000F00020008002200080012000F082000080002078180020598401003F0E00206C
:2044F00028390020380D0020E4130020741E0020F01D0020C41F002048330020B0B5044683
:20451000C8480768ADF1480D002F00F089812078401E112800F28481DFE810F06701530147
:20453000390124011D010701F100E300C300B2008D005D005300420082012A001C00120043
:20455000F86B002800F06C81684621460DF002FEF96B63E1386C002800F0628168460021BB
:2045700001220EF023FC60788DF80000396C55E1F86A002800F05481684600210E220EF067
:2045900015FCA11C684614F09BFDA57BA1890022ADF80A1005B101228DF80C20F96A3EE1BC
:2045B000B86B002800F03C816846002102220EF0FDFBA5788DF8015060788DF80000B96B96
:2045D0002CE1786B002800F02B81684621460DF0C1FD796B22E1386B08B3684600211422FD
:2045F0000EF0E4FBA5788DF80150A3680193A289ADF80820A17B8DF80A1060788DF800002C
:20461000E57B8DF80B50237C8DF80C3094F911208DF80D2061690491396B68468847606832
:20463000002800F0FD800146F22008700020487012F0F8F9F4E0B86A002800F0F18068460C
:20465000002124220EF0B2FB6078A11C8DF800000DF1020014F034FD04F10C0103A814F038
:204670002FFD257EE08A04F119018DF818500B22ADF816000DF119000CF09AFFB96ACDE091
:20469000786A002800F0CC806846002102220EF08DFBA5788DF8015060788DF80000796A18
:2046B000BCE0386A002800F0BB806846002112220EF07CFB658862796078ADF802502379AE
:2046D0008DF80520E11D8DF80000A5798DF804300B220DF107008DF806500CF069FF396AB2
:2046F0009CE0F869002800F09B806846002101220EF05CFB60788DF80000F9698EE0B86905
:2047100010B1204610F030FEA07D002800F08880A07820B9A069002800F0828002E0A069F8
:2047300000287DD013F0AAFF7AE07869002877D06846002113220EF039FB6D46A01C016890
:20475000406829600B22686004F10A0102A80CF02FFF796962E03869002861D020460CF0CF
:20477000C7F95DE0F86800285AD0684600210E220EF01CFB6078A11C8DF800000DF102004C
:2047900014F09EFCA089ADF80C00F96846E0B868002845D06846002114220EF007FBA01CEC
:2047B00001686D46296040686860A07A0B2204F10B018DF808000DF109000CF0F9FEB968E4
:2047D0002CE0786860B36846002110220EF0EEFA60786588211D8DF800000B22ADF8025037
:2047F00001A80CF0E5FE796818E03868C0B16846002119220EF0DAFAA01C01686D462960FA
:2048100040686860A07A02A912F062FB0B220DF10E0004F10B010CF0CBFE396868468847D7
:2048300012B0B0BDC41E00202DE9F04FBD4DDFF8FC92BF4C4FF000084FF0010AADF11C0D10
:20485000E0694FF0FF3115F01DFAD9F80400804727896689A288A4F80880E188A4F80A805C
:20487000114347EA010246EA0201A180D9F80810A4F806808847A088010A24BF20F08000CC
:20489000A0800927D9F80010ADF802700820ADF8000068468847DDF808B00028CDF80CB040
:2048B00039D120789DF80620616A904233D139B1A078401E02D0401E02D126E05846884714
:2048D00058460DF09BFA071C25D00C2013F08EFB061C1DD0D9F804008047B7603B7883468A
:2048F0005BB92069314615F0C9F9A08840F01000A080E06915F0BEF905E0304613F0FEFEE6
:20491000384613F0FBFED9F808105846884702E0384613F0F3FEA38858092ED3206915F048
:20493000A5F9E8B9D9F8041014F062FFC0B988470646206915F096F9071C0DD0B868406865
:20495000A061B968486849880DF0A0FAB86813F0D5FE384613F0D2FED9F808103046884798
:20497000206915F083F920B9E06915F083F9A38803E0A38823F01003A3809808C0F0948094
:2049900080E004A8514612F051FD287800286DD0401E71D0401E5ED0401E47D0401E1ED023
:2049B000401E6FD19DF810006978A8706F68A868C91CCEB20590314614F042FC9DF810105C
:2049D000814205D147B1059930464246B84703E05548006813F0A2FE85F8008052E0AB68CE
:2049F000E8789DF810701918CF70E878401CC7B2EF7013F053FF6978C6B2C91BB1420CDBC2
:204A1000D8193146C01C12F011FDE87869783618F0B2E870814224D034E0DB1989B2DB1CB8
:204A3000184612F003FD6878E8701AE09DF8100085F803809DF810706870F81C13F09AFA97
:204A50000028A86008BF85F8008020D06978017085F800A016E09DF81000A968887068786F
:204A700010B9052028700DE00420FBE79DF81000FE2807D10320F5E79DF81000A96848709D
:204A900002272F7013F00AFF00287FF47AAFA38813F004FF002804BF23F00203A38003D044
:204AB000E06915F0E7F8A388180927D3606915F0D9F8071C15D0216A69B1607858B1401EE8
:204AD00002D0401E0AD103E0B86811F057FD216AB868884702E0B86811F050FD384613F018
:204AF0000DFE606915F0C2F820B9E06915F0C2F8A38803E0A38823F00803A380D808FFF4E5
:204B10009FAE23F004032069A38015F0AFF800287FF496AEA08840F01000A080E06915F011
:204B3000A9F88DE6001F0020081F0020C41400209C070020BA482DE9F84F0025B94CB74987
:204B5000056094F8E200002800F06381012800F02F81B54E02283CD0032840F05A8151F8F5
:204B7000250CD4F8B8100029A0F5C060C4F8D400B8BF49420028B8BF4042814226DA4FF0CD
:204B90008057D7F8A4014568B4F8BC0030214FF47F42082300903046A847D7F8A40145680F
:204BB000B4F8C00004214FF4F802122300903046A847D7F8A401B4F8D070456820214FF45C
:204BD00040620A2330460097A847012584F8D8501AE151F8258C14F0F9FD2F4600B90127EB
:204BF0003946924F38680028FCD0B146012609F10409D9F82CA03E6009B114F0EDFDCAF3EC
:204C10000720C4F8BC0014F0E1FDAA4600B9B2463B68002BFCD0D9F800B0BAF1000F3E60EF
:204C300001D014F0D9FDCBF38440C4F8C00014F0CDFDAA4600B9B2463B68002BFCD0D9F8E1
:204C50001C90BAF1000F3E6001D014F0C5FDC9F38120C4F8D000B8F5C061C4F8B81000F07E
:204C70009C8094F8D80068B9C4F8D410D4F8C000C4F8C800D4F8BC70C4F8C470D4F8D0301F
:204C9000C4F8CC30D4F8D410D4F8BC30002954BF02206FF0010004F1C802176801EB4101BA
:204CB0004018411000EB917107EBA1001060D4F8C810C4F8C43000291CDD1E293CDDD4F8A9
:204CD000CC0030B93429B4BF15391E21C4F8C81025E02A29BABFD4F8C8000B381E20C4F87C
:204CF000C800D4F8C4003F28B4BF401C3F20C4F8C4001FE0D4F8CC00032812D011F10B0F77
:204D1000C6BFD4F8C8000B30301CC4F8C800D4F8C4000028C4BF401E051CC4F8C4500325AD
:204D300008E011F1150FC6BFD4F8C8001530301CC4F8C800C4F8CC504FF08057D7F8A401C5
:204D5000B4F8C43030214FF47F424568364800930823A847D7F8A40104214FF40032112334
:204D7000456831480096A847B4F8C860D7F8A40104214FF4F802122345682B480096A847F4
:204D9000D7F8A40120214FF440620A23B4F8CC60456825480096A84701E084F8D85040F20E
:204DB000FF50404502D8801C40452DD208202EE051F8251C1E4F4BF2F5204843060A38685B
:204DD000C0F3814001280AD113F04CF911F066FE14F008FD3111C010484306EBE03694F865
:204DF000E50030B91348006820F07F408019460801E084F8E5501048310C06600127416006
:204E10000E4D8760287808B90B2000E0052084F8E40005F03DFBBDE8F88FC0462D400C4037
:204E30002C500C40C811002000A00C4000800C40B43F0050102009403C600C40490A0000F2
:204E50002DE9F04FA54DADF1340D2F680A9017B914F0E0FB2F68A248DFF89CA20678002EFA
:204E70003ED00026388979689E4B0796C400097818781034890906D340F6485191FBF0F106
:204E9000091901F5AF743B7D60438400352B0CBF371C4FF4FA570DF12601E82011F03AF975
:204EB0009DF82600032808BF44F620672868007D3C19352807D113F0D9F9014628686C3095
:204ED0000FF01CFE4443022057468DF8200007F10C000068069406A909F05AF8824806707E
:204EF00082490120824F08703978012902D0002102F06EFD28680489466813F04FFDDFF851
:204F1000FC813088000946D329684046403890F84070002F3FD081464A6A4F6E906AB0F152
:204F3000FF3F26D02FB3431C93628862030E07F80139286890F82A0007F80109286890F860
:204F5000290007F80109286890F8280038702A68106A00940190801B201A80B20290916A62
:204F7000506A92F888203346153007F04BFE054600E0DB25D9F884706DB11FB9E4200DF050
:204F90000FFB05E05B4900200870E42039468847002D40F09F80214630460DF0C9FB6420E6
:204FB00009A911F0B7F8454651462F78DFF850A1087837B9504600780AF0DAFF012805D09F
:204FD00085E00AF0D5FF012840F081804D4DA01C87B20DF1250105F178000780E92011F082
:204FF00099F89DF825004FF000094946012805D13C46C4F3022040F0180005E0241DA4B261
:20501000C4F3022040F0080006F8010D06F8014D2C469DF82470A4F86A10002FC4F8846097
:205030000CBF394839486186C4F8C000384EC4F8800002208DF8140094F83D0000F0F0000A
:2050500040F0030084F83D007068CDF8109080470B90DFF8C080244F0A9804F13005B34666
:20507000012816D0042814D088B105280CD0032807D150461030007812F00AF8C07B022805
:2050900007D004F1680504E0DFF88C8001E004F14C05386A184B066D494602208DE8030038
:2050B000D86804AA29464346B0471C490880DBF80810002809D41A4A92F900006834401C3F
:2050D00010700B98FC60884704E00B9888471A200DF066FA0DB0BDE8F08FC046700E002000
:2050F000F31D0020741E002078180020E71E0020C51F00206E390020A41C0020B015002059
:205110002F0E0020E41300204E9055550E7A5555C414002049B3000021E90000041D002012
:20513000EE1E0020B2492DE9F04F09781346ADF1240D814240F0598158781F789E7806905A
:20515000FA2F079600F3398100F01E004FF001090A2880F22E810698A64900F01F0051F83D
:205170002060002E089600F02481069ADD1CADF80C70079E8DF8082028468DF8096032F0B4
:205190007F04049000F01181002F4FF0040A00F0F68001781B798DF80B1021F007048DF836
:2051B0000A30083C00F0E480DFF84C82083C4ED0083C07D0083C40F0D880032F08BF4FF0E7
:2051D000000ADCE0032F40F0DA80841C04944446257DADF80C900027012D30D1257F9542C7
:2051F0002AD1627FB24227D1E27F514011F0070F22D1A17F99421DD18078A8B1401E12D061
:20521000401E032818D9001F02D0401E14D008E0607D1B1AB3F1FF3F06D007200FF02AFFD0
:20523000A1E008270EE0B94602A849460CF00EFA074604E0032705E007200FF01BFF002FD5
:2052500000F091803A4602A82021002789E0042FC0F295808346A81C14F0E8FA4446054600
:2052700020783F1FFEB2002701282BD19DF80810227A914223D19DF80910627A91421ED1D0
:205290009DF80A10A27A914219DB9DF80BC0E37A9C4512D1A3899D420DD1914206D0A17840
:2052B0008E420DD0A1888E4205D109E002202070A1788E4204D0574602E0022700E0032758
:2052D000216927B99DF80A30042808D020E0084613F0E4F9504620709DF80A30A372ABB9E5
:2052F00002A90EC904F1080080E80E00284612F055FE2061002804BF2078062708D00020BD
:205310006070A670A580A581207005E007B90327042822D002281CD02069A2789DF80A1067
:205330008046514389B2324640180BF104010CF03FF99DF80A00A072A088801B86B2A680F1
:2053500036B9CDF81080ADF80C500627D14602E02078042801D04E46267004F108001821DD
:205370003A4612F09DFDBA4609E04FF0050A06E07F1E401CADF80C704FF0060A0490D146D0
:20539000B9F1060F15D1089902A888478146049878B10190194808210527ADF8001001684D
:2053B000ADF802706846884703E0089902A888478146B9F1000F02D10FE04FF00409069820
:2053D000079F8DF81490002103228DF8150005AB8DF81670602004F093FF09490888401C0F
:2053F0000880002002210DF0A7FB09B0BDE8F08F9C070020C81D0020A8380020C414002096
:20541000981A00202DE9F04F0646AE4CDFF8B892DFF8BCA220680F46ADF13C0D4FF0000BAB
:20543000017DADF80CB0252900F008816C3005A904F066FB002818BFC0B240F0408101A80C
:2054500004A90DF0EDFC13F053FE00280CBF41F2081543F2C82504A901A80DF0E1FC99F82F
:205470002F10019B32684FF47A784046484308FB1300801A8542C0F2DE80D9F80810C91A0E
:2054900008FB01F1891A8D4200F3D580854209DD002807DD95FBF8F04FF4916100B201FB39
:2054B000002030609DF81F0000285CD042F204000DF1350110F078FA13F0A0F904460698C2
:2054D0000DA9241A42F2060010F06EFA9DF834109DF81D00FF2904BF0A218DF83410FF2895
:2054F00008BF0A209DF8342078499DF81C304546B4FBF1F1801880B2484399106943814297
:2055100098BF081C41F20814241805A812F0C1FE9DF81C20D6F800C0B0FBF2F15143411A2B
:205530008BB241464B434A43D51AA5EB0C0ED21A6546521B944201D9002A09D562427245CC
:2055500013D2BEF1000F10D5B4FBF1F10AB203E06200B2FBF1F18AB231684FF4916303FB88
:205570000215356001E03568584604460DF1120102A80DF055FC0298D9F808105E46B5FB29
:20559000F8F210180290814203D999F82F30834204D9534603F158052D7835BB9DF81C00F6
:2055B00014190004A04298BF241A9DF81F00002808BF9DF8200016D09DF81C00B4FBF0F0B5
:2055D00084B29DF8330010F083FD9DF831200146204610F015FD044612F048FE024608A90D
:2055F000204610F037FB54460DE0814204D8BDF81200401CADF812005446BDF8120094F816
:205610005B100EF0A7F838702E4D84F8B5002868007D052810D12F48007868B9387803A997
:20563000ADF80C0042F20C0005F0B6FBBDF80C00A4F8B00000E06526304640E013F058FD5D
:2056500000280CBF41F2081543F2C825224800784FF47A7404FB00F13068491BA1F5FA62E4
:20567000824206D2A1F57A61B0FBF1F24A43801A306068460DF10E010DF0D2FB3068009912
:2056900099F82F2004FB010154430091611A8D4210DCA4F5FA648C42BCBF00F5FA6030609C
:2056B000544694F85B10208F0EF054F801465846397002E039785446652084F8B5100FB010
:2056D000BDE8F08F700E002094350020A0860100D8340020150E0020C33500202DE9F04F0C
:2056F000002898461446ADF12C0D00F0F78011F47C1F40F0F08011F00F0F00F0EF800746F1
:205710000591002006900A904FF0000A0990554608954FF0010BCDF810B005465046079031
:20573000059805990BEA000021EA0B014FEA4B0B401E059100F0AF80401E74D0801E61D0FF
:20575000001F40F0C28042F205000DF10E0110F02BF99DF80E00002800F0B7801CB12766F2
:2057700094F86B0006900720152607F8010B022301A907F8016B42F2010007F8013B10F075
:2057900013F9684603A90DF04BFB069810F0C0F80099019A3E4640180090824206D8801A1E
:2057B000BDF80C300090581CADF80C00009B50085146814609041804030C194300045346B1
:2057D00010EB090041EB0A0102F006FEBF1D0090BDF80C309DF80C009DF8002006F8010BCB
:2057F000181206F8010B9DF8011006F8012B9DF8023006F8011B9DF8032006F8013B093584
:20581000327061E00220152607F8010B042307F8016BB8F1000F07F8013B0CBF099898F8AC
:2058300000002D1D4EE01CB1E76594F86B00069005201526049B07F8010B0DF10F0107F823
:20585000016B42F2040007F8013B10F0ADF802A811F08EF8069810F05BF802999DF80F2033
:205870009DF80F60069B0918080200EB6200B0FBF6F002903E469DF808109DF8092006F8EB
:20589000013B3F1D06F8011B9DF80A3006F8012BED1D337018E00320152607F8010BB8F196
:2058B000000F07F8016B034607F8013B04BF0A9807F8010B05D098F8000007F8010B98F86A
:2058D00001006D1D07F8010BADB2059800287FF427AF2E4661E011F00F0F01D000205DE0B3
:2058F00080468A4602264FF4803908F1020509EA0A002AEA090A4FEA4909B0F580301AD0F0
:20591000B0F5803014D0B0F500300ED0B0F5802009D0B0F5002004D0B0F580102AD1072479
:2059300004E0062402E0052400E00424002704E00224012701E001242746A81C214600F04F
:2059500091F947B104F00F04C0F30A0141EAC42141F4004105E004F07F0400F0FF0141EAF3
:20597000042105F8011B36180912B61C2970B6B245196D1CBAF1000FB9D1022ED8BF002685
:205990000BDDB01E4FF6FE7708F8010BB819C0F3022040F0A00088F8000030460BB0BDE8AF
:2059B000F08F70472DE9F04FAB4D05F128000068ADF1240D10F062FD08B113F005F9A248FC
:2059D000DFF898A2DFF888B20068A54C089012F039FC12F0C3FEEE69AF69B6F57A7F13D0B4
:2059F000C01B4FF47A720023A6FB000102F0F4FC80464FF47A72002313F046FC32460023EE
:205A100002F0EAFCC01901E0A0EB0708A8618D488C49006820F00200086060688047DBF853
:205A30000010DBF8043046467118B1F57A7F0DD34FF47A72B1FBF2F2D2184FF47A73CBF80F
:205A500004201F46B1FBF7F25A43891ACBF80010A168884760688047DAF8041002467018E8
:205A7000A168CAF8040010468847DAF8000000285FD007464FF00009606880474FF000088E
:205A90001FFAA6F3079083B95FFA96F36BB93979F0B2884204DD79683046884209D20AE086
:205AB0003879F1B2401A387108E079683046884201D3414601E07968091A7960B88878B9EC
:205AD000FB8853B9FB6843B13B8933B1B87A19460BF004FAF8687860B88808B9FB880BB126
:205AF0003B896BB9B9F1000F04BF3868CAF8000003D03868C9F800003868B846074601E0D0
:205B1000B9463F68A16807988847B8F1000F0ED0B8F8043043B9B8F806302BB998F80A007E
:205B3000B8F808100BF0DAF9404612F0D7FD002FA2D144484349006840F002000860E86857
:205B500028B3804723E016F8060C2969A6F10C07032819D0E96A9DF816000978884210D1F6
:205B700016F8080C11F06AFFB979012903D0022908BFB07000E03070002031460EF0EEFD48
:205B900005E013F021F802E009B13046884708200727ADF810002168ADF8127004A88847DD
:205BB000069E0028CFD0294800680088C8B1606880472649096800220E880A80A168884707
:205BD000089A00203146287090470646FF202870606880471D4909680A8816430E80A16822
:205BF000884712F02FFB0746B7F1FF3F1CD0606807B9184F296AB94238BF0F1C80471C23D6
:205C100006466A6AADF802300820ADF800002168019268468847A96A3846491CA96210F016
:205C30001FFFA1683046884708200A27ADF808004FF0FF36ADF80A702168039602A88847B4
:205C5000C5E6C04610E000E02C0B00005C390020141F00208EC2F528741C002040390020BE
:205C7000C4140020F0B504460846ADF16C0D401E6BD0401E0DD0801E00F00381401E00F094
:205C9000E980401E00F0DB80401E00F0A88000203CE142F2010007A90FF086FE42F20B0088
:205CB00008A90FF081FE42F206000DF165010FF07BFE42F207000DF166010FF075FE42F249
:205CD000050019A90FF070FE04A80BF011F805460DF1670142F209000FF066FE9DF8670083
:205CF000002808BF002303D0022011F04CFF034607A8006808A920600988271D3C46B81C85
:205D1000218005F007079DF865609DF864109DF8662000F8011B9DF8674000F8016B03F0AA
:205D3000030600F8012B620747EA926104AC41EA8611012700F8011B9DF8672000942946CC
:205D5000019707F081FC0A3099E042F206000DF165010FF029FE42F207000DF166010FF011
:205D700023FE42F2040019A90FF01EFE04A80AF0BFFF05460DF1670142F208000FF014FE7B
:205D90009DF86700002808BF002303D0012011F0FAFE03469DF864009DF8657004F8010B44
:205DB0009DF8666004F8017B9DF867209DF86770790704F8016B03F0030705F0070646EA61
:205DD000916004AE40EA8710294604F8010B002700962046019707F037FC001D4FE042F273
:205DF000150011A90FF0E0FD13AD42F2160029460FF0DAFD15AE42F2170031460FF0D4FD44
:205E100017AF42F2180039460FF0CEFD11A801682160406860606A6804F108035A602868F0
:205E30001860306803F10801086074684C60386801F1080528607A686A60202066E042F2C8
:205E500014000DF122010FF0AFFDBDF8221002200A1258E009A8002120220CF0A7FF42F20B
:205E7000130009A90FF0A0FD09A813F033FB024609A920460BF09CFB09A813F02BFB80B2D1
:205E900044E042F20E0002A90FF08EFD0DF10A0142F20F000FF088FD0DF10B0142F20A003F
:205EB0000FF082FD03A942F210000FF07DFD0DF10D0142F211000FF077FD0DF10E0142F2E6
:205ED00012000FF071FDBDF808009DF80B209DF80C709DF80D609DF80E509DF80A1004F805
:205EF000010B02F00102001204F8010B07F0010042EA400206F0010042EA800205F0070070
:205F100042EA4012042004F8011B22701BB0F0BD2DE9F04F06469E48001D0068ADF1340DC2
:205F300080470B900AA9822005F0B4FA9DF8280018BB00248DF828404FF6FF75ADF80450A4
:205F50009DF82800ADF80650FF2108228DF8000002A813F0CCFD8DF81840D420694602F0C2
:205F70002DFC9DF82800401CC0B28DF828003228E4DB82200AA902F021FC0020DFF808A292
:205F9000DFF808828DF8280081469DF828008DF8019069468DF80000D02005F07BFA012793
:205FB0004D46E8B99DF80B30012B07D19DF80A0020B90DF1020013F02BF988B9747B002CCE
:205FD0000CBF052209224F469C4209D10DF1020006F10E0112F022FD002818BF012507D123
:205FF000002F40F0BF801DB9707F002800F0BA804C469DF828008DF8214008A98DF8200051
:20601000D12005F047FA002832D19DF82200FF282ED08DF800006946D42005F03BFA0028C8
:2060300033D102A8311D082212F0F8FC00B330887788ADF80400ADF8067045B1307B9DF8D0
:206050002810B7698DF818000DEB81010F61D420694602F0B3FB75B1307F9DF823108842A7
:2060700009D08DF8230008A9D12002F0A7FB02E0641C322CBDDB322C74D14F468DF80070D4
:20609000D420694605F006FA28B1DAF808100B988847192074E002AB184613F0B9F84C4645
:2060B00000B101242046341D30B918462146082212F0B4FC00284AD030887388327BADF872
:2060D00004009DF82810ADF80630002D8DF818200DEB810000F110000CBF4946B169082202
:2060F000016002A8214613F0B7F898F8400030B1D8F890201AB19DF80010204690474C46FC
:206110009DF828008DF8214008A98DF82000D12005F0C0F9E82807D09DF82200FF2803D03F
:20613000641C322CECDB10E09DF800008DF82490337F8DF8220069468DF82330D42002F026
:206150003DFB08A9D12002F039FB322C02DB7F1C322F93DB322F05D1DAF808100B988847F7
:206170001A200DE09DF82800401CC0B202288DF82800FFF60AAFDAF808100B9888474846EE
:206190000DB0BDE8F08FC046C414002070150020C41400202DE9F04F0546954C6F780026E5
:2061B000ADF1540D3846312810DC312800F0D680002800F01681401E00F00C81401E00F096
:2061D0000581B0F12E0700F0E180FDE0323800F0AE80401E4ED0401E012816D9801E40F0DD
:2061F000F380A88802280DD12068002808BF182109D0A86813F01AFB2168884713F0E6F9F9
:20621000014600E027213620DBE010342068B84668B3A86802A912F0ABFCB8F1340F034670
:2062300018BF301C02D113F001FB9B1C13F8017BB8F1350F024603D1A988B81D884213D05F
:20625000B8F1340F0ED1A98807F10800884209D1009364683B4602A803C8A04713F0B6F9A0
:20627000014605E0272103E024683A46F3E718214046A6E0A88808284BD10C342068002820
:2062900045D0A86804A912F073FC024613F0CEFA95788346F82DC8BFF825DFF858814FF00A
:2062B000080A0420AF1CADF83A00D8F80010ADF838A05FFA87F90EA8CDF83C90884720BBC7
:2062D0001098074608B3801C0090246804AB93E803005A462B46A047041C07D13C704946EE
:2062F00033203A467D7013F0DDFA02E013F06EF904460520ADF81A004546ADF818A0296801
:20631000079706A888472CB96EE01A2402E0182400E0272411A8314602220CF047FD8DF87F
:206330004440332011AA022113F0BCFA5CE0A888314605280BD11834206840B1A86808A96D
:2063500012F016FC226808A803C89047014612A810F0A1FD3220042112AAE5E7A888052842
:2063700011D108342068002808BF18210CD0A8680AA912F0FDFB22680AA803C8904713F0C5
:2063900025F9014600E0272131201AE0A888092815D1241D2068002808BF182110D0A868ED
:2063B0000CA912F0E5FB12F0B6FF246802460CA803C83346A04713F009F9014600E0272158
:2063D000302013F0AFF80FE026260DE00A4A02200521A9E713A8432113F022FA13AA012043
:2063F000A1E7012010F0D4FF304615B0BDE8F08F64020020C4140020C40A00008D492DE97A
:20641000F04F0A680546ADF16C0D15A8026049684160894C94F8B30005F1280A05F1280787
:20643000002800F004816878002840F00081FF20824B8DF818001E78E86C012105AA02F0C0
:2064500093FBDFF8FC91DFF8048228B99DF8180008B99DF81C6068BBA88900F00700022808
:2064700014BF04200520A873A88900F00700032807D16B684046001D01681878042800F01F
:20649000958095F83000022814D148460078012810D06C4905F1280002220E46203112F05E
:2064B00063F838B906F116010DF13E0013F0CFFA0DF13E07686E002800F0B980012102AA32
:2064D0000BF074FD002840F0B2809DF80800A873E86C40B1394612AA0DF14A03FDF77AF8CD
:2064F000002840F0A4800DF14A000090686E394612AB07F069FC002840F099804846007853
:2065100001284FD04FF4005013A90FF04DFA13A815A9082212F028F830B113A83946082284
:2065300012F022F800283DD194F85900002839D0A66CB4F8445042F2010004A90FF034FA82
:20655000049A4FF000410020E2FB0610061C206D13F006F83C49861908600498B04202D856
:206570006D1C361AADB24746786880475FFA80F8206CB04204D1208FA84208BF002608D01D
:2065900026642587002084F8350012F037F90126E064B968404688470EB10CF05DFE01209A
:2065B00084F85800002084F8590040E0CDF85CA08847284CB3464FF000090A26189095F838
:2065D00030702348CDF864A0804610F807A0207AB84206D119995246204612F01FFA012803
:2065F00004D0761E04F10C04F1D100E0A1465FEA09070FD198F80601164F461C810088F8FD
:20661000066101EBC001F0B27F180A2804BF002088F80601179938460A2212F01DFE0B49B6
:206630001898896887F80AB088470420A8731BB0BDE8F08FF00A0000D8340020A41C00206D
:2066500070150020EC0D002058390020C4140020DC1200206A1300202DE9FE4F0646307DBC
:2066700001280AD196F917000DF0E8FF4FF6FF71814208BFE82000F00681F07B834A20B9AD
:206690001146491C0978022908DB012803D110460078022802DBF120BDE8FE8F346AB6F83E
:2066B000289096F8347096F835B0B58B4FF000085FEA040A17D0764890F84030002B2ED0C9
:2066D000816D00292BD004F0FF0088477049896D04B20AF47F008847001900B2001D00B28B
:2066F000C43084B200E0C4240DB12D1DADB269480078012809D147B16748C11991F8048077
:2067100010F80B002418641DA4B205EB090020184044801C80B211F015FF071C02D11A207B
:20673000BDE8FE8F08EB09002B193881002D07EB030078600EBF0020E019801C00217422EB
:20675000C7F8A00007F10C0013F0D1F94C442D1907F13C00FF211022A7F84C5013F0C7F99F
:2067700007F12C000F21102213F0C1F900243C707C707868716A328D0AF01AFF07F1800005
:2067900006F12C010B220AF013FF07F18C00314612F0BCFB7089A7F89600307B87F89800E8
:2067B000707B06F10E0587F899002A6869460A60686848609DF800102046012908BF01207C
:2067D0009DF80110012908BF40F004009DF80210012908BF40F008009DF80310012908BF75
:2067F00040F010009DF80410012908BF40F020009DF80510012908BF40F040009DF80610A9
:20681000012908BF40F080009DF80710012908BF40F48070A7F89A00B07D87F89C00F07D18
:2068300087F89D00B28BA7F8A42022B1D7F8A000B1690AF0BDFEB07F87F8A600306AC7F8CE
:20685000A800B7F8A400C0B1D7F8A000A8B17868401E7860F82101707868401E78600470CA
:20687000B7F8A410B7F8A4607868401A786039897018801C38817868B865084800783946FD
:206890000DF06CFF2046BDE8FE8FC0469E0E002070150020240E0020D00A0000801600208F
:2068B0002DE9FF47DFF83482074608F1040000688047DFF8CC9100248246002F09F102001B
:2068D00004703ED011F068FA6C4D214640F27C62284613F00CF9FF210822681D13F007F94B
:2068F000FF21082205F10E00697313F000F902272E4603214FF6FF720120A97704232A84D5
:2069100005F5DC7505F8040F6B70A9707F1EEB70F8D106F5CE654FF0050C022705F8040FA0
:206930006B7085F802C07F1EE870F7D186F8781606F5E37032277F1E20F8182BFBD10220D7
:20695000B0704D4695F8400010B1686C00B180470DF0ECFC62481C3090F9000012F07EFDB9
:2069700011F030FA12F070FD12F00AFC12F0FCFBDFF81091072609F1240757F8040B00B193
:206990008047761EF9D140480460446004614FF470018160C16009F1040007680FB10FF0EB
:2069B000EDFE3B48394F006889F80E40C0B112E0484610F0DDFB029002A80FF0DFFE21E0B8
:2069D000484610F0D5FB019001A80FF0D7FE14E068460FF0D3FE0BF09FFD00280090F7D1B2
:2069F0002C480078012803D02046014600F0F0FF29482A4E047006F12409706A0028DFD1E0
:206A100009F10409B06A0028D2D17462B4622448A86186F82E40234BEB6186F82F40224A1A
:206A30002A622249696286F83040214BAB62214AEA622149296324496960204E6E63204B90
:206A50002C70224EAB631F4AAE60214BEA63224EEB60204AD8F808102A6150466E61884710
:206A700007F1DD01522000F03DF897F8F7000EF0AFFE20460090BDE8FF87C0468826002073
:206A90007015002080160020D01E0020380D00205C390020C51F002069390020700E0020FF
:206AB000A3F80000479A0100118401004194000049E800006D890100D5960100DDC90000A4
:206AD000B5AA00008D6C010053CF0000FDB50000295201002515010075420100C414002012
:206AF000120E00202DE9FE43844E80460F46B8F1450F06D13046342212F0AEFBC6F8BC60DD
:206B1000F9E012F008F83B2808BFF42000F0F4807B4C04EB8004A07810B9E178002937D044
:206B3000E178814208BFFB2000F0E680B8F1580F24D0B8F1600F1AD0B8F1E00F0ED0B8F1CC
:206B5000E80F05D03A7890421FDC91421DDB1FE06C493878097888421AD1CCE097F9000039
:206B70000DF06CFD4FF6FF7181420ED010E038880A280ADBB0F5804F07DA09E038888F28CD
:206B900003DB47F60251814202DCE820BDE8FE835D4D686880478146207862783946801916
:206BB000B43012F059FBA968484688474046503800F09F80801E00F08680401E00F0968008
:206BD0008D3800F08E80401E74D0401E00F08680801F1DD00D3840F08E800E2096F835717B
:206BF0008DF8020017B11B208DF8020096F9F6109DF90200884204D0E0200DF10201FFF7B2
:206C100071FF12F0CFF896F8350100284FD172E0102103208DF805104FF4FA578DF80300C3
