:20000000004B0020995B0100FDC90110FDC90110FDC90110FDC90110FDC90110FDC9011076
:1C002000FDC90110FDC90110FDC90110FDC90110FDC90110FDC901103BCA0110A4
:2000400000FD00000F9D01715E010080AA7F0100A0A90100480070F5AE00B0C200F0301F26
:200060000020B53800304601B00801033F21034A067F0CB8003434067000314706715580A8
:2000800009BF007009BF012409B02C09B58981033F0C0675280CF00031067282F2067F21DE
:2000A00083104C00DFD518949C06007DC8E540070000320FD8706738C40D00F2CF601405BB
:2000C000D970AC01F800F2952B01F32201F102F4CB2F8405F49501F52F0DB5870100BF91B7
:2000E0003F01003391F7B5024508F84FF2010A147510D941B00300FAFB9803FFE5053800A6
:2001000000D4D7140020FFE183015019ADFF000080020304401F2A01B39C01B48201BC032E
:2001200003701B47EB0810FFE084FFE14E9055FAFFE20701FA21030F0080FF00230798E040
:2001400008003F7DA7FFE19303008005FFE0BD0404788001886A03F5F4FF0110580000FC5A
:200160000400F7C42264FFE9EDF70100DF8BF90100DF0030B802EC0B73FFEFA602071163C5
:2001800030403700FFA38406002040007FFF64404000030507B1FF2305330583054140FFA3
:2001A0000306CC3223060100FF02009F84020044C7FF0304010263841000FF4302B0045D88
:2001C000400140FF800200180200DF7DFF838803008460F135FF886016418C601382FF5C76
:2001E000500001A38802005F43090000630030FF000016FFED64B83E07CE00B80CFF660CDE
:2002000037B5140C38030FB0F80C0C7907FD18133F0A480A0306B87A9A12FF181A12F02348
:200220008212BD0C7F40FB8005FB0C3F250BBF04123F3811BF040BBB6169FEC0255E67BF95
:200240002D94809431941153F2C50DFE68F04000011B0000C8BE00B002002A0002967018A8
:20026000BB0C0EFFE0260002943044BB0D0E6B301200025510E03E017002000C000395B0CB
:2002800096B1BE969130B601000559406DF9732E3F34FFE1856A010099FA04F0C505309949
:2002A000770100CDF5C151707900F0ED0000F5FF8A01003161010015FF860100ED5C010035
:2002C000F1FF7A0100A95301004DAF9001002F0130450070E1FE0230B94F0000981A00C980
:2002E000200031777904FFE5A1F0882C8E617307C2015DF17A7F03017F0AC5F45E920AF0ED
:200300008C7D5600241E00F1200175027D017D06088080D5070030FEFFEF2130001C6000E5
:20032000FF5000A0004001800227F004E04970FFEF0E4051B0893B3F0100C81B00200031E2
:2003400001BF02C1E401B00031FFEF222C6F2255198436D6707F140708BF4F44305BEF1D8E
:20036000101DAB0020003118003420003428AA0034300034380034400034054116A14783A3
:20038000B17FCD02F1FFE17005F0AA003178003480003488003490F20034980034FFE53992
:2003A0005D0000DBD91DFFEF008D98FFEF081C08D7C0801D2A701E2A749C01630020003107
:2003C000AC71AC2977496E3F14EF7D81010099C1FF0014B2FFE2CC9590AD81501F9A33B8A9
:2003E000890600F3FFEF0CF00034523033C1C0E83B6F0F36F3B87C6095F0F98B01A500001A
:2004000031C43B700031CC0034D4AA0034DC0034E40034EC0034F44A0034FC0034040BF070
:2004200000310C0034791400342CB30100301848B0FF16002068170020F00A00B0CC0070B0
:20044000900130FFE94AB5FFF0007D0000004C1F00204000305944007000F1004B007005CF
:2004600000927F200101000090310174000044FFF000F30100000700B9701D0020EC01A8EA
:200480000252481F0133340100052000313C0034FFF0009D0000016CDC02007200C0D0EFAA
:2004A0001B00200300C45572011F00678A0100FFF000FD000004E81A0020401D470020018A
:2004C000010000310029EC0170000031FFF0007B0100000F00101D0020016100FFF000001B
:2004E00055350100218E0100E58E0100003D000000E81A0020FFF00002000000691700007D
:20050000000F08000000FFF00001000000FFF00001000004FFF00001000004FFF0000000FD
:2005200040000000080200204904000044010020710400000001002092040000A4010020AE
:20054000B104000078010020CE040000C8010020EC040000E4010020F8040000501F002012
:20056000000500000002002008050000EC0100200F050000F001002016050000F8010020E1
:201000003C000000000000000000000034100000000000000000000001000000000000004F
:1C10200000000000000000000000000001000000000000000800000000000000AB
:20103C003400000000000000000000006810000000000000000000000100000000000000E7
:14105C00010000000000000000000000080000000000000077
:2010700030000000000000000000000098100000040000000000000001000000FFFFFFFF87
:10109000FF00000001000000080000000000000048
:2010A0002C0000000000000000000000C4100000040000000000000001000000FFFFFFFF2F
:0C10C000FFFFFFFF080000000000000020
:2010CC0038140000E410000095A1011091A70110A1C2011009B2011041B8011000000000EA
:0810EC00000000002D000000CF
:2010F400280000000000000000000000141100000000000000000000FFFFFFFF0000000093
:081114000800000000000000CB
:20111C00341400003011000065C2011069C101101BC2011091BA011000000000000000006D
:04113C002F00000080
:20114000341400005411000071C20110A5B6011099BF011045B601100000000000000000BD
:04116000300000005B
:201164002400000000000000000000008011000000000000000000000000000008000000AE
:041184000000000067
:20118800240000000000000000000000A41100000000000000000000000000000800000066
:0411A8000000000043
:2011AC00240000000000000000000000C8110000000000000100000000000000080000001D
:0411CC00000000001F
:2011D00000000000C41E002004000000000000000000000020000000701000003000000029
:2011F0001C110000CC1E00200400000000000000000000000C00000030130000180000003D
:2012100040110000D41E0020040000000000000000000000240000004813000018000000C0
:2012300000000000DC1E002004000000000000000000000010000000A01000002C00000094
:20125000CC100000E41E0020040000000000000000000000200000006411000024000000C3
:20127000FFFFFFFFEC1E00200400000000000000000000002800000088110000240000004F
:20129000FFFFFFFFF41E0020040000000000000000000000580000003C1000003400000034
:2012B000FFFFFFFFFC1E002004000000000000000000000010000000601300001800000049
:2012D000FFFFFFFF041F00200400000000000000000000001C000000AC11000024000000BE
:2012F000FFFFFFFF0C1F002004000000000000000000000038000000F4100000280000002F
:20131000FFFFFFFF141F002004000000000000000000000054000000001000003C000000CA
:1813300018000000000000000000000040130000080000000000000032
:1813480018000000000000000000000058130000080000000000000002
:18136000180000000000000000000000701300000800000000000000D2
:081378000100000024BC01008B
:041384000100000064
:0413880000000E0053
:04138C0000000F004E
:041390003200000027
:041394000100000054
:04139800241E0020EF
:04139C00000200004B
:0413A000AD9001000B
:0413A400FDC901106E
:0413A8000000000041
:0413AC00000000003D
:0413B0000800000031
:0413B4000000220013
:0413B800B41B002042
:0413BC00010000002C
:0413C0003C1E0020AF
:0413C400080000001D
:0413C8000000000021
:0413CC00000000001D
:0413D0000000000019
:0413D400080000000D
:0413D8000000000011
:0413DC00000000000D
:0413E0000100000008
:0413E400401D002088
:0413E80006000000FB
:0413EC0001000000FC
:0413F000981A002027
:0413F40000000000F5
:0413F80000000000F1
:0413FC0000020000EB
:0414000000000000E8
:021406002900BB
:021408000100E1
:02140A002500BB
:02140C002F00AF
:02140E003000AC
:021410002D00AD
:021412000100D7
:0114140001D6
:0814180003000000CCBB010041
:081420000000000000000000C4
:0414280000000100BF
:04142C0000000300B9
:0414300083C4011060
:041434003C14000064
:041438003C14000060
:04143C0000000000AC
:041440008000000028
:041444008000000024
:0414480000000000A0
:04144C003C1E002022
:04145000178D0100F3
:041454002000000074
:0414580070BB010064
:04145C00CCBA010005
:0414600009C30110AB
:041464005F7A0100AA
:041468009B7D010067
:04146C0095C801100E
:0414700097C8011008
:041474000000000074
:041478002AB701008E
:04147C009CB9010016
:04148000B4B90100FA
:0414840084B9010026
:0214880008005A
:02148A00090057
:02148C0001005D
:02148E0000005C
:01149000015A
:041494000000000054
:041498000000000050
:04149C00000000004C
:0414A0000000000048
:0414A400439101006F
:0414A800A96901002D
:0414AC00557D010069
:0414B000C96D010001
:0414B400936E010032
:0414B8008572010038
:0414BC00FD2E010000
:0414C0002F8E01006A
:0414C400514401008E
:0414C8000DC801103A
:0414CC001DC8011026
:0414D0000800000010
:0414D40024000000F0
:0414D80018000000F8
:0414DC0028000000E4
:0414E00020000000E8
:0414E4003C000000C8
:0414E8000C000000F4
:0414EC0034000000C8
:2014F000CA482DE9F04F0C4601210170DFF82493DFF82483DFF824A3DFF824B3C4494FF0EC
:20151000000C2027ADF14C0D65461F4081F800C0C7490E9391F838600D9205EA020008BF05
:2015300000287AD10D984FF0E047194662460F4002EA000008BF002843D10E9E0D9B4FF441
:201550008601B9F8B200DFF80CC3CDF8289012EA060701EA030108BF002919D1BC4912EA9B
:20157000060701EA030108BF00296FD0374643460D9E1C8103F130015881002F81E8C0008C
:2015900004BF311CB1F1806F60D102285ED111E0374643460D9E1C8103F130015881002FA4
:2015B00081E8C00004BF311CB1F5803F4ED1B0F5505F4BD1186A674643693868214698472D
:2015D00042E04646C449B6F9087091F90000BC42A0F10100087017D1728906F1300003C8B2
:2015F000002904BFB0F5803FB2F5505F08D0002904BFB0F1806F022A02D012F005FB03E0FE
:2016100013F062FF17F052F9524692F90000401E10706FF00101318114E043466FF0010013
:2016300003F1080108806EB1B4480078832802D08120594608704646316919B160468847E8
:201650002146E8E7CDF82890B9F8B2000D9A0E9E02212F461140374008BF002900F07C83D2
:20167000A84A43F201418142119200F04F83C91C814200F04B8398490A4691F9001047460B
:20169000491E1170B7F908108C4205D043F60401814240F04A8346E3654890F838C007F19B
:2016B000300090E800034FF482062F4617EA090706EA080008BF002810D15748303003C88C
:2016D0004FF400322F4602400F4008BF002A02D112F09AFA29E313F0F7FE26E30020BCF14B
:2016F000010F4FF081045D460F9003D0287808B117F012FB2C70824C002067786081119E8B
:20171000E770054635702069DFF8FC91017A457A05F0070201EB022135F07F05A1F10401FE
:201730001FFA81F840F0D982B8F5006F80F2D5820A30414610F02CFDE16904F11400052233
:20175000083117F007F9A8F1030305201FFA83F8E27DA57D6081217E354B0C96C2F30110F8
:20177000109093F83800617105EB022518B91099022900F0B2821099022900F3AE8260B13C
:2017900015F0070F00F0A9825C480078862804D105F00700022840F0A082281300F0020AB5
:2017B000BAF1020F58DAA37805F00700022841D14E46D6F804B0002B3CD1E16909A801226C
:2017D0000D3117F0C7F806206081D84780460B96C24F4A48B6683A680078862822D122B911
:2017F00017F09AFA48463A6886689DF9240017F096FC9DF924705077002090774046D777E1
:20181000B04705F0100011F01BFC0DE08A1E0020801E00206C14002050190020861E002044
:20183000B43600204046B04716F0D0FE59E2C046F8150020314800780026862808BF01261C
:20185000CDF82C905EB1002013F0B0FEE77805E000000C8C5C1C0020CDF82C90A37887B1CF
:201870007BB9012F00F03682022F03D115F0070F40F03082032F04D105F00700032840F0EC
:201890002982280908D315F4405F00F02382C2480778002F00F01E82BAF1020F02DAA80AB2
:2018B00080F01882BE480078C0F3810B8611BBF1010F00F00F82012E00F00C821099B74828
:2018D00002290BD010F80B10805D4018C7B20EB3E8091FD3BF1E0EE0871E002000EB0B01F6
:2018F0008019097900794018C7B2E8090ED25BEA06030FD0BF1CFFB20CE0C046B8360020E9
:2019100010360020B63600204C1500205BEA060308BF0227C5F30029A7EB09008045C0F293
:20193000D981A8EB07002909484480B2208124BF25210F910F994018743080B216F062FF0C
:2019500094F80280E060002800F0C4810021742210F01FFF0020B8F1000F207103D10C9915
:2019700005F0200008700C9803784FF00008002B53D0B9F1000F50D1D548008805F007019A
:2019900003291ED18108424609D3544991F82E30A3B90B681BB15B7E33F07F030ED16AB990
:2019B0008008C24607D3D6498B68887813B1984794F8048010B9BAF1000F02D004202071DE
:2019D0008046D14890F8383013B11098022824DACC490220002301F10A0AB8F1000F8AF8FA
:2019F00000006279CB72AAF1020007D000F1020A9AF8001041F010018AF8001002710A9AC1
:201A10000521A2F87810C2F8840016F0F9F85046032110F0BDFB94F80480E16801F1740008
:201A30004860886523890B812089A1F85C0028090ED3C9F1030082B2A1F85C20886DD54900
:201A500016F088FFE1688A6DB1F85C00801888655348D04B0078C0F3011218788D81B9F1E3
:201A7000000F00F0780040EA020048EA00050D744FF0FF038B730CBF6079002081F83060EF
:201A900081F83AB081F849006089002FA0EB090085B2658100F01381E0693A46E780291853
:201AB0000831684616F056FF3D48EE19B5B26581E16800780A7C6E46C0F38103C0F3011AFB
:201AD000C0F38108002B02F0400949D0C0F301100023022804D1D0090ED201E0F40E002099
:201AF0009DF801209DF8000000EB0220A1F844000DF10206A1F84200AE4AB1F84400B2F831
:201B10005220824203D04FF6FF72824222D1B8F1030F12D072783078A64B00EB022082B2DE
:201B30004A86B3F85010B61C0120914211D04FF6FF71914218BF00200BE0E0683146323088
:201B500017F0CDFAE0689B493230473116F04CFD08360346002B00F0B5802046E168C07D8F
:201B7000831125D0BAF1020F03D0087CC00903D309E059EA080206D172783078B61C00EBBE
:201B90000220A1F84200032B0CD07078327802EB00220A850CE0C046F0100020D8BB010058
:201BB00027360020E0683146283017F098FAE16888890009C0F08380886D3A46694616F0A8
:201BD000C9FEE068816D79188165E669B0F85C1001227F18A919A0F85C7008310DF12500E2
:201BF00016F0B8FE6F1CBDB26581E1689DF82500896D0870E2689DF825609DF82530906D7D
:201C1000401C9065B2F85C00401CA2F85C0006F0070082F82400C3F3C10182F825102089A0
:201C300092F824708046002F4CD0604F7F183E78361D8642E68045DCE0692918324608318C
:201C500005A816F087FE3A789DF817C0111D481980B29DF81450608105EB0C60E3689DF847
:201C7000165000EB05409DF81550042900EB052098610BDDE06806A9521E1C3016F06AFE85
:201C90003878E3686844C07D83F82600986D05A9324616F05FFEE068816D71188165B0F8D4
:201CB0005C10A8EB06077118A0F85C10791E89B22181B0F85C2001818918A0F85C1000F0CC
:201CD00059FC0EE017F01EF911F09EFF09E0C0461017002016F09CFF03E016F099FFCDF8D8
:201CF0002C90DDF82C80D8F804008047E1690A68002313710968E161D8F80810884714E03B
:201D10008C1E0020801C0020F815002040462A4F80784146401C887097F900003946401EC1
:201D3000087011F071FF16F0E1F926480A99214F00226FF0010690F83800A1F8B2203E81D7
:201D500010B11198007808B916F0B0FD1B481B4990F90000401E0870174890F9000010B946
:201D7000134800210170154890F90000A0B10D9A0E9F02214FF0E0401140384008BF0029A0
:201D90000ED00E4890F90000002809DC16F0C4FF06E0C046263600200020014605F0A2F941
:201DB0000749002013B00870BDE8F08FC0BB01007E1E002050190020871E0020861E0020FA
:201DD0008A1E0020F81500202DE9F047044660784FF0000AADF1200D42280DDC422800F0CE
:201DF0009783401E0E2813D92F38082821D9103844D0401E37D07CE3433825D0401E00F0CA
:201E100083830C3800F07C83401E00F0758370E3DFE810F05F035703A20338039E039A033F
:201E30009203D302C6026F036F038E038A03B802B002DFE810F0A7017C006C0075035F00C4
:201E5000540046002C007103A088022838BF272407D3A068024617F02BF8911C16F062FD3E
:201E7000044643208CE2A08828B9C54918201DF0AFF9C4B200E02724412081E2A08818B9D5
:201E900016F0F4FD044600E02724402078E2A088CDF800A0012818BF27240CD1A068CA493C
:201EB00002786B4618201DF093F90099C4B20DF1110014F0E8FB8DF810403720052104AA11
:201ED000DAE2A088012818BF272406D1A068C749027818201DF07CF9C4B2362050E2A0887A
:201EF00028B9C34918201DF073F9C4B200E02724352045E2A088082818BF272405D1BD49C1
:201F1000A26818201DF064F9C4B2342038E2A088022818BF272408D1A06816F0C9FFB649FF
:201F3000024618201DF054F95446322028E2A1880329C0F02281A06890F8008040467138DA
:201F500000F00881401E012840F215815E3800F0E480401E00F0C380401E00F0AB80401E57
:201F700000F09080401E5DD0401E3ED040468138022810D9001F01280DD9801E09D0401E05
:201F900009D0401E012804D9801E14BFFF20022002E0082000E00120C91E814240F0ED80F0
:201FB00015F0B6FB071C00F0BF80A06841468139022900F1030015D9091F012912D9891ECF
:201FD0000AD0491E0ED0491E012905D9891E6FD116F06EFF38806BE001683A461160406804
:201FF000506065E00078387062E0072940F0C580052015F08DFB071C00F09680A068401C96
:2020100010F8021B397010F8011B797010F8011BB97010F8011BF9700678524606B101220B
:20203000384677E0182940F0A8801C2015F070FB071C79D0A3685B1C13F8020B387018466A
:2020500016F036FF9E1CB880304616F031FFB51CF880294607F1080016F036FF05F10803A3
:2020700013F8010B514600B1012107F1100502263976184616F0E4FC1B1D761E45F8040B8F
:20209000F7D115E0172978D1182015F041FB071C4AD0A5686D1C15F8020B1022294638703B
:2020B000781C0EF05DFF05F1100016F0C9FC7861384630E0052960D1042015F029FB071C1B
:2020D00032D0A068401C10F8011B397010F8011B797010F8011BB9700078F870E8E7062985
:2020F0004BD1052015F014FBF0B1A168491C11F8012B027011F8012B427011F8012B8270B7
:2021100011F8017B524607B10122C2700F78524607B10122027107461AE00D292DD10C2071
:2021300015F0F6FA071C01D11A2427E0A068401C10F8011B397010F8011B79700268BE1CDE
:20215000326045687560037A337210F8091FF972384602E0032910D15046A060A368C8497F
:20217000424618201F461DF033F8C4B237B1384615F04CFE02E0F42400E027243120FFE072
:20219000BD7F0100A088032840F0F180A0680678451C1A2430467138022840F2E6805F3861
:2021B00016D0401E09D0401E10D0401E09D0401E05D0401E18BF08200BD1052009E01C20C7
:2021D00007E0182005E0C046C5170100042000E00C2015F09DFA071C00F0C5803046D03866
:2021F00002280BD9C01E02280AD90BE055D4000091E5000051D30000694D010068787870A9
:2022100028783870CE49182032461CF0E1FFCD4985B232463B4618201CF0DAFFC4B2002CAE
:2022300040F09E80681C80B215F072FA5FEA000800F095808146304609F8014BD03870D0F1
:20225000401E5FD0401E51D0401E40D0401E23D0401E57D0E8B24E46012818D0E8B202281B
:202270000FD0E8B2042807D0EAB2304639460EF077FEE8B286190DE03968484614F003FA78
:2022900003E03988484616F00DFE064602E0387806F8010B304656E03978484600F8011B04
:2022B000B98816F0FFFDF98816F0FCFD07F1080116F00AFE397E022607F1100500F8011B3C
:2022D00055F8041B14F0DFF9761EF9D13BE038784D46791C102205F8010B28460EF040FE70
:2022F000796905F1100014F0CEF92CE03978484600F8011B797800F8011BB97800F8011B72
:20231000F9781EE03978484600F8011B797800F8011BB97800F8011BF97800F8011B39796A
:202330000FE03978484600F8011B7978BE1C00F8011B3268026075684560337A0372F97A59
:20235000093000F8011BA0EB0900C1B242463020491C16F0E3FD404615F058FD00E01A24F8
:20237000384615F053FD1CB9F9E0F42400E02724302005E0A088012814BF272426240F206C
:2023900021469BE0A088012818BF272106D1A0687549027818201CF01BFFC1B20E208DE058
:2023B000A088002808BF272105D0A1680878491C16F05CF90146092080E00A202727ADF8A3
:2023D0000C00A6888DF81870012E0CD1A0680478452C05D165491820462203AB1CF0F8FED1
:2023F000BDF80C0038B99DF8180000283DD1BDF80C00401C3AE0BDF80C00401C80B215F0AD
:2024100087F9071C2ED0452C07D0791C204603AA14F050FD8DF818000DE0452001A90DF133
:202430000E0214F047FD0199BDF80C208DF81800781C0EF095FD9DF8180038709DF81800F6
:20245000002806BFBDF80C00401C0120ADF80C00BDF80C103A46082016F060FD384615F031
:20247000D5FC7CE01A208DF818000120ADF80C00BDF80C1006AA082016F050FD6FE0C04625
:20249000B57E0000A088042818BF272115D1A06801788DF80810401C10F8011B8DF8091064
:2024B00010F8011B8DF80B103149007802AA8DF80A0018201CF08CFEC1B2042016F0BCFBF9
:2024D0004DE0A08800280CBF54462724022021460DE0A088012818BF272107D1A168097877
:2024F000504601B1012016F0CBFA014601200C4646E74FF0260A32E0204612F02FF92EE092
:20251000204612F003FB2AE0204612F029FB26E0204612F08DFF22E0204610F073FC1EE0E0
:2025300020460EF043FB1AE0204612F0FDFD16E020460DF0F7F812E0204611F09FF80EE067
:202550005D530100C9AA0000204610F097F906E020460AF0EFFD02E020460BF0B9FB504692
:2025700008B0BDE8F087C046498D0100315701003D9001002DE9F04FB94C0C3CE06861896F
:20259000E2692589806DADF13C0D0E46891808312A4616F0DFF9A81986B2E068816D6D182E
:2025B0008565E0690122311808310EA816F0D2F9E069761CB5B2042265812918083104A838
:2025D00016F0C8F99DF813109DF8100000EB0160E3689DF812102D1D00EB01409DF811104D
:2025F000658100EB0120049016F0B8FAD863049815F06EFFA3F84000EA2016F02AF8022114
:20261000B648E2680170117C2079084310749DF9380016F084FD82F846009DF9380011897F
:2026300082F84800002082F8470002F174009065B2F85C00401A5168091851609089830AFA
:2026500018D2030957D310F0070F07D000F00700032812BF081C5068401C48E05068C17819
:2026700001F00703491001F0380101EB43014018001D3CE0171C02D116F04EFBE268B8892B
:20269000800A2ED379684878C6112AD13E89796600204D780B7805F07F056D0005EBE31550
:2026B0007E2D0DD07F2D09D003F07F031818801C5B1880B2991C8642EBDC08E0002100E0EA
:2026D0000121801C87F8601080B2864201DA002005E07968411879603989091A3981A7F812
:2026F0006800506E10B1B2F86800B0B1506850619089000916D292F86000002800F0FC807F
:20271000104612F053FBE268D06C002800F0F480B2F85000002840F0EF8016F0E1FB00202E
:20273000E06024E24FF0000B1546104605A9CDF814B007ABCDF818B095F82470CDF81CB020
:2027500006AA04F0C8FB002840F0CB80059A6E6968682B89311A581A1FFA80F80AB916F04E
:20277000DBFAB5F85C0000900196CDF808800698001D03900598A969AB6D3A4615300BF022
:20279000CFF8002840F0AD80AD4895F860302E89C15D701A288113B1284612F007FBAE8956
:2027B00006F00706032E02D168680078E87395F80F90732009A914F0D3FF83200DF13A013C
:2027D00008F07AF9DFF8D082DA4651460AE0C278012A03D1002F08BFDC2027D0001D491C10
:2027F0000990C9B29DF83A00884279DD09988278032E07D00378B3420DD098F800300BB15A
:20281000022E08D0032EE9D10378032BE6D103465B784B45E2D1BB10B3EBA20F05DA02F00B
:20283000030207F003039A42D1DD50468146059895F80FC090F814E0514601E0491CC9B2D2
:202850008E4549DD07694B00032E03EB070209D1FB5C032BF2D152786245EFD10BE0C04648
:202870001C3600201278B24205D098F80020002AE4D0022EE2D10698077D002F08BFB9F150
:20289000DC0F2DD0A869B0F1FF3F23D0712008A914F066FF5346089AA9690598824206D12D
:2028B00006989A4600EB8A00C068884210D85B1C2C32022BF1DB0698491CB1F1FF3F00EB9F
:2028D0008A00C16002D1079801218170584608E0DB2007E0DB2004E0DC2002E0B436002089
:2028F000DD206870E26850709069577850651FB1F22015F0AEFEE2689F4DDFF8849295F829
:202910003810002900F0AD8090899C4EDFF874B200F00700022858D1A078002855D15078A1
:20293000002852D1E1684FF000080CA88DF83980283116F0D4FB06F11C01E7680888EB6D41
:20295000401C0880786E0DF139020421984704F10C0A30B94846006818B19DF8391080F857
:20297000681015F043FF90B1E76897F8300002280ED1DAF80000594602222031283015F0ED
:20299000ABF928B90BF116010CA816F0A8FBE7680DF12E0000906D6E786E0CA942460BAB73
:2029B000A84779480078862808D1F08BE768401CF083B88900F0100010F042FB16F090FAB1
:2029D0004046E06015F002FED3E0704B1A78002702B101277248026827B12F7817B115F0AA
:2029F00005FF28B91878002831D015F0FFFE70BB53782779002B40F0BA809DF83800318C72
:202A100002F12803002F207002F11C0201F10100308414BF082600265D490020086015F0B7
:202A3000FDFE0146009658460192263006881A460D20334604F05AFE20B915F0E1F803E0AD
:202A5000C4BB010015F060FD1348E268017841B1D5F880702FB13946104688470E48E26893
:202A700001780A9251B1907BFF287AD01046C17B042976DC40680078072872D0938913F0F2
:202A9000070040D0401E56D0801E6AD1C3F30130022808D102E0C04630160020506800784A
:202AB00007282ED0FFE7108900285AD0104641684A1C42600F788446C7739CF824607EB927
:202AD000002F4ED00A2F4CDA0189324EF01910F8010C884209D0082F43D1082905D040E0FE
:202AF000C07B00283DD00A283BDA60460189491E0181C17B0B3101700A99C87B401CC87390
:202B10001BE0322018E0244E96F8A1000F280CD016F04CF848B9181300F00200022804DA3C
:202B30000A984D4608352968884796F8D7000A9A1074152000E0162010700A994D4605F12F
:202B5000280014F01FF9154E7068804795F83010491C85F83010B1688847202016F01CF9ED
:202B700002E00AA813F09CFA4FF0000828E711F04BF80FB0BDE8F08FF8150020E01C002052
:202B9000F40E0020B8100020B8360020B6360020841C0020F8B70100241000204C150020BC
:202BB0001C3600202DE9FE4FE54980460122A1F130000260DF480768002FFCD0DE4ADF4E0F
:202BD000C027E048E04B17603268920808D2324652F8042C03F14104120C42F0F002227027
:202BF0004FF0000A8346C1F800A0DFF864C3DBF80810D64D0191880E43D2480E41D3802007
:202C100018744FF6D802A3F8512018702868C0F30464162CA8BF203C1F460F3F387800F062
:202C30001F001628A8BF2038844223D0624602F1980EDA4ACEF800A0261A022E05DC16F18C
:202C5000020FB8BF6FF0010600E002263018166800F01F06844246F4F856A7F866604FF0A1
:202C700001061660E8D11068374617601068CEF80060106828460068C0F30420162808DBBE
:202C900006E0A5F1D0000068C0F30460162800DB203800EB2170401C162805DA10F10A0FD9
:202CB000B8BF6FF0090000E01520DE4F00F01F0040F4F850A3F85900386880083ABFEA4811
:202CD000C0F800A041F04061019E6246A5F13804C80E8F0E80F0010000F00100106087F0E5
:202CF000010000F0010090602068C0F38367C0F38F21B00C23D2304640F3072000280BD5D1
:202D100042425046490805D17F0806BF0127391C4FF6FF71521EF5D1002810DD4FF6FF72E3
:202D3000490041F001018A4207D27F0047F001070F2F92BF01210F27111C401EF0D141EA46
:202D50000741182013F000FF2068D24E2768C94CA6F10409C0F3870107F0030041EA002170
:202D7000D9F8040040F2FF3253468FB22C21466800972746A7F14000B0470C3D2868C0F3D7
:202D90000D011C2013F0E0FEB84955F8080C014000F07C400143142013F0D6FE55F80C1CE5
:202DB00001F47C000904090C0143102013F0CCFE624955F8042C0968C2F30350C2F3034591
:202DD000490813D2DBF800100B0510EB237003D41028A8BF0F2000E05046090415EB21756E
:202DF00003D4102DA8BF0F2500E0554645EA001502F47F4002F0FF01B8F1220F40EA054065
:202E100041EA000124BF02F0804211430C2013F09BFE974DB8F1220F32BF01202868C0F3B0
:202E30000070B8F1220F4FEA400040F0200084F8090126BF2868C0F3407001208E4EB8F16B
:202E5000200F40F0100084F8090138BF514606D33168C80C00F44070C1F3845101432820E0
:202E700013F072FEB8F1200F26BF3068C0F301505046B8F1220F4FEA400040F0600084F881
:202E90000C0126BF2868C0F3C0605046B8F1220F4FEAC00040F0800084F8010126BF2868C1
:202EB000C0F345505046B8F1200F4FEA800040F47C40A4F89C0138BF70490AD33068010341
:202ED0008A15920501F47C1100F00F00114341EA0031082013F038FE4FF48000A5F1D001F0
:202EF0002060674A886D40F21E236FF31F40834216D90868030E13F00F0F03F00F01C0F35C
:202F1000034018BF491E072805D006280EBF0720801C00F00F0041EA0011A2F10800017017
:202F3000DDF804C0CCF381477F1E13D07F1E3BD036E0C0469402224300600C40B03F005037
:202F500040100940AC3F005015620840881300500000204328460068810C21D24FF4804126
:202F70002160D2F80210430AC0F3033703F0800321F08F010B4347EA0301C2F80210D2F87A
:202F90000130060A66F30303C2F80130116800F0E70721F0E70147EA010004E02C2009409B
:202FB0004FF00040224610603B480068C0F3C0070FB94020A0624FF40070206428684027ED
:202FD000C0F3C14040F0300084F8C800CCF3815050B3401E03D0401E1FD002211EE0012036
:202FF00014F0FEF906460420314610F069FF042014F0F6F98642FAD12248066826F07F4020
:2030100014F018F8D9F81400036807214FF06022300E98474FF4806020600321042010F04B
:203030004FFF08E0000009400420012110F048FF154813F0FFFF203D2868144947F6180671
:2030500000F03F0084F8CB0F144B0E80D9F800201868D1680220884711480D4D0760012117
:203070002960BDE8FE8FC04694042A43FCFCFC008C13005040A00C409813005000803F4071
:203090000A600840A83F0050BD37860070B00C4094046042A4010010B03F00502C2009408E
:2030B00000600C402DE9F04FADF18C0D1C911E93CC491D920A6806460DF156000260496881
:2030D00041603046694613F0BAFC00281F9004BF0020229000F0F78102200027B61CDFF89B
:2030F0004CB32090D34D2297304602A911F0DBFE5FEA000900F0E48122990EA816220FF0EE
:2031100048FB9DF809707F1E00F082807F1E40F0CF81B9F10A0F40F3D681B61C316804A83E
:203130000160361D318805AF42F20B0039800DF1160112F0E5F8BDF81600BDF81410884204
:2031500000F3C181B61C16F8010B16F8017B16F8014B8DF8380016F8011B8DF839700EAA8D
:203170008DF83A40304605F0BDFDBF4909780028064400F0A8811F9C012904F1020400F037
:2031900091814FF400500DF14E0112F0B9F80DF14E000DF15601082214F09EFD40B11C996A
:2031B0000DF14E00082214F097FD002840F07A8142F2010004A906F0C5F942F20B0005A91B
:2031D00006F0C0F942F205000EA906F0BBF90DF1390142F2060006F0B5F90DF13A0142F213
:2031F000070006F0AFF90DF13B0142F2090006F0A9F99DF83B0028B1022840F0538142F200
:20321000030001E042F20D000FA906F09BF949E1B9F1040F40F35781B61C16F8010B16F84B
:20323000017B16F8014B8DF8380016F8011B8DF839700EAA8DF83A40304605F053FD0028F9
:20325000064400F040811C9806A905F0D7FF9DF83600002840F00A819DF83B0000287AD144
:2032700095F83170002F00F0FD8095F83300874207D095F88C000A2801D10BF03DF8A86BB4
:203290001EE0AF6B4FF400500DF15E0112F038F814F04CFE4FF0FF08229C2190A24695F86C
:2032B0003100A04240DCA86BB8F1FF0F08D008EB88040019007913F02DFEA86B071923D1C7
:2032D00095F831300746002B08BF229C19D05846229C40681946D8467F1F7F1DFA782AB102
:2032F000491E04F10104F8D17F1D0AE0804795F83310491C85F83310D8F80810884795F80E
:203310003130A34200F094801C980DF0CBF838710120F870FC788DF8364038798DF83700D1
:20333000229B8DF82330A1E0387912F0A5FB014608220DF15E0014F0CFFC40B138880104C2
:20335000219815F0D8FE82453CBF8246A046641C7F1DA4B2A3E795F83070002F00F082800F
:2033700095F83200874207D095F88C000A2801D10AF0C2FF686B1EE06F6B4FF400500DF1CA
:20339000660111F0BDFF14F0D1FD4FF0FF08229C2190A24695F83000A0424DDC686BB8F146
:2033B000FF0F08D04FEA48140019C07F13F0B2FD686B071925D195F830300746002B08BF63
:2033D000229C1CD0DBF80400229C1946D846203F2037BA7F42B1491E04F10104F8D12037BE
:2033F0000DE0C046E8BB0100804795F83210491C85F83210D8F80810884795F83030A342E3
:2034100016D02299384620220FF0C3F91C980DF049F8F8770123FF2039462022BB7704469F
:20343000787206A8FC720DF09BFD1FE04C150020612055E064130020F87F12F01DFB01463C
:2034500008220DF1660014F047FC38B17968219815F051FE82453CBF8246A046641C203769
:20347000A4B297E764203BE0F81500209DF836000EA9162240F004008DF8360008A80DF046
:203490006FFD1F9C9DF83B00A41C40B19DF84D700FA8394611F002F83F1A8DF8357006A8C0
:2034B00010F0F0F920984844801C80B2209003E01F9C4E44B61CA41C209884423FF714AE19
:2034D0002098022803DC229A6720114604E01F9A911C121A2298921C1D9B19801E990A8011
:2034F00023B0BDE8F08F70472DE9F843C74C0F460646F80B80F0DD81E07AB90F80F06B81BA
:20351000B80880F05881F80A80F03181207A10B1380980F02981206C002840F09380380980
:20353000C0F09380002501262570B948A67115F083FC284614F04AFDB64904F170002A46AE
:2035500015F0D0FD04F1580090E8000315F0D4FA2379B0EB08004FEA103071EB09010905C2
:20357000012B40EA0100606606D194F86810B0EBC12F01D8E07860B340F60900A08294F887
:203590002100267100F0F00040F0010084F8210094F82000E57000F0F00084F82000A56132
:2035B00015F08EFED14A131D196821F0020119606FF00203136004F1140642F8106C1168FC
:2035D0008908FCD31360516841F00201516015F073FE2E4604F1580080E86000666612F09D
:2035F000AFFE6078012803D0E068403015F060FEC6480660022013F029FB11200CF0B0F98C
:20361000E068007C10B90E200CF0AAF9A07A18B1A572052013F01AFBBD49A5710878E57117
:2036300028B10D7004F1EC00042115F0DBF9B4F95000B4F95210884214BF022007200CF057
:2036500085FF8EE0380980F08C80B80B77D2780B29D2380CC0F0518104F13C0015F057FDD1
:20367000F0B1C16849680978022919D190F82700400915D2206C90F82700400910D3206C57
:20369000806840880028FAD0206C806840880128F5D0206C0026A0641920266415F08CFB49
:2036B00027F4004729E112F083F838B1B56930466FF4807100224FF00073A847954904F1AA
:2036D0007000002215F00EFDB16800254FF0010840F602026572088884F8008082420AD077
:2036F000B0F5C15F07D00A8B4FF61F60104040F43470088306E00A8A4FF61F60104040F450
:2037100034700882757415F0F7F9D4F85421E36804F5AA719A4208BFA846266E46B1864209
:2037300026BF301A401E801B01EB8801000B88602566192015F040FB27F48057DDE004F141
:20375000400015F0E4FC061C08D0706830B17568F068B6F9241000222023A84727F40057A3
:20377000CBE027F00807C8E000202072F9E715F0A7FD054604F13C0015F0C9FC061C15D038
:20379000E06810B1783014F001FDF068E060284615F092FD15F0B0F920665F4815F04CFBA5
:2037B0004FF4006104F1EC0015F01CF9002027F480672072A1E004F14C05284615F0A7FCC9
:2037D00007F0D4FC284615F0A2FC27F0020708B147F0020791E020B1042013F037FA00202E
:2037F000E07215F06DFDB1688046088840F60202824211D0B0F5C15F0ED00A8B4FF61F60AE
:20381000104040F4347008830DE0C046F009002051C50000A51301000A8A4FF61F60104062
:2038300040F43470088204F1580090E80C00002B08BF002A18D0042013F0D2FDA0B1A56DE8
:2038500015F05AF9854226BF401B401E401B000BF060F168708A401840F6C411F06081421C
:203870002CBFB0F5FA7FF160404615F025FD11F09FFF98B1B56930466FF4807100224FF000
:203890000073A84704F13C0015F041FC002808BF47F0020702D0192015F08EFA75692DB1C0
:2038B000002130464FF080630A46A84727F0005723E015F005FD014604F1440015F027FCE0
:2038D0000646B569A80813D296B125EA0500B061084615F0F1FC706868B165B12A46F0685E
:2038F000B6F9241075680023A84704E010100440084615F0E1FC27F4804727B104F1EC00D3
:20391000394615F06FF8BDE8F883C04600000460AF3600202DCF000021B400002DE9F04FF7
:20393000DFF8E0C292F808B009AF88460646ADF1240D049338F07F05039206BF6046008850
:203950004FF6FF700590F08A800934BF002008203076F08AC00834BF102080207076F08AC5
:20397000400903D260460E30007800E00020B076F08A41082CBF20240024000928BF44F05D
:2039900010047568002108F07F08307D06916D1E02280EDB0C2808DC0C2803D1022044F42A
:2039B0000854069044F0030404E00D280CBF02200120044396F8880008B144F00804210923
:2039D00000D328B1DFF8C89299F8CC3013B908B1DF2051E121096DD396F88950DFF8B4A2B9
:2039F00006F1240133891AF8052007910AEB0001097908908918491DC9B2C918B1F5006F88
:203A100080F23C8100284CD0049A039906F180000BF06AFB0799002808603FD0806AB0F148
:203A3000FF3F39D070680023401E8DB196F88A10524600F80119515D491EC9B241B17218BA
:203A500092F87F20491EC9B2002900F80129F6D1079970660968896AB162090E00F8011923
:203A700096F82A1000F8011996F82910089A00F8011996F8281005F0030500F8011902F01A
:203A9000070141EAC501017071683289091AC9B270608918318105E0DB2700E0F32777708F
:203AB000EDE00023F08A7370C00828BF44F0100475686D1E336DA3B9B36D93B999F8E5105C
:203AD000012903D13089B0F5EE7F06DA200904D202290AD144F4005401E044F4805401208E
:203AF00002E044F4085402200690DFF8ACA19AF8000001280FD014F079FE60B19AF8380074
:203B100048B196F86B00042805D1022024F48054069044F4005444EA8834B8F1020FA4B277
:203B30000AD0B8F1030F10D1ED1F09F1D801284615F0D5FA6D1E08E0B9F8BE00001205F8ED
:203B5000010999F8BE0005F80109069802280CD0B8F1000F15D0BBF1000F0CD004990598E3
:203B7000814208D144F040040BE0BBF1000F08D1B8F1000F05D00599081205F8010905F859
:203B9000011944EA8B24BBF1020FA4B209D0BBF1030F0ED10399ED1F284615F0A0FA6D1E55
:203BB00007E003990888001205F80109087805F80109BBF1000F05D00498011205F80119EC
:203BD00005F801093878F8B934480178307D0D2814D068B9306D28B999F8A800411C89F8FC
:203BF000A8100AE099F8CD00411C89F8CD1004E099F8B600411C89F8B610014605F80119CD
:203C100004E0C046DE10002044F48074201205F801092C7070683189401B7560C0B240180F
:203C30003081200927D3B06D00B130629AF8380010B1307D0D281ED1726A12F1150002D11D
:203C500015F06AF8726A916A481C9062306A3289B162471B0092D21B019090B20290706A38
:203C700096F888202B46153008F036FF00281CBF7070071C07D10020707005E0E527777065
:203C9000F32014F0E6FCF8B209B0BDE8F08FC04624100020C0BB0100F81500201536002026
:203CB0002DE9F04FC54C27688246ADF12C0D17B915F032F82768DFF8148308F10300DFF891
:203CD00014930678002E3FD0002638897968BC4B0796C500097818781035890906D340F64A
:203CF000485191FBF0F1491901F5AF753B7D68438500352B0CBF371C4FF4FA570DF1260113
:203D1000E82011F00DFD9DF82600032808BF44F620672068007D7D19352807D113F038FE09
:203D3000014620686C3010F0B9FB454302204F468DF8200007F10C000068069506A90AF0C0
:203D5000ADF8AE480C3806709E4901209E4F08703978012902D0002103F0C4F920680589FD
:203D7000466815F0B6F9DFF868823088000936D398F83870216897B34A6A4F6E906AC346C7
:203D9000B0F1FF3F25D027B3431C93628862030E07F80139206890F82A0007F80109206812
:203DB00090F8290007F80109206890F8280038702268106A00950190801B281A80B202908E
:203DD000916A506A92F888203346153008F084FE00E0DB20DBF87C10002840F0E280294651
:203DF00030460EF0D5F9642009A911F099FC494698F83870087837B9774800780CF048F9FA
:203E1000012805D0C9E00CF043F9012840F0C580724CA81C2D1D761EA9B2A4F87800C1F392
:203E3000022040F0080006F80109022731709DF82450C4F88460002D4FF00006A4F86A60C5
:203E50000CBF67486748C4F8C000674DC4F8800068688047AB460A90BAF1010F54D0BAF111
:203E7000040F51D0BAF1000F4ED094F84000BAF1050F04F13005C0F3C0002CD0E8200DF1FC
:203E9000250111F04DFC98F8380000B39DF8250003281CD1687B2B7C00F0F00005F11101E3
:203EB00040F00300687343F018002874F42011F037FCD8F89C00804704968DF814706686F3
:203ED000A064B0468DE88001D9F80C004EE0474B04F168050EE028B9687B00F0F00040F021
:203EF000010004E0687B00F0F00040F003006873404B6686049638468DF8147031468DE878
:203F10000300D9F80C0032E094F83D0000F0F00040F0030084F83D0094F8400004F1300118
:203F30000D46113140F0180084F84000F42011F0F7FB98F83800002808BF4FF4FA5002D0BB
:203F5000D8F89C008047A064049620498DF81470D9F80C008B78002B06BFA4F84E6004F1FF
:203F70004C056686324639468DE806001F4B294604AA02F00DF81E490880DBF80810002802
:203F900009D41D4A92F900001C4F6834401C10700A983C600DE00A9888471A200EF0BEF9D4
:203FB00008E0002908BFE420F8D0154A00201070E42088470BB0BDE8F08FC046F40E002074
:203FD0000C1E00207F1E00208A1E0020E01C0020F8150020501C0020FB1000206C14002062
:203FF0004E9055550E7A55554C15002069A90000801C002021DA0000861E00205C19002054
:20401000B83600202DE9F04FC14D4FF0000AADF1140DC74CE868CDF808A000288DF80CA0EE
:204030003FD1BC4EBC493068814210D0BB4981420DD0BB4981420AD0BA49814207D0BA4931
:20405000814204D0B949814201D014F065FE14F097F931684FF0FF32012805D1C1F3033039
:20407000083806D0C01F01D0012A02D10120E87001E085F803A013F037FA206A00F1200122
:2040900020B914F049FE2046016A2031096805F1140088474FF4FA70E884A64FAF62062635
:2040B000EE62E26992F82670A046E7B9A24892F8257001788F4216D05046342404FB002C5D
:2040D0009CF8267037B99CF82530401C9942C0B2F4D103E09CF82500884204D1604612F07C
:2040F0001DFED8F81C20DFF854B2D8F824001BC88BE81B00E878012814BF50460520DFF859
:204110004092904C8BF8000099F8157127B990690068C4F8A40005E0D0690068C4F8A400C0
:2041300014F0E4F9632004A911F0FAFA99F8E720104612F0F7FFB4F896C007462CF0070C05
:204150004CF0010CA4F896C0D4F8980004F18806812A40F00F00C4F8980001DB842A05DB85
:20417000397B052914BF2421292100E0212184F89C10717D812A01F03F01717501DB842A67
:2041900018DBBB7A6BB99DF810203F3262F305017175F28A4FF6C07303EA020141F018011E
:2041B00013E09DF8102001F0C00102F03F020A43114603E021F03F0141F002017175F28AE4
:2041D0004FF6E071114041F02001F182FA7A397B491D5143D8F81C200A230CF0010C91FB33
:2041F000F3F1C9044CEA1141F181F97A1923890391FBF3F161F31C203061308B92F82410BF
:204210004FF6F77361F3020003EA0001308392F8240000F008000843308399F9D6000FF0DD
:204230000FFFA4F8A20079683B68D8F81C203889401E414303EB51004FF47A71B0FBF1F0F6
:20425000A4F8A800106A0078A4F88AA084F8AC00C4F88CA0707B00F0F00040F00100707363
:2042700014F044FEA0B9F87A374A99F8E740B1FBF0F01070F87A022CB1FBF0F0C0B2B1FB8E
:20429000F0F0687004D1314802214170A8270770EF68D8F820402FB3504611F03DFB287915
:2042B00099F8E710884211D1697999F81521E86891420CD10221524653468DE806003146CB
:2042D00002AA01F065FEC8F80C6017E0E868D8F8201049688847D8F8207001201C493C6851
:2042F000087000E024681B4805F1140359463246A047E860D8F82400C8F8280099F8E700C0
:2043100099F81571287105B06F71BDE8F08FC046501C00209412005000F0022000F0012079
:2043300000F0002000800220008001200080002050190020C97B01000B1100208436002096
:20435000241000206C1400200C1E0020E01C00208B1E0020C8300020B0B50446C8480768E4
:20437000ADF1480D002F00F089812078401E112800F28481DFE810F0670153013901240109
:204390001D010701F100E300C300B2008D005D005300420082012A001C001200F86B0028B9
:2043B00000F06C81684621460DF0D2FCF96B63E1386C002800F062816846002101220EF0F9
:2043D000E8F960788DF80000396C55E1F86A002800F05481684600210E220EF0DAF9A11CD8
:2043F000684614F0EBF9A57BA1890022ADF80A1005B101228DF80C20F96A3EE1B86B002895
:2044100000F03C816846002102220EF0C2F9A5788DF8015060788DF80000B96B2CE1786BCF
:20443000002800F02B81684621460DF091FC796B22E1386B08B36846002114220EF0A9F91F
:20445000A5788DF80150A3680193A289ADF80820A17B8DF80A1060788DF80000E57B8DF8C5
:204470000B50237C8DF80C3094F911208DF80D2061690491396B684688476068002800F0A1
:20449000FD800146F22008700020487012F06CF9F4E0B86A002800F0F180684600212422EB
:2044B0000EF077F96078A11C8DF800000DF1020014F084F904F10C0103A814F07FF9257E17
:2044D000E08A04F119018DF818500B22ADF816000DF119000CF044FDB96ACDE0786A002850
:2044F00000F0CC806846002102220EF052F9A5788DF8015060788DF80000796ABCE0386AC3
:20451000002800F0BB806846002112220EF041F9658862796078ADF8025023798DF8052020
:20453000E11D8DF80000A5798DF804300B220DF107008DF806500CF013FD396A9CE0F86978
:20455000002800F09B806846002101220EF021F960788DF80000F9698EE0B86910B1204699
:2045700010F04EFCA07D002800F08880A07820B9A069002800F0828002E0A06900287DD030
:2045900013F024FC7AE07869002877D06846002113220EF0FEF86D46A01C0168406829603D
:2045B0000B22686004F10A0102A80CF0D9FC796962E03869002861D020460BF0C7FE5DE0FA
:2045D000F86800285AD0684600210E220EF0E1F86078A11C8DF800000DF1020014F0EEF83F
:2045F000A089ADF80C00F96846E0B868002845D06846002114220EF0CCF8A01C01686D464E
:20461000296040686860A07A0B2204F10B018DF808000DF109000CF0A3FCB9682CE078680D
:2046300060B36846002110220EF0B3F860786588211D8DF800000B22ADF8025001A80CF05C
:204650008FFC796818E03868C0B16846002119220EF09FF8A01C01686D4629604068686065
:20467000A07A02A912F02CF80B220DF10E0004F10B010CF075FC39686846884712B0B0BD4B
:204690005C1E00202DE9F04F002898461546ADF12C0D00F0158111F47C1F40F00E8111F0FD
:2046B0000F0F00F00D8107460591002006900A904FF0000A0990544608944FF0010BCDF8F3
:2046D00010B0044650460790059805990BEA000021EA0B014FEA4B0B401E059100F0CD808C
:2046F000401E7BD0801E68D0001F40F0E08005B12F660720152642F2D002022307F8010B99
:2047100001A907F8016BA2F1CF0007F8013B10F0F7FD684603A90CF059F99C4801783E465A
:20473000812907DB9848B0F8B600842905DA49F6D05104E09448B0F8B60042F2D001081870
:204750000099019A4FF47A6390FBF3F040180090824206D8801ABDF80C300090581CADF8C9
:204770000C00009B50085146814609041804030C19430004534610EB090041EB0A0103F06D
:20479000B1F8BF1D0090BDF80C309DF80C009DF8002006F8010B181206F8010B9DF80110C9
:2047B00006F8012B9DF8023006F8011B9DF8032006F8013B0934327078E00220152607F859
:2047D000010B042307F8016BB8F1000F07F8013B0CBF099898F80000241D65E01DB1EF6594
:2047F00095F86B0006900520152642F2D002049B07F8010B0DF10E01DDF8189007F8016B16
:20481000A2F1CC0007F8013B10F07AFD02A811F001FD5E4801783E46812907DB5A48B0F855
:20483000B600842905DA49F6D05104E05648B0F8B60042F2D001081802994FF47A6390FB7B
:20485000F3F09DF80E209DF80E3040183F1D0290000206F8019B00EB6300B0FBF2F0029080
:204870009DF808009DF8091006F8010B9DF80A3006F8011BE41D337018E00320152607F8F1
:20489000010BB8F1000F07F8016B034607F8013B04BF0A9807F8010B05D098F8000007F881
:2048B000010B98F80100641D07F8010BA4B2059800287FF409AF264661E011F00F0F01D0DC
:2048D00000205DE080468A4602264FF4803908F1020509EA0A002AEA090A4FEA4909B0F55D
:2048F00080301AD0B0F5803014D0B0F500300ED0B0F5802009D0B0F5002004D0B0F5801036
:204910002AD1072404E0062402E0052400E00424002704E00224012701E001242746A81CB0
:20493000214600F069FF47B104F00F04C0F30A0141EAC42141F4004105E004F07F0400F019
:20495000FF0141EA042105F8011B36180912B61C2970B6B245196D1CBAF1000FB9D1022E47
:20497000D8BF00260BDDB01E4FF6FE7708F8010BB819C0F3022040F0A00088F80000304682
:204990000BB0BDE8F08FC046583200200B1100202DE9F04FBD4DDFF8FC92BF4C4FF0000826
:2049B0004FF0010AADF11C0DE0694FF0FF3114F07BFCD9F80400804727896689A288A4F8A2
:2049D0000880E188A4F80A80114347EA010246EA0201A180D9F80810A4F806808847A088D2
:2049F000010A24BF20F08000A0800927D9F80010ADF802700820ADF8000068468847DDF8C2
:204A100008B00028CDF80CB039D120789DF80620616A904233D139B1A078401E02D0401E97
:204A300002D126E05846884758460CF02FFE071C25D00C2012F080FE061C1DD0D9F80400B1
:204A50008047B7603B7883465BB92069314614F027FCA08840F01000A080E06914F028FCB8
:204A700005E0304613F002FA384613F0FFF9D9F808105846884702E0384613F0F7F9A3887F
:204A900058092ED3206914F007FCE8B9D9F8041014F0F0F9C0B988470646206914F0F8FB8D
:204AB000071C0DD0B8684068A061B968486849880CF05CFFB86813F0D9F9384613F0D6F9DF
:204AD000D9F8081030468847206914F0E5FB20B9E06914F0EDFBA38803E0A38823F01003BE
:204AF000A3809808C0F0948080E004A8514612F05FF8287800286DD0401E71D0401E5ED0F3
:204B1000401E47D0401E1ED0401E6FD19DF810006978A8706F68A868C91CCEB20590314630
:204B300013F00CFF9DF81010814205D147B1059930464246B84703E05548006813F086F90C
:204B500085F8008052E0AB68E8789DF810701918CF70E878401CC7B2EF7013F047FA697865
:204B7000C6B2C91BB1420CDBD8193146C01C12F01FF8E87869783618F0B2E870814224D052
:204B900034E0DB1989B2DB1C184612F011F86878E8701AE09DF8100085F803809DF8107076
:204BB0006870F81C12F08CFD0028A86008BF85F8008020D06978017085F800A016E09DF890
:204BD0001000A9688870687810B9052028700DE00420FBE79DF81000FE2807D10320F5E7B1
:204BF0009DF81000A968487002272F7013F0FEF900287FF47AAFA38813F0F8F9002804BFA7
:204C100023F00203A38003D0E06914F051FBA388180927D3606914F03BFB071C15D0216A01
:204C300069B1607858B1401E02D0401E0AD103E0B86811F035F9216AB868884702E0B86852
:204C500011F02EF9384613F011F9606914F024FB20B9E06914F02CFBA38803E0A38823F00C
:204C70000803A380D808FFF49FAE23F004032069A38014F011FB00287FF496AEA08840F0C9
:204C90001000A080E06914F013FB8DE6981E0020A01E00204C15002010070020BA482DE982
:204CB000F84F0025B94CB749056094F8E200002800F06381012800F02F81B54E02283CD0A2
:204CD000032840F05A8151F8250CD4F8B8100029A0F5C060C4F8D400B8BF49420028B8BF71
:204CF0004042814226DA4FF08057D7F8A4014568B4F8BC0030214FF47F420823009030463A
:204D1000A847D7F8A4014568B4F8C00004214FF4F802122300903046A847D7F8A401B4F85B
:204D3000D070456820214FF440620A2330460097A847012584F8D8501AE151F8258C14F064
:204D500087F82F4600B901273946924F38680028FCD0B146012609F10409D9F82CA03E601A
:204D700009B114F07BF8CAF30720C4F8BC0014F06FF8AA4600B9B2463B68002BFCD0D9F81F
:204D900000B0BAF1000F3E6001D014F067F8CBF38440C4F8C00014F05BF8AA4600B9B246D1
:204DB0003B68002BFCD0D9F81C90BAF1000F3E6001D014F053F8C9F38120C4F8D000B8F5BE
:204DD000C061C4F8B81000F09C8094F8D80068B9C4F8D410D4F8C000C4F8C800D4F8BC70E5
:204DF000C4F8C470D4F8D030C4F8CC30D4F8D410D4F8BC30002954BF02206FF0010004F114
:204E1000C802176801EB41014018411000EB917107EBA1001060D4F8C810C4F8C4300029F5
:204E30001CDD1E293CDDD4F8CC0030B93429B4BF15391E21C4F8C81025E02A29BABFD4F8FA
:204E5000C8000B381E20C4F8C800D4F8C4003F28B4BF401C3F20C4F8C4001FE0D4F8CC0039
:204E7000032812D011F10B0FC6BFD4F8C8000B30301CC4F8C800D4F8C4000028C4BF401E3C
:204E9000051CC4F8C450032508E011F1150FC6BFD4F8C8001530301CC4F8C800C4F8CC50D5
:204EB0004FF08057D7F8A401B4F8C43030214FF47F424568364800930823A847D7F8A40117
:204ED00004214FF400321123456831480096A847B4F8C860D7F8A40104214FF4F80212236A
:204EF00045682B480096A847D7F8A40120214FF440620A23B4F8CC60456825480096A847BF
:204F100001E084F8D85040F2FF50404502D8801C40452DD208202EE051F8251C1E4F4BF292
:204F3000F5204843060A3868C0F3814001280AD112F03EFC11F0E6F913F096FF3111C010D3
:204F5000484306EBE03694F8E50030B91348006820F07F408019460801E084F8E5501048F2
:204F7000310C0660012741600E4D8760287808B90B2000E0052084F8E40004F04BFDBDE8A1
:204F9000F88FC0462D400C402C500C405012002000A00C4000800C40B43F005010200940FD
:204FB0003C600C40A2BB0100B2492DE9F04F09781346ADF1240D814240F0598158781F786E
:204FD0009E780690FA2F079600F3398100F01E004FF001090A2880F22E810698A64900F07B
:204FF0001F0051F82060002E089600F02481069ADD1CADF80C70079E8DF8082028468DF859
:20501000096032F07F04049000F01181002F4FF0040A00F0F68001781B798DF80B1021F0BC
:2050300007048DF80A30083C00F0E480DFF84C82083C4ED0083C07D0083C40F0D880032FDE
:2050500008BF4FF0000ADCE0032F40F0DA80841C04944446257DADF80C900027012D30D1BD
:20507000257F95422AD1627FB24227D1E27F514011F0070F22D1A17F99421DD18078A8B1A7
:20509000401E12D0401E032818D9001F02D0401E14D008E0607D1B1AB3F1FF3F06D007203A
:2050B0000FF0B6FCA1E008270EE0B94602A849460BF0A4FF074604E0032705E007200FF055
:2050D000A7FC002F00F091803A4602A82021002789E0042FC0F295808346A81C13F0E8FE82
:2050F0004446054620783F1FFEB2002701282BD19DF80810227A914223D19DF80910627A3F
:2051100091421ED19DF80A10A27A914219DB9DF80BC0E37A9C4512D1A3899D420DD19142EE
:2051300006D0A1788E420DD0A1888E4205D109E002202070A1788E4204D0574602E00227F4
:2051500000E00327216927B99DF80A30042808D020E0084612F04AFE504620709DF80A306B
:20517000A372ABB902A90EC904F1080080E80E00284612F0B9FA2061002804BF207806275D
:2051900008D000206070A670A580A581207005E007B90327042822D002281CD02069A278A0
:2051B0009DF80A108046514389B2324640180BF104010BF0D5FE9DF80A00A072A088801B88
:2051D00086B2A68036B9CDF81080ADF80C500627D14602E02078042801D04E46267004F142
:2051F000080018213A4612F003FABA4609E04FF0050A06E07F1E401CADF80C704FF0060A59
:205210000490D146B9F1060F15D1089902A888478146049878B10190194808210527ADF89C
:2052300000100168ADF802706846884703E0089902A888478146B9F1000F02D10FE04FF0D3
:2052500004090698079F8DF81490002103228DF8150005AB8DF81670602004F03DFE094928
:205270000888401C0880002002210EF0F9FD09B0BDE8F08F10070020A41D0020E835002041
:205290004C1500204C1A00202DE9F04FAB4D05F128000068ADF1240D10F0A2FD08B113F0FA
:2052B0001BF8A248DFF898A2DFF888B20068A54C089012F059FB12F0F9FDEE69AF69B6F566
:2052D0007A7F13D0C01B4FF47A720023A6FB000102F008FB80464FF47A72002313F052FBB6
:2052F0003246002302F0FEFAC01901E0A0EB0708A8618D488C49006820F002000860606868
:205310008047DBF80010DBF8043046467118B1F57A7F0DD34FF47A72B1FBF2F2D2184FF44C
:205330007A73CBF804201F46B1FBF7F25A43891ACBF80010A168884760688047DAF804102F
:2053500002467018A168CAF8040010468847DAF8000000285FD007464FF00009606880472C
:205370004FF000081FFAA6F3079083B95FFA96F36BB93979F0B2884204DD7968304688422B
:2053900009D20AE03879F1B2401A387108E079683046884201D3414601E07968091A7960BF
:2053B000B88878B9FB8853B9FB6843B13B8933B1B87A19460BF068FAF8687860B88808B9B7
:2053D000FB880BB13B896BB9B9F1000F04BF3868CAF8000003D03868C9F800003868B846E6
:2053F000074601E0B9463F68A16807988847B8F1000F0ED0B8F8043043B9B8F806302BB912
:2054100098F80A00B8F808100BF03EFA404612F00DFD002FA2D144484349006840F0020001
:205430000860E86828B3804723E016F8060C2969A6F10C07032819D0E96A9DF81600097810
:20545000884210D116F8080C11F0B4FEB979012903D0022908BFB07000E030700020314664
:205470000EF04EFE05E012F037FF02E009B13046884708200727ADF810002168ADF8127019
:2054900004A88847069E0028CFD0294800680088C8B1606880472649096800220E880A808B
:2054B000A1688847089A00203146287090470646FF202870606880471D4909680A88164308
:2054D0000E80A168884712F04FFA0746B7F1FF3F1CD0606807B9184F296AB94238BF0F1C4D
:2054F00080471C2306466A6AADF802300820ADF800002168019268468847A96A3846491C43
:20551000A96210F0E1FEA1683046884708200A27ADF808004FF0FF36ADF80A702168039688
:2055300002A88847C5E6C04610E000E018BC0100C4300020AC1E00208EC2F528201C0020C5
:20555000943600204C1500202DE9F04FA54C064600200F46ADF13C0DDFF89092ADF80C0038
:205570002068A44D017D252900F010816C3005A903F044FE002818BFC0B240F0308120461E
:205590000068C18AC9080DD3007D03280AD09DF81F0038B99DF820004C463870B534207008
:2055B00000201CE101A804A90BF010FAA5F12F018B4691F82F30019A3468DBF808104FF47F
:2055D0007A7A504641F208155843891A0AFB12000AFB01F1001B091B8D42C8BF002965DC96
:2055F000854205DD002803DD346804F5915434609DF81F00002857D042F204000DF135016D
:205610000FF07EFE12F0A2FC044606980DA9241A42F206000FF074FE9DF834109DF81D004D
:20563000FF2904BF0A218DF83410FF2808BF0A209DF834206C499DF81C30D046B4FBF1F13D
:20565000801880B24843991008FB01F1814298BF081C2D1805A812F0AEF99DF81C20346801
:20567000B0FBF2F15143411A8BB251464B4308FB02F1CA1AC91A121B091B8D4201D900295B
:2056900008D56942914216D2002A14D5B5FBF8F109B203E06900B1FBF8F189B232684FF457
:2056B000916303FB012405E0002004E0306841F630342418346005460DF1120102A80BF0D6
:2056D00085F90298DBF80810B4FBFAF210180290814203D99BF82F30834204D94B4603F1AA
:2056F0005804267836BB9DF81C0055190004A84298BF2D1A9DF81F00002808BF9DF82000AC
:2057100016D09DF81C00B5FBF0F084B29DF8330010F0B2F99DF831200146204610F044F9D9
:20573000044612F035F9024608A920460FF08AFF4C460DE0814204D8BDF81200401CADF812
:2057500012004C46BDF8120094F85B100DF008FC3870244E84F8B5003068007D05287FF4D6
:205770001FAF2348007820B113F040F800283FF417AF387803A9ADF80C0042F20C0003F0FB
:20579000E1FEBDF80C00A4F8B00009E768460DF10E010BF01BF93068009A2B7841F208142F
:2057B0004FF47A7101FB0202009259438A1A944210DCA1F5FA619142BCBF00F5FA603060F9
:2057D0004C4694F85B10208F0DF0CAFB01460020397002E039784C46652084F8B5100FB005
:2057F000BDE8F08FF40E0020A086010058320020E110002043330020F0B504460846ADF100
:205810006C0D401E6BD0401E0DD0801E00F00381401E00F0E980401E00F0DB80401E00F06B
:20583000A88000203CE142F2010007A90FF068FD42F20B0008A90FF063FD42F206000DF123
:2058500065010FF05DFD42F207000DF166010FF057FD42F2050019A90FF052FD04A80AF097
:205870001DFF05460DF1670142F209000FF048FD9DF86700002808BF002303D0022011F0C6
:2058900057FD034607A8006808A920600988271D3C46B81C218005F007079DF865609DF855
:2058B00064109DF8662000F8011B9DF8674000F8016B03F0030600F8012B620747EA9261E8
:2058D00004AC41EA8611012700F8011B9DF8672000942946019707F02FFF0A3099E042F247
:2058F00006000DF165010FF00BFD42F207000DF166010FF005FD42F2040019A90FF000FD90
:2059100004A80AF0CBFE05460DF1670142F208000FF0F6FC9DF86700002808BF002303D049
:20593000012011F005FD03469DF864009DF8657004F8010B9DF8666004F8017B9DF8672090
:205950009DF86770790704F8016B03F0030705F0070646EA916004AE40EA8710294604F8E5
:20597000010B002700962046019707F0E5FE001D4FE042F2150011A90FF0C2FC13AD42F276
:20599000160029460FF0BCFC15AE42F2170031460FF0B6FC17AF42F2180039460FF0B0FC49
:2059B00011A801682160406860606A6804F108035A6028681860306803F10801086074685F
:2059D0004C60386801F1080528607A686A60202066E042F214000DF122010FF091FCBDF808
:2059F000221002200A1258E009A8002120220CF0D0FE42F2130009A90FF082FC09A813F0E7
:205A1000FDF8024609A920460BF0AAFA09A813F0F5F880B244E042F20E0002A90FF070FC33
:205A30000DF10A0142F20F000FF06AFC0DF10B0142F20A000FF064FC03A942F210000FF00F
:205A50005FFC0DF10D0142F211000FF059FC0DF10E0142F212000FF053FCBDF808009DF843
:205A70000B209DF80C709DF80D609DF80E509DF80A1004F8010B02F00102001204F8010B1F
:205A900007F0010042EA400206F0010042EA800205F0070042EA4012042004F8011B2270A3
:205AB0001BB0F0BD2DE9F04F06469E48001D0068ADF1340D80470B900AA9822004F0FCFFCD
:205AD0009DF8280018BB00248DF828404FF6FF75ADF804509DF82800ADF80650FF21082261
:205AF0008DF8000002A813F01EFB8DF81840D420694602F0D7F99DF82800401CC0B28DF8F9
:205B100028003228E4DB82200AA902F0CBF90020DFF808A2DFF808828DF8280081469DF81E
:205B300028008DF8019069468DF80000D02004F0C3FF01274D46E8B99DF80B30012B07D10D
:205B50009DF80A0020B90DF1020012F0DFFE88B9747B002C0CBF052209224F469C4209D118
:205B70000DF1020006F10E0112F0D0FA002818BF012507D1002F40F0BF801DB9707F0028BB
:205B900000F0BA804C469DF828008DF8214008A98DF82000D12004F08FFF002832D19DF80D
:205BB0002200FF282ED08DF800006946D42004F083FF002833D102A8311D082212F0A6FA00
:205BD00000B330887788ADF80400ADF8067045B1307B9DF82810B7698DF818000DEB8101E2
:205BF0000F61D420694602F05DF975B1307F9DF82310884209D08DF8230008A9D12002F0BE
:205C100051F902E0641C322CBDDB322C74D14F468DF80070D420694604F04EFF28B1DAF816
:205C300008100B988847192074E002AB184612F06DFE4C4600B101242046341D30B918465F
:205C50002146082212F062FA00284AD030887388327BADF804009DF82810ADF80630002D25
:205C70008DF818200DEB810000F110000CBF4946B1690822016002A8214612F06BFE98F8D2
:205C9000380030B1D8F888201AB19DF80010204690474C469DF828008DF8214008A98DF84B
:205CB0002000D12004F008FFE82807D09DF82200FF2803D0641C322CECDB10E09DF8000006
:205CD0008DF82490337F8DF8220069468DF82330D42002F0E7F808A9D12002F0E3F8322C09
:205CF00002DB7F1C322F93DB322F05D1DAF808100B9888471A200DE09DF82800401CC0B208
:205D100002288DF82800FFF60AAFDAF808100B98884748460DB0BDE8F08FC0464C1500209C
:205D3000F81500204C1500202DE9F04F0546954C6F780026ADF1540D3846312810DC3128FC
:205D500000F0D680002800F01681401E00F00C81401E00F00581B0F12E0700F0E180FDE08B
:205D7000323800F0AE80401E4ED0401E012816D9801E40F0F380A88802280DD12068002870
:205D900008BF182109D0A86813F092F82168884712F0A7FF014600E027213620DBE01034B9
:205DB0002068B84668B3A86802A912F069FAB8F1340F034618BF301C02D113F079F89B1CBC
:205DD00013F8017BB8F1350F024603D1A988B81D884213D0B8F1340F0ED1A98807F1080074
:205DF000884209D1009364683B4602A803C8A04712F077FF014605E0272103E024683A46D8
:205E1000F3E718214046A6E0A88808284BD10C342068002845D0A86804A912F031FA0246A0
:205E300013F046F895788346F82DC8BFF825DFF858814FF0080A0420AF1CADF83A00D8F8D3
:205E50000010ADF838A05FFA87F90EA8CDF83C90884720BB1098074608B3801C0090246873
:205E700004AB93E803005A462B46A047041C07D13C70494633203A467D7013F055F802E0C8
:205E900012F02FFF04460520ADF81A004546ADF818A02968079706A888472CB96EE01A248F
:205EB00002E0182400E0272411A8314602220CF070FC8DF84440332011AA022113F034F864
:205ED0005CE0A888314605280BD11834206840B1A86808A912F0D4F9226808A803C8904795
:205EF000014612A810F0CFFB3220042112AAE5E7A888052811D108342068002808BF18219D
:205F10000CD0A8680AA912F0BBF922680AA803C8904712F0E6FE014600E0272131201AE09E
:205F3000A888092815D1241D2068002808BF182110D0A8680CA912F0A3F912F081FD2468CA
:205F500002460CA803C83346A04712F0CAFE014600E02721302012F079FE0FE026260DE0E0
:205F70000A4A02200521A9E713A8432112F09AFF13AA0120A1E7012010F012FC304615B05B
:205F9000BDE8F08F640200204C150020B4BB01002DE9FE4F9B4692468946054613F090F994
:205FB00002908C48353801680CAFA94208BF416801A84A4653460090284604F017F9834CDC
:205FD000061C13D194F8880140F0040084F888010298C4F87C5113F06FF99DF8040002280C
:205FF0000CBF6FF002086FF00108ECE005F1780012F0CCF8B08CA4F85000B6F92480C6F8BC
:2060100008909AF80400C6F804B086F82600A6F824806F48F56097E80C00202106F1100704
:206030001940104087E80300002786F82770F06840680078022809D19AF80500012805D1E7
:2060500096F8270040F0100086F82700029813F033F994F88901042807D1D4F88001B4F9B9
:20607000841194F8862112F0EDFF13F029F9814694F8890130F004033ED104F13C00036886
:20609000D3B9314610F0FCFD38B3A5F8C08096F8270040F0800086F8270085F8C270E0791A
:2060B00020B1207810B101202072E771484613F003F9484800781FE004F13C00314610F05F
:2060D000DFFD50B1A5F8C08096F8270040F0800086F8270085F8C27048E0B4F9500000F622
:2060F000FF706FF31F30A4F85000484613F0E4F86FF00100BDE8FE8F02280ED196F82700C7
:2061100040F0800086F8270085F8C270484613F0D3F8B6F92400BDE8FE8F012811D104F10A
:20613000C80012F033F896F8270040F0800086F8270085F8C270206C0028E7D1484613F0A4
:20615000BBF8206C00282AD12078A76400BB6079012838D013F0B4F88146A079A0B9B06865
:206170000DF0F4FB58B9607A012803D1484613F0A3F828E0484613F09FF804211FE004F1C6
:20619000C80013F081F8F1E7134901200870EDE7012012F057F9192012F00EFE13E0206CD1
:2061B000C0684068007802280DD1F06840680078022808D19AF8050028B94FF4004104F113
:2061D000EC0012F00FFC4046BDE8FE8FF0090020FDEFFF9F790B0020AF3600202DE9FE4F4F
:2061F0000646307D01280AD196F916000DF028FF4FF6FF71814208BFE82000F00281F07BA4
:20621000814A20B91146491C0978022908DB012803D110460078022802DBF120BDE8FE8F6A
:20623000346AB6F8289096F8347096F835B0B58B4FF000085FEA040A17D0744890F8383034
:20625000002B2ED0016D00292BD004F0FF0088476E49096D04B20AF47F008847001900B2B7
:20627000001D00B2C43084B200E0C4240DB12D1DADB267480078012809D147B16548C1193D
:2062900091F8048010F80B002418641DA4B205EB090020184044801C80B211F00BFD071C0C
:2062B00002D11A20BDE8FE8F08EB09002B193881002D07EB030078600EBF0020E019801C1A
:2062D00000217422C7F8A00007F10C0012F02BFF4C442D1907F13C00FF211022A7F84C50D1
:2062F00012F021FF07F12C000F21102212F01BFF00243C707C707868716A328D0AF030FE6C
:2063100007F1800006F12C010B220AF029FE07F18C00314612F090F97089A7F89600307B24
:2063300087F89800707B06F10E0587F899002A6869460A60AB888B80AA798A719DF800107D
:206350002046012908BF01209DF80110012908BF40F004009DF80210012908BF40F008001A
:206370009DF80310012908BF40F010009DF80410012908BF40F020009DF80510012908BFAF
:2063900040F040009DF80610012908BF40F08000A7F89A00707D87F89C00B07D87F89D00A7
:2063B000B28BA7F8A42022B1D7F8A000B1690AF0D7FDB07F87F8A600306AC7F8A800B7F8FF
:2063D000A400C0B1D7F8A000A8B17868401E7860F82101707868401E78600470B7F8A41043
:2063F000B7F8A4607868401A786039897018801C38817868B8650848007839460DF080FE6A
:206410002046BDE8FE8FC046220F0020F8150020F0100020C0BB0100041700202DE9F04F24
:20643000794C02204FF0080AADF1540DADF81A002168ADF818A01020079006A88847002804
:206450000CBF089F00270126A14609A8ADF824A0D9F80010ADF8266088479DF828106B4C0C
:206470000B982170606067B1D020387000257D70B970FD703D710220BD603946FD6010F0F7
:2064900073F9304612F0FCFAA046E22008F10C0112F0ECF8182019F087F988F801005C4858
:2064B000C8F808000EF0A0FD5C4D5A480227382245625B4C47705849628003780162594D8F
:2064D000867004276422237058492F70564C2F7504F10C000FF090F94FF0000B544DA06078
:2064F0006F68544C8DF840B06FB110A8A11D009012AB0A6889881A6012AA998092E803006E
:2065100033465A46B8472A684AB1A11D12A80B688988036012AF818097E8030090472168C3
:206530000DF1410001602779077143480068400805D341208021062210AB03F0CDFC3F4C54
:2065500004F1140004F108010AF08CFE6060584612F0B4FC5E46A51E074605F802BF0220FC
:206570006870304612F042FD014660683A46C9B210F04EF9761C022EEFDB314904F1200010
:2065900032220FF039F94FF0FF3707260324ADF808A00A20ADF80A00D9F80010039702A852
:2065B00088470028F3D1ADF830A0D9F80010ADF832600CA888470E9D00289DF836209DF8AD
:2065D00034000F95E3D198F8001091420ED198F80110814207D0D8F808104B6C33B1594670
:2065F0002A46984702E02846FDF7B6FE0F980028CDD0ADF810A0ADF81240D9F80010059511
:2066100004A88847C3E7C0464C150020541E0020501A00201007002099430100E58B01001D
:20663000A01D0020E8350020B01C0020F13F01006C020020B4BB0100B41E0020301B0020B8
:20665000751E01002DE9F047DFF80CA20746AAF13500DFF8F8810068800880F0E78011F08F
:20667000A7F8814908310B6800261C17641C990D0AD2C0F13E0110F10A0F4FEAE101D8BFDE
:2066900008218C42B8BF0C1CDFF8C4C1990E0FD2590E0DD36246143A1168C1F304211629A2
:2066B000A8BF20391268C2F30462162A0EDB0CE0634AD2F87C11C1F304611629A8BF203944
:2066D0001268C2F30442162A00DB203A61189146162905DA11F10A0FB8BF6FF0090100E077
:2066F0001521584C584D01F01F0242F4F85222802A6812F0030F18BF0126D20828BF46F03C
:2067100002060FB146F00406424692F90740041B052C04DA9479B44208BF918866D00F2889
:20673000A0F10F0827DB08EB0014A4F1F0084FEA282EBEF1070F88BF4FF0070E7546062D2E
:2067500088BF06255CF82570042404EB850465462C59E41B04F0FF05F70824BFC4F3072740
:206770003D44B70824BFC4F307473D44770828BF05EB146501E00025AE465CF82EC0F70856
:206790000CF0FF0424BFCCF307273C44B70824BFCCF307473C44770828BF04EB1C64ADB237
:2067B000A9EB0101A8EB0E277D43002905F1800504EB1524D8BF012103F0FF0334254D4348
:2067D000A9B259434FF6FF73B1FBF4F18B4238BF191C802889B2918005DA10F1800FB8BF97
:2067F0006FF07F0000E07F20D0719671194800681F2910604FF0000008D340F2FF128A423A
:2068100006D24908401C8A42FBD301E01F219180124F0F39090940EAC10047EA0001CAF87D
:20683000FB1F0026CAF8FF6FBDE8F0870C490D4F424608200F60921D1070BDE8F087C0469B
:206850003C1100506E62084024220840A43600209C130050082009403500094000E7A480F2
:2068700030100940FDFDA400AC3F00502DE9F04F0128ADF1140D40F0EE80DFF814B2DBF85B
:20689000DC00012840F0E4800220CBF8DC0012F0F7FC029001200FF0FFF95FEA000806D0C8
:2068B0000120CBF8DC00029812F0E6FCD5E012F0DFFC6C49039000200860012010F090FD7A
:2068D000012818BF002003D100200DF059FB0120654900900020654F08603868112012F0D5
:2068F000D5FA00280CBF00240124102012F0CEFA08B144F002040F2012F0C8FA08B144F0B0
:2069100004040B2012F0C2FA28B159480068594E016B308888470A2012F0B8FA002600B145
:2069300001264FF0805A0AF5DC75301C04D02868514E016B308888475048012606602868C0
:20695000816944F0200088474D48066012F098FA00F001010191400814D24A4812F051FAFA
:206970008146B9F1040FF8D0B9F1010F05D1DAF8D80142684348032190474349086820F044
:20699000030008600020FFF75DFE2B683868986B8047019801280DD0B9F1010F05D1DAF80D
:2069B000D80142683748314690473749086840F0030008602C4806602868416920468847A3
:2069D0000B2012F063FA20B128682A4BC16A188888470A2012F05AFA20B12868264BC16A30
:2069F000188888472548032206602549CBF8DC2000230B602868416B204688470128F9D101
:206A1000386804200FF048F9044616481F490660386808688009FCD30098012802D130467A
:206A30000DF0AEFA12F01AFA08200FF035F907460398CBF8DC6012F017FC0DF091FB029817
:206A500012F01AFC57EA040018BF4FF0FF3804E06FF0040801E06FF00108404605B0BDE804
:206A7000F08FC0460C400940000222432C200940B801001066B9010062B90100282008603B
:206A90008001044300400340242208401410094050120020804A2DE9F04F13680546ADF19B
:206AB0003C0D0DF12A000360526842607B4C94F8B30005F1280105F12807002800F0E880CC
:206AD0006878002840F0E48011F090FEDFF8D091DFF8D48100B3042046466A68A873301D7A
:206AF00012780068042A00F0958095F83000022812D14846007801280ED06A4905F12800B9
:206B100002220E46203111F0E7F828B906F1160105A812F0E4FA05AF686E002800F0B88066
:206B3000012102AA0AF0FAFF002840F0B1809DF80800A873E86C40B139460DF11E0208ABAE
:206B5000FCF7B0FA002840F0A38008A80090686E39460DF11E0307F02FF9002840F09880CA
:206B700048460078012851D04FF400500DF122010EF0C6FB0DF122000DF12A01082211F0CE
:206B9000ABF838B10DF122003946082211F0A4F800283BD194F85900002837D0A66CB4F8ED
:206BB000445042F2010004A90EF0AAFB049A4FF000410020E2FB0610061C206D12F064F86E
:206BD00086190498B04202D86D1C361AADB24746786880475FFA80F8206CB04204D1208F5F
:206BF000A84208BF002608D026642587002084F8350011F0ABF90126E064B9684046884749
:206C10000EB10BF0A3FF012084F85800002084F859003DE08B468047264C0D9095F830702D
:206C300022480A264FF00009804610F807A0207AB84206D152462046594611F067FA01285A
:206C500004D0761E04F10C04F1D100E0A1465FEA09070FD198F80601164F461C810088F896
:206C7000066101EBC001F0B27F180A2804BF002088F80601384659460A2211F06BFE0C4814
:206C9000094900788968B8720D9888470420A8730FB0BDE8F08FC046E0BB0100583200201D
:206CB000F8150020B81000204C15002064130020501C0020F21300202DE9F043002B08BFAB
:206CD000002A10D10029BCBF00204FF0004106DB50EA01071CBF6FF000006FF000410AF05E
:206CF00064FFBDE8F0835FEA530898EA610803D50026404266EB01015FF0000913F0004EFE
:206D100003D00026524266EB03031C461546002C08BF8D429CBF2C1C0025070C47EA0147AC
:206D30000E0CB44208BFBD429EBF240444EA15442D04070A47EA01670E0AB44208BFBD42B2
:206D50009EBF240244EA15642D02470847EAC1774E08B44208BFBD4200F29280870847EA3C
:206D700081778E08B44208BFBD427BD8C70847EA4177CE08B44208BFBD4265D8070947EA9E
:206D900001770E09B44208BFBD424FD8470947EAC1674E09B44208BFBD4239D8870947EAE3
:206DB00081678E09B44208BFBD4223D8C70947EA4167CE09B44208BFBD420DD8E60146EA55
:206DD0005566EF01B14208BFB84201D3C01BB14159EB09094EEB0E0EA60146EA9566AF0176
:206DF000B14208BFB84201D3C01BB14159EB09094EEB0E0E660146EAD5666F01B14208BF87
:206E1000B84201D3C01BB14159EB09094EEB0E0E260146EA15762F01B14208BFB84201D382
:206E3000C01BB14159EB09094EEB0E0EE60046EA5576EF00B14208BFB84201D3C01BB141A5
:206E500059EB09094EEB0E0EA60046EA9576AF00B14208BFB84201D3C01BB14159EB09093C
:206E70004EEB0E0E660046EAD5766F00B14208BFB84201D3C01BB14159EB09094EEB0E0E5D
:206E9000A14208BFA84201D3401BA14159EB09094EEB0E0EA34208BFAA423EBF2D0A45EA97
:206EB0000465240A8AD373464A465FEA080803D50026404266EB01015FEA480803D50026C2
:206ED000524266EB03031E4617460B46024631463846BDE8F0832DE9F043044694F8309071
:206EF0000F46984615468B20ADF1340D0DF10A0103F0E2FD8A20694603F0DEFD94F82500B7
:206F100000283ED1B9F1000F19D1BDF80A104FF6FE70884205DCBDF80A1088422FD1694612
:206F300015E0B4F844009DF80A608DF80C0000128DF80D00BDF80A008DF80E601BE0B9F1D1
:206F5000020F09D0B9F1030F19D104F1280103A812F0C5F8092612E0207CC00934BFB4F8E4
:206F70004200B4F844008DF80C0000128DF80D00208D8DF80E00001205268DF80F00002069
:206F900013E002280CBF05260926012818BF04F11C0104D1892006A903F08EFD06A93246BB
:206FB00003A811F0D7FC94F8260006EB0D01C8723A4603A831460BF08DFD002840F08E80CA
:206FD000B9F1000F19D1BDF80A104FF6FE70884205DCBDF80A1088422FD1694615E0B4F8E8
:206FF00044009DF80A608DF8200000128DF82100BDF80A008DF822601BE0B9F1020F09D08C
:20701000B9F1030F19D104F1280108A812F067F8082012E0207CC00934BFB4F84200B4F87F
:2070300044008DF8200000128DF82100208D8DF8220000128DF8230004203E6881460BA94C
:20705000822003F039FD9DF82C10307B8142D8BF9DF82C00002841D0074600247220294613
:2070700010F07EFBB0689DF82C102018C8F80000007881422EDD2B68C10001EB0011D8F83F
:207090000000C91829604278012A1FD0807828BBB9F1040F06D0091D08A811F0A5FA012895
:2070B00016D017E008884B888DF82800042208A98DF82A3000128DF8290018128DF82B0083
:2070D0000AA811F023F8012802D003E0807828B9002004E07F1E04F10304BFD1F3200DB01E
:2070F000BDE8F0832DE9F04F7C4C074660688946ADF11C0D8047A046714E724D6F4C8346F1
:20711000012F68D011F0DEFB00285FD06348007800285BD162480078002857D161480078BC
:20713000002853D16048007800284FD15F48007800284BD15E480078002847D15D480078AD
:20715000002843D15C48007800283FD100200BF093FE00283AD127463878002836D1286AD2
:20717000436CF068022104AA98479DF8100068B32C46B9F1010FBA4635461ED0524F226AC6
:20719000E86897F9001011F1020F05D0926B97F900109047E868226A4C4E96F9001011F17C
:2071B000020F05D0926B96F900109047E868226A6FF001013170397001E0E868226A012100
:2071D0008AF80010D169884700206070D8F80810584688475EE001200BF04EFED8F8081031
