:20000000004B00204D420100FDC90110FDC90110FDC90110FDC90110FDC90110FDC90110DB
:1C002000FDC90110FDC90110FDC90110FDC90110FDC90110FDC901103BCA0110A4
:20003C00AD040021490400217D04002181040021110500219105002141060021F8B51047C2
:20005C00F8B50E4600210125AD0430470A48037800F00FF89B070BD0124C2078FF2807D0DF
:20007C00FF2121700E490F24240220436031C882F8BDF8B5014800476B020021E54C000014
:20009C00094801E00848000C064C05492278FF2A01D1CA7A22706031C8827046801C004737
:2000BC0000620840A4060021070F0808F0B4084770B503461546012906D0002906D0114A73
:2000DC002846FFF7BBFF70BD0F4800E00F480524834203D84008641E002CF9DCE340012053
:2000FC0040031818820B012907D00649002380312846FFF7A5FFE0B270BD0249044B6C31C2
:20011C00F6E70000835C0000A0BC862300830D2374060021F8B51A4E0546716B1948CC0942
:20013C00E401002D11D01849097802290FD0007B044372B60120154F4002B8471148203863
:20015C000088C109C90704D016E0C07AF0E7407BEEE70F497463CC61400AC0070CD001208C
:20017C008003316B002D01D0014300E08143084631630749403948630020B84762B6F8BD1C
:20019C0080020021880000219B0200217B3F00004040044010B5224A00215161214989685C
:2001BC00C90009D42149204BCA0598424B6B01D8134300E093434B631D49FFF777FF10BD17
:2001DC0038B51A4D287F002827D11A480088C009C00722D1124C606900281ED1684600F09F
:2001FC0045F868460078012817D168464078102813D208206061686A4009400120600E4ACF
:20021C000021D1620D4A02211160012108432060032108436862206038BD0948804738BDDB
:20023C0000400440180000210000930880020021CF680000680000210011044080E200E050
:20025C00C33B00000749002800D00420064A72B60978C90701D0105800E0802062B640B28C
:20027C00704700006B0200215860044003B40148019001BDA56F00000000000001000300BA
:20029C000A001F005900EB003902EA04F9099712EB1FA132784A0A66FA828C9E63B617C953
:2002BC0064D6EDDEC1E3E0E5FF000000A36100007F1407134D00F1242E1F133FB00A3F000A
:2002DC0007FF0000304000400140034007400F404F40CF40CF41CF43CF47CF4FCF3FCF2F32
:2002FC00CF1FCF0F000000000F00080000003F00000040003F000000040068000E00DC00EB
:20031C00060043001A00050000000000020000003F00000000000400C00000000400C00090
:20033C000000070050C00091007070C00091007082312100319110B10070018101B100A1BC
:20035C008231329110B101911110418141224F40F106007051C0019130181039833108D0BC
:20037C001831416F3100319110B1831414165B680070251050C00091F4C3C0C02014036F0D
:20039C003110410422C082312100319110B163393110410482C082312100319110B163392B
:2003BC003110A2C082312100319110B1501015310514059200703F6452C0311031066131A2
:2003DC00C102426412C13110213971065131E102426400708A65996588C02082503980391F
:2003FC00001E9F4041C001301814181A89C0308260398039001EA94041C001301914191A6E
:20041C003C64369110B1349110B154B0007154A064B0F0800022AF404012B09032B05382CB
:20043C005339533985643F6411C122C1426470C1C26811C1C2C0426470C1C76850C000914B
:20045C00277298921516141642105310F0C12182313131398139313151B070B272652772E4
:20047C00999270B262107310F0C331822131213981391B107265E2C08231608280318039AF
:20049C00020061B00071329110B151A061B0277230C2F36800008012B09032B0007050C01C
:2004BC0000912772999262107310F0C3318221312139813951B070B27E652772989270B21F
:2004DC0042105310F0C1218231313139813931311A107E6551A061B02772B0C018693F64D3
:2004FC0001C122C1426401C1C2C04264151A3C64359110B153828564C012B09032B0007033
:20051C003F6472C281C0426422C111C1426402C011C1426462C031C3426462C311C1426413
:20053C0002C311C14264538253398564E2C347641122404142C281C8426452C211C1426495
:20055C0072C2E1CE426402C281C8426402C201C84264B0C0546900703F6442C201C842645D
:20057C0052C211C0426472C2E1C0426402C001C1426462C001C3426422C101C1426462C333
:20059C0001C1426402C301C1426453828564007061B000711214231C7A4D339110B10070D9
:2005BC00329110B17269007061B000711318321C8649329110B10070339110B17E690070B6
:2005DC00C2C047641510C2C01216476441311514C0C0803105145410A07804040070E6C0D9
:2005FC00863101CC161467106182F0C3010417140070067305720B720E7250B00071818025
:20061C0060B050A092804122C3458080F1C11004301601110114016CD661D761D861D961BF
:20063C00DA61DB61DC61DE61E061E261E461366339639180F2C0210421318280422A1214DF
:20065C00321601112114016CEE610B62F4613963EE610B62F4613963E661E661E661E6610C
:20067C00E661E6619464E661F964E6612A65E6615665E6614667E6611012B0900E720673C6
:20069C00057210123090A761F0CF3C67D4C103C0C0C354644078509150781092607820925B
:2006BC007078309280784092907860923078909110824039F0060110103110140092426735
:2006DC00E661BCA0E2A054A0F08050221546408000222B470D6240A02D828D318D39108240
:2006FC00F1C0100409101A824A391A041082803910040E10AB10BC10C21063642972E0CFDC
:20071C003C6713B003B0C86653B050B054B064B013B0A5661082E0223846AE660071418035
:20073C0001222B47F08010224B46F022184764B03122384263B0CE661082E0223846706654
:20075C00386264B06F818F318F3DD0DFFF923C670071418001222B4764B0F080502265420C
:20077C0063B01182C1226046CE6605671182D122524670665262618172818131813D8231EE
:20079C00823DC0EFF19202933C670B62B081C091D381978290A2D3187F4EF30B1316E31CA8
:2007BC00A44AC391E3813B149062BA1C8B46231E8B4AE31C8B4E90B207228B4290A21B1A02
:2007DC009662E31CA44AC391E3813B18AB1CA04E9B1CA24ABC1CA442B2101082D0229D42D2
:2007FC00F0801022A4466364A566A462AB1094629B10946200703082F1C0100463B00071BC
:20081C00A86ABC10E0B00070B281C291D281018212185181121841828131813D121CBF4AF2
:20083C00E2B032B0B0DFF2923C67F1C72114C34E12C86291729131B0E1B0007008C006C034
:20085C0000C86091709100700182B081C091D0811018518110180614E18042828231823D29
:20087C00201CE44AE2B02122E84632B00510A0DFF5923C672122E842E2A032B03182413951
:20089C00F0C00104011EF642181610C01030081C04476010103C0610F1C76114FA4E16C85E
:2008BC00669171818131813D161C014B769131B006C008C0007061818131813D4082803992
:2008DC000118F11C174B0114B080C0221747BCB033B090EFF1920F933C67007003A063B033
:2008FC0064B0EFB056650071408000222B4764B02A65EFA00071408000222B4764B003B0EB
:20091C003862018262818231823D80EFF19202933C6703A05665E661A2806364E66150B04A
:20093C000071E661E092D08200223D47C0B20070A080F022594330B002C1623101C0A080B2
:20095C00001E5243F0225343A0F56031603953632010101A136F236E11161216546B0070C0
:20097C00B1C700000000000061A500000000000000000000C5950000557601005D1A01003F
:20099C00A97001005169010035690100ED1901000000000000000000511601009131010095
:2009BC00E9450100D1CF00000F7201000E3FA73FAB0C18B82BBC0BDA50E5900AD338D8583A
:2009DC0009CD2CD24008CB24CE3207C920CB2A06C71CC92405C618C82004C518441803C466
:2009FC0014C61C024210C51801C310C416004100C312F6C008C0040093300100ED5C010060
:200A1C00D9C300003D7601001F770100090D0100155D01008D76010099760100937601002B
:150A3C00000000005B770100000000009D090100C80900000F4B
:200A580000FF694501003C0A00005F7C0900001400704C00B0A30800000FF815B1A0B0D28C
:200A780001B14901B700000300FA9803B325057F380000900D0020B421FD83015019AD0056
:200A9800008002AF0304401F01B35801B482B201BC03037005F70810B82084AEB8614E906A
:200AB80055B8D20701FA21FF030F008000230798FFE008003FA7781500BF20930300800575
:200AD800BB7004DE04788001886A03F5F401FF10580000FC0400C4FB2264BDE907180000A4
:200AF80038FF403A00A384060020FF40007F6440400003FF0507B12305330583FF05480A46
:200B18000306B87A02FF009F84020044C703FF0401026384100043FF02B00483880300A3A8
:200B3800FF88FB008460F13588FF601A418C60238202AF00DF7D43C47063C4B0FFC0000024
:200B5800C46FFA03332034730085E63F01856DFF0100393201005377FC024F09E9BF8104FD
:200B7800ED0E01006174F4237000304723BF45ADD000001BB98A2DDF0A7017FFE14F714F00
:200B9800AF121851E1521752B70F0FFFE304D3FFEFD401FF08020020656B0100DBAD6F41F4
:200BB800CF085955413F604087A24AC7AA00B8FFEF2A76F33776FF4301AD077CB0C40DFFBB
:200BD800E0818AF3C5FD0D8AA04000011B00007DC800B002002A00028BB0F7180C0EFFE064
:200BF80026000202DF0000440D0E8CE01200F5028C10E0017002000C00AD030170952B0420
:200C18007122FFE4FEBE7CBF3784840100059540013D5A5E3F34C816002000316639D90421
:200C3800FFE50DF0202898B307C2F1019531693F03FFEF020D200580650E0030FE6F3F31DA
:200C5800FFE1C5A7FFE3FBD571709600E0190020F80175027D017D0608808007F400300842
:200C7800FF2230001E5000A0007F40018002F004E09AF012307F0F117C7D255018A2E00074
:200C98003101BF01115C01B00031A00F260741000D7F13826F1D29F40B300031FC00340474
:200CB80017F00031550C00341400341C003424003403A9FCFFE7B631BDC2FFE802F1FFE1B1
:200CD800A9541CF000315C00346400346CCA00347400347C0034FFEF129C01630020003187
:200CF80093F193A98F26923F14EF91660100C9C1FF0014B2FFE2CCC590CCA1E81ACA33B826
:200D1800C90600F3FFEF0CF00034FFEB1D1E98D070FFEF01052000712E7000316854067058
:200D3800003170003478003480003455880034900034980034A0003495A80034B00034B8E4
:200D5800003476B27F0049903A0F054132DA70FFF0007D000000E61A0020D8003059DC00F3
:200D78007000F1004B00700500927F20010100005C2C0174000044FFF000F30100000700DC
:200D9800B954190020EC01A80252E01A0133340100052000313C0034FFF0009D0000016CEA
:200DB800DC02007200C048EF1800200300C4B958011F0005700100FFF000FD0000046017C7
:200DD8000020241947002001010000310029A80170000031FFF0007B0100000F00F418000B
:200DF80020016100FFF000003D2001004574010049750100003D00000060170020FFF000D0
:200E18000200000039170000000F08000000FFF00001000000FFF00001000004FFF000017D
:200E3800000004FFF0000000580A000008020020690D000044010020910D00000001002081
:200E5800B20D0000A4010020D10D000078010020EE0D0000C80100200C0E0000E40100207C
:200E7800180E0000E81A0020200E000000020020280E0000EC0100202F0E0000F001002031
:080E9800360E0000F8010020F5
:201000003C000000000000000000000034100000000000000000000001000000000000004F
:1C10200000000000000000000000000001000000000000000800000000000000AB
:20103C003400000000000000000000006810000000000000000000000100000000000000E7
:14105C00010000000000000000000000080000000000000077
:2010700030000000000000000000000098100000040000000000000001000000FFFFFFFF87
:10109000FF00000001000000080000000000000048
:2010A0002C0000000000000000000000C4100000040000000000000001000000FFFFFFFF2F
:0C10C000FFFFFFFF080000000000000020
:2010CC0038140000E410000095A1011091A70110A1C2011009B2011041B8011000000000EA
:0810EC00000000002D000000CF
:2010F400280000000000000000000000141100000000000000000000FFFFFFFF0000000093
:081114000800000000000000CB
:20111C00341400003011000065C2011069C101101BC2011091BA011000000000000000006D
:04113C002F00000080
:20114000341400005411000071C20110A5B6011099BF011045B601100000000000000000BD
:04116000300000005B
:201164002400000000000000000000008011000000000000000000000000000008000000AE
:041184000000000067
:20118800240000000000000000000000A41100000000000000000000000000000800000066
:0411A8000000000043
:2011AC00240000000000000000000000C8110000000000000100000000000000080000001D
:0411CC00000000001F
:2011D00000000000681A002004000000000000000000000020000000701000003000000089
:2011F0001C110000701A00200400000000000000000000000C00000030130000180000009D
:2012100040110000781A002004000000000000000000000024000000481300001800000020
:2012300000000000801A002004000000000000000000000010000000A01000002C000000F4
:20125000CC100000881A002004000000000000000000000020000000641100002400000023
:20127000FFFFFFFF901A0020040000000000000000000000280000008811000024000000AF
:20129000FFFFFFFF981A0020040000000000000000000000580000003C1000003400000094
:2012B000FFFFFFFFA01A0020040000000000000000000000100000006013000018000000A9
:2012D000FFFFFFFFA81A00200400000000000000000000001C000000AC110000240000001F
:2012F000FFFFFFFFB01A002004000000000000000000000038000000F41000002800000090
:20131000FFFFFFFFB81A002004000000000000000000000054000000001000003C0000002B
:1813300018000000000000000000000040130000080000000000000032
:1813480018000000000000000000000058130000080000000000000002
:18136000180000000000000000000000701300000800000000000000D2
:0813780002000000F08A0100F0
:041384000100000064
:0413880000000E0053
:04138C0000000F004E
:041390003200000027
:041394000100000054
:04139800E019002038
:04139C00000200004B
:0413A000BD76010015
:0413A400FDC901106E
:0413A8000000000041
:0413AC00000000003D
:0413B0000800000031
:0413B4000000220013
:0413B8002C180020CD
:0413BC00010000002C
:0413C000F8190020F8
:0413C400080000001D
:0413C8000000000021
:0413CC00000000001D
:0413D0000000000019
:0413D400080000000D
:0413D8000000000011
:0413DC00000000000D
:0413E0000100000008
:0413E40024190020A8
:0413E80006000000FB
:0413EC0001000000FC
:0413F000C8160020FB
:0413F40000000000F5
:0413F80000000000F1
:0413FC0000020000EB
:0414000000000000E8
:021406002900BB
:021408000100E1
:02140A002500BB
:02140C002F00AF
:02140E003000AC
:021410002D00AD
:021412000100D7
:0114140001D6
:0814180003000000AC8A010092
:081420000000000000000000C4
:0414280000000100BF
:04142C0000000300B9
:0414300083C4011060
:041434003C14000064
:041438003C14000060
:04143C0000000000AC
:041440008000000028
:041444008000000024
:0414480000000000A0
:04144C00F81900206B
:0414500057720100CE
:041454002000000074
:041458005C8A0100A9
:04145C00A88901005A
:0414600009C30110AB
:04146400E73001006C
:041468002735010023
:04146C0095C801100E
:0414700097C8011008
:041474000000000074
:041478005B8A01008A
:04147C00788801006B
:04148000908801004F
:04148400608801007B
:0214880008005A
:02148A00090057
:02148C0001005D
:02148E0000005C
:01149000015A
:041494000000000054
:041498000000000050
:04149C00000000004C
:0414A0000000000048
:0414A4005F7701006D
:0414A800E54F01000B
:0414AC0005630100D3
:0414B000995301004B
:0414B4009754010048
:0414B800E9580100EE
:0414BC00951801007E
:0414C0006F74010044
:0414C4006D2C01008A
:0414C8000DC801103A
:0414CC001DC8011026
:0414D0000800000010
:0414D40024000000F0
:0414D80018000000F8
:0414DC0028000000E4
:0414E00020000000E8
:0414E4003C000000C8
:0414E8000C000000F4
:0414EC0034000000C8
:2014F000C7482DE9F04F0C4620274FF0000C01211F40ADF14C0D6546DFF81893DFF818837D
:20151000DFF818A3DFF818B30170002F0F93C0490E9205EA020081F800C008BF00287CD136
:201530000E984FF0E047194662460F401040002F08BF002845D10F9E0E9B4FF48601B9F8E4
:20155000B200DFF800C3CDF8289002EA0607002F01EA030108BF00291AD1B94902EA0607C5
:20157000002F01EA030108BF002970D0374643460E9EDC8003F128011881002F81E8C000F1
:2015900004BF311CB1F1806F61D102285FD111E0374643460E9EDC8003F128011881002F2A
:2015B00081E8C00004BF311CB1F5803F4FD1B0F5505F4CD1186A674643693868214698472B
:2015D00043E04646C249B6F9067091F90000BC42A0F10100087017D1328906F1280003C8FD
:2015F000002904BFB0F5803FB2F5505F08D0002904BFB0F1806F022A02D010F079FF03E088
:2016100012F076FA15F022FC524692F90000401E10706FF00101F18015E0B64E3778434621
:201630006FF00100991D08806FB1B3480078832802D08120594608704646316919B160469E
:2016500088472146E7E7CDF82890B9F8B2000F9E0E9A2F46022137401140002F08BF0029C2
:2016700000F07A83A5490B91A64A119243F20141814200F04B83C91C814200F04783944919
:201690000A4691F900104746491E1170B7F906108C4205D043F60401814240F0468342E353
:2016B0004046283090E800032F464FF4820607EA090706EA0800002F08BF002811D15648EA
:2016D000283003C82F464FF400320F400240002F08BF002A02D110F00BFF26E312F008FA52
:2016F00023E328460B9F109097F8380081245D4618B92F780FB115F0D7FD2C70804C002074
:2017100067786081119EE770054635702069DFF8F891017A457A05F0070201EB022135F0AE
:201730007F05A1F104011FFA81F840F0D782B8F5006F80F2D3820A3041460EF09DFFE169DB
:2017500004F114000522083115F0C8FBA8F1030305200D961FFA83F8E27DA57D217E0B9B87
:201770006081C2F3011B93F83860617105EB02255EB161480078862807D1BBF1020F04D153
:2017900005F00700022840F0A982281300F0020ABAF1020F58DAA37805F00700022841D140
:2017B0004E467068002B0C903CD1E16909A801220D3115F093FB062060810C9880478046B2
:2017D0000C96C74F4C48B6683A680078862819D122B915F069FD48463A6886689DF92400BF
:2017F00015F0ADFF9DF924705077002090774046D777B04705F0100010F098F904E0C046C5
:20181000E41A00204046B04715F088F96AE2C046CC1A0020280D002028160020CD1A002085
:201830001C320020344800780026862808BF0126CDF830905EB1002012F0CCF9E77805E0B5
:2018500000000C8C90190020CDF83090A37887B17BB9012F00F03D82022F03D115F0070F0C
:2018700040F03782032F04D105F00700032840F03082280908D315F4405F00F02A82C74800
:201890000778002F00F02582BAF1020F02DAA80A80F01F82C3480078C0F381098611B9F197
:2018B000010F00F01682012E00F01382BBF1030F00F00F82BA48BBF1020F0BD010F80910D2
:2018D000805D4018C7B22EB3E80923D3BF1E0EE0CE1A002000EB09018019097900794018CE
:2018F000C7B2E80912D259EA060313D0BF1CFFB210E0C0462414002020320020EC130020F0
:20191000883100201E3200208C14002059EA060308BF0227C5F3002BA7EB0B008045C0F27B
:20193000D881A8EB07002909584480B2208124BF2521109110994018743080B215F0C0FBA2
:2019500094F80280E060002800F0C381002174220FF013FA0020B8F1000F207103D10D9927
:2019700005F0200008700D9803784FF00008002B52D0BBF1000F4FD1D748008805F0070197
:2019900003291ED18108424609D3554991F82E30A3B90B681BB15B7E33F07F030ED16AB98F
:2019B0008008C24607D3D7498B68887813B1984794F8048010B9BAF1000F02D004202071DD
:2019D00080460B9894F805A090F8383033BBCE49002352460220B8F1000FCB7201F10A0A90
:2019F0008AF80000AAF1020007D000F1020A9AF8001041F010018AF800100A990271052231
:201A1000A1F87820C1F8840014F0F6FB504603210EF032FE94F8048094F805A0E16801F1EF
:201A300074004860886523890B812089A1F85C0028090ED3CBF1030082B2A1F85C20886DA8
:201A5000D44915F04BFAE1688A6DB1F85C00801888655448CF4B0078C0F3011218788D81B3
:201A7000BBF1000F00F0780040EA020048EA00050D744FF0FF038B7318BF4FF0000A81F877
:201A9000306081F83A9081F849A06089002FA0EB0B0085B2658100F01481E069E7802918C0
:201AB0003A460831684615F019FA3E48EE19B5B26581E16800780A7C6E46C0F38103C0F3D8
:201AD000011BC0F38108002B02F0400A4AD0C0F301100023022805D1D0090FD202E0C04694
:201AF000640E00209DF801209DF8000000EB0220A1F844000DF10206A1F84200AD4AB1F88E
:201B10004400B2F84A20824203D04FF6FF72824222D1B8F1030F12D072783078A54B00EB4F
:201B3000022082B24A86B3F84810B61C0120914211D04FF6FF71914218BF00200BE0E06813
:201B50003146323015F0D9FDE0689A4932303F3114F0F2FF08360346002B00F0B580204692
:201B7000E168C07D831125D0BBF1020F03D0087CC00903D309E05AEA080206D172783078F3
:201B9000B61C00EB0220A1F84200032B0CD07078327802EB00220A850CE0C04644120020D9
:201BB000B88A01009F310020E0683146283015F0A4FDE16888890009C0F08380886D3A469A
:201BD000694615F08BF9E068816D79188165E669B0F85C1001227F18A919A0F85C70083194
:201BF0000DF1250015F07AF96F1CBDB26581E1689DF82500896D0870E2689DF825609DF8F0
:201C10002530906D401C9065B2F85C00401CA2F85C0006F0070082F82400C3F3C10182F82C
:201C30002510208992F824708046002F4CD05F4F7F183E78361D8642E68045DCE069291860
:201C50003246083105A815F049F93A789DF817C0111D481980B29DF81450608105EB0C60BA
:201C7000E3689DF8165000EB05409DF81550042900EB052098610BDDE06806A9521E1C3013
:201C900015F02CF93878E3686844C07D83F82600986D05A9324615F021F9E068816D71187C
:201CB0008165B0F85C10A8EB06077118A0F85C10791E89B22181B0F85C2001818918A0F89A
:201CD0005C1000F07FF80DE015F04EFC10F010FC08E015F059FA05E02015002015F054FA0C
:201CF000CDF83090DDF83080D8F804008047E1690A68002313710968E161D8F80810884762
:201D100013E0C046381A00209418002040462A4F00784146401C087097F900003946401E3D
:201D3000087010F0E5FB14F05BFC0A980B9D214F00216FF00106A0F8B21095F83800FE8002
:201D500010B11198007808B915F080F81B481B4990F90000401E0870174890F9000010B97C
:201D7000134800210170154890F90000A0B10F9F0E9A4FF0E040022138401140002808BF9F
:201D900000290DD00D4890F90000002808DC15F08BFA05E09E3100200020014605F0AAFEE1
:201DB0000749002013B00870BDE8F08FA08A0100CA1A002028160020CE1A0020CD1A0020A8
:201DD000E41A00202DE9F04FB84CE0686189E2692589806DADF13C0D0E46891808312A46DF
:201DF00015F07CF8A81986B2E068816D6D188565E0690122311808310CA815F06FF8761C1C
:201E1000B5B20422E06965812918083104A815F065F89DF813109DF8100000EB0160E3687A
:201E30009DF812102D1D00EB01409DF81110658100EB0120049015F061F9D863049814F0EF
:201E5000FDFDA3F84000EA2014F0C5FE0220B849E26808702079117C084310749DF930002C
:201E700015F06DFC82F8460011899DF93000DFF8C4B282F8480002F174009065B2F85C0053
:201E9000401A51684FF0000909185160908982F84790830A18D2030957D310F0070F07D001
:201EB00000F00700032812BF081C5068401C48E05068C17801F00703491001F0380101EB64
:201ED00043014018001D3CE0171C02D115F0ECF9E268B889800A2ED379684878C6112AD1A4
:201EF0003E89796648464D780B7805F07F056D0005EBE3157E2D0DD07F2D09D003F07F0306
:201F10001818801C5B1880B2991C8642EBDC08E0494600E00121801C87F8601080B28642FE
:201F300001DA484605E07968411879603989091A3981A7F86800506E10B1B2F86800B0B198
:201F5000506850619089000916D292F86000002800F0FE80104611F00FFAE268D06C002870
:201F700000F0F680B2F85000002840F0F18015F0E9FA4846E060E0E14846154605904E469F
:201F9000069005A907AB06AA95F824700796284604F0FFFC002840F0D080059A6E69686882
:201FB0002B89311A581A1FFA80F80AB915F07CF9B5F85C0000900196CDF808800698001D9A
:201FD00003900598A969AB6D3A4615300AF060FC002840F0B280B54895F860302E89C15D03
:201FF000701A288113B1284611F0C6F9AE8906F00706032E02D168680078E87395F80F80AF
:20201000732009A913F0BAFE83200DF1320108F09BF8484649460D900AE0C278012A03D174
:20203000002F08BFDC2027D0001D491C0990C9B29DF8320088427FDD09988278032E07D081
:202050000378B3420DD09BF800300BB1022E08D0032EE9D10378032BE6D103465B784345AD
:20207000E2D1BB10B3EBA20F05DA02F0030207F003039A42D1DD48468246059895F80FC0D7
:2020900090F814E04946D84601E0491CC9B28E454CDD07694B00032E03EB070208D1FB5C37
:2020B000032BF2D152786245EFD10AE0883100201278B24205D098F80020002AE5D0022E19
:2020D000E3D10698077D002F08BFBAF1DC0F33D0A869B0F1FF3F27D0712008A913F04EFE13
:2020F000AA69089B484605998B4207D10699064601EB8601C9680D96914213D8401C2C339E
:202110000228F0DB06980D99521CB2F1FF3F00EB8100C26002D107980121817085F8019006
:2021300048460BE0DB2009E0DB2006E0DC2004E01C32002024140020DD206870E2685070CC
:202150009069577850651FB1F22014F044FDE2687C4DDFF8F88195F83800002874D091891D
:20217000794E01F00701022938D1A778002F35D15778002F32D106F11C010888EB6D401CAE
:202190000880506E8DF831900DF131020421984730B94046006818B19DF8311080F8681008
:2021B000E1680DF12E0000906D6E486E4A460BAB2831A84766480078862808D1F08BE76874
:2021D000401CF083B88900F010000FF0AFFC15F0B9F94846E06014F0A1FCB0E05D490F7852
:2021F0004FB35778002F40F0A8809DF83000378C20702379781C002B308402F1280602F13C
:202210001C020CBF4B46082353484946016014F0D5FD0146009351480192038832460D2072
:2022300005F08EFA10B913F0E7FF01E014F014FC5846E268007838B1D5F8801021B110469C
:2022500088475846E26800780A9210B1907BFF286FD0938913F007003DD0401E53D0801E1F
:2022700067D1C3F30130022803D15068007807282FD0108900285CD0104641684A1C4260DF
:202290000F788446C7739CF824608EB9002F50D00A2F4EDA0189324EF01910F8010C8842A2
:2022B0000BD0082F45D1082907D042E0A48A0100C07B00283DD00A283BDA60460189491E3F
:2022D0000181C17B0B3101700A99C87B401CC8731BE0322018E0234E96F871000F280CD03E
:2022F00014F02AFF48B9181300F00200022804DA4046001D01680A98884796F8A7000A9A25
:202310001074152000E0162010700A99454605F1280013F01FF8144E7068804795F830102A
:20233000491C85F83010B1688847202015F00CF84FE70AA812F010FA4BE710F0D9F80FB084
:20235000BDE8F08FEC130020C4180020640E0020203200201E320020981800203212002086
:20237000D4860100A81100208C1400202DE9FE4FE54980460122A1F130000260DF48076825
:20239000002FFCD0DE4ADF4EC027E048E04B17603268920808D2324652F8042C03F14104F3
:2023B000120C42F0F00222704FF0000A8346C1F800A0DFF864C3DBF80810D64D0191880E9A
:2023D00043D2480E41D3802018744FF6D802A3F8512018702868C0F30464162CA8BF203CDF
:2023F0001F460F3F387800F01F001628A8BF2038844223D0624602F1980EDA4ACEF800A0DA
:20241000261A022E05DC16F1020FB8BF6FF0010600E002263018166800F01F06844246F483
:20243000F856A7F866604FF001061660E8D11068374617601068CEF800601068284600680C
:20245000C0F30420162808DB06E0A5F1D0000068C0F30460162800DB203800EB2170401C60
:20247000162805DA10F10A0FB8BF6FF0090000E01520DE4F00F01F0040F4F850A3F8590075
:20249000386880083ABFEA48C0F800A041F04061019E6246A5F13804C80E8F0E80F00100B2
:2024B00000F00100106087F0010000F0010090602068C0F38367C0F38F21B00C23D23046A3
:2024D00040F3072000280BD542425046490805D17F0806BF0127391C4FF6FF71521EF5D195
:2024F000002810DD4FF6FF72490041F001018A4207D27F0047F001070F2F92BF01210F273B
:20251000111C401EF0D141EA0741182012F038FE2068D24E2768C94CA6F10409C0F3870151
:2025300007F0030041EA0021D9F8040040F2FF3253468FB22C21466800972746A7F140005C
:20255000B0470C3D2868C0F30D011C2012F018FEB84955F8080C014000F07C4001431420BF
:2025700012F00EFE55F80C1C01F47C000904090C0143102012F004FE624955F8042C096824
:20259000C2F30350C2F30343490813D2DBF800100D0510EB257003D41028A8BF0F2000E0E8
:2025B0005046090413EB217303D4102BA8BF0F2300E0534643EA001302F47F4002F0FF01CB
:2025D000B8F1220F40EA034041EA000124BF02F0804211430C2012F0D3FD974DB8F1220FD1
:2025F00032BF01202868C0F30070B8F1220F4FEA400040F0200084F8090126BF2868C0F3B5
:20261000407001208E4EB8F1200F40F0100084F8090138BF514606D33168C80C00F44070E7
:20263000C1F384510143282012F0AAFDB8F1200F26BF3068C0F301505046B8F1220F4FEACA
:20265000400040F0600084F80C0126BF2868C0F3C0605046B8F1220F4FEAC00040F08000B0
:2026700084F8010126BF2868C0F345505046B8F1200F4FEA800040F47C40A4F89C0138BFC8
:2026900070490AD3306801038A15920501F47C1100F00F00114341EA0031082012F070FDFA
:2026B0004FF48000A5F1D0012060674A886D40F21E236FF31F40834216D90868030E13F04E
:2026D0000F0F03F00F01C0F3034018BF491E072805D006280EBF0720801C00F00F0041EAA9
:2026F0000011A2F108000170DDF804C0CCF381477F1E13D07F1E3BD036E0C046940222434E
:2027100000600C40B03F005040100940AC3F00501562084088130050000020432846006807
:20273000810C21D24FF480412160D2F80210430AC0F3033703F0800321F08F010B4347EAD8
:202750000301C2F80210D2F80130060A66F30303C2F80130116800F0E70721F0E70147EAC3
:20277000010004E02C2009404FF00040224610603B480068C0F3C0070FB94020A0624FF4A6
:202790000070206428684027C0F3C14040F0300084F8C800CCF3815050B3401E03D0401EC4
:2027B0001FD002211EE0012013F090F90646042031460FF095FF042013F088F98642FAD197
:2027D0002248066826F07F4012F04EFFD9F81400036807214FF06022300E98474FF4806074
:2027F0002060032104200FF07BFF08E000000940042001210FF074FF154812F035FF203DAF
:202810002868144947F6180600F03F0084F8CB0F144B0E80D9F800201868D1680220884753
:2028300011480D4D076001212960BDE8FE8FC04694042A43FCFCFC008C13005040A00C4077
:202850009813005000803F400A600840A83F0050BD37860070B00C4094046042A4010010B0
:20287000B03F00502C20094000600C402DE9F04F0320ADF15C0D12F027FFD14D00240220BD
:2028900005F11C0141F80C4F401E8C60FAD105F14000062701467F1E21F80C4BFBD14FF0AA
:2028B0000808C849A0F80080C74E8160C749361D26F003000B1A2B62A861E861AA6905F150
:2028D0001C09B44607460E46914200F2E581991000EB810121F8044CE8233B804FF6FC7700
:2028F00007EA0C0200F1E803B61A2B6107EA0601EC39A0F8E81020460DF03AFE6861C9496E
:20291000D9F80000DFF8C89228610A6809F10C00026049684160C4498246424613F0B4FCE0
:2029300028B9C24801685246116040685060C048C14FC24EC24BC764BE490665C14A43654D
:20295000C14F816400F1480B8265C04EC765C04B0666816C436609B1204688470FF056F9C3
:202970002146D24E15910C220E9106F120000EF004FACF4F0222ADF8208041F270737762C4
:20299000708CADF82220696AB3621027099740F01900708408A8884700280CBF0A9F271CEA
:2029B0000120ADF82C80696AADF82E000BA888479DF830004D4628700D9969605FB1D0210D
:2029D00039707C70B870FC703C713946BC600220FC6011F09BFFB749182001220DF0F4F918
:2029F000E220514614F050FC182012F07BFB68706868B246CAF808000BF02EFC0AF1700034
:202A1000AD4EA860DAF80870C6F824B0AB4DB76005F10C0105F118000DF00EF8A8600D206F
:202A300014F030FB00B1A0460E2014F02BFB08B948F01008A249A86814F05AFDA149C8222D
:202A500005F1240011F034FA9F48B8F1100F68604BD113F07DF8706A002846D0C268002AA6
:202A700043D006278DF810700220ADF8120004ADADF8144095E80300904725468DF81070B7
:202A90000320ADF81200706AC268ADF8145004AB93E8030090476D1CB5F5FA7FF3DB756AE2
:202AB0008DF81070042004ABADF81200EA68ADF8144093E8030090478DF81070052004ABFE
:202AD000756AADF81200EA68ADF8144093E80300904704AD8DF81070706AADF81270C268CF
:202AF000ADF8144095E803009047DFF8E09109F1140009F108010CF09FFFC9F80400204658
:202B100014F014FD25464FF006084FF0040B1490A9F1020707F8024F02207870284614F077
:202B300076FD0146149AD9F80400C9B212F072F96D1C022DEEDB664909F120004FF4FA7267
:202B500011F0B6F9706A00284FD00769DFF884916FB10096494612A80A688988026012AD95
:202B7000818095E8030001232246B847706A00283BD0C26852B1494612A80B6889880360CF
:202B900012AF818097E803009047706A68B307695FB38DF80880ADF80A8010A8ADF80C40AE
:202BB00002AD009095E8030022460223ADF84020B847756ABDF840006F69B080AFB109E090
:202BD0008C140020D164010021320020004B0020101A0020BDF8400002AD401CADF84000E2
:202BF00095E80300022210ABB8472DA014F0F4FA706A00283ED00769002F3BD08DF81880D1
:202C1000ADF81AB00EA8ADF81C4006AD009095E8030022465B46B847E0B90E981930159086
:202C300028E0C046C8FF0100D88A0100F0120050080200209D9E0000A9450100A12A0100D9
:202C5000F5140100110C010051020100FD0D0100B93601008DF818802046776AADF81AB01A
:202C700006ADADF81C407C690F9095E803005A460FABA04715980E900DF008FFE0200E21CD
:202C900013F0DCFF13F078FE0AF10200012113F09DFE01F093F9FCE722F8024B14E6C04649
:202CB00054492053656E736F7200C0469012002020BF020009890000A41000201417002073
:202CD000955201006D6D0100056F0100A8170020D9020100FE8A01002DE9F04FADF18C0DDC
:202CF0001C911E93CC491D920A6806460DF156000260496841603046694612F0A3F90028F1
:202D10001F9004BF0020229000F0F78102200027B61CDFF84CB32090D34D2297304602A95C
:202D300010F0A7FB5FEA000900F0E48122990EA816220EF022F89DF809707F1E00F08280DC
:202D50007F1E40F0CF81B9F10A0F40F3D681B61C316804A80160361D318805AF42F20B0082
:202D700039800DF1160110F005FEBDF81600BDF81410884200F3C181B61C16F8010B16F8D5
:202D9000017B16F8014B8DF8380016F8011B8DF839700EAA8DF83A40304605F01FFBBF49F4
:202DB00009780028064400F0A8811F9C012904F1020400F091814FF400500DF14E0110F035
:202DD000D9FD0DF14E000DF15601082213F05CFA40B11C990DF14E00082213F055FA002853
:202DF00040F07A8142F2010004A907F0FFF842F20B0005A907F0FAF842F205000EA907F00B
:202E1000F5F80DF1390142F2060007F0EFF80DF13A0142F2070007F0E9F80DF13B0142F2AB
:202E3000090007F0E3F89DF83B0028B1022840F0538142F2030001E042F20D000FA907F0C8
:202E5000D5F849E1B9F1040F40F35781B61C16F8010B16F8017B16F8014B8DF8380016F808
:202E7000011B8DF839700EAA8DF83A40304605F0B5FA0028064400F040811C9806A909F0A8
:202E9000A7F99DF83600002840F00A819DF83B0000287AD195F82D70002F00F0FD8095F83E
:202EB0002F00874207D095F888000A2801D10AF063F9686B1EE06F6B4FF400500DF15E0129
:202ED00010F058FD13F0DCFA4FF0FF08229C2190A24695F82D00A04240DC686BB8F1FF0FD5
:202EF00008D008EB88040019007912F0FDFA686B071923D195F82D300746002B08BF229C12
:202F100019D05846229C40681946D8467F1F7F1DFA782AB1491E04F10104F8D17F1D0AE000
:202F3000804795F82F10491C85F82F10D8F80810884795F82D30A34200F094801C980BF094
:202F50008BFF38710120F870FC788DF8364038798DF83700229B8DF82330A1E0387910F002
:202F7000F3FE014608220DF15E0013F08DF940B138880104219814F0CEFB82453CBF824634
:202F9000A046641C7F1DA4B2A3E795F82C70002F00F0828095F82E00874207D095F8880085
:202FB0000A2801D10AF0E8F8286B1EE02F6B4FF400500DF1660110F0DDFC13F061FA4FF08A
:202FD000FF08229C2190A24695F82C00A0424DDC286BB8F1FF0F08D04FEA48140019C07FB0
:202FF00012F082FA286B071925D195F82C300746002B08BF229C1CD0DBF80400229C1946D4
:20301000D846203F2037BA7F42B1491E04F10104F8D120370DE0C046C88A0100804795F885
:203030002E10491C85F82E10D8F80810884795F82C30A34216D02299384620220DF09DFEA4
:203050001C980BF009FFF8770123FF2039462022BB770446787206A8FC720CF021FB1FE09D
:203070008C140020612055E0A42E0020F87F10F06BFE014608220DF1660013F005F938B139
:203090007968219814F047FB82453CBF8246A046641C2037A4B297E764203BE0ED13002066
:2030B0009DF836000EA9162240F004008DF8360008A80CF0F5FA1F9C9DF83B00A41C40B180
:2030D0009DF84D700FA839460FF024FE3F1A8DF8357006A80FF0AEF820984844801C80B24F
:2030F000209003E01F9C4E44B61CA41C209884423FF714AE2098022803DC229A672011467D
:2031100004E01F9A911C121A2298921C1D9B19801E990A8023B0BDE8F08F70472DE9F04F2C
:203130000F46C64E42680168ADF14C0D726080687162C54CB06077B1C1487A68C761BD69FD
:203150004262BA68026225B1BE4D14302860BA690260F86820604FF008084FF0010AADF8E5
:20317000188006A8ADF81AA08847B84D9DF81C10089B69706B6108B113F056FB3868804749
:20319000706880474FF400578346ADF800801E200197716AADF802006846884711F076FDAF
:2031B0002068406880472068C16810A888472068836810AA002001469847606008B913F0D9
:2031D00033FB13F047FDA248A34FA24A2861A34C1760A4495460A24BD160A34FA448936023
:2031F000A24C1761A34F546100F118013964BA64A14B3B651439796403F140029F4B7B613B
:2032100003F16A01B9619E4BFA649F497B629D4B19609E4959603B669D4999600024AC6068
:2032300080F838409B49D9609B4999619B4999629B499C4A99639D4B13619D4B53619D4B0E
:20325000D3619D4B13629D4B1C635C634FF0FF0983F8389083F83B4083F83C4083F83D4038
:20327000AF49C0F89C10904B53601123BB81944AC263944B0364944A4264944B8364944A73
:20329000C264944B0365944A4265944B8365944AC265944B0366944A4266944B8366944AEC
:2032B000C266944B0367944A4267944B8367944AC267944BC0F88030934AC0F88420934BD8
:2032D000C0F88830924AC0F88C20924BC0F89030914AC0F89420914BC0F89830914A1460E7
:2032F000914B83F800A05C80022012F04BFE0222E862494614F027FAE81C0222494614F0A1
:2033100022FA022012F03EFE8849086008680222214614F018FA11A80FA911F0D3FCE86A44
:203330009DF84410421C01709DF8440010703C709DF84400A87013F063F8A861716AADF8E8
:2033500008801420ADF80A0002A888471527ADF810800398ADF81270716AE86104A88847A7
:20337000744F05983C70801E2862734B1C70704D6C70AC7040F60D00EC6013F0A1FE40F2A7
:20339000FF7907468DF8284009A94246ADF82A909DF829002F6100F0F0008DF82900286965
:2033B000099713F09BFD2C62EF616448A0F8009011F0B2F9624D2878012803D0204601466C
:2033D00004F098FB5F4804705F4F3C702878012803D02046014604F08DFBB1685846884796
:2033F00002F046FC13F026FD5848007811F07EFB5046214604F07EFB11F04EF9544804700F
:203410002878012803D02046014604F073FB0FF0A1F81820ADF830804E4FADF832004E4DBD
:203430000D97716A0E950CA8884708B113F03CFF01F074FD13B0BDE8F08FC0468C140020D1
:20345000281600205C1700200432002064180020C73C0100B030002055870000B1270100C0
:20347000A7670100DDC0000055DF000055100100EC1300201415002038300020AE830100D4
:2034900029E300001C31002049AF0000B1A20000A9370100054F010011280100BDEB000040
:2034B000F3760100640E0020AD6D00004DCC0000CD5E0100650F0100854A0100EC17002039
:2034D000E9F7000075750000251301008D5001007580000061EA0000614C0000E92C0000F9
:2034F00095FF0000A97E000069CB000045700100FD9F000085390100C560010011D40000B1
:2035100011B500001DAE0000E367010001E90000C9350100A1600100B54001003129010083
:203530007D740100003200206C0A0020242D0020883100201C3200201E320020F00D00205C
:20355000E41A002020320020183200204F1200201D320020E7F70000DC1900202DE9FF4722
:20357000D64C0F460546F80B80F08B81B80880F07881F80A80F05181DFF84483DFF844A331
:20359000B80F80F0D080207A002854D1380954D3002525700126A671284612F0C1FFD14804
:2035B00013F06AFFD0492A4604F1580014F0A8F804F1400090E8000313F05AFD2379B0EBD4
:2035D00008004FEA103071EB09010905012B40EA0100E0640DD194F85010B0EBC12F08D816
:2035F000E07830B904F1D4004FF0005113F0BEFC17E040F609002671BC49208504F12803CD
:2036100094F83500E57000F0F00040F0010084F8350094F834000B6000F0F00084F8340007
:20363000E5622846294604F1400282E80300E06427F008074DE1380972D2B80B5ED2780B1F
:20365000C0F04781AE69CEB14046B04216D0A86843681BB105F1200199424DD1407B10F09C
:203670000F0F0BD1688C40F60901814206D128466FF4807100224FF00073B04704F1580098
:203690005146002214F03CF8A96800264FF0010840F602026672088884F80080824207D071
:2036B0000A8B4FF61F60104040F43470088306E00A8A4FF61F60104040F4347008826E741C
:2036D00013F0D6FCD4F83C21E36804F59E719A4208BFB046A56C45B1854226BF281A401E9D
:2036F000401B01EB8801000B8860A664192013F033FE27F48057ECE01846A9E704F11800C7
:2037100014F013F8061C08D0706830B17568F068B6F9241000222023A84727F40057D8E041
:203730000020207284E7A968088840F60209814507D00A8B4FF61F60104040F434700883D1
:2037500006E00A8A4FF61F60104040F43470088204F1400090E80C00002B08BF002A1AD0AA
:20377000042012F0B3F9B0B1266C13F081FC864226BF801B401E801B000BE860E968688A1D
:20379000401840F6C411E860814203D340F2EE22824200D9E960AE699EB14046B04210D0EF
:2037B00094F8350010F00F0F0BD1698C09F10700884206D128466FF4807100224FF0007311
:2037D000B04704F158005146002213F099FFB4F8AC004FF6FF71814209D10220ADF80000D0
:2037F000684612F0F3FABDF80800A4F8AC000120207013F0B3F84FF00008192084F8058037
:2038100013F0AAFD6E692EB1414628464FF080630A46B04727F000575BE014F077F8054673
:2038300004F1140013F081FF061C15D0E06810B1703012F035FFF068E060284614F062F8A2
:2038500013F016FCA0642A4813F016FE4FF4006104F1D40013F08AFB002027F4806720720D
:2038700037E004F12005284613F05FFF07F0B6FD284613F05AFF27F0020708B147F00207AB
:2038900027E014F043F8014604F11C0013F04DFF0646B569A80817D2B6B125EA0500B0619C
:2038B000084614F02FF8706888B185B12A46F068B6F9241075680023A84708E0700A00201C
:2038D000738000009DBA0000084614F01BF827F4804727B104F1D400394613F047FB009052
:2038F000BDE8FF8791E70000796101000010044045A90000B0B50446BC480768ADF1480DE3
:20391000002F00F0AC812078401E112800F2A781DFE810F06E0156013C0127011F010801E7
:20393000F100E300C300B2008D005D0053004200A5012A001C001200F86B002800F08F8126
:20395000684621460CF0ACFBF96B86E1386C002800F085816846002101220DF00EFA607843
:203970008DF80000396C78E1F86A002800F07781684600210E220DF000FAA11C684613F0DE
:2039900005FAA57BA1890022ADF80A1005B101228DF80C20F96A61E1B86B002800F05F81A3
:2039B0006846002102220DF0E8F9A5788DF8015060788DF80000B96B4FE1786B002800F087
:2039D0004E81684621460CF06BFB796B45E1386B08B36846002114220DF0CFF9A5788DF8BD
:2039F0000150A3680193A289ADF80820A17B8DF80A1060788DF80000E57B8DF80B50237CD8
:203A10008DF80C3094F911208DF80D2061690491396B684688476068002800F0208101461D
:203A3000F22008700020487010F070FF17E1B86A002800F014816846002124220DF09DF936
:203A50006078A11C8DF800000DF1020013F09EF904F10C0103A813F099F9257EE08A04F15E
:203A700019018DF818500B22ADF816000DF119000BF016FEB96AF0E0786A002800F0EF80C5
:203A90006846002102220DF078F9A5788DF8015060788DF80000796ADFE0386A002800F009
:203AB000DE806846002112220DF067F9658862796078ADF8025023798DF80520E11D8DF8D8
:203AD0000000A5798DF804300B220DF107008DF806500BF0E5FD396ABFE0F869002800F05A
:203AF000BE806846002101220DF047F960788DF80000F969B1E0B86910B120460FF066FC50
:203B1000A07D002800F0AB80A07820B9A069002800F0A58003E0A069002800F0A08012F0D8
:203B30004FFC9CE07869002800F099806846002113220DF022F96D46A01C01684068296077
:203B50000B22686004F10A0102A80BF0A9FD796983E03869002800F0828020460BF07CF840
:203B70007DE0F86800287AD0684600210E220DF004F96078A11C8DF800000DF1020013F0F0
:203B900005F9A089ADF80C00F96866E0B868002865D06846002114220DF0EFF8A01C01680B
:203BB0006D46296040686860A07A0B2204F10B018DF808000DF109000BF072FDB9684CE0B6
:203BD000786800284BD06846002110220DF0D5F860786588211D8DF800000B22ADF802503B
:203BF00001A80BF05DFD796837E0C046181A00203868A0B36846002119220DF0BEF8A01CFB
:203C100001686D46296040686860A07A410824BF01218DF80810810824BF01218DF809104E
:203C3000C10824BF01218DF80A10010924BF01218DF80B10C10924BF01218DF80C1030F0C8
:203C50007F001CBF01208DF80D000B220DF10E0004F10B010BF024FD39686846884712B011
:203C7000B0BD70472DE9F04FDFF8B4C292F808B009AF88460646ADF1240D049338F07F0548
:203C9000039206BF604600884FF6FF700590F08A800934BF002008203076F08AC00834BF2A
:203CB000102080207076F08A400903D260460E30007800E00020B076F08A41082CBF202432
:203CD0000024000928BF44F010047568002108F07F08307D06916D1E02280EDB0C2808DC01
:203CF0000C2803D1022044F40854069044F0030404E00D280CBF02200120044396F88800A1
:203D100008B144F00804210900D328B1DFF89C9299F89C3013B908B1DF203BE121096DD358
:203D300096F88950DFF888A206F1240133891AF8052007910AEB0001097908908918491D4D
:203D5000C9B2C918B1F5006F80F2268100284CD0049A039906F1800009F0FAFE079900281B
:203D700008603FD0806AB0F1FF3F39D070680023401E8DB196F88A10524600F80119515DD3
:203D9000491EC9B241B1721892F87F20491EC9B2002900F80129F6D1079970660968896ABE
:203DB000B162090E00F8011996F82A1000F8011996F82910089A00F8011996F8281005F0A7
:203DD000030500F8011902F0070141EAC501017071683289091AC9B270608918318105E023
:203DF000DB2700E0F3277770D7E00023F08A7370C00828BF44F0100475686D1E336DA3B93E
:203E1000B36D93B999F8B510012903D13089B0F5EE7F06DA200904D202290AD144F4005496
:203E300001E044F48054012002E044F408540220069044EA8834B8F1020FA4B20AD0B8F1B9
:203E5000030F10D1ED1F09F1A801284613F055FC6D1E08E0B9F88E00001205F8010999F892
:203E70008E0005F80109069802280CD0B8F1000F15D0BBF1000F0CD004990598814208D1EF
:203E900044F040040BE0BBF1000F08D1B8F1000F05D00599081205F8010905F8011944EA8A
:203EB0008B24BBF1020FA4B209D0BBF1030F0ED10399ED1F284613F020FC6D1E07E0039977
:203ED0000888001205F80109087805F80109BBF1000F05D00498011205F8011905F8010945
:203EF0003878F8B933480178307D0D2814D068B9306D28B999F87800411C89F878100AE09F
:203F100099F89D00411C89F89D1004E099F88600411C89F88610014605F8011904E0C04621
:203F30003212002044F48074201205F801092C7070683189401B7560C0B2401830812009A6
:203F500027D3B06D00B130621B48007810B1307D0D281ED1726A12F1150002D113F0A4F923
:203F7000726A916A481C9062306A3289B162471B0092D21B019090B20290706A96F8882046
:203F90002B46153007F0DAFB00281CBF7070071C07D10020707005E0E5277770F32012F0C4
:203FB0001AFEF8B209B0BDE8F08FC046A8110020A08A01008D310020241400202DE9F041CB
:203FD000CB4CCC4DDFF834836088ADF1600D4108C0F08C800CA808A90DF0C0FF012879D187
:203FF000404624300068D8B10769CFB1062002268DF808000022ADF80A600FABADF80C205F
:2040100002AE009396E803000C23B84740B9BDF83C006084109F67621198A06213F014F89E
:204030009DF82D00012805D002202077BDF82210A1820AE0032009AF20773A6804F11401E5
:204050000A6078684860BDF82210BDF8200009AA00230EF0C1FC011C02D0A1A013F02FFBB4
:20407000022011F0ABF9BDF830009DF82C7028870DA985F83A7005F1480013F0C3FABDF814
:20409000320005F13E0609A9A5F84600304613F0B9FABDF82200298FA887502012F0C2FDF4
:2040B000B5F84610532012F0BDFD4A20314613F0EBF895F83A10E12012F0C0FDA98F4B20BD
:2040D00012F0B0FD05F10800102112F07FFC0120207005E0012011F071F9002013F068F8D0
:2040F000A01C012112F064FC2046408880080DD3606A11F019FB11F055FE00B2A081E08173
:2041100001F0E0FEA01C022112F052FC2889410805D305F10800012112F04AFC288981081D
:2041300005D305F10800022112F042FC288901094BD395F8540005F1080600283DD0401EE5
:2041500039D0401E02D0401E33D039E095F85010472012F073FD95F85110542012F06EFD07
:20417000A98F4B2012F05EFD298F502012F05AFD0927032395F83A008DF8597016AA8DF8FE
:204190005A305D498DF8580001278DF85B7018200BF01AFEB4F84E00B4F84C1088420FD193
:2041B00095F8520001280BD13046202112F00EFC06E0032002E0022000E001200EF006F83E
:2041D0003046082112F0F4FB2889410911D395F8520005F10806032818BF042802D1A86D67
:2041F00011F08AFA10F0FAFC3046102112F0E0FB2889810907D30CF0D9FF05F10800202188
:2042100012F0D6FB2889C10907D30CF0FBFA05F10800402112F0CCFB2889400A0DD395F8E5
:20423000550012F0C5FF41F2883011F095FA05F108004FF4807112F0BBFB4546E8884008AB
:204250000DD368780026000904D3A878012801D110F098FB6E70A81D012112F0A9FB608887
:20427000002839D10A200825254CADF812004FF0FF37ADF81050616A059704A888470028F9
:204290002AD10720ADF84850616AADF84A0012A88847149E1596F8B91A499DF84E20087878
:2042B00090420ED19DF84C004A78824206D089684B6C33B100213246984702E03046FFF7AE
:2042D00019FB159840B1ADF818500320ADF81A00616A079606A8884718B0BDE8F081C04664
:2042F00041757468204572726F723A20307800C090120020481300204D760100A41000205B
:204310008C140020101A00202DE9F04F09AFADF13C0D08900A92388809911E46ADF81800E0
:20433000101C08BF002000F08481002700F101094FF0FF3A4FF0010BB8466CE1252940F0B7
:2043500063811078521C0A922D2818BFADF8068005D15846551CADF8060010780A95302871
:204370001CBF4246434605D10A9908785A465B46491C0A912A28CDF80080554616D1306856
:2043900004930A99CDF808A0C01C4B1C20F00300001D306050F8044C0A93002C08780094EE
:2043B00018D5ADF806B06442009413E044460AE0610001EBC40140180A99A0F130040878B2
:2043D0000094491C0A91302801DB3A28F0DBCDF808A004932E282BD10A9908782A2801F11B
:2043F00001010A9111D13068CDF80880C01C20F00300001D306050F8045C002D48BF454646
:2044100008782B46491C0A9111E0454643460AE0690001EBC50140180A99A0F13005087850
:204430002B46491C0A91302801DB3A28F0DB02930AB1224604926C2804D04C2818BFADF8F4
:20445000048005D10A990878ADF804B0491C0A910BA9CDF80C800FAB07916428059300F00B
:204470008B80692800F08880BDF818C0752872D078286ED06F286AD0702850D063283DD02D
:2044900073281ED009980A990128A1F101010A9115D96B490C68B5F1FF3F03D0A84288BFE9
:2044B0006D1C00D8099D029508A80AA932466B46A047C7190A99039801F1010974E04046E7
:2044D0002AE030680A99C01C20F00300001D306050F8040CBCF1000F01F10109014608B9D3
:2044F00055A00146079112F045FE0390B5F1FF3F5BD0A842C4BF281C039056E03068C01C03
:2045100020F00300001D306010F8040C5D468DF82C000A990395584601F1010945E008203D
:2045300035680490E81C20F00300001D306050F8041C082210230FA80DF030FB401E0790DD
:20455000402101700A99079801F1010929E0082302E0102300E00A230A99306801F10109AE
:20457000C01C20F00300001D306050F8041CAA42BCBF2A1C049210E00A99306801F10109BD
:20459000C01C20F00300001D306050F8041CAA42BCBF2A1C04926FF009030FA80DF0FEFAAD
:2045B0000790059D281A0390009C241ABDF8065000945DB906E008A8202109AA11F078FB50
:2045D000009C7F1C641E0094F5D503980546401E039075B9BDF80600E8B10098401E0090D5
:2045F00019D408A8202109AA11F062FB00987F1CF4E70798411C0791017809AA08A811F03D
:2046100057FB03987F1CE1E708A809AA11F050FB7F1C09F101094A460A9812F8011C401C37
:2046300000290A907FF48AAE089808B14146017038460FB0BDE8F08F286E756C6C2900C07E
:20465000208B0100BA492DE9F84F00254820C1F8F35FB84CC1F8FF0F94F8E200002800F055
:204670006381012800F02F81B34E02283CD0032840F05A8151F8310CD4F8B8100029A0F538
:20469000C060C4F8D400B8BF49420028B8BF4042814226DA4FF08057D7F8A4014568B4F891
:2046B000BC0030214FF47F42082300903046A847D7F8A4014568B4F8C00004214FF4F802CA
:2046D000122300903046A847D7F8A401B4F8D070456820214FF440620A2330460097A84744
:2046F000012584F8D8501AE151F8318C12F0EEFE2F4600B901273946904F38680028FCD0A9
:20471000B146012609F10409D9F82CA03E6009B112F0E2FECAF30720C4F8BC0012F0D6FE5B
:20473000AA4600B9B2463B68002BFCD0D9F800B0BAF1000F3E6001D012F0CEFECBF3844034
:20475000C4F8C00012F0C2FEAA4600B9B2463B68002BFCD0D9F81C90BAF1000F3E6001D02A
:2047700012F0BAFEC9F38120C4F8D000B8F5C061C4F8B81000F09C8094F8D80068B9C4F8E7
:20479000D410D4F8C000C4F8C800D4F8BC70C4F8C470D4F8D030C4F8CC30D4F8D410D4F82D
:2047B000BC30002954BF02206FF0010004F1C802176801EB41014018411000EB917107EB4B
:2047D000A1001060D4F8C810C4F8C43000291CDD1E293CDDD4F8CC0030B93429B4BF153943
:2047F0001E21C4F8C81025E02A29BABFD4F8C8000B381E20C4F8C800D4F8C4003F28B4BF02
:20481000401C3F20C4F8C4001FE0D4F8CC00032812D011F10B0FC6BFD4F8C8000B30301CED
:20483000C4F8C800D4F8C4000028C4BF401E051CC4F8C450032508E011F1150FC6BFD4F8D3
:20485000C8001530301CC4F8C800C4F8CC504FF08057D7F8A401B4F8C43030214FF47F4214
:204870004568354800930823A847D7F8A40104214FF40032112345682F480096A847B4F8BA
:20489000C860D7F8A40104214FF4F8021223456829480096A847D7F8A40120214FF4406298
:2048B0000A23B4F8CC60456823480096A84701E084F8D85040F2FF50404502D8801C4045C0
:2048D0002DD208202EE051F8311C1D4F4BF2F5204843060A3868C0F3814001280AD111F08B
:2048F00061FA10F06DF812F0FDFD3111C010484306EBE03694F8E50030B91248006820F01C
:204910007F408019460801E084F8E5500E48310C0660012741600D4D8760287808B90B20C0
:2049300000E0052084F8E40004F090F9BDE8F88F39400C40940F002000A00C4000800C4019
:20495000B43F0050102009403C600C408E8A01002DE9F04FAF4E82463068ADF1140D08B958
:2049700012F0A2FCAC490120AC4F08703978012902D0002103F0BEF830680489456812F0B3
:20499000B6FEDFF89C922888000937D399F83800002833D031684A6A4F6E906AC846B0F1E4
:2049B000FF3F25D027B3431C93628862030E07F80139306890F82A0007F80109306890F8DF
:2049D000290007F80109306890F8280038703268106A00940190401B201A80B20290916A18
:2049F000506A92F888202B46153006F0A7FE00E0DB20D8F87C10002840F000812146284685
:204A10000BF03AFE642003A90FF0E6F9854999F838700878884637B98348007809F0C0FF05
:204A3000012805D0E6E009F0BBFF012840F0E280DFF8F8C1A01C241D6D1EA1B2ACF87800AD
:204A5000C1F3022040F0080005F8010929709DF80C70CCF88450002F4FF00005ACF86A501E
:204A70000CBF49F24E0047F60E206446C4F8C0006F4EC4F8800070688047B3466D4E049061
:204A9000BAF1010F6BD0BAF1040F68D0BAF1000F65D094F84000BAF1050F04F13007C0F3C1
:204AB000C0003ED0E8200DF10D010FF095F999F8380030B39DF80D00032822D1787B3B7C61
:204AD00000F0F00007F1110140F00300787343F018003874F4200FF07FF9D9F89C00804708
:204AF000A064306A544BD0F808C06586294602208DE80300D8F80C002A463946E047374676
:204B100067E0306A87684C4BA4F86A50294602208DE80300D8F80C002A4604F16801B84716
:204B3000EDE728B9787B00F0F00040F0010004E0787B00F0F00040F003007873B146294671
:204B5000D9F820003E4B8668658602208DE80300D8F80C002A463946B0474E46CFE794F8C0
:204B70003D0000F0F00040F0030084F83D0094F8400004F130018A46113140F0180084F854
:204B90004000F4200FF028F999F83800002808BF4FF4FA5002D0D9F89C0080472949A064D0
:204BB0003746D8F80C000B783E6A43B9A4F84E5002212A468DE8060004F14C0105E065860B
:204BD00002212A468DE8060051462A461A4BB568A8471A490880DBF80810002808D41A4A01
:204BF00092F900006834401C10700498FC600DE0049888471A200BF077FC08E0002908BFD2
:204C1000E420F8D0114A00201070E420884705B0BDE8F08F640E0020CB1A0020E41A00205C
:204C3000EC130020841900204F120020280D00208C14002028160020399D000094180020F2
:204C500091C90000C6180020CD1A0020203200202DE9F04F002898461546ADF12C0D00F0F6
:204C7000F58011F47C1F40F0EE8011F00F0F00F0ED8007460591002006900A904FF0000A79
:204C90000990544608944FF0010BCDF810B0044650460790059805990BEA000021EA0B01A7
:204CB0004FEA4B0B401E059100F0AD80401E69D0801E56D0001F40F0C08005B12F660720E8
:204CD000152642F2D002022307F8010B01A907F8016BA2F1CF0007F8013B0EF04BFE6846AC
:204CF00003A90AF04FFB8B48019A018842F2D0064FF47A63701890FBF3F0009B3E46C018A6
:204D10000090824206D8801ABDF80C300090581CADF80C00009B5008514681460904180497
:204D3000030C19430004534610EB090041EB0A0102F02CFA0090BDF80C309DF80C009DF851
:204D500000209DF8011006F8010B181206F8010B9DF8023006F8012B9DF803200934BF1D7D
:204D70004BE00220152607F8010B042307F8016BB8F1000F07F8013B0CBF099898F800000F
:204D9000241D57E01DB1EF6595F86B0006900520152642F2D002049B07F8010B0DF10E01BE
:204DB00007F8016BA2F1CC0007F8013B0EF0E2FD02A80FF06FFD5848029AB0F8B61042F20E
:204DD000D00670189DF80E604FF47A6390FBF3F150189DF80E30069AE41D000200EB6600A4
:204DF000B0FBF3F03E4602903F1D06F8012B9DF808109DF809309DF80A2006F8011B06F827
:204E1000013B327018E00320152607F8010BB8F1000F07F8016B034607F8013B04BF0A9837
:204E300007F8010B05D098F8000007F8010B98F80100641D07F8010BA4B2059800287FF43C
:204E500029AF264661E011F00F0F01D000205DE080468A4602264FF4803908F1020509EAC3
:204E70000A002AEA090A4FEA4909B0F580301AD0B0F5803014D0B0F500300ED0B0F58020F6
:204E900009D0B0F5002004D0B0F580102AD1072404E0062402E0052400E00424002704E009
:204EB0000224012701E001242746A81C214600F047FC47B104F00F04C0F30A0141EAC421F6
:204ED00041F4004105E004F07F0400F0FF0141EA042105F8011B36180912B61C2970B6B25B
:204EF00045196D1CBAF1000FB9D1022ED8BF00260BDDB01E4FF6FE7708F8010BB819C0F38A
:204F1000022040F0A00088F8000030460BB0BDE8F08FC0469E2E0020E82D00202DE9F04F3E
:204F3000AC4C04F128000068ADF1240D0FF0D4FA08B111F06BFCA248DFF89CA2DFF888B217
:204F50000068A24E089011F031F811F059FAE569A769B5F57A7F13D0C01B4FF47A720023C2
:204F7000A5FB000102F012F980464FF47A72002311F0D8FF2A46002302F008F9C01901E053
:204F9000A0EB0708A0618D488C49006820F00200086070688047DBF80010DBF804304546C6
:204FB0006918B1F57A7F0DD34FF47A72B1FBF2F2D2184FF47A73CBF804201F46B1FBF7F227
:204FD0005A43891ACBF80010B168884770688047DAF8041002466818B168CAF80400104644
:204FF0008847DAF8000000285FD007464FF00009706880474FF000081FFAA5F3079083B9AA
:205010005FFA95F36BB93979E8B2884204DD79682846884209D20AE03879E9B2401A387157
:2050300008E079682846884201D3414601E07968091A7960B88878B9FB8853B9FB6843B1EF
:205050003B8933B1B87A19460AF0FAF8F8687860B88808B9FB880BB13B896BB9B9F1000F02
:2050700004BF3868CAF8000003D03868C9F800003868B846074601E0B9463F68B16807989D
:205090008847B8F1000F0ED0B8F8043043B9B8F806302BB998F80A00B8F808100AF0D0F8CD
:2050B000404611F07DF9002FA2D144484349006840F002000860E06828B3804723E015F82D
:2050D000060C2169A5F10C07032819D0E16A9DF816000978884210D115F8080C10F09CFB8D
:2050F000B979012903D0022908BFA87000E02870002029460DF0B4FB05E011F087FB02E06A
:2051100009B12846884708200727ADF81000716AADF8127004A88847069D0028CFD0294825
:2051300000680088C8B1706880472649096800220D880A80B1688847089A0020294620708D
:2051500090470546FF202070706880471D4909680A8815430D80B168884710F027FF074626
:20517000B7F1FF3F1CD0706807B9194F216AB94238BF0F1C80471C230546626AADF80230B1
:205190000820ADF80000716A019268468847A16A3846491CA1620FF0D7FBB168284688472F
:2051B00008200A27ADF808004FF0FF35ADF80A70716A039502A88847C5E6C04610E000E0DA
:2051D0000C8B0100242D0020501A00208C1400208EC2F52864180020FC3100202DE9F04FC1
:2051F0008146002000212022ADF1540D009003A80BF0C3FDD9F82400B9F8221001236A46B4
:2052100007F08EFD0024A046002876D10098002873D006467079042869D100200190F188BB
:20523000B06801AA002307F07BFD00285FD1019800285CD007467879BD68001F3AD0401EDA
:2052500004D0401E2FD0401E10D04AE0F888202847DC03A8002120220BF08FFDFA8803A8F8
:2052700029460AF01DFA44F002043AE00BA86B682968436005F1080201600DAB1168506846
:20529000196002F10805586029686B680FAA083553602846116011AB026841681A6044F064
:2052B000080459601DE029880DF10A0044F00404018016E0298802A80180BDF8081042F2D3
:2052D0000E0012F071F815F8028F44F0010408F00100C8F3800BC8F3401A1390C8F3400379
:2052F00014933F68002FA6D1019811F08EFE3668002E8FD1009811F088FE99F82870634D60
:20531000022F18D0A008C0F0BC805F4903A8202210F0BAFF002840F0B480012F04D1E87891
:20533000401CE87099F82870032F04D12879401C287199F82870002F4DD1A86A401CA862F5
:20535000600820D3B8F1000F04D105F13E00494612F058F942F20F00414612F02CF81399A3
:2053700042F20A0012F027F8149942F2100012F022F842F21100594612F01DF842F2120070
:20539000514612F018F84FF40050494612F0BBF9B9F81A10502011F045FCB9F81A00B9F873
:2053B0000010D9F82C304A460DF016FBB9F81A004946288705F13E0012F024F9687801289D
:2053D0005AD0002001210CF075F941F2707003210CF070F950E0022F4ED1E00805D3BDF856
:2053F0000A1042F2140011F0DFFF200913D342F215000BA912F087F942F216000DA912F0CC
:2054100082F942F217000FA912F07DF942F2180011A912F078F9286B4946401C28634FF4C1
:20543000005012F070F9002003210CF043F96878012821D0012000276870154C6F7104F1D5
:20545000E000064611F060FF012802D1304612F070F911F0E5FD074611F0E2FD42F210710E
:2054700000EB07200DF02CFA206A01F57A6112F0EDF8304612F05BF9D5F8981009B148461C
:20549000884715B0BDE8F08F8586010048130020A41000202DE9F04706460020ADF1380D4D
:2054B000DFF89092ADF80C00A0480F460168A34D097D252900F00E81006805A96C3006F0A1
:2054D00087FE002818BFC0B240F02D8197480068C18AC9080DD3007D03280AD09DF81F006F
:2054F00038B99DF820004C463870B5342070002019E101A804A909F045FFA5F12F018A4600
:2055100091F82F30019A3468DAF808104FF47A78404641F208155843891A08FB120008FB11
:2055300001F1001B091B8D42C8BF002965DC854205DD002803DD346804F5915434609DF816
:205550001F00002857D042F204000DF135010EF011FA10F0A5FF044606980DA9241A42F2A4
:2055700006000EF007FA9DF834109DF81D00FF2904BF0A218DF83410FF2808BF0A209DF8FF
:2055900034206B499DF81C30B4FBF1F1801880B24843991008FB01F1814298BF081C2D180B
:2055B00005A810F02AFD9DF81C203468C446B0FBF2F15143411A8BB20CFB02F26146594398
:2055D000531A521A1B1B121B954201D9002A08D56942994216D2002B14D5B5FBFCF109B2ED
:2055F00003E06900B1FBFCF189B232684FF4916303FB012405E0002004E0306841F630346B
:205610002418346005460DF1120102A809F0BAFE0298DAF80810B4FBF8F210180290814259
:2056300003D99AF82F30834204D94B4603F15804267836BB9DF81C0055190004A84298BF17
:205650002D1A9DF81F00002808BF9DF8200016D09DF81C00B5FBF0F084B29DF833000EF078
:2056700073FB9DF83120014620460EF0B1FC044610F0B0FC024608A920460EF0F7FA4C4698
:205690000DE0814204D8BDF81200401CADF812004C46BDF8120094F85B100CF066F9387041
:2056B000224E84F8B5003068007D05287FF41FAF2148007800287FF41AAF387803A9ADF870
:2056D0000C0042F20C0004F091FCBDF80C00A4F8B0000CE768460DF10E0109F053FE306850
:2056F000009A2B7841F208144FF47A7101FB0202009259438A1A944210DCA1F5FA61914288
:20571000BCBF00F5FA6030604C4694F85B10208F0CF02BF901460020397002E039784C4692
:20573000652084F8B5100EB0BDE8F087640E0020A0860100E82D0020351200205F2F0020B6
:20575000F0B504460846ADF16C0D401E6BD0401E0DD0801E00F00381401E00F0E980401EEA
:2057700000F0DB80401E00F0A88000203CE142F2010007A90EF0FEF842F20B0008A90EF054
:20579000F9F842F206000DF165010EF0F3F842F207000DF166010EF0EDF842F2050019A903
:2057B0000EF0E8F804A809F0A7FC05460DF1670142F209000EF0DEF89DF86700002808BF06
:2057D000002303D0022010F0FDF8034607A8006808A920600988271D3C46B81C218005F05A
:2057F00007079DF865609DF864109DF8662000F8011B9DF8674000F8016B03F0030600F865
:20581000012B620747EA926104AC41EA8611012700F8011B9DF8672000942946019706F064
:205830004FFE0A3099E042F206000DF165010EF0A1F842F207000DF166010EF09BF842F2BE
:20585000040019A90EF096F804A809F055FC05460DF1670142F208000EF08CF89DF8670085
:20587000002808BF002303D0012010F0ABF803469DF864009DF8657004F8010B9DF8666060
:2058900004F8017B9DF867209DF86770790704F8016B03F0030705F0070646EA916004AE3E
:2058B00040EA8710294604F8010B002700962046019706F005FE001D4FE042F2150011A99D
:2058D0000EF058F813AD42F2160029460EF052F815AE42F2170031460EF04CF817AF42F2E8
:2058F000180039460EF046F811A801682160406860606A6804F108035A602868186030688E
:2059100003F10801086074684C60386801F1080528607A686A60202066E042F214000DF1EB
:2059300022010EF027F8BDF8221002200A1258E009A8002120220BF020FA42F2130009A998
:205950000EF018F809A811F015FC024609A9204609F0A6FE09A811F00DFC80B244E042F224
:205970000E0002A90EF006F80DF10A0142F20F000EF000F80DF10B0142F20A000DF0FAFFE2
:2059900003A942F210000DF0F5FF0DF10D0142F211000DF0EFFF0DF10E0142F212000DF08A
:2059B000E9FFBDF808009DF80B209DF80C709DF80D609DF80E509DF80A1004F8010B02F0C3
:2059D0000102001204F8010B07F0010042EA400206F0010042EA800205F0070042EA401215
:2059F000042004F8011B22701BB0F0BD2DE9F04F06469E48001D0068ADF1340D80470B9004
:205A10000AA9822004F0A0FB9DF8280018BB00248DF828404FF6FF75ADF804509DF8280082
:205A3000ADF80650FF2108228DF8000002A811F08AFE8DF81840D420694601F06FFF9DF8E5
:205A50002800401CC0B28DF828003228E4DB82200AA901F063FF0020DFF808A2DFF80882D0
:205A70008DF8280081469DF828008DF8019069468DF80000D02004F067FB01274D46E8B9F9
:205A90009DF80B30012B07D19DF80A0020B90DF1020011F00BFA88B9747B002C0CBF052256
:205AB00009224F469C4209D10DF1020006F10E0110F0A6FD002818BF012507D1002F40F059
:205AD000BF801DB9707F002800F0BA804C469DF828008DF8214008A98DF82000D12004F0F0
:205AF00033FB002832D19DF82200FF282ED08DF800006946D42004F027FB002833D102A84D
:205B1000311D082210F07CFD00B330887788ADF80400ADF8067045B1307B9DF82810B769C8
:205B30008DF818000DEB81010F61D420694601F0F5FE75B1307F9DF82310884209D08DF882
:205B5000230008A9D12001F0E9FE02E0641C322CBDDB322C74D14F468DF80070D420694670
:205B700004F0F2FA28B1DAF808100B988847192074E002AB184611F099F94C4600B101246D
:205B90002046341D30B918462146082210F038FD00284AD030887388327BADF804009DF851
:205BB0002810ADF80630002D8DF818200DEB810000F110000CBF4946B1690822016002A8B5
:205BD000214611F08BF998F8380030B1D8F888201AB19DF80010204690474C469DF82800AC
:205BF0008DF8214008A98DF82000D12004F0ACFAE82807D09DF82200FF2803D0641C322C58
:205C1000ECDB10E09DF800008DF82490337F8DF8220069468DF82330D42001F07FFE08A9FC
:205C3000D12001F07BFE322C02DB7F1C322F93DB322F05D1DAF808100B9888471A200DE09A
:205C50009DF82800401CC0B202288DF82800FFF60AAFDAF808100B98884748460DB0BDE8D8
:205C7000F08FC0468C140020EC1300208C1400202DE9FF47854FDFF830828C4CF8680028D7
:205C90003ED18F4D8249843D2868814210D0814981420DD0804981420AD08049814207D017
:205CB0007F49814204D07F49814201D011F0FCFA10F0D6FD29684FF0FF32012805D1C1F39B
:205CD0000330083805D0C01F01D0012A01D1012000E00020F8700EF03FFC142804D1404666
:205CF00000F1E001C0F8A4100FF08AFF216A19B911F0DAFA2046016A096A07F11000884781
:205D1000632002A90EF068F8DFF8A49109F1B70000780FF05FFF06464046D0F8981090F88B
:205D30009D20B0F896C041F00F0102F03F02C0F898102CF0070C80F89D204CF0010CA0F87F
:205D500096C0B37A4FF0000A00F188057BB99DF8083002F0C0023F3303F03F0313436B7557
:205D7000EB8A4FF6C0721A4042F018020DE09DF8083002F0C00203F03F0313436B75EB8A33
:205D90004FF6E0721A4042F02002EA82307B052814BF2420292088F89C00F27A307B401D7A
:205DB0005043E2690A230CF0010C90FBF3F0C0044CEA1040E881F07A1923800390FBF3F007
:205DD00060F31C212961288B117D4FF6F77361F3020003EA00012883107D00F008000843EA
:205DF000288399F9A6000DF05DFEA8F8A200716833683089401EA8F88AA0414303EB5100FE
:205E10004FF47A71B0FBF1F0A8F8A800C8F88CA0687B00F0F00040F00100687311F098FB21
:205E3000A0B9F07A234A99F8B730B1FBF0F01070F07A022BB1FBF0F0C0B2B1FBF0F0787095
:205E500004D11D4802214170A8260670F86850B9206A0668616A194807F110032A46B047E1
:205E70003C4605460DE050460BF028F9206A86684FF002098DE80006F868524629461346A9
:205E9000B047E5600090BDE8FF87C0468419002000F0022000F0012000F000200080022063
:205EB0000080012000800020280D002028160020A8110020C8190020C4180020282D002093
:205ED00018130050F0B500214422ADF1540D02A80AF053FFF22013A911F0CEF9834DBDF8FB
:205EF0004C0013A9A5F86800F32011F0C5F9BDF84C000DF10901A5F86A00E22011F0ACF9FB
:205F1000688CADF81200410806D305F10C01096805A80160BDF81200810805D3291D098823
:205F300006A80180BDF81200C10807D305F1100109680DF11A000160BDF81200010908D31B
:205F50000DF11E0005F14C01242209F0A9FBBDF81200400903D3A86A12906F6A1197644828
:205F7000007800280CBF0121002101200BF026FFBDF8120041082CBF0F240B24810824BF59
:205F9000A41CA4B2C10824BF241DA4B2010924BF2434A4B2400924BF0834A4B220460FF0DA
:205FB000D9FE071C00F09F8005260DF1090100F8016B0A68026049684160BDF812100830FC
:205FD00011F0AEFABDF81210844648080BD3BDF81410604611F0A4FABDF8161011F0A0FAA5
:205FF000BDF812108446880807D3BDF81810604611F096FABDF812108446C8080BD3BDF86E
:206010001A10604611F08CFABDF81C1011F088FA8446BDF81210374A9388080949D3BDF896
:206030001E10604611F07CFABDF8201011F078FABDF8221011F074FABDF8241011F070FA03
:20605000BDF8261011F06CFABDF8281011F068FABDF82A1011F064FABDF82C1011F060FAF4
:20607000BDF82E1011F05CFABDF8301011F058FABDF8321011F054FABDF8341011F050FAF4
:20609000BDF8361011F04CFABDF8381011F048FABDF83A1011F044FABDF83C1011F040FAF4
:2060B000194611F03DFA117811F03AFABDF812108446480906D3119960460EF0CAFD1299F0
:2060D0000EF0C7FD05F11401224630463B4605F0F1F80820ADF80260074D01972968ADF855
:2060F00000006846884715B0F0BDC04690120020AA170020A4100020B01400202DE9F04FEB
:206110000128ADF1140D40F0F180DFF81882D8F8DC00012840F0E7800220C8F8DC0011F04A
:20613000EDFB029001200EF011F9061C06D00120C8F8DC00029811F0DDFBD9E011F0D6FBF9
:2061500003906D484FF00009C0F8009001200FF0BDFC012818BFCDF8009004D148460DF0C9
:2061700063F8012000906548654FC0F800903868112011F0C9F900280CBF4F4601271020E6
:2061900011F0C2F908B147F002070F2011F0BCF908B147F004070B2011F0B6F928B1594805
:2061B0000068594D016B288888470A2011F0ACF94D4600B101254FF0805B28460BF5DC75C3
:2061D00020B12868514C016B208888475048012404602868816947F0200088474D48046014
:2061F00011F08CF900F001010191400814D24A4811F019F98246BAF1040FF8D0BAF1010FA9
:2062100005D1DBF8D80142684348032190474349086820F003000860484600F085F83848CA
:206230002B680068986B8047019801280DD0BAF1010F05D1DBF8D801426837482146904746
:206250003649086840F0030008602C48046028684169384688470B2011F056F920B1286869
:20627000294BC16A188888470A2011F04DF920B12868264BC16A188888472548046003222D
:20629000C8F8DC20234BC3F800902868416B384688470128F9D104200EF058F80546184FD9
:2062B00015481F490460386808688009FCD30098012802D120460CF0B7FF11F00DF9082062
:2062D0000EF044F807460398C8F8DC4011F00AFB0CF0B0FB029811F00DFB57EA050018BF43
:2062F0004FF0FF3604E06FF0040601E06FF00106304605B0BDE8F08F0C400940000222433B
:206310002C200940B8010010428801003E88010028200860800104430040034024220840F4
:2063300014100940940F00202DE9F047DFF80CA20746AAF13500DFF8F8810068800880F07E
:20635000E7800FF02FFD814908310B6800261C17641C990D0AD2C0F13E0110F10A0F4FEA87
:20637000E101D8BF08218C42B8BF0C1CDFF8C4C1990E0FD2590E0DD36246143A1168C1F3B0
:2063900004211629A8BF20391268C2F30462162A0EDB0CE0634AD2F87C11C1F304611629C3
:2063B000A8BF20391268C2F30442162A00DB203A61189146162905DA11F10A0FB8BF6FF0C4
:2063D000090100E01521584C584D01F01F0242F4F85222802A6812F0030F18BF0126D20892
:2063F00028BF46F002060FB146F00406424692F90740041B052C04DA9479B44208BF9188FD
:2064100066D00F28A0F10F0827DB08EB0014A4F1F0084FEA282EBEF1070F88BF4FF0070ED2
:206430007546062D88BF06255CF82570042404EB850465462C59E41B04F0FF05F70824BF5A
:20645000C4F307273D44B70824BFC4F307473D44770828BF05EB146501E00025AE465CF881
:206470002EC0F7080CF0FF0424BFCCF307273C44B70824BFCCF307473C44770828BF04EB4C
:206490001C64ADB2A8EB0E27B9EB010105FB07F505F1800504EB1524D8BF012103F0FF0352
:2064B00034254D43A9B259434FF6FF73B1FBF4F18B4238BF191C802889B2918005DA10F1D7
:2064D000800FB8BF6FF07F0000E07F20D0719671194800681F2910604FF0000008D340F234
:2064F000FF128A4206D24908401C8A42FBD301E01F219180124F0F39090940EAC10047EA87
:206510000001CAF8FB1F0026CAF8FF6FBDE8F0870C490D4F424608200F60921D1070BDE878
:20653000F087C0463C1100506E620840242208400C3200209C13005008200940350009403F
:2065500000E7A48030100940FDFDA400AC3F00502DE9FE4F0646824AF07B20B91146491C43
:206570000978022908DB012803D110460078022802DBF120BDE8FE8F346AB6F8289096F8D5
:20659000347096F835B0B58B4FF000085FEA040A17D0744890F83830002B2ED0016D0029A3
:2065B0002BD004F0FF0088476E49096D04B20AF47F008847001900B2001D00B2C43084B21B
:2065D00000E0C4240DB12D1DADB267480078012809D147B16548C11991F8048010F80B00B3
:2065F0002418641DA4B205EB090020184044801C80B20FF037FE071C02D11A20BDE8FE8F5F
:2066100008EB09002B193881002D07EB030078600EBF0020E019801C00217422C7F8A000DF
:2066300007F10C0011F08FF84C442D1907F13C00FF211022A7F84C5011F085F807F12C0085
:206650000F21102211F07FF800243C707C707868716A328D09F024F807F1800006F12C0169
:206670000B2209F01DF807F18C00314610F0A6FA7089A7F89600307B87F89800707B06F162
:206690000E0587F899002A6869460A60AB888B80AA798A719DF800102046012908BF01209B
:2066B0009DF80110012908BF40F004009DF80210012908BF40F008009DF80310012908BF96
:2066D00040F010009DF80410012908BF40F020009DF80510012908BF40F040009DF80610CA
:2066F000012908BF40F08000A7F89A00707D87F89C00B07D87F89D00B28BA7F8A42022B1EC
:20671000D7F8A000B16908F0CBFFB07F87F8A600306AC7F8A800B7F8A400C0B1D7F8A00096
:20673000A8B17868401E7860F82101707868401E78600470B7F8A410B7F8A4607868401A76
:20675000786039897018801C38817868B8650848007839460CF084F82046BDE8FE8FC04658
:20677000920E0020EC13002044120020A08A0100141500202DE9F043002B08BF002A10D1FA
:206790000029BCBF00204FF0004106DB50EA01071CBF6FF000006FF000410AF0BAFDBDE852
:2067B000F0835FEA530898EA610803D50026404266EB01015FF0000913F0004E03D0002652
:2067D000524266EB03031C461546002C08BF8D429CBF2C1C0025070C47EA01470E0CB442DB
:2067F00008BFBD429EBF240444EA15442D04070A47EA01670E0AB44208BFBD429EBF240285
:2068100044EA15642D02470847EAC1774E08B44208BFBD4200F29280870847EA81778E0876
:20683000B44208BFBD427BD8C70847EA4177CE08B44208BFBD4265D8070947EA01770E09E2
:20685000B44208BFBD424FD8470947EAC1674E09B44208BFBD4239D8870947EA81678E0938
:20687000B44208BFBD4223D8C70947EA4167CE09B44208BFBD420DD8E60146EA5566EF016E
:20689000B14208BFB84201D3C01BB14159EB09094EEB0E0EA60146EA9566AF01B14208BFAC
:2068B000B84201D3C01BB14159EB09094EEB0E0E660146EAD5666F01B14208BFB84201D3B8
