:020000040000FA
:10000000002C002035BB0000FDC90110FDC9011006
:10001000FDC90110FDC90110FDC90110FDC9011084
:10002000FDC90110FDC90110FDC90110FDC9011074
:10003000FDC90110FDC901103BCA011000000000FC
:100040007395000000000000FD940000E00900002E
:100050000FC046C0AD040021490400217D040021E9
:100060008104002111050021910500214106002194
:10007000F8B51047F8B50E4600210125AD0430470C
:100080000A48037800F00FF89B070BD0124C207839
:10009000FF2807D0FF2121700E490F24240220439E
:1000A0006031C882F8BDF8B5014800476B020021F5
:1000B000E54C0000094801E00848000C064C0549E1
:1000C0002278FF2A01D1CA7A22706031C882704634
:1000D000801C004700620840A4060021070F0808A2
:1000E000F0B4084770B503461546012906D000292B
:1000F00006D0114A2846FFF7BBFF70BD0F4800E04D
:100100000F480524834203D84008641E002CF9DC04
:10011000E340012040031818820B012907D006494B
:10012000002380312846FFF7A5FFE0B270BD0249E9
:10013000044B6C31F6E70000835C0000A0BC862312
:1001400000830D2374060021F8B51A4E0546716B25
:100150001948CC09E401002D11D018490978022969
:100160000FD0007B044372B60120154F4002B84700
:10017000114820380088C109C90704D016E0C07AA8
:10018000F0E7407BEEE70F497463CC61400AC0079B
:100190000CD001208003316B002D01D0014300E021
:1001A0008143084631630749403948630020B84716
:1001B00062B6F8BD80020021880000219B02002168
:1001C0007B3F00004040044010B5224A00215161AD
:1001D00021498968C90009D42149204BCA059842A0
:1001E0004B6B01D8134300E093434B631D49FFF76A
:1001F00077FF10BD38B51A4D287F002827D11A483F
:100200000088C009C00722D1124C606900281ED1A5
:10021000684600F045F868460078012817D168461E
:100220004078102813D208206061686A40094001B4
:1002300020600E4A0021D1620D4A02211160012185
:1002400008432060032108436862206038BD0948E4
:10025000804738BD0040044018000021000093088A
:1002600080020021CF6800006800002100110440D6
:1002700080E200E0C33B00000749002800D00420D2
:10028000064A72B60978C90701D0105800E08020EC
:1002900062B640B2704700006B0200215860044013
:1002A00003B40148019001BDA56F000000000000EB
:1002B000010003000A001F005900EB003902EA04A4
:1002C000F9099712EB1FA132784A0A66FA828C9ECE
:1002D00063B617C964D6EDDEC1E3E0E5FF000000B8
:1002E000A36100007F1407134D00F1242E1F133F5C
:1002F000B00A3F0007FF00003040004001400340CB
:1003000007400F404F40CF40CF41CF43CF47CF4F63
:10031000CF3FCF2FCF1FCF0F000000000F000800EE
:1003200000003F00000040003F00000004006800A3
:100330000E00DC00060043001A000500000000006B
:10034000020000003F00000000000400C0000000A8
:100350000400C0000000070050C00091007070C091
:100360000091007082312100319110B10070018143
:1003700001B100A18231329110B10191111041817E
:1003800041224F40F106007051C0019130181039E0
:10039000833108D01831416F3100319110B183148D
:1003A00014165B680070251050C00091F4C3C0C0E3
:1003B0002014036F3110410422C082312100319199
:1003C00010B163393110410482C082312100319172
:1003D00010B163393110A2C082312100319110B1C6
:1003E000501015310514059200703F6452C0311051
:1003F00031066131C102426412C1311021397106E6
:100400005131E102426400708A65996588C020829A
:1004100050398039001E9F4041C001301814181A0D
:1004200089C0308260398039001EA94041C0013046
:100430001914191A3C64369110B1349110B154B0AA
:10044000007154A064B0F0800022AF404012B09020
:1004500032B053825339533985643F6411C122C18C
:10046000426470C1C26811C1C2C0426470C1C76831
:1004700050C000912772989215161416421053100E
:10048000F0C12182313131398139313151B070B20D
:1004900072652772999270B262107310F0C3318244
:1004A0002131213981391B107265E2C082316082AD
:1004B00080318039020061B00071329110B151A0D9
:1004C00061B0277230C2F36800008012B09032B081
:1004D000007050C000912772999262107310F0C39F
:1004E000318221312139813951B070B27E65277254
:1004F000989270B242105310F0C1218231313139DB
:10050000813931311A107E6551A061B02772B0C0B7
:1005100018693F6401C122C1426401C1C2C0426482
:10052000151A3C64359110B153828564C012B090A5
:1005300032B000703F6472C281C0426422C111C1F6
:10054000426402C011C1426462C031C3426462C3EA
:1005500011C1426402C311C142645382533985649C
:10056000E2C347641122404142C281C8426452C280
:1005700011C1426472C2E1CE426402C281C84264C7
:1005800002C201C84264B0C0546900703F6442C2F4
:1005900001C8426452C211C0426472C2E1C04264E6
:1005A00002C001C1426462C001C3426422C101C1F0
:1005B000426462C301C1426402C301C14264538206
:1005C0008564007061B000711214231C7A4D339160
:1005D00010B10070329110B17269007061B0007199
:1005E0001318321C8649329110B10070339110B14A
:1005F0007E690070C2C047641510C2C012164764FD
:1006000041311514C0C0803105145410A078040481
:100610000070E6C0863101CC161467106182F0C309
:10062000010417140070067305720B720E7250B03D
:100630000071818060B050A092804122C3458080CB
:10064000F1C11004301601110114016CD661D7619B
:10065000D861D961DA61DB61DC61DE61E061E261B0
:10066000E461366339639180F2C0210421318280D4
:10067000422A1214321601112114016CEE610B6230
:10068000F4613963EE610B62F4613963E661E6613E
:10069000E661E661E661E6619464E661F964E6615B
:1006A0002A65E6615665E6614667E6611012B0901C
:1006B0000E720673057210123090A761F0CF3C677E
:1006C000D4C103C0C0C35464407850915078109294
:1006D0006078209270783092807840929078609222
:1006E0003078909110824039F006011010311014CA
:1006F00000924267E661BCA0E2A054A0F0805022C4
:100700001546408000222B470D6240A02D828D317E
:100710008D391082F1C0100409101A824A391A0466
:100720001082803910040E10AB10BC10C21063642C
:100730002972E0CF3C6713B003B0C86653B050B025
:1007400054B064B013B0A5661082E0223846AE669D
:100750000071418001222B47F08010224B46F0228D
:10076000184764B03122384263B0CE661082E0226E
:1007700038467066386264B06F818F318F3DD0DF4C
:10078000FF923C670071418001222B4764B0F080EA
:100790005022654263B01182C1226046CE66056771
:1007A0001182D1225246706652626181728181311A
:1007B000813D8231823DC0EFF19202933C670B6232
:1007C000B081C091D381978290A2D3187F4EF30B52
:1007D0001316E31CA44AC391E3813B149062BA1C34
:1007E0008B46231E8B4AE31C8B4E90B207228B4212
:1007F00090A21B1A9662E31CA44AC391E3813B18A2
:10080000AB1CA04E9B1CA24ABC1CA442B21010827E
:10081000D0229D42F0801022A4466364A566A462A3
:10082000AB1094629B10946200703082F1C010048F
:1008300063B00071A86ABC10E0B00070B281C291D0
:10084000D281018212185181121841828131813D79
:10085000121CBF4AE2B032B0B0DFF2923C67F1C77F
:100860002114C34E12C86291729131B0E1B0007090
:1008700008C006C000C86091709100700182B0810C
:10088000C091D0811018518110180614E180428265
:100890008231823D201CE44AE2B02122E84632B097
:1008A0000510A0DFF5923C672122E842E2A032B0B9
:1008B00031824139F0C00104011EF642181610C001
:1008C0001030081C04476010103C0610F1C761147A
:1008D000FA4E16C8669171818131813D161C014B1B
:1008E000769131B006C008C0007061818131813DD0
:1008F000408280390118F11C174B0114B080C022CE
:100900001747BCB033B090EFF1920F933C67007083
:1009100003A063B064B0EFB0566500714080002260
:100920002B4764B02A65EFA00071408000222B475E
:1009300064B003B03862018262818231823D80EF0F
:10094000F19202933C6703A05665E661A28063645E
:10095000E66150B00071E661E092D08200223D472E
:10096000C0B20070A080F022594330B002C16231A1
:1009700001C0A080001E5243F0225343A0F5603115
:10098000603953632010101A136F236E111612165C
:10099000546B0070B9990000A58F0000E978000041
:1009A000759A0000A5BA0000396F000001CA000066
:1009B0001DA90000DDC8000019C7000001C7000024
:1009C000EDB00000559F000081C2000099A8000012
:1009D00051AF00005DBA0000B9AF00006DC5000066
:1009E0000E3FA70C18B80BDA500AD33809CD2C08E3
:1009F000CB2407C92006C71C05C61804C51803C4A4
:100A00001402421001C310004100F6C008000000AB
:100A100005B600006DC10000AD8E0000F9C90000F0
:100A200051CA00008DA7000019C10000E583000035
:100A30004985000021CA000001E000000300000019
:100A4000200300004F500000114900002B49000016
:100A5000E14F00009D4F0000254F0000174F0000A0
:100A6000FF4E0000F34E0000614E0000254C0000D8
:100A7000D54E000089500000DD4D0000CB4D000038
:100A8000C74D0000BB4D0000AF4D0000A14D000060
:100A9000934D00005F4D0000514D0000314D0000AE
:100AA000274D0000F54C0000E14C00005B76000093
:100AB00017760000B95000005D4B0000BB510000EC
:100AC000474B0000DF750000C7750000817500000E
:100AD000F74A00004575000037750000B54A000070
:100AE00000000000000000002D7500001D750000D2
:100AF000594A0000000000008F3F00008F3F0100B6
:100B00008F3F02008F3F0300903F00018F3F0101A4
:100B1000903F0002903F00038F3F01048F3F00058C
:100B20008F1208048F3F00048F3F0006513F0000E2
:100B30007F3F01003F3F04003F3F02003F3F010075
:100B40007F3F02007B756E6B6E6F776E2D696E73E3
:100B500074616E63652D6E616D657D007B656D7082
:100B600074792D696E7374616E63652D6E616D6548
:100B70007D00C0467B7374617469632D696E737404
:100B8000616E63652D6E616D657D00C000000000C3
:100B90002000000040000000600000000000000095
:100BA0000800000000000000060000000200000035
:100BB0008600000082000000000000000800000025
:100BC00010000000180000002000000006088080CF
:100BD000070880800D2007C00E2007C01400C080C9
:100BE000024000800300C0800108C08009400080EE
:100BF000084000800A400080FE00000015AA0000A6
:100C000055B5000031C70000617C0000319B000039
:100C10002DCA0000C9AC0000B18D000033CA00002D
:100C200065A5000000000000FFFFFFFFFFFFFFFFC2
:100C300000000000000000000101010100C20100ED
:100C400003000000000000007BC80110C5BC0110BB
:100C5000D9B2011033C20110BDAD0110C1B10110F4
:100C60006DBA011065BB01101DC00110FC0B000026
:100C7000601B0020840C0000000000000000000049
:100C800000000000001000400600000015000000F9
:100C9000FF000000050000000302FFFF000000004D
:100CA000FD980000A9AD000001010100FFFF000058
:100CB0000100000000000000000000000000010032
:100CC000000000003C1D0020D40C000000000000CB
:100CD00000000000004002400B0000002700000060
:100CE000FF000000FFFFFFFFC4090000010000003B
:100CF00003010200000006000100000041B50110E0
:100D000095A6011015B80110FFFFFFFFFFFFFFFFC1
:100D1000FF000000000000000000010000000000D3
:100D20000F0000000A000000C00C002051C50000A8
:101000003C00000000000000000000003410000060
:1010100000000000000000000100000000000000CF
:1010200000000000000000000000000001000000BF
:101030000000000008000000000000003400000074
:101040000000000000000000681000000000000028
:10105000000000000100000000000000010000008E
:101060000000000000000000080000000000000078
:101070003000000000000000000000009810000098
:10108000040000000000000001000000FFFFFFFF5F
:10109000FF00000001000000080000000000000048
:1010A0002C0000000000000000000000C410000040
:1010B000040000000000000001000000FFFFFFFF2F
:1010C000FFFFFFFF080000000000000038140000D0
:1010D000E410000095A1011091A70110A1C2011018
:1010E00009B2011041B8011000000000000000002A
:1010F0002D0000002800000000000000000000009B
:10110000141100000000000000000000FFFFFFFFBE
:10111000000000000800000000000000341400007F
:101120003011000065C2011069C101101BC201101D
:1011300091BA011000000000000000002F00000024
:10114000341400005411000071C20110A5B6011042
:1011500099BF011045B6011000000000000000001A
:10116000300000002400000000000000000000002B
:1011700080110000000000000000000000000000DE
:101180000800000000000000240000000000000033
:1011900000000000A411000000000000000000009A
:1011A0000000000008000000000000002400000013
:1011B0000000000000000000C81100000000000056
:1011C0000100000000000000080000000000000016
:1011D00000000000500C002004000000000000008F
:1011E000000000002000000070100000300000002F
:1011F0001C1100007C0C0020040000000000000016
:10120000000000000C000000301300001800000077
:1012100040110000880C00200400000000000000C5
:101220000000000024000000481300001800000027
:1012300000000000900C00200400000000000000EE
:101240000000000010000000A01000002C000000B2
:10125000CC100000980C00200400000000000000EA
:1012600000000000200000006411000024000000C5
:10127000FFFFFFFFB80C002004000000000000008A
:101280000000000028000000881100002400000079
:10129000FFFFFFFFE80C002004000000000000003A
:1012A00000000000580000003C1000003400000066
:1012B000FFFFFFFFF00C0020040000000000000012
:1012C0000000000010000000601300001800000083
:1012D000FFFFFFFFF80C00200400000000000000EA
:1012E000000000001C000000AC1100002400000001
:1012F000FFFFFFFF000D00200400000000000000C1
:101300000000000038000000F41000002800000079
:10131000FFFFFFFF080D0020040000000000000098
:101320000000000054000000001000003C0000001D
:101330001800000000000000000000004013000042
:10134000080000000000000018000000000000007D
:10135000000000005813000008000000000000001A
:1013600018000000000000000000000070130000E2
:101370000800000000000000010000002C0D00002B
:101384000100000000000C0000000D00320000000D
:1013940001000000580C00200002000063910000CE
:1013A400FDC901100000000000000000080000005A
:1013B40000002000EC0E002001000000A00C002022
:1013C4000800000000000000000000000000000011
:1013D4000800000000000000000000000100000000
:1013E400B80F00200600000001000000100E0020CD
:1013F40000000000000000000002000000000000E7
:0F1406002900010025002F0030002D00010001FA
:1014180003000000FC0C00000000000000000000B9
:10142800000001000000030083C401103C14000008
:101438003C14000000000000800000008000000054
:1014480000000000A00C002081C80000200000005F
:10145800B00C0000480C000009C301105BB6000086
:101468003FBE000095C8011097C801100000000099
:10147800C20C00005C0B0000740B0000440B000061
:0914880008000900010000000148
:101494000000000000000000000000000000000048
:1014A40069CA000099BD00000DC2000009C0000017
:1014B400DDBE000039C00000B5B1000037C900002E
:1014C40049B400000DC801101DC801100800000037
:1014D4002400000018000000280000002000000084
:1014E4003C0000000C000000340000000A680260A8
:1014F40049684160083070470A6802604A680831E8
:10150400426011F8012B027211F8012B4272097822
:10151400817270471346024610B5803A132A3ED8AA
:10152400DFE802F032302E2C2A2826243D3D211EED
:101534001B19163D13100D0A4FF4803226E04FF4A8
:10154400004223E04FF4806220E04FF400621DE08B
:101554004FF400521AE0082218E04FF4805215E0CC
:101564004FF4007212E04FF480720FE040220DE05D
:1015740080220BE0202209E0102207E0042205E08B
:10158400012203E0022201E04FF48042E34C24688C
:10159400224204D00A460146422006F009FF10BD4B
:1015A40008B5007801216A468DF800009220FFF703
:1015B400B1FF08BD08B5017840788DF800106A467F
:1015C4008DF8010002219020FFF7A4FF08BD014619
:1015D400852000F043BA1FB5044620788DF800003A
:1015E400607861688DF801000DF1020008F057FE83
:1015F400218908F076FEA17A00F8011BE17A00F84F
:10160400011B217B00F8011B617B00F8011B216990
:1016140008F045FE842010216A46FFF77BFF009006
:101624001FBD38B50D460446287A04F8010B287A04
:10163400022804D02046FFF759FF044609E020465B
:101644000021082209F0AAF92988204608F049FE59
:101654000834204638BD1FB5044621466846FFF7C6
:10166400E0FF618908F03DFE217B6A46017091200C
:101674000C21FFF74FFF00901FBD0A6802604A6803
:1016840042600A7A083000F8012B4A7A00F8012BEC
:10169400897A0170704710B504462078ADF1280DA1
:1016A400A11C8DF800000DF10100FFF7BAFF04F151
:1016B4000C01FFF7B6FFE18A08F013FE217E00F863
:1016C400011B04F11901FFF7D8FF8D2021216A467F
:1016D400FFF720FF0AB010BD08B5017840788DF8F7
:1016E40000106A468DF8010002218B20FFF712FFDB
:1016F40008BD10B50446ADF1180D207861888DF849
:1017040000000DF1010008F0ECFD217900F8011B47
:10171400617900F8011BA17900F8011BE11DFFF7B5
:10172400ACFF802011216A46FFF7F4FE06B010BD1D
:1017340008B5007801216A468DF800008E20FFF775
:10174400E9FE08BD00B50346ADF1140D194668461F
:10175400FFF7CCFE03F10801FFF78FFF8A20132166
:101764006A46FFF7D7FE05B000BD2DE9F0470746EE
:1017740097F8281097F838004D0097F830108046F5
:10178400CE007119414426311FFA81FA71194018AB
:10179400263080B200F052F95FEA00094BD00021F4
:1017A40000F8011B797800F8011BB96908F077FD8E
:1017B400391DFFF736FFF98908F093FD398A08F0DF
:1017C40090FD0446B87C04F8010BF87C04F8010B86
:1017D400387D04F8010B787D04F8010B387F07F19C
:1017E4001D0104F8010B2046FFF747FF97F8280076
:1017F4000B3404F8010B97F8300004F8010B97F848
:10180400380004F8010BF96A2A46204608F094FCD3
:10181400796B2D193246284608F08EFCF96B424646
:10182400701908F089FC832051464A46FFF772FE7E
:10183400484600F090F8BDE8F0870EB501218DF818
:10184400001041788DF8011090F828108DF80210DE
:1018540090F829108DF8031090F82A108DF80410D0
:1018640090F82B108DF8051090F82C108DF80610B8
:1018740090F82D108DF80710C18D02AA104608F0BB
:1018840030FD83206A460A21FFF744FE0EBD01782D
:10189400012902D019B9FFF768BFFFF7CEBF70471F
:1018A4001FB504462078A11C8DF800000DF101003D
:1018B400FFF7B7FEA18908F014FD87206A460C21C2
:1018C400FFF728FE00901FBD00B50346ADF1140DCF
:1018D40019466846FFF70AFE197A00F8011B03F15E
:1018E4000901FFF7CAFE862014216A46FFF712FE9B
:1018F40005B000BD1FB50446207861888DF800004E
:101904000DF1010008F0EDFC211DFFF7B6FE822069
:101914000E216A46FFF7FEFD00901FBD90100020C7
:1019240010B50346ADF1180D19466846FFF7DEFD04
:10193400044603F1080001F0B2F803F10E0104F8C3
:10194400010B2046FFF799FE812014216A46FFF718
:10195400E1FD06B010BD0EB501900821ADF80010F0
:1019640068460521ADF8021003F06FFB0EBD2DE9AA
:10197400F04106467078032806D0777D3D4610B1C5
:1019840005EB4515ADB201E000273D461635ADB275
:10199400284600F053F85FEA00084DD0044630783A
:1019A40004F8010B707804F8010BB07804F8010B0B
:1019B400F078311D112204F8010B204608F0BCFB1D
:1019C400717D04F1110000F8011B747844B3B4690B
:1019D40057B32146FFF725FE618908F082FCA189EF
:1019E40008F07FFCA17B00F8011BE17B00F8011BE0
:1019F400217C00F8011B617C00F8011B616908F07F
:101A04004EFC0346207E04F1190103F8010B18462D
:101A1400FFF733FE243403F10B007F1ED9D103E01A
:101A2400B1693A4608F088FB29468C204246FFF704
:101A340071FD4046FFF78FFFBDE8F0810EB50190C0
:101A44000821ADF8001068460421ADF8021003F037
:101A5400FCFA002814BF002002980EBD2DE9F041C5
:101A640080460D46B8F1850F0CBF33243424698CAD
:101A7400B5F8400040182418A4B22046FFF7DEFF52
:101A8400071C4ED02946FFF7CCFD05F10A01FFF7EC
:101A9400C8FD696908F003FC298B08F022FC698BF6
:101AA40008F01FFCA98B08F01CFC0346A87F03F870
:101AB400010BE87F03F8010B95F8200003F8010BF4
:101AC40095F8210005F1300103F8010B1846FFF7E2
:101AD400D4FDE96A03F10B0008F0E1FBB8F1930FC0
:101AE40004BF95F8281000F8011BB5F8401008F061
:101AF400F8FB698C08F0F5FBB5F84020E96B064665
:101B040008F01AFBB5F84000696A6A8C801908F07D
:101B140013FB404621463A46FFF7FCFC3846FFF7E4
:101B24001AFFBDE8F08101469320FFF797BF08B57F
:101B34008DF80010012201466B46622006F038FC45
:101B440008BD00B58188ADF11C0D162918BF2721E9
:101B540019D181680DF10B000B46FFF7C7FC083360
:101B6400184608F093FBADF81400991C11F8010B0A
:101B7400002200B1012268468DF81620FFF7BCFC54
:101B840000F0BFFF01465120FFF7D1FF07B000BDB1
:101B940000B58188ADF11C0D162918BF272116D177
:101BA40081680DF10B000B46FFF7A0FC08331846C3
:101BB40008F06CFBADF81400991C11F8010B8DF8BA
:101BC40016006846FFF798FC00F0C2FF014650205B
:101BD400FFF7ADFF07B000BD00B58188ADF1240D5E
:101BE4001E2918BF272118D1836818788DF80000A2
:101BF4005B1C13F8010B19468DF801000DF113005D
:101C0400FFF77AFC11220DF1020003F10B0108F039
:101C140093FA684600F0C0FF01464420FFF787FFAF
:101C240009B000BD08B58188022938BF272107D330
:101C34008068024608F02AFB911C01F015F8014661
:101C44004320FFF774FF08BD13460A46014662208D
:101C540006F0AEBB00B50021ADF12C0DADF80010BF
:101C64008188022918BF272007D1806808F00EFB5D
:101C74006A460DF1030101F03CF88DF802000028DA
:101C840006BFBDF80000401C0120ADF80000BDF8FF
:101C940000100DF102024220FFF7D6FF0BB000BD89
:101CA40008B5808818B901F038F8014600E027210A
:101CB4004120FFF73CFF08BD08B5808818B901F042
:101CC4004BF8014600E027214020FFF730FF08BD14
:101CD40010B58188ADF1200D202918BF272128D106
:101CE400806804460078002100B10121641C8DF84D
:101CF400151014F8010B10228DF8140021466846C3
:101D040008F01AFA1034204608F000FB241D049051
:101D140014F8010B21468DF816000A680DF117031B
:101D24001A604A68097A5A606846197201F016F80E
:101D340001463820FFF7FBFE08B010BD1FB5002197
:101D440000918188012918BF27240AD1806800786E
:101D5400694601F038F8009904460DF1050008F0D1
:101D64009EFA8DF804403720052101AAFFF76CFF85
:101D740000901FBD08B58188012918BF272104D10F
:101D84008068007801F046F801463620FFF7CFFE60
:101D940008BD08B5808818B901F05BF8014600E079
:101DA40027213520FFF7C3FE08BD08B5818808291F
:101DB40018BF272103D1806801F068F80146342058
:101DC400FFF7B5FE08BD90B58188ADF1240D1D293E
:101DD40018BF27213DD18068044608F057FAA41C97
:101DE400ADF80000204608F051FAA41CADF802003A
:101DF400214601A8FFF77AFB04F10807384608F0EA
:101E040085FA3C1D069014F8017B002007B10120DF
:101E14008DF80C0014F8017B002007B101208DF827
:101E24001C0014F8017B002007B101208DF81D006F
:101E340014F8010B21468DF80D000A680DF10E0708
:101E44003A604A68097A7A606846397201F042F861
:101E540001463320FFF76BFE09B090BD08B58188B9
:101E6400022918BF272105D1806808F00FFA01F074
:101E740071F801463220FFF75AFE08BD98B50746AF
:101E840081380C46022810D9001F01280DD9801E64
:101E940009D0401E09D0401E012804D9801E14BF59
:101EA400FF20022002E0082000E00120A188C91ED2
:101EB400814218BF272026D1FFF7C0FD021C08BFAE
:101EC4001A2020D0A0683B46C11CA3F1810002283F
:101ED40015D9001F012812D9801E0BD0401E0ED028
:101EE400401E012806D9801E0BD1084608F0CEF901
:101EF400108006E0086810604F68576001E00878B9
:101F04001070A260002098BDD0B50446A0880728B0
:101F140018BF27201BD10520FFF790FD071C15D003
:101F2400A068401C10F8021B397010F8011B79706E
:101F340010F8011BB97010F8011BF9700678002124
:101F440006B1012139710020A760D0BD1A20D0BD8F
:101F54002DE9F0418046B8F80400182818BF27205E
:101F640031D11C20FFF76AFD071C08BF1A202AD0B4
:101F7400D8F80840641C14F8020B3870204608F0A6
:101F840085F9A61CB880304608F080F9B51CF880A5
:101F9400294607F10800FFF7A9FA05F1080414F827
:101FA400010B002100B1012107F110050226397649
:101FB400204608F0ABF9241D761E45F8040BF7D132
:101FC400C8F808700020BDE8F081B0B50546A888BF
:101FD400172818BF272017D11820FFF72FFD071C3B
:101FE40011D0AC68641C14F8020B1022214638701E
:101FF400781C08F0A1F804F1100008F087F9786162
:10200400AF600020B0BD1A20B0BD10B50446A08852
:10201400052818BF272014D10420FFF70FFD78B13D
:10202400A168491C11F8012B027011F8012B4270B0
:1020340011F8012B82700978C170A060002010BDD6
:102044001A2010BDD0B50446A088062818BF272042
:102054001ED10520FFF7F2FC071C18D0A068401C15
:1020640010F8011B397010F8011B797010F8011B6E
:10207400B97010F8016B002106B10121F9700678DE
:10208400002106B1012139710020A760D0BD1A20BA
:10209400D0BD98B50446A0880D2818BF27201AD1B2
:1020A4000C20FFF7CBFC071C14D0A068401C10F8D0
:1020B400011B397010F8011B79700268BB1C1A608F
:1020C40041685960017A197210F8091FF9720020E9
:1020D400A76098BD1A2098BD01468888032812BFBE
:1020E4002720002088607047F8B50446A08803289C
:1020F40042D3A0680678304671382DD0401E01289E
:1021040028D95E3822D0401E1CD0401E16D0401E56
:1021140010D0401E0AD0401E04D030462146FFF79E
:10212400ADFE1CE02046FFF7EFFE18E02046FFF767
:102134000FFF14E02046FFF748FF10E02046FFF7AA
:1021440064FF0CE02046FFF77DFF08E02046FFF720
:10215400A0FF04E0F42710E02046FFF7BDFF071CB2
:102164000BD1A16830460D4600F02DFF074625B17E
:102174002846FFF7F0FB00E0272731203946FFF718
:10218400D6FCF8BD70B5154606460446012D10D0A0
:10219400022D09D0042D03D007F0CEFF2C190BE03B
:1021A400096808F07CF802E0098808F09AF8044607
:1021B40002E0087804F8010BA41BE0B270BD0B78B0
:1021C400024602F8013B4B7802F8013B8B7802F897
:1021D400013BCB7802F8013B097902F8011B121A82
:1021E400D0B27047B0B50C462178054600F8011B03
:1021F400A18808F076F8E18808F073F804F1080182
:10220400FFF774F9217E0227103400F8011B54F8FB
:10221400041B08F044F87F1EF9D1401BC0B2B0BDC6
:1022240070B50C460646054620781022611C05F858
:10223400010B284607F080FF616905F1100008F0E2
:102244002EF8801BC0B270BD0B78024602F8013B29
:102254004B7802F8013B8B7802F8013BC97802F80D
:10226400011B121AD0B270470B78024602F8013BE8
:102274004B7802F8013B8B7802F8013BCB7802F8EB
:10228400013B097902F8011B121AD0B2704710B54C
:102294000B78024602F8013B4B7802F8013B8B1C99
:1022A4001C6814605C6854601B7A1372C97A093222
:1022B40002F8011B121AD0B210BDF8B581880329A7
:1022C4007AD180680778451C1A2438467138022868
:1022D40070D95F3813D0401E09D0401E0DD0401E67
:1022E40009D0401E05D0401E18BF082008D1052083
:1022F40006E01C2004E0182002E0042000E00C208A
:10230400FFF79CFB061C53D03846D038022803D96B
:10231400C01E022802D903E06878707028783070F3
:10232400384631466A4600F057FE041C3DD1BDF8DC
:102334000000401C80B2FFF781FB051C34D03946F5
:1023440000F8014BD03923D0491E1DD0491E17D0A7
:10235400491E11D0491E0BD0491E05D09DF80020FE
:102364003146FFF70FFF16E03146FFF728FF12E072
:102374003146FFF737FF0EE03146FFF751FF0AE021
:102384003146FFF761FF06E03146FFF76DFF02E0DB
:102394003146FFF77CFF411C2A463020FFF754FCEE
:1023A4002846FFF7D8FA00E01A243046FFF7D3FA9C
:1023B4001CB9F8BDF42400E0272430202146FFF79F
:1023C400B6FBF8BD8088012814BF272126210F20E1
:1023D400FFF7ADBB08B58188012918BF272104D1B7
:1023E4008068007800F001FE01460E20FFF79FFB95
:1023F40008BD08B50246107A022805D0032807D183
:102404001046FFF773F808BD084607F03FFF108039
:1024140008BD10B58188ADF1180D162918BF272104
:1024240016D1846820788DF80800641C684621461B
:10243400FFF7DFFF0834204607F028FFADF80A0055
:10244400A11C03A8FFF758F8684600F0EFFD014609
:102454000D20FFF76CFB06B010BD00B58188ADF10F
:102464002C0D28294ED1836818788DF811005B1C37
:1024740013F8010B8DF8120013F8010B8DF81300FB
:1024840013F8010B8DF8140013F8010B04288DF8D0
:10249400150007DD9DF81100032803D010B10420B6
:1024A4008DF8150013F8010B002100B101218DF8FE
:1024B400161013F8010B8DF8170013F8010B8DF8A3
:1024C400180013F8010B002100B101218DF824102C
:1024D40013F8010B8DF82500184607F0D7FE9B1C56
:1024E400ADF8260019460DF11900FFF705F8112281
:1024F40003F10B01684607F01FFE684600F0CCFDAF
:10250400014600E027210C20FFF711FB0BB000BDB2
:1025140008B501468888002808BF272105D08968A6
:102524000878491C00F00CFE01460920FFF7FFFA69
:1025340008BD00B50021ADF1140DADF8001081887F
:10254400012918BF272006D1806800780DF1030106
:102554006A4600F0FBFD8DF80200002806BFBDF8B6
:102564000000401C0120ADF80000BDF800100DF182
:1025740002020820FFF768FB05B000BD10B5818892
:10258400ADF1200D182918BF272120D184682078A7
:102594008DF81400641C03A82146FFF72AFF0834B1
:1025A400204607F073FEADF81600A11C11F8010BCC
:1025B4008DF8180011F8010B002200B101226846C1
:1025C4008DF81920FEF798FF00F0CCFD0146072096
:1025D400FFF7ADFA08B010BD10B58188ADF1200D3C
:1025E4001A2918BF272129D1846820788DF80B0077
:1025F400641C14F8010B8DF80C0014F8010B8DF811
:102604000D0014F8010B21468DF816000DF10E0093
:10261400FFF7EFFE0834204607F038FEE31CADF860
:10262400180013F8010C0DF11A0100F0C1FD684601
:102634001946FEF761FF00F0D9FD01460620FFF7B9
:1026440076FA08B010BD98B507460C46084607222E
:10265400002108F0A3F9780824BF01202070F808AD
:1026640024BF01206070380924BF0120A0707809BC
:1026740024BF0120E070B80924BF01202071F809AB
:1026840024BF0120607137F07F001CBF0120A071BE
:1026940098BD30B50546AC682078ADF13C0D641C9E
:1026A4008DF8080021466846FFF7A3FE083420464B
:1026B40007F0ECFDA41CADF80A0014F8010B8DF82A
:1026C4000C0014F8020B8DF80D0014F8010C0DF138
:1026D4000E01FFF7B8FF14F8010B8DF8150014F87C
:1026E400010B21468DF816000BA8FEF705FF0B34ED
:1026F40000208DF81E00204607F008FE241D0890D7
:10270400204607F0C3FDA41C02462046ADF828204D
:1027140007F0BCFDA41CBDF82810ADF81C00091975
:102724000691A9880994801880B22330884218BF82
:10273400272103D1684600F0E3FD01460520FFF799
:10274400F6F90FB030BD08B58188042918BF2721D8
:1027540013D1806801788DF80010401C10F8011B1B
:102764008DF8011010F8011B8DF8031000788DF816
:102774000200684600F020FE01460420FFF7D7F966
:1027840008BD30B50546A868ADF1340D044607F020
:10279400BDFD241D0090204607F078FDA41CADF873
:1027A400040014F8010B8DF8060014F8010B8DF8E1
:1027B400070014F8010B8DF8080014F8010B8DF8CC
:1027C400090014F8010B8DF80A0014F8010B00211C
:1027D40000B101218DF80B1014F8010B002100B198
:1027E40001218DF80C1014F8010B002100B1012116
:1027F4000DF10E008DF80D102146FEF77DFE0B3411
:1028040021460DF11900FEF777FE0B3414F8010B85
:10281400002100B101218DF8301014F8010B8DF85E
:10282400240014F8010B8DF82500204607F02EFD36
:10283400A31CADF8260013F8010BA9888DF82C0011
:102844009DF82C000A932A30884218BF272103D10F
:10285400684600F0CFFD01460320FFF768F90DB08C
:1028640030BD808800280CBF002127210220FFF7FB
:102874005EB908B501468888012818BF272107D109
:1028840089680978002001B1012000F00FFE01469B
:102894000120FFF74CF908BD98B547780024422F72
:1028A4000CDC422F33D07F1E0E2F11D92F3F082F5F
:1028B40018D9103F31D07F1E2CD01AE0B7F1430154
:1028C40022D0491E1DD00C3918D0491E13D010E057
:1028D400DFE807F065625F5C595653504D0F0F4AAD
:1028E400474441C0DFE807F034312E2B2825221F4E
:1028F4001CC0262455E0FFF724F952E0FFF748F9FD
:102904004FE0FFF769F94CE0FFF78CF949E0FFF776
:10291400A1F946E0FFF7C4F943E0FFF7CDF940E041
:10292400FFF7D6F93DE0FFF709FA3AE0FFF722FA9C
:1029340037E0FFF72EFA34E0FFF737FA31E0FFF71C
:1029440042FA2EE0FFF78AFA2BE0FFF7CDFB28E0EE
:10295400FFF7B3FC25E0FFF735FD22E0FFF73AFD72
:102964001FE0FFF756FD1CE0FFF777FD19E0FFF7C6
:10297400CFFD16E0FFF7DDFD13E0FFF7FFFD10E0EC
:10298400FFF72AFE0DE0FFF784FE0AE0FFF7DBFE07
:1029940007E0FFF7F6FE04E0FFF763FF01E0FFF74F
:1029A40068FF204698BD074B014618680A083CBFDB
:1029B400C1F31001084303D36FF000424A401040B2
:1029C400186070479010002011780020F42908BF87
:1029D4000120704711780020E52908BF01207047C5
:1029E40011780020F52908BF0120704711780020D4
:1029F400FC2908BF0120704711780020FB2908BF7B
:102A04000120704711780020FA2908BF012070477F
:102A140011780020F92908BF01207047117800209F
:102A2400F82908BF0120704711780020F72908BF52
:102A34000120704711780020D62908BF0120704773
:102A440011780020EF2908BF012070471178002079
:102A5400DA2908BF0120704711780020D82908BF5F
:102A64000120704711780020DC2908BF012070473D
:102A740011780020DB2908BF01207047117800205D
:102A8400D92908BF012070470A6802604A68426079
:102A94000A7A02724A7A4272897A817270470246CD
:102AA400107800280CBF00200120517809B140F0B3
:102AB4000200917809B140F00400D17809B140F0E6
:102AC4000800117909B140F04000517909B140F092
:102AD4008000704700B5ADF1140D8DF80800039126
:102AE4000823ADF80030CA4AADF8023012788DF8E8
:102AF400042068461822ADF8062002F0A6FA05B0B4
:102B040000BDF8B504461A2000F0EFFC1A25071C96
:102B14001CD0EA20002638702146B81C7E70FFF7CE
:102B2400B3FF04F10B010A6807F10D000260496864
:102B34004160A08AF882A07D314600B1012130466F
:102B440039763946FFF7C6FF00B935462846F8BD41
:102B5400F8B504461A2000F0C8FC1A25071C19D041
:102B6400E820002638702146B81C7E70FFF78CFFE1
:102B740004F10B010A6807F10D0002604968416025
:102B8400A08AF882A07D394638763046FFF7A2FF46
:102B940000B935462846F8BDF8B50446202000F0B3
:102BA400A4FC1A25071C18D0F6200026387004F15E
:102BB4001301B81C7E70FFF767FF20787873607884
:102BC400A11C1122B87307F10F0007F0B5FA3946BA
:102BD4003046FFF77FFF00B935462846F8BD10B5EB
:102BE4000C46ADF1180D02900821ADF80010192122
:102BF4006846ADF802104FF0FF31019102F025FA5A
:102C04000499216006B010BD0EB501900821ADF8FD
:102C1400001068460321ADF8021002F016FA0EBD4A
:102C24002DE9FC4180460E46082000F05EFC1A2582
:102C3400071C16D0F420387000247C703946A7F89D
:102C4400028020467E60FFF745FF38B9C0480094F3
:102C54006946FFF7C4FF08B9009845783846FFF77E
:102C6400D3FF2846BDE8FC81FFF7DABF0EB501901B
:102C74000821ADF8001068460521ADF8021002F0F5
:102C8400E4F90EBD2DE9F8438146154688460C202B
:102C940000F02BFC1A26071C28D000210C2207F078
:102CA4007DFE0024F520387039467C702046A7F854
:102CB4000290FFF70FFF90B9C64800946946FFF7EA
:102CC4008EFF60B9009846784EB902793AB18168AE
:102CD400404607F031FA15B1009800792880B868A9
:102CE40008B1FFF7C3FF3846FFF78EFF3046BDE853
:102CF400F883FFF7C7BF38B5022000F0F6FB1A24AB
:102D0400011C08D0D720087000254D702846FFF715
:102D1400E1FE00B92C46204638BDFFF7ECBFBCB538
:102D2400022000F0E2FB1A25071C13D0D620002451
:102D3400387039467C702046FFF7CCFE38B9CB4852
:102D440000946946FFF74BFF08B900984578384668
:102D5400FFF75AFF2846BCBDFFF7E1BFF8B50446AC
:102D6400242000F0C2FB1A26071C2AD0FC200025D0
:102D7400387021461022B81C7D7007F0DDF92069F7
:102D84007861207D3876607D7876A07D04F1170324
:102D9400B876196807F11B021160187A10725C6822
:102DA400546039462846FFF795FE38B9B84800956F
:102DB4006946FFF714FF08B9009846783846FFF7CC
:102DC40023FF3046F8BD2DE9FC4180460E4608201D
:102DD40000F08BFB1A25071C17D0FB200024387049
:102DE40039467C70204687F80280FFF773FE48B9A5
:102DF400A84800946946FFF7F2FE18B90098457890
:102E0400406830603846FFF7FFFE2846BDE8FC8185
:102E140044100020F8B50646032000F066FB1A258E
:102E2400071C14D0F9200024387039467C702046E1
:102E3400BE70FFF74FFE38B9C94800946946FFF7E2
:102E4400CEFE08B9009845783846FFF7DDFE2846DF
:102E5400F8BDBCB5022000F048FB1A25071C13D0AE
:102E6400FA200024387039467C702046FFF732FE81
:102E740038B9CE4800946946FFF7B1FE08B9009806
:102E840045783846FFF7C0FE2846BCBDF8B506466F
:102E94000A2000F02AFB1A25071C19D0F820002468
:102EA40031463870BB1C7C700A6849681A60204639
:102EB40059603946FFF70EFE38B9CB48009469468D
:102EC400FFF78DFE08B9009845783846FFF79CFE59
:102ED4002846F8BDF8B50546242000F006FB1A265E
:102EE400071C33D0F720387000247C702888788041
:102EF4006888291DB8800A68BB1D1A604968596032
:102F0400287BB873687B05F10E03F8731A6807F120
:102F1400100002605A6842601A7A0272A869F86165
:102F2400287F87F82000687F394687F821002046EB
:102F3400FFF7D0FD38B9C34800946946FFF74FFE48
:102F440008B9009846783846FFF75EFE3046F8BD6B
:102F5400CD29000070B50646042000F0C6FA1A24F4
:102F6400011C09D0E320087000254D7028464E80CE
:102F7400FFF7B0FD00B92C46204670BD2DE9F8439B
:102F840004461E4691468846082000F0AEFA1A25EB
:102F9400071C15D03C7000247C70394687F80290D9
:102FA40020467E60FFF796FD38B900944046694696
:102FB400FFF715FE08B9009845783846FFF724FE58
:102FC4002846BDE8F8830B46CB490246DA20FFF7D2
:102FD400D5BFC046E52900001CB50B46C749009281
:102FE4000246DB2000F091FA1CBD70B506460320B2
:102FF40000F07BFA1A24011C09D0E6200870002591
:103004004D7028468E70FFF765FD00B92C462046AA
:1030140070BD0A7A02720A7A022A04D00A6802602F
:10302400496841607047098801807047F8B50446D3
:103034001A2000F05AFA1A25071C15D0EB20002696
:1030440038702146B81C7E70FFF7E3FF608904F1F5
:103054000C01B88107F10E00FFF716FD3946304622
:10306400FFF738FD00B935462846F8BD392A000077
:103074000EB501900821ADF8001068460421ADF8A2
:10308400021001F0E2FF002814BF002002980EBDD8
:10309400F1290000FD2900002DE9F041D44D064638
:1030A4002868002818BFFC2048D1302000F01DFA01
:1030B4001A24071C41D0EC204FF000083870314628
:1030C4001122381D87F8018007F036F8707C787576
:1030D400B07CB875F07CF875307D3876707D787684
:1030E400B07D414600B10121B976F07DF876307E9D
:1030F40006F11901387707F11D00FFF7C5FC96F8B2
:10310400240087F8280096F8250087F82900F08C19
:103114007885707C002808BF812004D0797E8800DF
:1031240000EB411080B2FFF7A3FF2860F86220B1E2
:1031340040463946FFF7CEFC44462046BDE8F081C0
:103144000B46D8490246D820FFF718BF1CB50B46DA
:10315400D54900920246D92000F0D7F91CBDC046DB
:10316400152A0000F8B504461C2000F0BEF91A2503
:10317400071C19D0E920002638702146B81C7E703F
:10318400FFF782FC04F10C0107F10E00FFF741FF89
:10319400E08A3883207EB876607E3946F8763046F9
:1031A400FFF798FC00B935462846F8BD092A000007
:1031B40080B50746780824BF01200870B80824BFEA
:1031C40001204870F80824BF01208870380924BF02
:1031D4000120C870F80924BF0120087137F07F0767
:1031E4001CBF0120487180BD212A0000F8B50446A7
:1031F4001E2000F07AF91A25071C20D0E7200026AB
:1032040038702146B81C7E70FFF73EFCE07A787374
:10321400207BB873607B04F10E01F87307F1100092
:10322400FFF7F7FE208B788304F11A00FFF737FCD1
:10323400387739463046FFF74DFC00B93546284605
:10324400F8BDC0462D2A00002DE9FC4782461E46E3
:1032540090468946142000F048F900250AAF044638
:10326400A5421BD0E520207028466070A4F802A077
:1032740084F8049084F80580A6603988A1812146E9
:10328400FFF728FC38B9CF4800956946FFF7A7FC3B
:1032940008B9009805692046FFF7B6FC2846BDE842
:1032A400FC8703B480B502AF39780020012908BF38
:1032B40001207978012908BF40F00400B978012978
:1032C40008BF40F00800F978012908BF40F0100059
:1032D4003979012908BF40F020007979012908BF14
:1032E40040F04000B979012908BF40F08000BDE8F2
:1032F400804002B07047C046512A0000752A000081
:10330400F0B50446A08BADF1140D009094F8341080
:1033140094F83520236A208DFFF796FF1A25071CA1
:1033240047D0E420387000267E70616A228D786868
:1033340006F002FF07F1840004F12C01FFF7A4FB5F
:10334400214607F19000FFF764FE6089A7F89A0010
:10335400207B87F89C00607B04F10E0187F89D00B8
:103364000A6802AB1A60888898808A799A7102ABDD
:1033740093E80300FFF795FFA7F89E00607D87F8A8
:10338400A000A07D87F8A100A28BA7F8A82022B1F5
:10339400D7F8A400A16906F0CFFEA07F87F8AA00A1
:1033A400206A3946C7F8AC003046FFF793FB00B9F2
:1033B4003546284605B0F0BD70B50446062000F039
:1033C40094F81A25011C10D0EE20087000264E70C7
:1033D400207888706078C870A0780871E0784871A7
:1033E4003046FFF777FB00B93546284670BDC04626
:1033F40050100020F8B5064696F82C00383000F03E
:1034040074F81A25071C4BD0ED20387000247C700A
:1034140030687860B0883881B079B872F079F87221
:10342400307A3873707A7873B07AB873F07AF87344
:10343400307B3874707B06F10E01787407F112004A
:10344400FFF722FB06F1190107F11D00FFF71CFB32
:1034540096F8240087F8280096F8250087F82900B4
:10346400F08C788596F8300087F8340096F82C00B4
:1034740087F8300096F82C00002808BFFC6209D0B9
:1034840007F13800F862B16A96F82C2007F1380089
:1034940006F052FE20463946FFF71CFB00B92546CC
:1034A4002846F8BD5D2A0000812A0000F8B50646CA
:1034B400042000F01AF81A25071C14D0DC2000247C
:1034C400387039467C702046BE70FFF703FB38B96C
:1034D400AF4800946946FFF782FB08B90098C578A5
:1034E4003846FFF791FB2846F8BD0EB50190082138
:1034F400ADF8001068460221ADF8021001F0A5FDF8
:10350400002814BF002002980EBD2DE9FC470A9D37
:1035140004469846924689460820FFF7E6FF1A2695
:10352400071C24D03C7000247C70394687F802A024
:103534002046C7F80480FFF7CDFAA8B9009448469E
:103544006946FFF74CFB78B90098467866B9C278AB
:1035540052B14168404606F0EFFD15B10098C078BD
:1035640028807868FFF782FB3846FFF74DFB30462A
:10357400BDE8FC87B64908B503460020E222009066
:10358400D920FFF7C2FF08BD98B50320FFF7ADFFB0
:103594000024071C13D0EF20387039467C70204675
:1035A400FFF798FA40B920460090AA486946FFF709
:1035B40016FB08B9009884783846FFF725FB2046A7
:1035C40098BDC046D92900000EB50820ADF800000A
:1035D4000120ADF80200684601F037FDC8499DF8A6
:1035E40004000870029848600EBD98B51020FFF7DB
:1035F4007CFF0746FFF7E8FFC14C217867B1D02074
:10360400387000237B70B970FB703B710220BB6083
:103614003946FB60FFF75EFA0120FFF747FF04F12C
:103624001001E220FFF78CFD182001F0FEFB607012
:1036340098BDB348B3490830016070470EB50820FF
:10364400ADF800000A20ADF802004FF0FF30019001
:10365400684601F0FAFC0EBD7FB506460820144604
:103664000D46ADF800000720ADF80200684601F0F1
:10367400ECFC9DF8041031709DF806102970029935
:10368400216000907FBD0A7A022A027204D00A687F
:1036940002604968416070470988018070470A6880
:1036A40002604A6842600A7A02724A7A4272897AED
:1036B4008172704738B50C4644220546002107F054
:1036C4006DF904F128012846FFF7DDFF04F132010A
:1036D40005F10A00FFF7D7FFE06B6861B4F840001A
:1036E4002883B4F842006883B4F84400A88394F8AB
:1036F4004600A87794F84700E87794F9480085F8DD
:10370400200094F8490085F82100B4F8500068843A
:10371400E06C6862A07B85F8280094F8520085F874
:103724002900606D04F11C01E86205F13000FFF727
:10373400B6FF2089A5F840006068E86338BD011C25
:1037440005D0F220087000204870FFF7C3B9704715
:1037540008B50B46FFF797FF598941819989818103
:10376400997B8173D97BC173197C002201B1012239
:103774000274597C417459694161197E002201B176
:10378400012203F1190102761930FFF788FF08BD01
:10379400692A0000B0B5044600211C22ADF1200DB9
:1037A400684607F0FBF860788DF80000A0788DF883
:1037B4000100E0788DF8020020791122611D8DF856
:1037C400030001A806F0B8FCA07D8DF8150058B3DD
:1037D4009DF8011049B9FFF74BFC069068B1A16947
:1037E4009DF8152006F0A8FC1EE0810001EB4011B5
:1037F40088B2FFF73DFC069030B91A208DF800001E
:1038040000278DF815700FE0A5690746002407E02E
:1038140038462946FFF79CFF641C24372435E4B25C
:103824009DF81500A042F3DCCA4C606818B1FFF79C
:103834001DFA0020606020688169684688479DF809
:10384400150010B10698FFF711FA08B0B0BDC046D4
:10385400812A0000452A000090B504460021402238
:10386400ADF1440D684607F099F8A0788DF8000092
:10387400E0788DF801009DF8000000BB616811B18B
:1038840001A8FFF765FF217A01F007028DF82820CF
:10389400E0689DF82870C1F302118DF8301027B14B
:1038A4009DF828100B9000EB41009DF8307007B193
:1038B4000D90207C8DF8380067690F9719E06168D6
:1038C40011B101A8FFF744FF677A8DF82970A37A34
:1038D4008DF82A30207A8DF82800E27A8DF82B2092
:1038E400217B8DF82C10677B8DF82D70E389ADF862
:1038F4002E309848006801696846884711B090BD29
:1039040044100020C80D0020B0B5924D2F68044625
:10391400ADF1480D002F00F07A812078401E112867
:1039240000F27581DFE810F0590146012D011801FC
:103934000E01F900EA00DC00BD00AC0088005D0067
:103944005300420073012A001C001200F86B002887
:1039540000F05D8168462146FFF7ACFEF96B54E147
:10396400386C002800F0538168460021012207F0DA
:1039740015F860788DF80000396C46E1F86A002883
:1039840000F04581684600210E2207F007F8A11CCB
:103994006846FFF778FEA57BA1890022ADF80A10DE
:1039A40005B101228DF80C20F96A2FE1B86B0028CB
:1039B40000F02D8168460021022206F0EFFFA57871
:1039C4008DF8015060788DF80000B96B1DE1786BBB
:1039D400002800F01C8168462146FFF76BFE796BD6
:1039E40013E1386B08B368460021142206F0D6FFB1
:1039F400A5788DF80150A3680193A289ADF8082039
:103A0400A17B8DF80A1060788DF80000E57B8DF8B5
:103A14000B50237C8DF80C3094F911208DF80D2077
:103A240061690491396B684688476068002800F032
:103A3400EE80FFF784FEEAE0B86A002800F0E78031
:103A440068460021242206F0A9FF6078A11C8DF8A5
:103A540000000DF10200FFF716FE04F10C0103A8AB
:103A6400FFF711FE257EE08A8DF8185004F1190144
:103A7400ADF816000DF11900FFF711FEB96AC4E0A4
:103A8400786A002800F0C38068460021022206F00C
:103A940085FFA5788DF8015060788DF80000796A6B
:103AA400B3E0386A002800F0B28068460021122290
:103AB40006F074FF658860782379ADF80250627966
:103AC4008DF80000E11D8DF80430A5798DF80520EE
:103AD4000DF107008DF80650FFF7E1FD396A94E017
:103AE400F869002800F0938068460021012206F05E
:103AF40055FF60788DF80000F96986E0B86940B92F
:103B04006868002800F08380FFF7B0F80020686040
:103B14007DE02046FFF73EFE79E07869002876D004
:103B240068460021132206F039FFA01C01686B4689
:103B340019604068586004F10A0102A8FFF7AFFD5C
:103B4400796962E03869002861D02046FFF784FE75
:103B54005DE0C0464C100020F868002857D0684645
:103B640000210E2206F01AFF6078A11C8DF80000D7
:103B74000DF10200FFF787FDA089ADF80C00F9688C
:103B840043E0B868002842D068460021142206F0B9
:103B940005FFA01C01686B46196040685860A07A54
:103BA40004F10B018DF808000DF10900FFF777FD12
:103BB400B9682AE0786850B368460021102206F0FC
:103BC400EDFE607865888DF80000211DADF8025087
:103BD40001A8FFF764FD796817E03868B8B1684652
:103BE4000021192206F0DAFEA01C01686B46196058
:103BF40040685860A07A02A9FFF7DAFA0DF10E00C6
:103C040004F10B01FFF74BFD39686846884712B091
:103C1400B0BD0EB5FFF712FD08BB0DF1050001A9FB
:103C24006A46FFF719FDD0B90D489DF804200178C4
:103C3400914210D141789DF80520914208D08068C6
:103C4400436C43B19DF80500009A0021984702E0B7
:103C54000098FFF759FE009808B1FEF7D5FF0EBD96
:103C64004410002001EB003103E011F8010B03F8CC
:103C7400010B1046421E002892B2F6D170473EB5A1
:103C840014460D4605226B46FFF7ECFF65819DF84F
:103C940003109DF804009DF804309DF8005001F0D5
:103CA4000F01801003F0030340EA81109DF8012006
:103CB400A0819DF80200637205F0C0052B438106C4
:103CC4009DF803006372001140EA91509DF80210C0
:103CD400A080891141EA82019DF80020E18002F070
:103CE4003F0241EA0231227240EA013020603EBDC7
:103CF40038B505460C4600200090042C0BD3241F35
:103D0400284604226B46A4B22146FFF7ABFF009875
:103D1400B0F1FF3FF1D001210A4600F0FF03FF2B71
:103D240018BF111C000A521C0090042AF5DD091961
:103D340088B238BDF0B516460C4607460025ADF1ED
:103D4400140D0AE0241AA4B205E0641E3846A1B298
:103D5400FFF7CEFF04466D1CADB2092C1DD3641FC2
:103D640038466A46A4B22146FFF789FF0098B0425C
:103D740007D19DF8091031F07F0004D0C80902D2A0
:103D84000CE09DF809108808DFD2BDF80C008442CD
:103D9400D8DCBB490520487108716C4220B205B0DB
:103DA400F0BD03B42DE9F04792461E4608AFBAF5BC
:103DB400806FA8BF052042DA97F80080B8F1400F61
:103DC400A8BF09203BDAB7F802C0BCF5806FA8BFD2
:103DD400072034DABF88B7F5806FA8BF08202EDA31
:103DE400A74CA41CA078032808BF032027D04FF0B9
:103DF400000908F03F01CCF30900C7F3090584F872
:103E0400039040EA013045EA0035A18820782A462B
:103E1400FFF790FF014600290BDCA6F80CA0A6F8DA
:103E24000A903560B780A6F806C086F808800A2094
:103E340005E0207889B23246FFF721FFE078BDE83B
:103E4400F04702B0704703B4B0B58D4C0834206815
:103E54004FF0FF3104AFADF1180D08F0ABFE396837
:103E640004A80160B988818004A803C800226B46B5
:103E7400FFF797FF00280CBFBDF80C500025206801
:103E840008F094FE284606B0BDE8B04002B0704782
:103E94000003085C704770B505467948801C0478B7
:103EA40000230E4601E00123521C3046411E8EB20F
:103EB40058B12946481C85B22046FFF7E9FF11781E
:103EC4004840F1D00842EED00223184670BD01EB01
:103ED4000031491C1046421E002892B208BF01203E
:103EE40004D011F8010DFF28F4D00020704703B46A
:103EF4002DE9F041624DA8684FF0FF3106AF1C4632
:103F04009046ADF1180D08F055FE396804A801601B
:103F1400B988818004A803C822466B46FFF741FF95
:103F2400AC46061C14D1BDF80C30BDF80A20D01ADA
:103F3400404481B29CF802006518AA4204DAA34204
:103F4400B4BF0526062603E0BB682246FFF78AFEB7
:103F5400DCF8080008F02AFE304606B0BDE8F0415F
:103F640002B070470146BC4808B500780346FFF725
:103F74008FFF00F07F000246184600F0A3F908BD49
:103F840003B4B0B504AF3878ADF1180D002808BFFC
:103F9400092026D03A4CA0684FF0FF3108F00AFE01
:103FA40004A8BD883968858004AB016093E80300E8
:103FB40000226B46FFF7F5FE2546071C0DD1BDF820
:103FC4000A00FFF7CFFFA878E988009AFFF7B2FE4E
:103FD4006C790028D4BF271C0227A86808F0E6FDE6
:103FE400384606B0BDE8B04002B0704703B4F0B53F
:103FF400B84C20684FF0FF3105AF1D461646ADF1B1
:104004001C0D08F0D7FD396804A80160B9888180C7
:1040140004A803C8B2B26B46FFF7C3FE07460A2FD3
:1040240002D007B9012704E06846294600F01EFAC9
:104034000746206808F0BAFD384607B0BDE8F040EE
:1040440002B07047D0B50E4C0646A0684FF0FF3161
:1040540008F0B0FD277977B9E088C0F5805000B248
:10406400864203DC002E18BF042704D1A078002167
:1040740000F0C8FA6779A06808F098FD3846D0BD0A
:104084006810002070B5744C05466078FE28AEBFF9
:104094000126401CC6B203219622284600F012F9DC
:1040A40002210122284600F00DF90121284632465A
:1040B40000F008F90021A522284600F003F9E07871
:1040C40008B92570667070BD2DE9F041C64C2079A1
:1040D400ADF1400D032818BF607140F09E800025AB
:1040E4006571A84601A824220823294684F804807F
:1040F40008F058FD032001A98DF81C002A46012070
:1041040008F04CFD1D27A0602E46A5700AAB38466A
:1041140041460422FFF7A6FD9DF82810E378A5295F
:1041240007D19DF82900FE2803DC9DF82B20962A50
:1041340009D0242902D0B72918D11FE03E46EBB993
:104144009DF8290019E0B5B1984203DAFE2B18BF97
:1041540001280BD1984203DD012B08BFFE2805D0AE
:10416400284600F017FA9DF8290004E0384600F0CC
:1041740011FAA57802E03D46A570E0707F1C1E2F61
:10418400C4DD8DB926B91D20FFF77CFF042015E09E
:10419400A67030464FF48051FFF7AAFDE0804146F7
:1041A400304600F02FFA0AE01EB1304600F0F2F972
:1041B400A57828464FF48051FFF79AFDE0800AAFB6
:1041C400BB4D00970EA82968AE8801600EAB8680AF
:1041D40093E8030042460C23FFF789FEE6880A2889
:1041E40009D1384641460C2206F0D8FB40F6EF7060
:1041F400801BADF82E00BDF82C000EAF401CADF8AE
:104204002C002968AE8839600EABBE8093E80300A9
:104214000C220AAB00F04EF9607910B0BDE8F081D1
:10422400C548C6494162C6498162C649C162C64998
:104234000163D1494163D1498163D149C163D14902
:10424400016470470146D14808B5303000684268BF
:10425400CD48904708BDC0466A1000202DE9F843B8
:10426400CB4D9046024668781F460C4640BB08F08A
:1042740097F901281CBF0B20687021D104EB02348C
:1042840000F044FB8146684600F060F94246384637
:10429400214608F023F90098FFF7D4FF484600F0C0
:1042A40042FB661E4046411E1FFA81F840B116F8D3
:1042B400010F17F8011B8842F4D00220687028709F
:1042C400BDE8F88308B58DF800206B460122FFF79E
:1042D400C5FF08BD701000202DE9F0411546804649
:1042E400287840F0C000287028790C4604262F1D39
:1042F40040F00200287117F801293119404689B2AB
:10430400FFF7E0FF761EF6D52A79241D4046A1B2B8
:1043140002F0FD022A71FFF7D5FFBDE8F0812DE917
:10432400FE431F1C15460C4680461AD0DFF8CC927B
:10433400082FACBF08263E1C99F8000021466B46A6
:104344003246FFF78FFC404629466B463246FFF75C
:1043540085FFBF1BBFB270193319002F85B29CB201
:10436400E6D1BDE8FE832DE9F04F1F4D044609AFA9
:104374001E46ADF1140D7868EB880290B7F80090F2
:10438400A08988469246411D89B20391C918B1F5A6
:10439400805F66DCE288217A971001F03F018DF896
:1043A4000010A1888DF801701B1802F00302C1F3FC
:1043B400051747EA821709078DF80270C0F38312C4
:1043C40000F03F0742EA11628DF803204046B9002D
:1043D4008DF804106A4699B28B46FFF77DFF029868
:1043E40038B3EF8876B101E0681000203A464046C1
:1043F40051463346FFF793FFF01906EB0A0387B2E1
:104404001FFA83FA029B40464A463946FFF726FFC5
:10441400A689E98809EB070087B2F01B09188AB25C
:104424003AB109EB0A00134681B23A464046FFF717
:1044340076FF9DF800204046594622F040028DF850
:104444000020FFF73FFFEA880BF10401404689B2E0
:10445400FFF71EFDFF2806D00398801880B2E8807D
:1044640001E00520687105B0BDE8F08FFEB5054692
:10447400624CA889A2880F46411D8EB22178B218D9
:10448400B2F5805F0BDD0846002100F0BBF88642E0
:1044940003DDE07800B90520FEBDA88921780090ED
:1044A4000022284601971346FFF75DFFE078FEBD22
:1044B400180D000003B42DE9F041514DA8684FF0E8
:1044C400FF3106AF98461446ADF1180D08F072FBA3
:1044D400396804A80160B988818004A803C8224609
:1044E4006B46FFF75EFC0026071C0FD1BDF80C00DD
:1044F40084421CBFADF80C40BDF80A6008D12246C6
:1045040068463146434600F075F907460A2F09D13B
:1045140068464146FFF7AAFF07461EB13046FFF73B
:1045240021FD6F79A86808F041FB384606B0BDE864
:10453400F04102B07047C04608020020CD400000A0
:1045440049400000F13F0000853F000010B50E4CCB
:104554000246204608F0D8F900F003001060A44891
:1045640000684268002120469047204608F0CCF9B4
:104574000028FAD110BDC046F33E0000B944000043
:10458400914800004B3E000000400340A801001089
:104594006C1000207CB500210546FFF779FCB72894
:1045A40007D140F6FF7128460A46D21EFFF78FFC5A
:1045B40018BB07F0F5FF01281BD100F0A7F9064648
:1045C4006846FFF7C3FF280307F096FF04460098E8
:1045D400FFF738FE304600F0A6F92CB92846002132
:1045E400B722FFF76FFE7CBD0549022048710871B0
:1045F4007CBD02480B21C01C01707CBD6A100020E8
:10460400681000202DE9F04F804608460026ADF1E1
:10461400440DBB49089000284E701ABF006800681A
:104624004FF0FF30B8F11D0F0C900CBF1E201D2061
:104634000990FFF7AFFF242240463146FFF742FEC0
:1046440015250D9605210E96AD480F9640880A91C2
:1046540004460B94A1427EDAA9484778002F6AD118
:10466400641F404602AAA4B22146FFF708FBBDF826
:1046740014709DF81130781D1FFA80FAD80951D2B0
:1046840033F07F035AD0029A0C98904256D009987E
:104694002946FFF74FFB002850DC8EB9611E4046C7
:1046A4003A4689B2FFF713FC50B90299E01B80B275
:1046B400B1F5805F0B9041D10F904FF0040906E0F3
:1046C400A9460AEB0500B9F1000F85B236D007EB15
:1046D40009001FFA80FB2146052206AB4046FFF77E
:1046E400C1FA099806AA5946FFF7F6FD26B90E98AD
:1046F400401C80B20E9006E0E01B81B209984A4645
:104704005346FFF70CFE0D989DF818205946401C9F
:1047140022F0400280B20D9009988DF81820FFF71E
:10472400D1FD0BE098080CD2544507DA74490520F2
:1047340048700F4638704FF0FF3056E0E41BA4B2C7
:1047440004E040462146FFF7D3FA04460A98A04203
:1047540082DB6B4840880B99761C0446022E0A9132
:10476400FFF678AF0C98B0F1FF3F14D06448089975
:10477400458008890090C86801908A88CB880868B9
:104784000999FFF7F0FD5E480D9E074645887C8039
:10479400701C80B20D900F98C0B101460C2202AB80
:1047A4004046FFF75FFA0D9F02980E9EC5F58054B0
:1047B40004210C22ADF80E4002ABADF81070401C81
:1047C40002900998ADF81260FFF748FD0998FFF7C9
:1047D40059FC4B4840780028ADD1494845804046B3
:1047E400FFF7D8FEC5F5805738B211B0BDE8F08F99
:1047F400D80100102DE9F04305460C466889A989C3
:10480400944698468146ADF11C0DA9EB010296B27F
:10481400401A1A462018614680B2FFF73CFB002874
:1048240008BF00202FD0374F3978012822D0A8891B
:10483400BA88401D80B28018B0F5805F0DDD029506
:10484400ADF80C60ADF80E40ADF810C00846CDF8D8
:10485400148002A9FFF7D6FE14E0CDF800C0284664
:1048640032462346CDF80480FFF77DFD4846FFF726
:1048740079FB07E0A4190846A2B2434611466246F2
:10488400FFF7ECFCF87807B0BDE8F08303B42DE93A
:10489400F041DFF87480D8F800004FF0FF3106AF24
:1048A4001C461546ADF1180D08F084F9396804A8C2
:1048B4000160B988818004A803C822466B46FFF7CB
:1048C40070FA061C12D1BDF80A00BDF80C10411A8A
:1048D400691889B261188842B8BF062606DBBB682E
:1048E400294622466846FFF785FF0646D8F80000A9
:1048F40008F05CF9304606B0BDE8F04102B07047FC
:104904006C1000206A1000207010002010B508F010
:1049140041F980B260F30F0408F038F980B260F313
:104924001F44204610BD08B50090BDF8020008F0F1
:1049340029F9BDF8000008F021F908BDF8B5001DFB
:1049440084B214F0030002D0241A241DA4B2FFF789
:10495400DDFF0146BF48102C47680160C8BF876867
:10496400388800221646C30BDD0319D126B98442C8
:104974000ADD3A46012617E01388C3189BB29C420D
:10498400138011DC174618469FB1001B80B204281F
:10499400B4BF3C88385344F400443C803F1D08E0D5
:1049A40080F40040002680B2C71938880028DAD184
:1049B40000270846FFF7B7FF3846F8BDF8B5CA4ADE
:1049C400A44CCA4B121D0C3422F003019C462160F6
:1049D4005E1A2068256860606768A660002001E0B0
:1049E40025F8020BAB42FBD84FF6FC75B3102A40F6
:1049F40001EB830323F8040CACEB0202E82315401B
:104A04003B80EC3DA1F8E850E83144F8081CFFF77E
:104A140095FF44F8040C606844F8080CF8BD8D4810
:104A240008211038A0F84C10C7494165FFF7C6BFEC
:104A3400884A0021032002F10C0343F80C1F401E96
:104A44009960FAD13C320820401E22F80C1BFBD19D
:104A5400FFF7E5BF10B5044600212C220823ADF171
:104A6400300D684607F09CFFE068A1680890606814
:104A740000236A4608F07EF8002818BF002001D100
:104A840004F013FB0CB010BD10B50446FFF73EFF55
:104A9400704934F8042C6FF3DF3224F8042C4A688C
:104AA4000860241F944238BF4C60FFF73CFF10BDE0
:104AB400D0B504463C20FFF741FF071C14D0002169
:104AC4003C22082308F052F8207AB86160893862E1
:104AD400E068386160683946002208F043F8064609
:104AE4003846FFF7D1FF16B96FF00300D0BD0020A0
:104AF400D0BDB0B5044607F04DFF30F0010008BF4B
:104B04006FF004041BD008F029F80546FFF7FEFEF9
:104B1400B04A082132F80C7F6FB1A388BB4208D198
:104B2400526812680021954208BF0121A160002447
:104B340003E0491EEED14FF0FF34FFF7F4FE2046A8
:104B4400B0BD08B5406820B1006807F07DFC0020C6
:104B540008BD6FF0020008BDB0B5054607F0FEFFC2
:104B6400044607F017FF30F0010008BF6FF004049B
:104B740014D0FFF7CBFE974A002132F80C7F4FB1D7
:104B840053681B689C4204BF2971002404D0491C4B
:104B94000829F2D36FF00404FFF7C5FE2046B0BD28
:104BA40038B50546FFF7B2FEAB4C0322014654F874
:104BB4000C0F18B1A84202D0521EF8D100240846A6
:104BC400FFF7B1FE204638BDC04A10B512680C4646
:104BD4004FF47A710023A1FB000102F0ADFA002921
:104BE40008BFB0F1004F2EBF6FF00200206000201C
:104BF40010BD98B50446FFF789FE2168002908BF57
:104C0400002709D00F4657F80C2C2260002347F8E0
:104C14000C3CFF2401F8024CFFF785FE384698BD92
:104C240010B5044607F09AFFFFF7BAFF002808BF43
:104C34006FF004000DD00830FFF7DBFFA06038B13F
:104C440010F8081C217110F8070CA071002010BD89
:104C5400022010BD280D0020082880B50ADABB4BBD
:104C6400820002EBC0029F5A98181FB14FF6F872E7
:104C7400BA4202D14FF0FF3080BD00880880002086
:104C840080BD38B50C460546FFF740FE002144F8C8
:104C94000C1C296811B92C6006E0114651F80C2C43
:104CA400002AFAD141F80C4CFFF73DFE38BD98B507
:104CB4000F460446FFF72AFE57B13A4600E00A467B
:104CC40052F80C1C0029FAD1216842F80C1C276008
:104CD400FFF729FE98BD1420FFF730BE014608797E
:104CE400891DFFF7B9BFC04667200020002C0020B3
:104CF40010B50446754802680023D90750080143DB
:104D0400D007801A4FF47A72994102F015FA0029FB
:104D140008BFB0F1004F28BF6FF000406060002072
:104D240010BD6A4909684160002070471CB50446FB
:104D340060686946FFF748FF20B900986060204624
:104D440000F039FA1CBDC0465552000010B50446A7
:104D540007F000FF6060002010BD10B5044600217C
:104D64002C220823ADF1300D684607F019FEE0202F
:104D74000890A168606800236A4607F0FBFE0028DB
:104D840018BF002001D104F090F90CB010BD08B593
:104D940007F000FF07F0FAFE002008BD08B507F091
:104DA400D5FE07F0CFFE002008BD08B5406807F027
:104DB400C5FE002008BD08B5406807F0BBFE002012
:104DC40008BD04F072B908B5406807F0EFFE002092
:104DD40008BDC046580D0020DCB5044607F0BEFEF1
:104DE400FFF7DEFE064607F0D5FD30F0010014BFE4
:104DF400002E6FF0040017D0606858B1B0F1FF3F87
:104E040005D06946FFF7E0FE30B107460BE04FF0EE
:104E1400FF3000E0002000907068009907F0CAFE9F
:104E2400002700B901273846DCBD10B50446FFF75A
:104E34006DFD9F4B0022014633F80C0F30B1A042A8
:104E440008BFD4B203D0521C082AF5D3FF24084665
:104E5400FFF769FD204610BD340D002070B50646ED
:104E6400B079F4680828A4F108042BDA307908280A
:104E740028DAFFF74BFDB279344D910001EBC20102
:104E840069184968E1B1FFF74EFD30792070B079B7
:104E94006070307AA070B179880000EBC1002818E6
:104EA400F16840680830FFF7ECFEB179880000EB48
:104EB400C1002D186868406807F078FE002070BDB6
:104EC400FFF731FD6FF0020070BDC046240D0000F5
:104ED40010B50446E088FFF7A8FFFF2808BF4FF08D
:104EE400FF3003D0A0712046FFF7B8FF10BD08B50E
:104EF4004068FFF7C9FD002008BD10B50446A0882E
:104F0400FFF71CFD0028A06014BF00206FF0030011
:104F140010BD08B540680C38FFF7B6FD002008BD89
:104F240010B5044660680C3080B2FFF707FD50B13D
:104F3400A18800230181FF22036000F10C01827229
:104F44001846A16010BD6FF0030010BD640D002071
:104F54002DE9F8438046FFF7D9FCBC4C0325002615
:104F6400814654F80C7F5FB93046C4F8008001468E
:104F7400A6600A4607F012FE606018B904F095F8BE
:104F8400474501D1264601E06D1EEAD14846FFF7A8
:104F9400CAFC3046BDE8F883F8B5044607F0DEFDE8
:104FA400FFF7D6FF071C16D0FFF7B0FC40490022DC
:104FB40031F80C6F66B94FF6F8730B804F6000251B
:104FC4008D6022717968A160FFF7ADFC2846F8BDB9
:104FD400521C082AECD304F068F8F8BDD0B5044696
:104FE40007F0BCFDFFF7B4FF071C08BF6FF0020415
:104FF4001CD0FFF78BFCA3882D49002231F80C6FDD
:1050040056B90B804F60A3688B6022737968216165
:105014000024FFF788FC09E09E4208BF6FF00204F9
:10502400F7D0521C082AE9D304F03FF82046D0BD3B
:1050340008B5FFF7FAFEFF2808BF002004D0A64BEE
:10504400810001EBC001581808BD10B50446208842
:10505400FFF7EEFF38B1816811B12046884710BDD3
:105064006FF0010010BD4FF0FF3010BD0EB5019080
:105074000821ADF8001068460321ADF80210FFF7CF
:10508400E4FF0EBD38B50546FFF7CAFD041C0DD17B
:1050940028796946FFF7E0FD28B1A868FFF7E6FF25
:1050A4006FF0050038BDBDF80000A880204638BD6B
:1050B400580D00202DE9F0430646ADF11C0D07F014
:1050C4004DFDFFF76DFD4FF000090546CDF800904A
:1050D40007F060FC30F0010002D00098A84202D131
:1050E4006FF0040059E070684C4658B1B0F1FF3FCE
:1050F40005D001A9FFF768FD30B107464CE04FF039
:10510400FF3000E02046019007F024FD01990127BB
:1051140001EB000800E001936868019907F04AFD7B
:1051240000282ED003A8FFF77BFDD8B99DF8100006
:1051340002A9FFF791FD88B9B368BDF808009DF88E
:105144001210059A984748B19DF81270B773BDF8CC
:105154000800B081059B33614F4612E0059968460B
:10516400FFF78FFD0198641CB0F1FF3FD4D00028F5
:10517400D2D007F0EFFCB8EB000302D001989842BC
:10518400C9D2009905F10800FFF791FD24B16868C0
:1051940007F00CFD641EFAD1384607B0BDE8F08371
:1051A40008B50820ADF800000C20ADF802006846F0
:1051B400FFF74BFF08BDB0B50446A768ADF1280D55
:1051C40027BB0C20FFF7BAFB071C16D0684600214A
:1051D4002422082307F0AAFC002306976A46616884
:1051E400ADF810303D48059307F09CFC386038B9A1
:1051F400FFF7D6FF3846FFF747FC6FF0030018E0CF
:10520400E06878602069B860A7600AE0FFF77EFB79
:105214000546386807F018F92069B8602846FFF792
:1052240082FB3868616807F079FC386807F072FC23
:1052340000200AB0B0BD0246294808B5904708BD11
:1052440008B5014688684968884708BD340D0020C0
:1052540008B542882A2A28BF6FF0010004D22049E9
:105264000C3151F82210884708BD2DE9F043ADF107
:105274003C0D07F08FFC1A4C1A4E002580460C3C5E
:10528400684600213C22082307F070FC56F8042FDE
:105294006068A768069023680897694605921248D3
:1052A4000493002207F05EFC071C10D0FFF72EFBCE
:1052B40081463846FFF74CFE48B14846FFF733FBBA
:1052C400241D6D1CDCD0404607F058FC01E003F0BF
:1052D400ECFE0FB0BDE8F083640D002045520000E1
:1052E400440A0000200D00203B5200002DE9F0414B
:1052F400BF4C0B460146207D002704283DD08D7805
:10530400666A012818D1BBB14FEA850856F80830FF
:1053140033B156F8250000F05FF946F80870207D97
:10532400617D6D1CEDB2A942D8BF27831CDDA57732
:10533400A27D218B891A2183032812D0607D56F81F
:105344002530401EA842D4BF227EA27D0120617F69
:105354002075207F121DD2B203F02AF8071C03D156
:10536400207D032802D008E003202075208B00282C
:105374000CBF0620052000F03DF93846BDE8F08159
:1053840008B5C37803F0070319438DF8001081783A
:105394008DF8011001788DF8022041F04002417827
:1053A4006B461046032203F003F808BD904998B5F4
:1053B4000446087D0027012836D1087F22789042D0
:1053C4002FD1487F627890422BD1E278C87F504039
:1053D40010F0070F25D1A278887F90421FD1A068D2
:1053E4000078B0B1401E12D0401E032819D9001F06
:1053F40002D0401E15D008E0487D121AB2F1FF3FDA
:1054040007D0072000F0F6F815E008270DE039462C
:1054140000E001212046FFF769FF074604E0032767
:1054240003E0072000F0E6F82FB1204620213A4699
:10543400FFF7A6FF0027384698BD0EB50190082156
:10544400ADF8001068460421ADF80210FFF7FDFD29
:10545400002814BF002002980EBD2DE9F047054630
:10546400A868A9888246091FCFB2801C04F00EFFE9
:105474005F4C804620780026012822D12978227AA0
:10548400914225D16978627A914221D1A978A37A8F
:1054940099421DDB95F803C0E27A944516D1A2899E
:1054A400904511D1994206D0A1788F4208D0A188A5
:1054B4008F4205D008E002202070A1788F4203D1EA
:1054C4003EB904280CD027E0042602E0022600E0BE
:1054D4000326206900F080F8A878A07204202070C8
:1054E400AB78BBB995E80E0004F1080080E80E0023
:1054F4004046FFF7A2FF2061002804BF207806265B
:105504000AD000206070A770A4F80480A4F80C806E
:10551400207005E006B90326042820D002281AD0FA
:105524002069A278A9788146514389B23A46401845
:105534000AF1040104F000FEA878A072A088C01B40
:1055440080B2A08030B9C5F80890A5F80480042082
:10555400062603E02078042801D00120207004F1FD
:10556400080018213246FFF70BFF3046BDE8F087EC
:10557400B0B50779042247B383681978C1705D78A0
:105584005C1C21F00701857008391AD0083911D044
:10559400083905D0083912D1032F08BF002214E0BE
:1055A400032F12D1012181809B1C8360FFF7FEFE33
:1055B40002460AE0042F08DBFFF74FFFF8E7052255
:1055C40003E07F1E8460062287801046B0BD084930
:1055D40004200870087570470EB501900821ADF8D5
:1055E400001068460521ADF80210FFF72EFD0EBD30
:1055F400D41E00202DE9F041574D8046686A0746C5
:1056040090B1697D534E002407E057F8240010B18F
:10561400FFF7E2FF3178641CE4B2A142F5DC3846BE
:10562400FFF7DAFF0020686205F11C0042462021E2
:10563400FFF7A6FE04202875BDE8F0812DE9F04FA0
:10564400454C824604F114000078ADF11C0D042889
:1056540002D00720FFF7CEFFBAF80450F620B5FBBE
:10566400F0F1491CCAB2B5FBF0F0401C0392511989
:10567400C0B2491E800091FBF2F1C9B20491FFF758
:10568400DCFE00210290002801913ED00F460398D1
:10569400DAF808B00097002832D00298DDF80C80C0
:1056A400B946059004988542D4BFEEB2061C009812
:1056B400002818BF019802D1301DFFF7BEFE07462F
:1056C400059840F8047B002F059004BF032700973A
:1056D40011D01020387087F80190BAF80410B81C63
:1056E40004F0FFFD391D32460846594604F024FDF6
:1056F400AD1BADB2B344B8F1010809F10109D1D130
:10570400009820750399617500E0207D9AE808509F
:1057140004F11C0181E808500199A177029B63629E
:10572400237F102243F080032377E27750B9049853
:10573400BAF80470A07504F11C002783FFF7D6FDA6
:10574400019002E00520FFF755FF019807B0BDE87E
:10575400F08FC046E91E0020D41E002010B5044678
:1057640004F058FBA04209DDA0B204F05AFBA7489C
:1057740002214181C06907F019FA10BDFEE7A34870
:1057840080210181C06907F011BA0EB5019008218A
:10579400ADF8001068460421ADF80210FFF755FC7F
:1057A400002814BF002002980EBD0EB501900821F8
:1057B400ADF8001068460521ADF80210FFF745FC6E
:1057C4000EBDF8B5054616460C460C20FFF7DDFF66
:1057D40007460820FFF7D9FFDFB1D0B14460458008
:1057E400B86076B90021CA4C01706069394607F087
:1057F4008DF9A08840F00800A080E06907F0D6F990
:10580400F8BDFFF7D2FF3846FFF7CFFF204600F080
:1058140001F8F8BD0EB501900821ADF800106846F6
:105824000321ADF80210FFF710FC0EBD10B5B84C03
:10583400A06920B1A069FFF7EDFF0020A06104205A
:10584400E080E06907F0B2F910BD00B50820ADF1C1
:10585400140DADF800003821ADF804100020ADF8A7
:10586400020002906846FFF7F0FBA9499DF80C007E
:1058740008700498C86105B000BD38B5A44D002473
:105884002046AC800146AC6107F03CF92861204613
:10589400014607F037F96861FFF7D7FF01F02CF9EB
:1058A40003F028FA38BD7FB50646082014460D4695
:1058B400ADF800000920ADF802006846FFF7C5FB0B
:1058C400BDF8041031809DF80610297002992160FA
:1058D40000907FBDF8B58E4C616A054649B1A07849
:1058E400401E04D0401E04D128468847F8BD2846EF
:1058F4008847284601F048F9071C23D00C20FFF7FD
:1059040044FF061C1BD0FFF701F80546B760387842
:1059140058B92069314607F0F9F8A08840F0100022
:10592400A080E06907F042F905E03046FFF73DFF4B
:105934003846FFF73AFF2846FEF7F5FFF8BD38462C
:10594400FFF733FFF8BD72490978914201D1FFF79F
:10595400C1BF7047B0B5FEF7D9FF864C0546206835
:1059640007F0CCF8071C0DD0B8684068A060B9688F
:105974004868498803F0CDF9B868FFF716FF384640
:10598400FFF713FF2846FEF7CEFFB0BD00B508238E
:10599400ADF1140D03905E49ADF800300A78ADF80E
:1059A400023089898DF804206846ADF8061000217C
:1059B4008DF80810FFF749FB05B000BD10B504468B
:1059C4006068FFF7E3FF2046FFF7EFFE10BD98B5D0
:1059D4004F4C606907F092F8071C15D0216A69B131
:1059E400607858B1401E02D0401E0AD103E0B86866
:1059F400FFF7E4FF216AB868884702E0B868FFF758
:105A0400DDFF3846FFF7D1FE98BDC04614050020DF
:105A14003EB5594C0025A0694FF0FF3107F0CAF894
:105A2400FEF774FFA1882288E388A5801143E580EE
:105A340043EA01026388658043EA02012180FEF79C
:105A440072FF2088010A24BF20F0800020800DF11D
:105A5400020101AA6846FFF726FF20B99DF802203B
:105A64000198FFF770FF2388580915D3E06807F001
:105A740041F820B903F016F908B9FFF76BFFE068A5
:105A840007F038F820B9A06907F090F8238803E0FC
:105A9400238823F01003238098080ED301F0A1F883
:105AA400238804F0A9F9002804BF23F0020323800B
:105AB40003D0A06907F07AF8238818090ED3FFF7FA
:105AC40086FF206907F016F820B9A06907F06EF880
:105AD400238803E0238823F008032380D8089AD37B
:105AE40023F00403E068238007F004F8002892D12F
:105AF400208840F010002080A06907F057F88AE75A
:105B040008B5FFF7BAFEFFF783FF08BDFFF7F8BF3C
:105B14001405002070B51A4C0026DD2140F26222E3
:105B240004F17805ADF1400D2846E66004F036FF37
:105B34003C2208236846314607F018F840F26220F8
:105B44000E4908906A46334607950220069004F1F0
:105B5400280006F0CBFF10B070BD09480949016266
:105B64000221417070470648074941620121817052
:105B74007047C0462405002018050020115B000072
:105B8400140500204D970000A19600002DE9F04F68
:105B9400D14D4FF00108ADF11C0D05F14102059006
:105BA400CB48C2F8CF8F0768002FFCD0CB484438CD
:105BB4000390C0210160C748011D0968890805D206
:105BC4000168D94B090C41F0F00119700021001F44
:105BD400C2F8FF1FD54ED64CC7680190B80E12D23A
:105BE400780E10D3802086F81B024FF6D801A6F851
:105BF4005C1286F80B0205F02DF8A146D9F8CC000A
:105C0400C0F3042004E0A14659F8040CC0F3046076
:105C140006F081FE00EB2770401C162805DA10F10F
:105C24000A0FB8BF6FF0090000E0152000F01F0054
:105C340040F4F850A6F864022868800828BF47F0AA
:105C44004067CD49F80EBD0E80F0010000F0010060
:105C5400086085F0010000F001008860384605F016
:105C640041F900220446154606F070FE00B9454687
:105C74002A46C24D2B68002BFCD0C64800F1080A06
:105C8400CAF81040C5F800800AB106F065FE06F0B7
:105C940017FCC149091F0291496880B24C68009001
:105CA400B74840F2FF3200232C214038A04706F0C9
:105CB40003FE044606F04AFE4FF0000B00B9C3464B
:105CC4002B68002BFCD0CAF81440BBF1000FC5F8B8
:105CD400008001D006F040FE06F0E4FB044606F026
:105CE40035FE4FF0000B00B9C3462B68002BFCD0E7
:105CF400CAF80C40BBF1000FC5F8008001D006F0D3
:105D04002BFE06F09BFC044606F020FE4FF0000B31
:105D140000B9C3462B68002BFCD0CAF80840BBF17D
:105D2400000FC5F8008001D006F016FE059805F0B6
:105D3400A5F8044606F00AFE4FF0000B00B9C3466E
:105D44002B68002BFCD0CAF80440BBF1000FC5F847
:105D5400008001D006F000FE0599084606F056FCC6
:105D6400874C400040F0200084F80901084606F002
:105D740059FC40F0100084F80901084606F010FBB5
:105D8400049006F0E3FD4FF0000B00B9C3462B6806
:105D9400002BFCD00498CAF82000BBF1000FC5F812
:105DA400008001D006F0D8FD0599084606F052FCA3
